:0400000056EF00F0C7
:100008005F82FACF80F0FBCF81F0E1CF82F0E2CFC0
:1000180083F0D9CF84F0DACF85F0F3CF86F0F4CF30
:1000280087F0F6CF88F0F7CF89F0F8CF8AF0F5CFD0
:100038008BF0F2BAF2A403D071EC01F019D0F2B649
:10004800F2A003D0E4EC02F013D0F2AC11D0A3B4C8
:10005800A4A403D086EC2CF00BD0A0B2A1A203D0AC
:10006800A2EC00F005D09DB29EA202D0E7EC01F010
:100078008BC0F5FF8AC0F8FF89C0F7FF88C0F6FF7C
:1000880087C0F4FF86C0F3FF85C0DAFF84C0D9FFBC
:1000980083C0E2FF82C0E1FF81C0FBFF80C0FAFF9E
:1000A8005F92110072EF37F09FBF05D09F5110E1AA
:1000B8009E05D8B00DD09EC0A0F09FC0A1F0A01F93
:1000C800A11FA04BA12BA0C09EF0A1C09FF01200C1
:1000D8009EC09EF09FC09FF01200D00E00018E6F50
:1000E800FF0E8F6F8CC090F08DC091F08E519027CD
:1000F8008F519123915106E10A0E905DD8B002D03C
:10010800010E01D0000E8C6F8D6B120000018C5116
:100118008D118E118F11D8B408D0000E8C1B000ED3
:100128008D1B000E8E1B800E8F1B8CC08CF08DC01B
:100138008DF08EC08EF08FC08FF01200A192DEC2BB
:1001480001F0DFC202F076EC02F00201DC51DD11B1
:10015800D8B4120001D812000500FA6EDC51FD6E09
:10016800DD51FE6EF850FF6EFA501200000E026E5E
:10017800000E016EE9EC02F00101D12B090ED165E8
:100188001200000E0201F66F000EF76F000EF86FF6
:10019800000EF96F000E0101D16F120001EC03F09F
:1001A80098EC3EF08FEC02F0A5EC02F0EFEC2BF0AF
:1001B8009AEC02F05BEC01F0F0EC3FF05AEC02F044
:1001C800F8EC3EF045EC01F012008CC08EF08DC0CA
:1001D8008FF003D000018C4B8D2B8CC0D9FF8DC0C4
:1001E800DAFFDF50D8A4F6D700018E518C5D8C6FF2
:1001F8008F518D598D6F1200000E0101D66F000EC0
:10020800D56F000E0001C86F800E8C6F050E8D6FC4
:10021800000E8F6F000E8E6F020E916F800E906F22
:1002280025EC2AF0120000018D6F080E00018E6F78
:10023800000E8F6FD8908D358F358F6FD8908D3792
:100248008C518F5DD8A002D08C518F5F8E2FF2D742
:100258008F511200648465986082010E0101E16F7C
:10026800000EDB6F000E0E6E750E0D6E000E0F6E1B
:10027800000E106E000E126E000E116E24EC3CF093
:1002880012005D50D8A41200000E606E000E646E5D
:10029800160E626E9F0E666E7B0E646EA584A38436
:1002A80001D0608660A6FDD7010E5D6E1200000EBB
:1002B800B46E440EB36E800EB26EB2CFDEF2B3CF20
:1002C800DFF2A192A0821A0E00018C6F060E8D6FCC
:1002D800C6EC02F0010EB16E1200F294CAC1D7FF4B
:1002E800C9C1D6FF0201D651D711D8B4120001D81E
:1002F80012000500FA6ED651FD6ED751FE6EF85009
:10030800FF6EFA501200026E080E036E000E046EA5
:10031800D89002340434046ED89002360150045C3C
:10032800D8A002D00150045E032EF2D70450120068
:100338008A8009EC03F000EC01F0000E0101D46F93
:10034800000E0001BC6F000EBD6F000EBE6F000EE8
:10035800BF6F07EC03F012008C518E03F3CF90F0BF
:10036800F4CF91F08C518F03F35091278D518E0368
:10037800F350912790C08CF091C08DF01200200EA0
:100388005D6001D0120060B21200CB51D8A41200F7
:100398008FC08CF090C08DF091C08EF0D5EC01F03C
:1003A8001200A394CB51D8A40CD08CC0CBF28DC032
:1003B800CCF28EC0CAF0010E0101DA6F010E000105
:1003C800CB6FA38412009E920201DA51DB11D8B4DC
:1003D800120001D812000500FA6EDA51FD6EDB51E9
:1003E800FE6EF850FF6EFA501200FF0E906FFF0E6F
:1003F800916FFF0E926F7F0E936F90C08CF091C03B
:100408008DF092C08EF093C08FF01200200E5D60C8
:1004180001D0120060B21200620E956F030E966F43
:10042800200E976F4BEC39F00101D76F1200010EC7
:100438000201C427000EC523C623C7230101E151C9
:10044800D8A41200DB2BDB51D8A41200DB69120000
:100458000201FE51FF11D8B4120001D812000500A4
:10046800FA6EFE51FD6EFF51FE6EF850FF6EFA50A7
:100478001200D6CF07F0D7CF08F00850036E075008
:10048800056E03C006F005C001F006C002F01200B8
:10049800FBEC02F0BAEC02F00009D8B4FBD784EC0C
:1004A80002F08CC0D2F28DC0D3F21200000ECC6ED6
:1004B800000ECF6E000ECE6ECECFD8F2CFCFD9F2CF
:1004C8009E90010ECD6E120000018D6F8DC08CF0D4
:1004D80000018C478C47C2508C19830B8C19C26E53
:1004E800C2801200B1A407D0B19002C0B3FF01C00E
:1004F800B2FFB180120002C0B3FF01C0B2FF120008
:10050800C45000018F6F8E6BC3508E258C6F000E08
:100518008F218D6F1200700ED36E000ED26E800E7A
:100528009B6E000EB56ED2BE1200FDD7000EC16ED6
:10053800060EC06E000EC36E000EC46E010EC26EB3
:100548001200000E976E000E906E000E916E120053
:10055800000E8D6F010E8C6FC0EC02F01200000EC1
:100568008D6F000E8C6FC0EC02F01200C2B202D088
:10057800010E1200000E12008CB102D0899E01D02B
:10058800898E12008CC0DCF28DC0DDF212008CC0A6
:10059800D6F28DC0D7F212008CC0FEF28DC0FFF2E9
:1005A800120000018C6F8CC0BCFF120000018C6F20
:1005B8008CC0BBFF12008CC0DAF28DC0DBF21200D7
:1005C80087B42CEC02F0F290120002C0D7FF01C0F1
:1005D800D6FF1200016E01C0BBFF1200286E756CB9
:0305E8006C29007B
:1005EC0007EC03F012000A002000C2821200B19046
:1005FC001200D58E1200D09E12008B8C1200BA8481
:10060C0012008B9C1200BA941200BA9412001200C1
:07061C0012001200120001A0
:1008000000A4487C0509024300020100C03209042B
:10081000000001020201000524001001042402026C
:1008200005240600010524010001070581030A00D3
:100830000209040100020A0000000705020240004C
:10084000000705820240000034034D006900630088
:1008500072006F006300680069007000200054009F
:100860006500630068006E006F006C006F00670039
:100870007900200049006E0063002E00160342003C
:100880006F00620069006E00610064006F0072001A
:1008900061001201000202000008D8040A000001F1
:1008A0000102000104030904252E336620252E339E
:1008B000662025642025642025642000494E464991
:1008C0004E49545900696E66696E697479002563F2
:1008D000200A002573257300494E46004E414E0004
:1008E000696E66006E616E006C6C73006C66000071
:1008F00034513511D8B40BD034C1D9FF35C1DAFF2A
:1009000032C1DEFF33C1DDFF02D0324B332B32C1A7
:10091000D9FF33C1DAFF200EDE18D8A402D0010EB1
:1009200001D0000E406F416B40514111D8A4EDD76A
:10093000F70E366FFF0E376F32C1D9FF33C1DAFFC2
:10094000DF50386F3851406F416B40C139F141C1C0
:100950003AF13651392737513A233A5104E1050E1D
:10096000395DD8A0D2D7000E3D6F2D0E4019411130
:10097000D8A405D0010E3D6F324B332B05D02B0E82
:1009800040194111D8B4F8D7000E466F01D0462B5C
:1009900046513225D96E000E3321DA6EDF50D8B4BD
:1009A00028D046513225D96E000E3321DA6EDF5041
:1009B000366F4651C50F376F37C1F6FF080EF76E19
:1009C0000800F5503619D8B4E2D746513225D96E11
:1009D000000E3321DA6EDF50366F4651BC0F376F91
:1009E00037C1F6FF080EF76E0800F5503619D8B477
:1009F000CED7020E466523D0000E426F000E436F25
:100A0000800E446F7F0E456F34513511D8B4C7EF57
:100A10000AF0080E4619D8B402D0030E466F4651AC
:100A20003225366F000E3321376F34C1D9FF35C1FF
:100A3000DAFF36C1DEFF37C1DDFFC7EF0AF0000E77
:100A4000466F01D0462B46513225D96E000E332118
:100A5000DA6EDF50D8B428D046513225D96E000E58
:100A60003321DA6EDF50366F4651E40F376F37C1EE
:100A7000F6FF080EF76E0800F5503619D8B4E2D725
:100A800046513225D96E000E3321DA6EDF50366FB3
:100A90004651DC0F376F37C1F6FF080EF76E0800BE
:100AA000F5503619D8B4CED7030E4619D8A455D070
:100AB000D20E00018C6FF9EC01F08CC042F18DC0B8
:100AC00043F18EC044F18FC045F10101345135111D
:100AD000D8B4C7EF0AF046513227000E332332C193
:100AE000D9FF33C1DAFF280EDE18D8A42CD0000EAF
:100AF000466F01D0462B46513225D96E000E332168
:100B0000DA6EDF50D8B40AD046513225D96E000EC5
:100B10003321DA6E290EDE18D8A4ECD746513225DF
:100B2000D96E000E3321DA6E290EDE18D8A40BD050
:100B30004651366F376B010E3627000E372336517C
:100B400032273751332334C1D9FF35C1DAFF32C1DF
:100B5000DEFF33C1DDFFC7EF0AF0000E416F000E6C
:100B6000406F000E426F000E436F000E446F000E88
:100B7000456F000E3F6F000E3E6F000E466F01D0B6
:100B8000462B46513225D96E000E3321DA6E300ED7
:100B9000DE18D8B4F5D74651D8B4A3D24651322581
:100BA000D96E000E3321DA6E780EDE18D8B40AD072
:100BB00046513225D96E000E3321DA6E580EDE18FA
:100BC000D8A48FD24651366F376B010E3627000EF0
:100BD00037233651322737513323000E466F01D069
:100BE000462B46513225D96E000E3321DA6E300E77
:100BF000DE18D8B4F5D7000E466F46513225D96EAF
:100C0000000E3321DA6E700EDE18D8B42CD14651A6
:100C10003225D96E000E3321DA6E500EDE18D8B4AC
:100C200022D146513225D96E000E3321DA6E2E0EB6
:100C3000DE18D8A402D03D8915D146513225D96E8F
:100C4000000E3321DA6EDF50366F36510001926F9D
:100C5000936BF6EC3BF092519311D8B461D0000E37
:100C600001013C6FD00E366FFF0E376F46513225B3
:100C7000D96E000E3321DA6EDF50386F396B365182
:100C800038273751392339510DE10A0E385DD8B074
:100C900009D046513225D96E000E3321DA6EDF506D
:100CA000D00F11D046513225D96E000E3321DA6EA5
:100CB000DF50366F36510001926F936B34EC3FF08A
:100CC0009251C90F01013C6F41BF06D0415121E152
:100CD000080E405DD8B01DD040510708366FD8903F
:100CE0003637D89036373CC137F1386B396B3A6BB1
:100CF000362B05D0D8903737383739373A37362F33
:100D0000F9D73751421338514313395144133A51EB
:100D10004513404B412B040E3E27000E3F230AD0C3
:100D2000000E0101326F000E336F000E346F000EA3
:100D3000356F1200462B61D746513225D96E000E11
:100D40003321DA6E700EDE18D8B48FD046513225BA
:100D5000D96E000E3321DA6E500EDE18D8B485D06D
:100D600046513225D96E000E3321DA6E300EDE1870
:100D7000D8A409D040514111D8A405D0FC0E3E277B
:100D8000FF0E3F236ED046513225D96E000E33211F
:100D9000DA6EDF50366F36510001926F936BF6ECCE
:100DA0003BF092519311D8B45CD0000E01013C6F1E
:100DB000D00E366FFF0E376F46513225D96E000EBA
:100DC0003321DA6EDF50386F396B3651382737519F
:100DD000392339510DE10A0E385DD8B009D046519A
:100DE0003225D96E000E3321DA6EDF50D00F11D0CC
:100DF00046513225D96E000E3321DA6EDF50366F40
:100E000036510001926F936B34EC3FF09251C90F51
:100E100001013C6F41BF06D0415121E1080E405D08
:100E2000D8B01DD040510708366FD8903637D890CB
:100E300036373CC137F1386B396B3A6B362B05D0FE
:100E4000D8903737383739373A37362FF9D73751BF
:100E5000421338514313395144133A514513404B0F
:100E6000412B0101462B3DB967D746513225D96E3A
:100E7000000E3321DA6E700EDE18D8B413D046514E
:100E80003225D96E000E3321DA6E500EDE18D8B43A
:100E900009D0000E326F000E336F000E346F000E5B
:100EA000356F1200462B46513225D96E000E332184
:100EB000DA6E2B0EDE18D8B40BD046513225D96E1F
:100EC000000E3321DA6E2D0EDE18D8A402D03D8735
:100ED000462B46513227000E3323000E466F01D0B9
:100EE000462B46513225D96E000E3321DA6E300E74
:100EF000DE18D8B4F5D7000E416F000E406F29D030
:100F00004651D8B40FD040C18CF041C18DF0000ED5
:100F100000018F6F0A0E8E6FB0EC01F08CC040F1B3
:100F20008DC041F1D00E0101366FFF0E376F465173
:100F30003225D96E000E3321DA6EDF50386F396BEF
:100F400036513827375139233851402739514123F9
:100F5000462BD00E366FFF0E376F46513225D96EB5
:100F6000000E3321DA6EDF50386F396B3651382777
:100F700037513923395104E10A0E385DD8A0C0D762
:100F80004651D8A409D0000E326F000E336F000E08
:100F9000346F000E356F12003DA704D0406D411F25
:100FA000D8B0412B40513E2741513F233451351198
:100FB000D8B40ED046513225366F000E3321376F2C
:100FC00034C1D9FF35C1DAFF36C1DEFF37C1DDFFDD
:100FD0004251431144114511D8A409D0000E326F7B
:100FE000000E336F000E346F000E356F1200800E4E
:100FF000426511D0000E4227010E4323000E442308
:10100000000E452308D0D890423743374437453740
:101010003E07D8A03F0745AFF6D73FAF12D0830EAB
:101020003E5DFF0E3F59D8B00CD0FF0E3F6F810ED2
:101030003E6F000E426F000E436F000E446F000EB5
:10104000456F810E3E1903E13F29D8B408D0D890EE
:1010500042374337443745373E07D8A03F073FBFA5
:1010600012D03F5104E1800E3E5DD8A00CD0000E9E
:10107000426F000E436F000E446F000E456F000E6E
:101080003F6F800E3E6F090E366FD8904533443364
:1010900043334233362FF9D7FF0E4217FF0E431763
:1010A0007F0E4417000E45177F0E3E25366F000E4B
:1010B0003F21376FFF0E3615386F396B3A6B3B6B3C
:1010C000170ED890383739373A373B37E82EF9D7EB
:1010D00038514213395143133A5144133B5145138C
:1010E00056D23DB90AD032C1D9FF33C1DAFF2E0E34
:1010F000DE18D8A402D03D8951D0D00E366FFF0E35
:10110000376F32C1D9FF33C1DAFFDF50386F396B27
:101110003651382737513923395143E10A0E385DAA
:10112000D8B03FD03D83090E40194111D8B432D018
:101130003DA903D03E07D8A03F07404B412B42C1F9
:101140008CF043C18DF044C18EF045C18FF00A0E82
:101150000001906F000E916F000E926F000E936F62
:10116000ACEC3CF08CC042F18DC043F18EC044F138
:101170008FC045F132C1D9FF33C1DAFFDF50010121
:10118000366FD00E362736514227000E43234423B4
:10119000452304D03DB902D03E4B3F2B324B332B7D
:1011A000A0D7000E416F000E406F32C1D9FF33C18E
:1011B000DAFF650EDE18D8B408D032C1D9FF33C1CA
:1011C000DAFF450EDE18D8A4AED0324B332B32C135
:1011D000D9FF33C1DAFF2D0EDE18D8A402D03D8727
:1011E00008D032C1D9FF33C1DAFF2B0EDE18D8A4E4
:1011F00002D0324B332B32C1D9FF33C1DAFF300E6C
:10120000DE18D8B4F6D7D00E366FFF0E376F32C166
:10121000D9FF33C1DAFFDF50386F396B36513827C9
:1012200037513923395179E10A0E385DD8B075D07C
:1012300032C1D9FF33C1DAFFDF50366FD00E362707
:101240003651406F416B324B332BD00E366FFF0E51
:10125000376F32C1D9FF33C1DAFFDF50386F396BD6
:101260003651382737513923395157E10A0E385D45
:10127000D8B053D032C1D9FF33C1DAFFDF50366F57
:10128000D00E362740C18CF041C18DF0000E000118
:101290008F6F0A0E8E6FB0EC01F001013651000124
:1012A0008C250101406F000E00018D210101416F6D
:1012B000324B332BD00E366FFF0E376F32C1D9FF52
:1012C00033C1DAFFDF50386F396B36513827375169
:1012D0003923395122E10A0E385DD8B01ED032C10F
:1012E000D9FF33C1DAFFDF50366FD00E362740C149
:1012F0008CF041C18DF0000E00018F6F0A0E8E6FD1
:10130000B0EC01F00101365100018C250101406F64
:10131000000E00018D210101416F3DA704D0406DF9
:10132000411FD8B0412B40513E2741513F233451FA
:101330003511D8A43DA308D034C1D9FF35C1DAFF97
:1013400032C1DEFF33C1DDFF42C18CF043C18DF0FD
:1013500044C18EF045C18FF0000EAAEC27F08CC07E
:1013600042F18DC043F18EC044F18FC045F142C1BE
:101370008CF043C18DF044C18EF045C18FF0000E5A
:10138000906F000E916F000E926F000E936F6EECD7
:101390003AF0D8A00AD0000E0101326F000E336F70
:1013A000000E346F000E356F120001013FAF75D093
:1013B0003E6D3F1FD8B03F2B1ED042C10DF143C13F
:1013C0000EF144C10FF145C110F1F90E116F020E7B
:1013D000126F150E136F500E146F25EC1CF00DC11B
:1013E00042F10EC143F10FC144F110C145F1F60EB7
:1013F0003E27FF0E3F233FBF24D03F51DEE10A0EC0
:101400003E5DD8A01ED0D9D742C10DF143C10EF127
:1014100044C10FF145C110F1000E116F000E126FA3
:10142000200E136F410E146F25EC1CF00DC142F11C
:101430000EC143F10FC144F110C145F13E07D8A0E0
:101440003F073E513F11D8A4DFD742C126F143C127
:1014500027F144C128F145C129F1000E2A6F000E81
:101460002B6F800E2C6F000E2D6FE4EC32F0D8B095
:101470008ED03DA109D0000E326F000E336F800E6A
:10148000346F800E356F1200000E326F000E336F16
:10149000800E346F000E356F12003FBF78D03F5181
:1014A00024E13E05D8B021D072D042C19AF043C1A8
:1014B0009BF044C19CF045C19DF0F90E00019E6F68
:1014C000020E9F6F150EA06F500EA16FD0EC12F0A0
:1014D0009AC042F19BC043F19CC044F19DC045F1CC
:1014E0000101F60E3E27FF0E3F233F51DEE10A0EBB
:1014F0003E5DD8A020D0D9D742C19AF043C19BF01D
:1015000044C19CF045C19DF0000E00019E6F000E8D
:101510009F6F200EA06F410EA16FD0EC12F09AC009
:1015200042F19BC043F19CC044F19DC045F10101D3
:101530003E07D8A03F073E513F11D8A4DDD7FF0E8C
:10154000266FFF0E276F7F0E286F7F0E296F42C117
:101550002AF143C12BF144C12CF145C12DF1E4EC3A
:1015600032F0D8B014D03DA109D0000E326F000E79
:10157000336F800E346F800E356F1200000E326FA5
:10158000000E336F800E346F000E356F12003DA1D8
:1015900012D042C18CF043C18DF044C18EF045C1E0
:1015A0008FF08AEC00F08CC042F18DC043F18EC008
:1015B00044F18FC045F142C132F143C133F144C11E
:1015C00034F145C135F11200000E5B6F000E5A6F09
:1015D0003CC16CF13DC16DF13EC16EF13FC16FF197
:1015E0006FAF16D0000E5B6F010E5A6F6CC18CF09E
:1015F0006DC18DF06EC18EF06FC18FF08AEC00F07E
:101600008CC06CF18DC06DF18EC06EF18FC06FF12A
:10161000000E0101736F000E726FC0C05EF1C1C099
:101620005FF15A515B11D8A403D00001C4A514D0B6
:1016300001015A515B11D8A404D0000E476F2B0E44
:1016400003D0000E476F2D0E466F46C112F3724B4A
:10165000732B5E07D8A05F076CC18CF06DC18DF055
:101660006EC18EF06FC18FF01EEC34F08C058D11C1
:10167000D8A44ED0BF0E0101416FFF0E426F405102
:10168000436F446B4151432742514423445116E177
:101690001A0E435DD8B012D0120E722500018C6F65
:1016A000030E0101732100018D6FD80E8E6F8E51D4
:1016B000D8A4080E8F6FD7EC3CF011D0120E722513
:1016C00000018C6F030E0101732100018D6FE00E8C
:1016D0008E6F8E51D8A4080E8F6FD7EC3CF00101AD
:1016E000FD0E5E27FF0E5F233AC19CF03BC19DF0CB
:1016F000120E00019E6F030E9F6F5EC1A0F05FC1CE
:10170000A1F0B5EC38F09CC03AF19DC03BF112005D
:101710006CC18CF06DC18DF06EC18EF06FC18FF019
:101720001EEC34F08C518D11D8A44ED0BF0E0101A7
:10173000416FFF0E426F4051436F446B415143274D
:1017400042514423445116E11A0E435DD8B012D0E1
:10175000120E722500018C6F030E0101732100012E
:101760008D6FDC0E8E6F8E51D8A4080E8F6FD7EC64
:101770003CF011D0120E722500018C6F030E010196
:10178000732100018D6FE40E8E6F8E51D8A4080E68
:101790008F6FD7EC3CF00101FD0E5E27FF0E5F233B
:1017A0003AC19CF03BC19DF0120E00019E6F030EEA
:1017B0009F6F5EC1A0F05FC1A1F0B5EC38F09CC096
:1017C0003AF19DC03BF11200000E0101746F000E52
:1017D000756F800E766F3F0E776F000E716F000E83
:1017E000706F6CC18CF06DC18DF06EC18EF06FC1E9
:1017F0008FF0000E0001906F000E916F000E926F3F
:10180000000E936F6EEC3AF0D8A01FD077D074C161
:101810009AF075C19BF076C19CF077C19DF0000EE7
:1018200000019E6F000E9F6F200EA06F410EA16FF2
:10183000D0EC12F09AC074F19BC075F19CC076F1A7
:101840009DC077F10101704B712B6CC126F16DC108
:1018500027F16EC128F16FC129F1000E00019E6FC2
:10186000000E9F6F200EA06F410EA16F74C19AF001
:1018700075C19BF076C19CF077C19DF0D0EC12F061
:101880009AC02AF19BC02BF19CC02CF19DC02DF178
:10189000E4EC32F0D8A01ED0BAD774C10DF175C1F6
:1018A0000EF176C10FF177C110F1000E116F000E2D
:1018B000126F200E136F410E146F25EC1CF00DC13A
:1018C00074F10EC175F10FC176F110C177F1700797
:1018D000D8A071076CC126F16DC127F16EC128F146
:1018E0006FC129F174C12AF175C12BF176C12CF1B8
:1018F00077C12DF1E4EC32F0D8A0CFD740C192F0FF
:101900000001936B17EC3FF092510101616F61C1CF
:1019100060F1670E6119D8A41BD00001C251C31138
:10192000D8A404D0000EC36F010EC26FC3BF05D090
:10193000C35109E1C205D8B006D0000E01015D6FA8
:10194000060E5C6F09D0C2C05CF1C3C05DF104D06B
:101950000001C3AFF8D7F1D7670E01016119D8A410
:1019600022D071AF06D0FC0E705DFF0E7159D8A069
:1019700018D0FF0E416FFF0E426F5CC143F15DC195
:1019800044F141514327425144237051435D445136
:10199000800A456F7151800A4559D8A002D0660E61
:1019A00001D0650E606F5CC152F15DC153F1670EED
:1019B0006119D8A405D0660E6019D8B471AF02D0F1
:1019C000524B532B660E6019D8A416D071AF0CD0B1
:1019D000000E746F000E756F800E766F3F0E776F7E
:1019E000000E716F000E706F670E6119D8B404D0CD
:1019F0007051522771515323000E6B6F000E6A6FA6
:101A00006CC162F16DC163F16EC164F16FC165F1CA
:101A100074C154F175C155F176C156F177C157F1D2
:101A20007BD062C10DF163C10EF164C10FF165C1DC
:101A300010F174C111F175C112F176C113F177C1C2
:101A400014F125EC1CF00DC126F10EC127F10FC1D8
:101A500028F110C129F189EC25F026C166F127C1D2
:101A600067F128C168F129C169F166C126F167C132
:101A700027F168C128F169C129F17BEC32F026C158
:101A800058F127C159F162C10DF163C10EF164C172
:101A90000FF165C110F174C19EF075C19FF076C160
:101AA000A0F077C1A1F066C19AF067C19BF068C150
:101AB0009CF069C19DF0D0EC12F09AC011F19BC06E
:101AC00012F19CC013F19DC014F1ECEC3DF00DC17E
:101AD00062F10EC163F10FC164F110C165F174C10F
:101AE0000DF175C10EF176C10FF177C110F1000E45
:101AF0000101116F000E126F200E136F410E146F53
:101B000025EC1CF00DC174F10EC175F10FC176F119
:101B100010C177F16A4B6B2B52516A5D6B51800A91
:101B2000416F5351800A4159D8A07BD774C19AF0B4
:101B300075C19BF076C19CF077C19DF0000E00014D
:101B40009E6F000E9F6FA00EA06F400EA16FD0EC95
:101B500012F09AC066F19BC067F19CC068F19DC00D
:101B600069F162C126F163C127F164C128F165C141
:101B700029F166C12AF167C12BF168C12CF169C155
:101B80002DF1E4EC32F0D8A017D062C18CF063C123
:101B90008DF064C18EF065C18FF066C190F067C1B1
:101BA00091F068C192F069C193F06EEC3AF0D8A060
:101BB0000BD0010158B108D0000E666F000E676FA0
:101BC000000E686F000E696F6CC18CF06DC18DF0F6
:101BD0006EC18EF06FC18FF066C190F067C191F059
:101BE00068C192F069C193F03EEC16F08CC062F1CE
:101BF0008DC063F18EC064F18FC065F162C126F1C2
:101C000063C127F164C128F165C129F1000E9E6FFF
:101C1000000E9F6F200EA06F410EA16F54C19AF06D
:101C200055C19BF056C19CF057C19DF0D0EC12F00D
:101C30009AC02AF19BC02BF19CC02CF19DC02DF1C4
:101C4000E4EC32F0D8A024D0704B712B54C19AF040
:101C500055C19BF056C19CF057C19DF0000E00018C
:101C60009E6F000E9F6F200EA06F410EA16FD0ECF3
:101C700012F09AC054F19BC055F19CC056F19DC022
:101C800057F1660E01016019D8A402D0524B532BB4
:101C900054C174F155C175F156C176F157C177F150
:101CA000650E6019D8B405D070C150F171C151F101
:101CB00004D0000E516F000E506F000E4F6F000EDB
:101CC0004E6F000E4D6F000E4C6F000E6B6F000ECE
:101CD0006A6FC8D062C10DF163C10EF164C10FF12A
:101CE00065C110F174C111F175C112F176C113F122
:101CF00077C114F125EC1CF00DC126F10EC127F1BE
:101D00000FC128F110C129F189EC25F026C166F137
:101D100027C167F128C168F129C169F166C126F1BF
:101D200067C127F168C128F169C129F17BEC32F064
:101D300026C158F127C159F10001C4B90DD00101E4
:101D400058515911D8A408D0670E6119D8B451AFB1
:101D500003D04C4B4D2B3AD001014E514F11D8B40A
:101D600051AF22D0120E7225D96E030E7321DA6E96
:101D70002E0EDF6E724B732B5E07D8A05F07000E2E
:101D80004F6F010E4E6F10D0120E7225D96E030EDA
:101D90007321DA6E300EDF6E724B732B5E07D8A0A4
:101DA0005F074C07D8A04D074C514D11D8A4ECD774
:101DB000120E7225D96E030E7321DA6E5851300F50
:101DC000DF6E724B732B5E07D8A05F0762C10DF107
:101DD00063C10EF164C10FF165C110F174C19EF0D1
:101DE00075C19FF076C1A0F077C1A1F066C19AF0ED
:101DF00067C19BF068C19CF069C19DF0D0EC12F006
:101E00009AC011F19BC012F19CC013F19DC014F156
:101E1000ECEC3DF00DC162F10EC163F10FC164F154
:101E200010C165F174C10DF175C10EF176C10FF1EC
:101E300077C110F1000E0101116F000E126F200E1C
:101E4000136F410E146F25EC1CF00DC174F10EC11F
:101E500075F10FC176F110C177F15007D8A0510785
:101E60006A4B6B2B52516A5D6B51800A416F535123
:101E7000800A4159D8B008D073BF2CD7735104E100
:101E80004B0E725DD8A026D74E514F11D8A40ED05C
:101E90000001C4A90BD0120E01017225D96E030EE8
:101EA0007321DA6E2E0EDF6E724B732B120E010150
:101EB0007225D96E030E7321DA6E000EDF6E650E89
:101EC0006019D8A4ACD0000E6B6F4F0E6A6F120E63
:101ED0006A25D96E030E6B21DA6E000EDF6E000EDE
:101EE0005B6F000E5A6F71AF08D0000E5B6F010E72
:101EF0005A6F706D711FD8B0712B000E5D6F020E9E
:101F00005C6F2CD06A07D8A06B07120E6A25D96EB9
:101F1000030E6B21DA6E70C18CF071C18DF0000E72
:101F200000018F6F0A0E8E6FF6EC3AF08C51300F75
:101F3000DF6E70C18CF071C18DF0000E8F6F0A0ED4
:101F40008E6FB4EC3AF08CC070F18DC071F101016C
:101F50005C07D8A05D075E07D8A05F0770517111BC
:101F6000D8A4D0D75DBF05D05D51CCE15C05D8B019
:101F7000C9D76A07D8A06B075A515B11D8A404D0FF
:101F8000000E496F2B0E03D0000E496F2D0E486FC7
:101F9000120E6A25D96E030E6B21DA6E48C1DFFF7F
:101FA0005E07D8A05F076A07D8A06B07BF0E416F16
:101FB000FF0E426F4051436F446B415143274251E2
:101FC0004423445104E11A0E435DD8A004D0000E0E
:101FD0004B6F650E03D0000E4B6F450E4A6F120E0D
:101FE0006A25D96E030E6B21DA6E4AC1DFFF5E07E8
:101FF000D8A05F07120E722500018C6F030E01013D
:10200000732100018D6F120E01016A2500018E6F90
:10201000030E01016B2100018F6FD7EC3CF03AC138
:102020009CF03BC19DF0120E00019E6F030E9F6F4E
:102030005EC1A0F05FC1A1F0B5EC38F09CC03AF1F0
:102040009DC03BF112007AC1D9FF7BC1DAFFDFCF1F
:10205000F6FF080EF76E0800F550250AD8A487D2BF
:102060007AC1D9FF7BC1DAFFDF2A000E0001C16F00
:10207000000EC06FC0C0C4F0C1C0C5F0C269C36962
:102080007AC1D9FF7BC1DAFFDFCFF6FF080EF76E0A
:102090000800F5502E0AD8A45DD0000EC36F000EC4
:1020A000C26F7AC1D9FF7BC1DAFFDF2A7AC1D9FFBB
:1020B0007BC1DAFFDFCFF6FF080EF76E0800F550A0
:1020C0002A0AD8A41AD07AC1D9FF7BC1DAFFDF2A45
:1020D0007CC1D9FF7DC1DAFFDFCF7EF1020EDE26A3
:1020E000DFCF7FF1000EDD227EC1D9FF7FC1DAFF95
:1020F000DECFC2F0DDCFC3F02DD07AC1D9FF7BC1D6
:10210000DAFFDF50936F3DEC2EF093C0C2F094C025
:10211000C3F005D07AC1D9FF7BC1DAFFDF2AD00E28
:1021200001017E6FFF0E7F6F7AC1D9FF7BC1DAFF9D
:10213000DFCFF6FF080EF76E0800F550806F816B59
:102140007E5180277F518123815104E10A0E805DF9
:10215000D8A0E0D77AC1D9FF7BC1DAFFDFCFF6FF85
:10216000080EF76E0800F5500001926F936B17ECA4
:102170003FF092510101926F9251D8B42FD07AC1A1
:10218000D9FF7BC1DAFFDF507E6F010E7E277EC153
:10219000F6FF080EF76E0800F5500001926F936B82
:1021A00017EC3FF092510101936F9351D8B416D0C0
:1021B0007AC1D9FF7BC1DAFFDF507E6F020E7E2726
:1021C0007EC1F6FF080EF76E0800F5500001926F11
:1021D000936B17EC3FF092510101946F7AC1D9FFD4
:1021E0007BC1DAFFDFCFF6FF080EF76E0800F5506F
:1021F000630AD8A424D07AC1D9FF7BC1DAFFDF2AD1
:102200007CC1D9FF7DC1DAFFDFCF7EF1020EDE2671
:10221000DFCF7FF1000EDD227EC1D9FF7FC1DAFF63
:10222000DF50956F78C195F079C196F095C197F020
:1022300067EC38F095C078F196C079F112007AC158
:10224000D9FF7BC1DAFFDFCFF6FF080EF76E08007B
:10225000F550640AD8B40DD07AC1D9FF7BC1DAFF3A
:10226000DFCFF6FF080EF76E0800F550690AD8A414
:102270003DD07AC1D9FF7BC1DAFFDF2A7CC1D9FF0B
:102280007DC1DAFFDFCF7EF1020EDE26DFCF7FF1E8
:10229000000EDD227EC1D9FF7FC1DAFFDECF82F1E1
:1022A000DDCF83F1000E83BFFF0E846F856F866FD5
:1022B000876F886F896F78C100F179C101F182C1A0
:1022C00002F183C103F184C104F185C105F186C126
:1022D00006F187C107F188C108F189C109F1AEECA7
:1022E0001EF000C178F101C179F11200660E921959
:1022F000D8A43DD07AC1D9FF7BC1DAFFDFCFF6FF8A
:10230000080EF76E0800F5CF95F17AC1D9FF7BC1B1
:10231000DAFFDF2A7CC1D9FF7DC1DAFFDFCF7EF192
:10232000040EDE26DFCF7FF1000EDD227EC1D9FF55
:102330007FC1DAFFDECF8EF1DECF8FF1DECF90F1FD
:10234000DECF91F178C13AF179C13BF18EC13CF118
:102350008FC13DF190C13EF191C13FF195C140F176
:10236000E4EC0AF03AC178F13BC179F11200920E27
:1023700000018C6F010E8D6FEC0E8E6F000E906F52
:10238000020E8F6FBDEC30F08C518D11D8A45BD054
:102390007AC1D9FF7BC1DAFFDF5001017E6F010EE8
:1023A0007E277EC1F6FF080EF76E0800F5CF95F187
:1023B000BF0E7E6FFF0E7F6F7AC1D9FF7BC1DAFF40
:1023C000DFCFF6FF080EF76E0800F550806F816BC7
:1023D0007E5180277F518123815102E11A0E805D59
:1023E0007CC1D9FF7DC1DAFFDFCF7EF1040EDE268E
:1023F000DFCF7FF1000EDD227EC1D9FF7FC1DAFF82
:10240000DECF8EF1DECF8FF1DECF90F1DECF91F116
:102410007AC1D9FF7BC1DAFF020EDF2678C13AF11B
:1024200079C13BF18EC13CF18FC13DF190C13EF1CC
:1024300091C13FF195C140F1E4EC0AF03AC178F165
:102440003BC179F112007AC1D9FF7BC1DAFFDFCF3E
:10245000F6FF080EF76E0800F550730AD8B41AD0CC
:102460007AC1D9FF7BC1DAFFDF5001017E6F7EC1E7
:102470008CF000018C51D8A4080E8D6FE80E8E6F81
:10248000000E906F030E8F6FBDEC30F08C518D11EC
:10249000D8A440D07AC1D9FF7BC1DAFFDFCFF6FFE5
:1024A000080EF76E0800F550730AD8B405D0000E78
:1024B00001018D6F030E04D0000E01018D6F010E1E
:1024C0008C6F7AC1D9FF7BC1DAFF8C51DF267CC1CA
:1024D000D9FF7DC1DAFFDFCF7EF1020EDE26DFCF2E
:1024E0007FF1000EDD227EC1D9FF7FC1DAFFDECF92
:1024F0008AF1DDCF8BF178C195F079C196F08AC170
:1025000097F08BC198F05EEC26F095C078F196C0FC
:1025100079F112007AC1D9FF7BC1DAFFDFCFF6FF74
:10252000080EF76E0800F550250AD8A415D07AC118
:10253000D9FF7BC1DAFFDF2A000E8D6F250E8C6F6D
:1025400078C18EF079C18FF0C8EC37F0000E010130
:10255000796F010E786F12007AC1D9FF7BC1DAFF63
:10256000DF2A000E0101796F000E786F12007AC128
:10257000D9FF7BC1DAFFDFCFF6FF080EF76E080048
:10258000F55000018C6F8D6B78C18EF079C18FF0A2
:10259000C8EC37F07AC1D9FF7BC1DAFFDF2AD6D782
:1025A00000019D51800B0101006F00019D519D258F
:1025B0000101026F00019CAF02D001010281010103
:1025C0000251D8B40FD00229D8A409D0000E0001BE
:1025D0009A6F000E9B6F000E9C6F000E9D6F0001A6
:1025E0009C8F09D0000E00019A6F000E9B6F000EA9
:1025F0009C6F000E9D6FA151800B0101001B00011B
:10260000A151A1250101016F0001A0AF02D001017C
:10261000018101010151D8B40FD00129D8A409D0FA
:10262000000E00019E6F000E9F6F000EA06F000E47
:10263000A16F0001A08F09D0000E00019E6F000E57
:102640009F6F000EA06F000EA16F01010151D8B461
:1026500003D00251D8A40AD0000E00019A6F000ED8
:102660009B6F000E9C6F000E9D6F12000001A05129
:102670009A03F3CF0BF1F4CF0CF101010B51036F6F
:10268000046B056B066B0C51076F086B096B0A6BCB
:1026900000019F519B03F3CF0BF1F4CF0CF101012B
:1026A0000B510327000E0423052306230C51072793
:1026B000000E082309230A2300019E519C03F3CF37
:1026C0000BF1F4CF0CF101010B510327000E042391
:1026D000052306230C510727000E082309230A238C
:1026E00005C106F104C105F103C104F1036B00014A
:1026F0009E519B03F3CF0BF1F4CF0CF101010B5171
:1027000003270C510423000E0523000E06230001AD
:102710009F519A03F3CF0BF1F4CF0CF101010B5150
:1027200003270C510423000E0523000E062305C1C8
:1027300006F104C105F103C104F1036B00019E51D0
:102740009A03F3CF0BF1F4CF0CF101010B510327E6
:102750000C510423000E0523000E06230001A05196
:102760009B03F3CF0BF1F4CF0CF101010B510727C1
:102770000C510823000E0923000E0A2300019F516B
:102780009C03F3CF0BF1F4CF0CF101010B510727A0
:102790000C510823000E0923000E0A230001A0514A
:1027A0009C03F3CF0BF1F4CF0CF101010B510001AD
:1027B000A26F01010C510001A36FA46BA56BA4C013
:1027C000A5F0A3C0A4F0A2C0A3F0A26BA251010186
:1027D00007270001A351010108230001A4510101B1
:1027E00009230001A55101010A2306510727000E04
:1027F000082309230A2305C106F104C105F103C119
:1028000004F1036B015102C1A2F00001A36BA227E6
:10281000000EA323820EA22501010B6FFF0E000103
:10282000A32101010C6F0FD0D89007370837093763
:102830000A3706BF0781D8900337043705370637B4
:102840000B07D8A00C0709AFEFD7000E016F06AF3A
:1028500020D0FF0E03150001A26FFF0E0101041529
:102860000001A36FFF0E010105150001A46F7F0E8B
:10287000010106150001A56FA251A311A411A51114
:10288000D8B404D0010E0101016F03D0010107B1DA
:10289000F9D70151D8B421D0010E0727000E082323
:1028A00009230A230AA119D007C1A2F008C1A3F085
:1028B00009C1A4F00AC1A5F00001A535A533A433D0
:1028C000A333A233A2C007F1A3C008F1A4C009F149
:1028D000A5C00AF101010B4B0C2B0CBF0DD00C5104
:1028E00003E10B29D8A008D0000E076F000E086F77
:1028F000800E096F7F0E20D00CBF05D00C510EE169
:102900000B05D8B00BD0000E076F000E086F000E3D
:10291000096F000E0A6F000E006F0FD00BC102F19D
:10292000FF0E0717FF0E08177F0E0917000E0A1774
:1029300002B1098FD89002310A6F00510A1307C102
:102940009AF008C19BF009C19CF00AC19DF01200E9
:102950002B50800B346E2B502B243A6E2ABE3A80BB
:102960003A50D8B40DD03A28D8A408D0000E286E1A
:10297000000E296E000E2A6E000E2B6E2A8E08D0D5
:10298000000E286E000E296E000E2A6E000E2B6EB1
:102990002F50800B341A2F502F24356E2EBE3580C9
:1029A0003550D8B40DD03528D8A408D0000E2C6EE0
:1029B000000E2D6E000E2E6E000E2F6E2E8E08D085
:1029C000000E2C6E000E2D6E000E2E6E000E2F6E61
:1029D0003550D8B403D03A50D8A409D0000E286E90
:1029E000000E296E000E2A6E000E2B6E12002E5065
:1029F0002802F3CF3FF0F4CF40F03F50366E376AF5
:102A0000386A396A40503B6E3C6A3D6A3E6A2D50D6
:102A10002902F3CF3FF0F4CF40F03F503626000EAE
:102A200037223822392240503B26000E3C223D22DC
:102A30003E222C502A02F3CF3FF0F4CF40F03F501B
:102A40003626000E37223822392240503B26000E0F
:102A50003C223D223E2238C039F037C038F036C023
:102A600037F0366A2C502902F3CF3FF0F4CF40F014
:102A70003F50362640503722000E3822000E3922B1
:102A80002D502802F3CF3FF0F4CF40F03F503626D0
:102A900040503722000E3822000E392238C039F05B
:102AA00037C038F036C037F0366A2C502802F3CFE2
:102AB0003FF0F4CF40F03F50362640503722000E12
:102AC0003822000E39222E502902F3CF3FF0F4CFE6
:102AD00040F03F503B2640503C22000E3D22000E6D
:102AE0003E222D502A02F3CF3FF0F4CF40F03F506A
:102AF0003B2640503C22000E3D22000E3E222E502E
:102B00002A02F3CF3FF0F4CF40F03F50306E4050F8
:102B1000316E326A336A32C033F031C032F030C0C5
:102B200031F0306A30503B2631503C2232503D2249
:102B300033503E2239503B26000E3C223D223E229D
:102B400038C039F037C038F036C037F0366A355003
:102B50003AC030F0316A3026000E3122820E302425
:102B60003F6EFF0E3120406E0FD0D8903B363C3682
:102B70003D363E3639BE3B80D8903636373638360D
:102B800039363F06D8A040063DAEEFD7000E356E71
:102B900039AE17D0FF0E3614306EFF0E3714316E7B
:102BA000FF0E3814326E7F0E3914336E30503110F0
:102BB00032103310D8B403D0010E356E02D03BB0C2
:102BC000FBD73550D8B41FD0010E3B26000E3C2257
:102BD0003D223E223EA017D03BC030F03CC031F039
:102BE0003DC032F03EC033F0333433323232313212
:102BF000303230C03BF031C03CF032C03DF033C029
:102C00003EF03F4A402A40BE0DD0405003E13F28ED
:102C1000D8A008D0000E3B6E000E3C6E800E3D6EBC
:102C20007F0E20D040BE05D040500EE13F04D8B00A
:102C30000BD0000E3B6E000E3C6E000E3D6E000E83
:102C40003E6E000E346E0FD03FC03AF0FF0E3B16C2
:102C5000FF0E3C167F0E3D16000E3E163AB03D8E1E
:102C6000D8903A303E6E34503E123BC028F03CC003
:102C700029F03DC02AF03EC02BF0120000018F5118
:102C8000800B986F8F518F259A6F8EBF9A819A51C2
:102C9000D8B40DD09A29D8A408D0000E8C6F000E9D
:102CA0008D6F000E8E6F000E8F6F8E8F06D0000E10
:102CB0008C6F000E8D6F000E8E6F000E8F6F935114
:102CC000800B996F98519919D8A4988D9351932599
:102CD000996F92BF99819951D8B40DD09929D8A4F0
:102CE00008D0000E906F000E916F000E926F000ED4
:102CF000936F928F06D0000E906F000E916F000EB2
:102D0000926F000E936F9A51995DD8B022D098AD12
:102D100002D0800E981B9AC09BF099C09AF09BC07D
:102D200099F08CC09BF090C08CF09BC090F08DC04F
:102D30009BF091C08DF09BC091F08EC09BF092C033
:102D40008EF09BC092F08FC09BF093C08FF09BC021
:102D500093F0000E9B6F9A5199C094F0956B945F1D
:102D6000000E955B95BF2CD0955104E11A0E945D31
:102D7000D8A026D08C518D118E118F11D8B402D0CD
:102D8000010E01D0000E9B6F000E8C6F000E8D6F38
:102D9000000E8E6F000E8F6F99C09AF015D09BA118
:102DA00005D0D8909B3101099B6F02D0D8909B33FE
:102DB0008CB19B8F8F358F338E338D338C339A2B21
:102DC00099519A5DD8A0EBD798BD28D09A51D8A434
:102DD00009D0000E8C6F000E8D6F000E8E6F000EEE
:102DE0008F6F120090518C2791518D2392518E2319
:102DF00093518F238FA171D09BA105D0D8909B3187
:102E000001099B6F02D0D8909B338CB19B8F8F357B
:102E10008F338E338D338C339A2B5FD090518C5DF2
:102E200091518D5992518E598F51800A946F9351BF
:102E3000800A9459D8B025D08C51905D946F8D51F3
:102E40009159956F8E519259966F8F519359976FF3
:102E5000FF0E94258C6FFF0E95218D6FFF0E96212E
:102E60008E6FFF0E97218F6F800E981B9B6D9B516D
:102E7000D8A40FD0010E8C27000E8D238E238F2314
:102E800008D090518C5F91518D5B92518E5B935124
:102E90008F5B8C518D118E118F11D8A41CD09B513A
:102EA000D8A419D0000E8C6F000E8D6F000E8E6F9F
:102EB000000E8F6F1200D8908C378D378E378F377A
:102EC0009BBF8C819BA102D0D88001D0D8909B372A
:102ED0009A51D8A49A078EAFEED7000E996F9BAF88
:102EE0000BD09BC094F07F0E9417D8B403D0010E82
:102EF000996F02D08CB1FBD79951D8B420D0010E74
:102F00008C27000E8D238E238F238FA118D08CC089
:102F100094F08DC095F08EC096F08FC097F09735E5
:102F2000973396339533943394C08CF095C08DF0DD
:102F300096C08EF097C08FF09A29D8A49A2B9A2920
:102F4000D8B403D09A51D8A40DD0000E8C6F000EC7
:102F50008D6F000E8E6F000E8F6F9A51D8A402D025
:102F6000000E986F9AA102D08E8F01D08E9FD890BC
:102F70009A318F6F98BF8F8F8CC08CF08DC08DF081
:102F80008EC08EF08FC08FF012004450800B4D6EBB
:102F9000445044244F6E43BE4F804F50D8B40DD0A0
:102FA0004F28D8A408D0000E416E000E426E000ECD
:102FB000436E000E446E438E06D0000E416E000E2E
:102FC000426E000E436E000E446E4850800B4E6EF3
:102FD0004D504E18D8A44D8C485048244E6E47BED4
:102FE0004E804E50D8B40DD04E28D8A408D0000E34
:102FF000456E000E466E000E476E000E486E478E00
:1030000006D0000E456E000E466E000E476E000E96
:10301000486E4F504E5CD8B022D04DAC02D0800EDE
:103020004D1A4FC050F04EC04FF050C04EF041C04E
:1030300050F045C041F050C045F042C050F046C08D
:1030400042F050C046F043C050F047C043F050C07B
:1030500047F044C050F048C044F050C048F0000E63
:10306000506E4F504EC049F04A6A495E000E4A5AAF
:103070004ABE2CD04A5004E11A0E495CD8A026D092
:103080004150421043104410D8B402D0010E01D078
:10309000000E506E000E416E000E426E000E436E2A
:1030A000000E446E4EC04FF015D050A005D0D89001
:1030B00050300109506E02D0D890503241B0508E3D
:1030C000443444324332423241324F2A4E504F5CF4
:1030D000D8A0EBD74DBC28D04F50D8A409D0000EB3
:1030E000416E000E426E000E436E000E446E1200E2
:1030F00045504126465042224750432248504422E0
:1031000044A071D050A005D0D89050300109506E25
:1031100002D0D890503241B0508E443444324332C1
:10312000423241324F2A5FD04550415C46504258AE
:10313000475043584450800A496E4850800A4958C5
:10314000D8B025D04150455C496E425046584A6E31
:10315000435047584B6E445048584C6EFF0E49241C
:10316000416EFF0E4A20426EFF0E4B20436EFF0E53
:103170004C20446E800E4D1A506C5050D8A40FD085
:10318000010E4126000E42224322442208D045501F
:10319000415E4650425A4750435A4850445A415063
:1031A000421043104410D8A41CD05050D8A419D0B9
:1031B000000E416E000E426E000E436E000E446E15
:1031C0001200D890413642364336443650BE4180D4
:1031D00050A002D0D88001D0D89050364F50D8A4FB
:1031E0004F0643AEEED7000E4E6E50AE0BD050C021
:1031F00049F07F0E4916D8B403D0010E4E6E02D0AE
:1032000041B0FBD74E50D8B420D0010E4126000E5D
:1032100042224322442244A018D041C049F042C077
:103220004AF043C04BF044C04CF04C344C324B326B
:103230004A32493249C041F04AC042F04BC043F0E3
:103240004CC044F04F28D8A44F2A4F28D8B403D0FC
:103250004F50D8A40DD0000E416E000E426E000EED
:10326000436E000E446E4F50D8A402D0000E4D6E37
:103270004FA002D0438E01D0439ED8904F30446E71
:103280004DBE448E41C041F042C042F043C043F0C5
:1032900044C044F012008AAC02D0010E01D0000EEE
:1032A000FF0A596E593A594659468A505918BF0B68
:1032B00059188A6E0101D351D8A4A9D0B6D0010EF5
:1032C0000001D36F000E2C6E670E2D6E300E2E6E29
:1032D000470E2F6EF2C228F0F3C229F0F4C22AF092
:1032E000F5C22BF0A8EC14F028C062F029C063F0FE
:1032F0002AC064F02BC065F0EAC22CF0EBC22DF0BE
:10330000ECC22EF0EDC22FF062C028F063C029F0AD
:1033100064C02AF065C02BF0A8EC14F028C041F07E
:1033200029C042F02AC043F02BC044F0A9EC35F08C
:1033300041C060F042C061F00AD00001D351D325F2
:10334000D36F100ED36503D0100ED36F0CD060C0B6
:1033500001F061C002F0D3C003F0046A01EC3DF05B
:103360000204D8B0EAD7000E2C6E000E2D6EF80EB7
:103370002E6E410E2F6EBCC228F0BDC229F0BEC217
:103380002AF0BFC22BF0A8EC14F028C062F029C0CC
:1033900063F02AC064F02BC065F00001D351016EC8
:1033A000026A036A046A010E4CEC28F001C02CF09A
:1033B00002C02DF003C02EF004C02FF062C028F030
:1033C00063C029F064C02AF065C02BF0A8EC14F0AB
:1033D00028C041F029C042F02AC043F02BC044F07D
:1033E000A9EC35F041C0C7F142C0C8F10001D3518A
:1033F00095EC3BF060C001F061C002F0D3C003F077
:10340000046A01EC3DF00150EEEC02F00BD0D85113
:10341000596E5A6A5A50000AD8A404D059505F0A0B
:10342000D8B44DD7000E0101D36FD251D8A403D028
:10343000010ED26F120081AE48D00001D351016E4F
:10344000026A036A046A010E4CEC28F001C013F012
:1034500002C014F003C015F004C016F0080E0F6E81
:10346000210E106E040E116E3D0E126E6AEC1DF0F0
:103470000FC041F010C042F011C043F012C044F040
:10348000BCC045F0BDC046F0BEC047F0BFC048F06C
:10349000C5EC17F041C0BCF042C0BDF043C0BEF067
:1034A00044C0BFF0C0C251F0C1C252F0C2C253F01A
:1034B000C3C254F0BCC055F0BDC056F0BEC057F0FA
:1034C000BFC058F010EC3EF047D0BCC051F0BDC0BA
:1034D00052F0BEC053F0BFC054F00001D351016E92
:1034E000026A036A046A010E4CEC28F001C013F072
:1034F00002C014F003C015F004C016F0080E0F6EE1
:10350000210E106E040E116E3D0E126E6AEC1DF04F
:103510000FC055F010C056F011C057F012C058F04F
:1035200010EC3EF051C0BCF052C0BDF053C0BEF034
:1035300054C0BFF0BCC051F0BDC052F0BEC053F08B
:10354000BFC054F0C0C255F0C1C256F0C2C257F05D
:10355000C3C258F010EC3EF051C0BCF252C0BDF2F4
:1035600053C0BEF254C0BFF2FF0E0101C725C76FA2
:10357000FF0EC821C86F000ED26FC751C811D8A462
:103580001200000ED46F8A800BEC03F0C0C2BCF0B6
:10359000C1C2BDF0C2C2BEF0C3C2BFF0120081CF33
:1035A00060F00001616B82CF60F0616B3DEC02F076
:1035B00001C06AF002C06BF0000E026E000E016ED8
:1035C000E9EC02F00101D151120DF3CF59F0F4CF23
:1035D0005AF000016A5159266B515A2259C001F024
:1035E0005AC002F0000E02BEFF0E036E046E010E02
:1035F0004CEC28F001C070F002C071F003C072F012
:1036000004C073F0000E016E000E026EC80E036E51
:10361000430E046E70C005F071C006F072C007F072
:1036200073C008F0B6EC33F0D8B00BD12D0E2C6E71
:10363000CF0E2D6EC70E2E6E3F0E2F6E78C028F067
:1036400079C029F07AC02AF07BC02BF0A8EC14F0E6
:1036500028C045F029C046F02AC047F02BC048F0EA
:10366000D00E2C6E7E0E2D6EA40E2E6E3C0E2F6E86
:1036700070C028F071C029F072C02AF073C02BF01E
:10368000A8EC14F028C041F029C042F02AC043F051
:103690002BC044F0C5EC17F041C062F042C063F0AB
:1036A00043C064F044C065F062C051F063C052F0A2
:1036B00064C053F065C054F0830E2C6E2F0E2D6E37
:1036C000240E2E6E3F0E2F6E7CC028F07DC029F098
:1036D0007EC02AF07FC02BF0A8EC14F028C055F073
:1036E00029C056F02AC057F02BC058F010EC3EF01D
:1036F00051C074F052C075F053C076F054C077F0EA
:1037000074C045F075C046F076C047F077C048F009
:10371000000E2C6E000E2D6E000E2E6E400E2F6EC3
:1037200078C028F079C029F07AC02AF07BC02BF04D
:10373000A8EC14F028C041F029C042F02AC043F0A0
:103740002BC044F0C5EC17F041C066F042C067F0F2
:1037500043C068F044C069F066C041F067C042F001
:1037600068C043F069C044F07CC045F07DC046F0BD
:103770007EC047F07FC048F0C5EC17F041C06CF048
:1037800042C06DF043C06EF044C06FF078C07CF072
:1037900079C07DF07AC07EF07BC07FF074C078F095
:1037A00075C079F076C07AF077C07BF06CC013F00A
:1037B0006DC014F06EC015F06FC016F0C00E0F6E25
:1037C000E10E106E640E116E4C0E126E6AEC1DF05E
:1037D0000FC028F010C029F011C02AF012C02BF041
:1037E000350E2C6EA50E2D6EAA0E2E6E3B0E2F6E74
:1037F000A8EC14F028C0F6F229C0F7F22AC0F8F2BB
:103800002BC0F9F2000E0F6E000E106E800E116EBE
:103810003F0E126EF6C213F0F7C214F0F8C215F0A4
:10382000F9C216F06AEC1DF00FC0F2F210C0F3F20C
:1038300011C0F4F212C0F5F2010E0101D36FD8EC01
:103840003EF0000E0101D16F120001011051800BFA
:103850001D6F10511025246F0FBF24812451D8B43F
:103860000DD02429D8A408D0000E0D6F000E0E6FC5
:10387000000E0F6F000E106F0F8F06D0000E0D6F31
:10388000000E0E6F000E0F6F000E106F1451800BA4
:103890001D1B14511425256F13BF25812551D8B444
:1038A0000DD02529D8A408D0000E116F000E126F7C
:1038B000000E136F000E146F138F06D0000E116FE1
:1038C000000E126F000E136F000E146F11511211C3
:1038D00013111411D8A417D0000E0D6F000E0E6F27
:1038E000000E0F6F000E106F800E0F137F0E10135F
:1038F0001D5110130DC10DF10EC10EF10FC10FF1CD
:1039000010C110F112002451D8A409D0000E0D6F7F
:10391000000E0E6F000E0F6F000E106F120025517B
:1039200024C115F1166B155F000E165B7F0E152571
:103930001E6F000E16211F6F0DC119F10EC11AF175
:103940000FC11BF110C11CF1000E0D6F000E0E6FA8
:10395000000E0F6F000E106F000E206F000E216F13
:10396000000E226F000E236F000E256F28D0255108
:10397000D8B411D0D89019371A371B371C37D890C4
:103980000D370E370F37103723BF0D81D8902037F2
:103990002137223723371151195D12511A5913510A
:1039A0001B5914511C59D8A009D0238D1151195FEE
:1039B00012511A5B13511B5B14511C5B252B190E02
:1039C0002565D5D719511A111B111C11D8B411D066
:1039D00020810FD0D8900D370E370F37103723BF07
:1039E0000D81D89020372137223723371E07D8A0E2
:1039F0001F070FAFEFD7000E256F23AF17D0FF0EB5
:103A00002015156FFF0E2115166FFF0E2215176F6B
:103A10007F0E2315186F1551161117111811D8B4F0
:103A200003D0010E256F02D00DB1FBD72551D8B4BC
:103A30001FD0010E0D27000E0E230F23102310A1FF
:103A400017D00DC115F10EC116F10FC117F110C13C
:103A500018F11835183317331633153315C10DF116
:103A600016C10EF117C10FF118C110F11E4B1F2B1B
:103A70001FBF10D01F5103E11E29D8A00BD0000E8C
:103A80001F6F1E69000E0D6F000E0E6F000E0F6F80
:103A9000000E106F1FBF05D01F5111E11E05D8B0D9
:103AA0000ED0000E1F6F000E1E6F000E0D6F000E69
:103AB0000E6F000E0F6F000E106F000E1D6F1EC1F7
:103AC00024F124A102D00F8F01D00F9FD890243170
:103AD000106F0ED71250800B1F6E12501224266EDC
:103AE00011BE26802650D8B40DD02628D8A408D0E0
:103AF000000E0F6E000E106E000E116E000E126E94
:103B0000118E06D0000E0F6E000E106E000E116E9C
:103B1000000E126E1650800B1F1A16501624276EB8
:103B200015BE27802750D8B40DD02728D8A408D098
:103B3000000E136E000E146E000E156E000E166E43
:103B4000158E06D0000E136E000E146E000E156E4C
:103B5000000E166E1350141015101610D8A417D09E
:103B6000000E0F6E000E106E000E116E000E126E23
:103B7000800E11127F0E12121F5012120FC00FF082
:103B800010C010F011C011F012C012F01200265037
:103B9000D8A409D0000E0F6E000E106E000E116E2C
:103BA000000E126E1200275026C017F0186A175E1A
:103BB000000E185A7F0E1724206E000E1820216E5A
:103BC0000FC01BF010C01CF011C01DF012C01EF081
:103BD000000E0F6E000E106E000E116E000E126EB3
:103BE000000E226E000E236E000E246E000E256E57
:103BF000000E276E28D02750D8B411D0D8901B368D
:103C00001C361D361E36D8900F3610361136123639
:103C100025BE0F80D8902236233624362536135001
:103C20001B5C14501C5815501D5816501E58D8A017
:103C300009D0258C13501B5E14501C5A15501D5A68
:103C400016501E5A272A190E2764D5D71B501C1050
:103C50001D101E10D8B411D022800FD0D8900F366E
:103C600010361136123625BE0F80D89022362336F4
:103C7000243625362006D8A0210611AEEFD7000E37
:103C8000276E25AE17D0FF0E2214176EFF0E2314D9
:103C9000186EFF0E2414196E7F0E25141A6E17501D
:103CA000181019101A10D8B403D0010E276E02D0C4
:103CB0000FB0FBD72750D8B41FD0010E0F26000E2F
:103CC00010221122122212A017D00FC017F010C01C
:103CD00018F011C019F012C01AF01A341A32193241
:103CE0001832173217C00FF018C010F019C011F0B9
:103CF0001AC012F0204A212A21BE10D0215003E11F
:103D00002028D8A00BD0000E216E2068000E0F6E68
:103D1000000E106E000E116E000E126E21BE05D048
:103D2000215011E12004D8B00ED0000E216E000EFB
:103D3000206E000E0F6E000E106E000E116E000E43
:103D4000126E000E1F6E20C026F026A002D0118E2B
:103D500001D0119ED8902630126E0ED702C11AF1F2
:103D600003C11BF104C11CF105C11DF106C11EF107
:103D700007C11FF108C120F109C121F121AF02D013
:103D8000010E01D0000E186F196B18511911D8B41B
:103D900010D0211F201F1F1F1E1F1D1F1C1F1B1F98
:103DA0001A6D000E1B231C231D231E231F232023FB
:103DB00021230001C3AFC493C3BF05D0C35109E1A0
:103DC000C205D8B006D0000E0101156F010E146FA8
:103DD00004D0C2C014F1C3C015F1C0C016F1C1C0F7
:103DE00017F1010118511911D8A403D00001C4A57D
:103DF00004D001011607D8A01707000E0101236F98
:103E00004F0E226F000E0301616F80D00101220767
:103E1000D8A02307120E2225D96E030E2321DA6EB5
:103E20001AC18CF01BC18DF01CC18EF01DC18FF02A
:103E30001EC190F01FC191F020C192F021C193F0FA
:103E40000A0E0001946F000E956F000E966F000E23
:103E5000976F000E986F000E996F000E9A6F000E0C
:103E60009B6F1AEC2DF08CC00AF18DC00BF18EC047
:103E70000CF18FC00DF190C00EF191C00FF192C006
:103E800010F193C011F10AC19EF00CC19FF058ECE3
:103E900000F09E51300FDF6E01011407D8A0150706
:103EA0001607D8A017071AC18CF01BC18DF01CC1D2
:103EB0008EF01DC18FF01EC190F01FC191F020C186
:103EC00092F021C193F00A0E0001946F000E956FDD
:103ED000000E966F000E976F000E986F000E996F90
:103EE000000E9A6F000E9B6F06EC27F08CC01AF143
:103EF0008DC01BF18EC01CF18FC01DF190C01EF152
:103F000091C01FF192C020F193C021F1010123BFA4
:103F100020D0235103E12205D8A01BD01A511B1138
:103F20001C111D111E111F1120112111D8A46ED7B3
:103F300015BF05D0155102E11405D8B067D717BFDA
:103F400008D0175103E11605D8A003D00001C4B36F
:103F50005DD7010118511911D8A403D00001C4A5DF
:103F600018D001012207D8A0230718511911D8A48D
:103F700004D0000E136F2B0E03D0000E136F2D0E06
:103F8000126F120E2225D96E030E2321DA6E12C192
:103F9000DFFF00C19CF001C19DF0120E010122253E
:103FA00000019E6F030E0101232100019F6F16C1C6
:103FB000A0F017C1A1F0B5EC38F09CC000F19DC095
:103FC00001F1120004013205D8A411D030511F0BA9
:103FD0000009D8A40CD00001B38F030E04013119DD
:103FE000D8A402D0010E01D0000E0101E26F04013D
:103FF0003251D8A4120030511F0B020AD8A412006B
:1040000034510F0B0009D8B4120034510F0B156E48
:10401000030E15601200200E5D18D8A412000001D6
:10402000B38F040134BF18D034510F0B156E1550E7
:10403000020DAE0EF324D96E020EF420DA6EDECF3E
:104040001AF0DDCF1BF034510F0B156E166ABF0E40
:104050001524D96E010E13D034510F0B020DF350FD
:10406000B60FD96EDA6ADECF1AF0DDCF1BF034510D
:104070000F0B156E166AC20E1524D96E010E16208E
:10408000DA6EDF50196E19B006D0FB0E1A141A6ED4
:10409000FF0E1B1404D0040E1A101A6E1B501B6E58
:1040A00034BF0CD034510F0B156E1550020DAE0EEF
:1040B000F324D96E020EF420DA6E07D034510F0BC0
:1040C000020DF350B60FD96EDA6A1AC0DEFF1BC0BC
:1040D000DDFF030E3119D8A42AD01AC0D9FF1BC0A6
:1040E000DAFFDFAE17D034BF09D034510F0B156E95
:1040F000166ABF0E1524D96E010E08D034510F0B6D
:10410000156E166AC20E1524D96E010E1620DA6ECF
:104110000101DF821AC0D9FF1BC0DAFF000EDB8469
:104120001AC0D9FF1BC0DAFF000EDB8E1200040E8E
:104130001A181A6E1B501B6E1AC0D9FF1BC0DAFF6B
:10414000DFAE1BD01AC0D9FF1BC0DAFF7F0EDF160F
:104150001AC0D9FF1BC0DAFF000EDB8C000E0E6EFA
:10416000050E0D6E1AC00FF01BC010F0000E126E7F
:10417000020E116E24EC3CF006D01AC0D9FF1BC011
:10418000DAFF000EDB8C040E1A181A6E1B501B6E21
:1041900019B206D01AC0D9FF1BC0DAFFDFAE2DD08E
:1041A000040134BF09D034510F0B156E166ABF0ECF
:1041B0001524D96E010E08D034510F0B156E166AF6
:1041C000C20E1524D96E010E1620DA6E0101DF929F
:1041D0001AC0D9FF1BC0DAFF3B0EDF16000E0E6EB1
:1041E000050E0D6E1AC00FF01BC010F0000E126EFF
:1041F000020E116E24EC3CF006D01AC0D9FF1BC091
:10420000DAFF3B0EDF16040134510F0B156E166AF0
:104210006A0E1524176E0F0E1620186E17C0D9FFE0
:1042200018C0DAFFFE0EDF161200FAC240F2FBC21F
:1042300041F2000E0201436F000E426F0F0E0001AB
:10424000C86112000AEC02F0450E03016219D8B4ED
:104250009CEC01F00101D751D8B41200000E00010E
:104260008C6F020E8D6F000E8F6F000E8E6F000E22
:10427000916F200E906F25EC2AF0610E0101D72579
:10428000D96EDA6A030EDA220A0EDE18D8B405D027
:10429000000E0201436F010E04D0000E0201436FB5
:1042A000000E426F620E0001986F030E996F400E70
:1042B0009A6F020E9B6F62EC36F098C000F299C0C4
:1042C00001F2A20E01019C6F030E9D6FD30E9E6F33
:1042D000A20E9F6F030EA06F00C2A1F101C2A2F156
:1042E000A1EC3DF0A20E0001976F030E986FA20E95
:1042F0008C6F030E8D6FE9EC00F08CC099F08DC0CF
:104300009AF07FEC3CF0000E986F000E996F400E13
:104310009A6F020E9B6F62EC36F098C002F299C061
:1043200003F2000E0201456F010E446F79D0000EBA
:104330000001986F000E996F400E9A6F020E9B6FEE
:1043400062EC36F044C2BAF145C2BBF1D89001012B
:10435000BA37BB37020EBA27000EBB23000EBA25B0
:10436000D96E020EBB21DA6E000198C0DEFF99C043
:10437000DDFF44C2BAF145C2BBF1D8900101BA37A2
:10438000BB37020EBA27000EBB23000EBA25D96E2A
:10439000020EBB21DA6EDE50DE10D8A405D0020179
:1043A00042514311D8A424D0D89002014435D96E8B
:1043B0004535DA6E000ED926020EDA22DECF97F0EE
:1043C000DDCF98F0D8904435D96E4535DA6E000EC1
:1043D000D926020EDA22DECF8CF0DDCF8DF0E9ECAB
:1043E00000F08CC099F08DC09AF07FEC3CF015D0B5
:1043F000A20E00018C6F030E8D6FD8900201443520
:10440000D96E4535DA6E000ED926020EDA22DECFDD
:104410008EF0DDCF8FF0D7EC3CF00201444B452B02
:10442000D8904435D96E4535DA6E000ED926020E85
:10443000DA22DE50DE10D8A47AD742514311D8A434
:104440000FD0A20E00018C6F030E8D6F000E8F6FC8
:10445000000E8E6F000E916F1E0E906F25EC2AF0ED
:10446000000E0101D76F620E00018C6F030E8D6F7D
:10447000000E8F6F000E8E6F000E916F200E906FEA
:1044800025EC2AF01200D405D8B4FDD732C18CF047
:1044900033C18DF034C18EF035C18FF0000E0001B4
:1044A000906F000E916F000E926F000E936F6EEC86
:1044B0003AF0D8B01200010E0101D46F8A9035AFE6
:1044C00014D0819E32C18CF033C18DF034C18EF096
:1044D00035C18FF08AEC00F08CC032F18DC033F121
:1044E0008EC034F18FC035F1D9D0818ED7D0010E76
:1044F0000001D36F0AD00001D351D325D36F100E22
:10450000D36503D0100ED36F42D0000E0101266F89
:10451000000E276F7F0E286F430E296F0001D351C5
:104520008C6F8D6B8E6B8F6B010EAAEC27F08CC09D
:1045300011F18DC012F18EC013F18FC014F1000E75
:104540009E6F670E9F6F300EA06F470EA16FEAC27D
:104550009AF0EBC29BF0ECC29CF0EDC29DF0D0EC67
:1045600012F09AC00DF19BC00EF19CC00FF19DC0DE
:1045700010F125EC1CF00DC12AF10EC12BF10FC179
:104580002CF110C12DF1E4EC32F0D8A0B4D7000E1C
:1045900000019E6F000E9F6FF80EA06F410EA16F7D
:1045A00032C19AF033C19BF034C19CF035C19DF00B
:1045B000D0EC12F09AC038F19BC039F19CC03AF1AE
:1045C0009DC03BF10001D3518C6F8D6B8E6B8F6B57
:1045D000010EAAEC27F08CC09EF08DC09FF08EC01B
:1045E000A0F08FC0A1F038C19AF039C19BF03AC158
:1045F0009CF03BC19DF0D0EC12F09AC026F19BC01C
:1046000027F19CC028F19DC029F17BEC32F026C136
:10461000C7F127C1C8F10001D35162EC3BF0D3517F
:104620008C6F8D6B8E6B8F6B010EAAEC27F08CC09C
:1046300011F18DC012F18EC013F18FC014F1000E74
:104640009E6F670E9F6F300EA06F470EA16FEAC27C
:104650009AF0EBC29BF0ECC29CF0EDC29DF0D0EC66
:1046600012F09AC00DF19BC00EF19CC00FF19DC0DD
:1046700010F125EC1CF00DC126F10EC127F10FC180
:1046800028F110C129F17BEC32F001012651DAEC5E
:1046900002F013D0FF0EDAEC02F00FD00101D85176
:1046A000366F376B3751000AD8A407D03651010A4C
:1046B000D8B41DD75E0AD8B4EDD7000E0101D26F71
:1046C000000ED5EC02F005EC03F012003C513D1158
:1046D000D8B41200960E00018C6F320E8D6FDFEC95
:1046E00002F0000E0101476F000E466F3ED046C13A
:1046F0008CF047C18DF0000E00018F6F050E8E6F9C
:10470000B0EC01F08C5101013C25D96E00018D51B6
:1047100001013D21DA6E460EDE18D8A424D046C130
:104720008CF047C18DF0000E00018F6F050E8E6F6B
:10473000B0EC01F03CC140F13DC141F18C510101AF
:10474000402700018D5101014123010E4025D96E02
:10475000000E4121DA6EDECFEEF2DECFEFF2DECFD9
:10476000F0F2DECFF1F2464B472B3E51465D47510A
:10477000800A406F3F51800A4059D8A0B8D7000E38
:104780000D6F000E0E6F800E0F6F3F0E106FEEC29A
:1047900011F1EFC212F1F0C213F1F1C214F125ECE4
:1047A0001CF00DC1EAF20EC1EBF20FC1ECF210C128
:1047B000EDF2000E496F000E486F96D048C18CF0A4
:1047C00049C18DF0000E00018F6F050E8E6FB0ECA9
:1047D00001F08C5101013C25D96E00018D51010180
:1047E0003D21DA6E5A0EDE18D8B418D048C18CF0CC
:1047F00049C18DF0000E00018F6F050E8E6FB0EC79
:1048000001F08C5101013C25D96E00018D5101014F
:104810003D21DA6E7A0EDE18D8A463D048C18CF040
:1048200049C18DF0000E00018F6F050E8E6FB0EC48
:1048300001F03CC140F13DC141F18C5101014027E3
:1048400000018D5101014123010E4025D96E000E5A
:104850004121DA6EDECF0DF1DECF0EF1DECF0FF1AA
:10486000DECF10F1BCC011F1BDC012F1BEC013F11A
:10487000BFC014F1ECEC3DF00DC142F10EC143F1AB
:104880000FC144F110C145F148C18CF049C18DF010
:10489000000E8F6F050E8E6FB0EC01F03CC140F141
:1048A0003DC141F18C510101402700018D510101B1
:1048B0004123010E4025D96E000E4121DA6EDECF74
:1048C000C0F2DECFC1F2DECFC2F2DECFC3F242C110
:1048D00032F143C133F144C134F145C135F143EC08
:1048E00022F00101484B492B3E51485D4951800A55
:1048F000406F3F51800A4059D8B012005FD7010184
:10490000D451D8A412000001C851D8B41200460EE8
:104910008C6F020E8D6F000E8F6F000E8E6F000E6B
:10492000916F640E906F25EC2AF0280E8C6F020EAA
:104930008D6F000E8F6F000E8E6F000E916F1E0E2A
:10494000906F25EC2AF0000E0201AB6F000EAA6FEB
:10495000D890AA35D96EAB35DA6E000ED926020E84
:10496000DA22000EDE6E000EDD6EAA4BAB2BABBF63
:10497000EFD7AB5104E1140EAA5DD8A0E9D7280EF9
:104980000001976F020E986FC7EC3DF0000E9C6F10
:10499000020E9D6F280E9E6F020E9F6F28EC3AF05C
:1049A0000101BA6FBA510201AC6FAD6B460E010145
:1049B000476F020E486F000E496F020E4A6FACC27D
:1049C0004BF1A1EC31F0820E9C6F030E9D6FCE0E69
:1049D0009E6F4BC29FF1A06BA1EC3DF0470E020110
:1049E0004619D8B433D051D0000E0201EE6F000E3C
:1049F000EF6FC80EF06F430EF16F010E0101D86F1B
:104A00004B0E3C6F020E3D6FACC23EF1ADC23FF1AA
:104A100066EC23F03AD0010EF2D74B0E0001926FF4
:104A2000020E936FACC294F0ADC295F006EC36F076
:104A30002CD05F0EE4D74B0E266F020E276FACC250
:104A400028F1ADC229F1ECEC28F01FD047C226F1C5
:104A500048C227F149C228F14AC229F17BEC32F061
:104A600001012751000AD8A410D02651000AD8B459
:104A7000BBD7010AD8B4CFD7340AD8B4CED76A0A84
:104A8000D8B4D7D73E0AD8B4D6D74D0E02014619AE
:104A9000D8A4120024D0000E00018E6F000E8F6F7C
:104AA000000E916F000E906FB3EC02F01200000E3A
:104AB00000018E6F000E8F6F000E916F000E906FD1
:104AC000ACEC02F01200000E00018C6F000E8D6F36
:104AD000000E8F6F000E8E6FF6EC02F0120047C2D0
:104AE00026F148C227F149C228F14AC229F17BECDC
:104AF00032F001012751000AD8A412002651030AFE
:104B0000D8B4C9D7070AD8B4D2D7010AD8A412009A
:104B1000DAD7B4C236F1B5C237F1B6C238F1B7C28E
:104B200039F126C136F127C137F128C138F129C141
:104B300039F1810E2A6FFF0E2B6F36C12CF137C170
:104B40002DF138C12EF139C12FF1180E05D0D890B2
:104B50002F332E332D332C33E82EF9D72C512A2521
:104B6000346F000E2B21356F35BF0FD0355104E166
:104B7000170E345DD8A009D026C126F127C127F130
:104B800028C128F129C129F1120035BF5CD034C1F8
:104B90002AF1FF0E2B6FFF0E2C6F7F0E2D6F000E74
:104BA0002E6F2A6701D007D02E352E332D332C33AC
:104BB0002B332A2FF6D72BC130F12CC131F12DC167
:104BC00032F12EC133F10101305136152A6F3151C6
:104BD00037152B6F325138152C6F335139152D6F16
:104BE0002A512B112C112D11D8B4C6D736C12AF158
:104BF00037C12BF138C12CF139C12DF1200E05D070
:104C0000D8902D332C332B332A33E82EF9D72A5161
:104C1000D8B408D030513627315137233251382398
:104C200033513923301D2A6F311D2B6F321D2C6FEC
:104C3000331D2D6F2A5136172B5137172C5138172A
:104C40002D51391732D036C12AF137C12BF138C175
:104C50002CF139C12DF1200E05D0D8902D332C33F5
:104C60002B332A33E82EF9D72A6708D0000E366F87
:104C7000000E376F000E386F000E16D0D890363504
:104C80002A6F37352B6F38352C6F39352D6F2A51F8
:104C90002B112C112D11D8B408D0000E366F000E38
:104CA000376F800E386FBF0E396F36C126F137C1AE
:104CB00027F138C128F139C129F1120023EEC8F0DB
:104CC00011EE00F0060EDBCFE3FFE806FCE297C032
:104CD0000BF198C00CF10B510C11D8A404D0000EAC
:104CE0000B6F010E0C6F0BC18CF00CC18DF0E9EC59
:104CF00000F08CC00FF18DC010F1C2C00DF1C3C027
:104D00000EF101010EBF11D00F510D5D0E51800A41
:104D10000001996F01011051800A00019959D8B022
:104D200004D00DC10FF10EC110F10FC10DF110C172
:104D30000EF1C0C009F1C1C00AF10001C4A10ED03A
:104D40001BD0000E8D6F200E8C6F95C08EF096C01C
:104D50008FF0C8EC37F001010F4B102B0101095106
:104D60000F5D1051800A0001996F01010A51800AFC
:104D700000019959D8A0E5D7000E0101086F000E77
:104D8000076F14D00BC1D9FF0CC1DAFFDF50996F48
:104D900099518C6F8D6B95C08EF096C08FF0C8ECDA
:104DA00037F001010B4B0C2B074B082B0D51075D06
:104DB0000851800A0001996F01010E51800A00011B
:104DC0009959D8A0DFD7C4B10ED01BD0000E8D6F7B
:104DD000200E8C6F95C08EF096C08FF0C8EC37F027
:104DE00001010F4B102B010109510F5D1051800A79
:104DF0000001996F01010A51800A00019959D8A058
:104E0000E5D70FC195F010C196F01200000E9D6F0E
:104E10009BAF12D09B1F9A1F991F981F971F961F19
:104E2000951F946D000E952396239723982399231D
:104E30009A239B23010E9D6F93AF12D0931F921F55
:104E4000911F901F8F1F8E1F8D1F8C6D000E8D2345
:104E50008E238F239023912392239323010E9D1B56
:104E600020EE9EF0070EDE6AE806FDE294519511F1
:104E700096119711981199119A119B11D8B446D097
:104E8000010E9C6F0AD0D890943795379637973794
:104E9000983799379A379B379C2B9BAFF4D7D8908C
:104EA0009E379F37A037A137A237A337A437A5373E
:104EB00094518C5D95518D5996518E5997518F59BA
:104EC00098519059995191599A5192599B5193598E
:104ED000D8A011D094518C5F95518D5B96518E5B0B
:104EE00097518F5B9851905B9951915B9A51925B6E
:104EF0009B51935B9E81D8909B339A33993398331F
:104F000097339633953394339C2FC9D79D51D8B49A
:104F100010D0A51FA41FA31FA21FA11FA01F9F1F6A
:104F20009E6D000E9F23A023A123A223A323A423CD
:104F3000A5239EC08CF09FC08DF0A0C08EF0A1C0B4
:104F40008FF0A2C090F0A3C091F0A4C092F0A5C0D1
:104F500093F012000001946F00019451D8A48FAF18
:104F60001AD08CC090F08DC091F08EC092F08FC09E
:104F700093F0901F911F921F931F902B000E91236F
:104F80009223932390C096F091C097F092C098F02E
:104F900093C099F008D08CC096F08DC097F08EC069
:104FA00098F08FC099F08C518D118E118F11D8A46B
:104FB00009D0000E8C6F000E8D6F000E8E6F000EEC
:104FC0008F6F1200960E956F06D0952BD89099335F
:104FD000983397339633000E9615906F000E971501
:104FE000916F000E9815926FFE0E9915936F905168
:104FF000911192119311D8B40DD0E7D7952B010ED2
:105000009627000E972398239923D89099339833A5
:1050100097339633000E9615906F000E9715916F8B
:10502000000E9815926FFF0E9915936F9051911184
:1050300092119311D8B407D0E1D79507D89096373D
:1050400097379837993798BF03D0020E9561F5D7F7
:1050500095A1989FD890953395C090F0916B926BE5
:10506000936B90C093F0926B916B906B90519613F1
:105070009151971392519813935199139451D8A425
:105080008FAF01D0998F96C08CF097C08DF098C0EB
:105090008EF099C08FF01200096E0950D8A404AEAA
:1050A0001AD001C005F002C006F003C007F004C02A
:1050B00008F0051E061E071E081E052A000E062201
:1050C0000722082205C00BF006C00CF007C00DF047
:1050D00008C00EF008D001C00BF002C00CF003C0F5
:1050E0000DF004C00EF00150021003100410D8A4FB
:1050F00009D0000E016E000E026E000E036E000E4F
:10510000046E1200960E0A6E06D00A2AD8900E324D
:105110000D320C320B32000E0B14056E000E0C1407
:10512000066E000E0D14076EFE0E0E14086E05506E
:10513000061007100810D8B40DD0E7D70A2A010EC0
:105140000B26000E0C220D220E22D8900E320D32AC
:105150000C320B32000E0B14056E000E0C14066E92
:10516000000E0D14076EFF0E0E14086E055006108B
:1051700007100810D8B407D0E1D70A06D8900B362C
:105180000C360D360E360DBE03D0020E0A60F5D772
:105190000AA00D9ED8900A320AC005F0066A076A76
:1051A000086A05C008F0076A066A056A05500B120E
:1051B00006500C1207500D1208500E120950D8A4B8
:1051C00004AE01D00E8E0BC001F00CC002F00DC079
:1051D00003F00EC004F0120028512911D8B41200B7
:1051E00029BF64D0295104E1020E285DD8A05ED009
:1051F00020EE05F02651D9262751DA224D0EDE1871
:10520000D8A454D020EE06F02651D9262751DA2210
:10521000DECF8CF0DECF8DF0DECF8EF0DECF8FF0E4
:10522000000E0001906F000E916F400E926F400EC5
:10523000936F6EEC3AF0D8A00AD0000E8E6F000E7D
:105240008F6F000E916F000E906FB3EC02F00101B2
:1052500020EE06F02651D9262751DA22DECF8CF037
:10526000DECF8DF0DECF8EF0DECF8FF0000E0001AE
:10527000906F000E916F800E926F400E936F6EECE8
:105280003AF0D8A00AD0000E8E6F000E8F6F000E7D
:10529000916F000E906FACEC02F0100E0001A66F43
:1052A000940EE82EFED7A62FFCD700F026C1D9FF1A
:1052B00027C1DAFF530EDE18D8A4120003EC03F066
:1052C000010120EE01F02651D9262751DA22DECF46
:1052D000F6F2DECFF7F2DECFF8F2DECFF9F2000E13
:1052E0000D6F000E0E6F800E0F6F3F0E106FF6C227
:1052F00011F1F7C212F1F8C213F1F9C214F125EC61
:105300001CF00DC1F2F20EC1F3F20FC1F4F210C1A4
:10531000F5F21200800E04013019D8A41200C00E5C
:105320000001B36F7FD0920E0001B06FB051D8A4CE
:10533000080EB16F000EB56F120EB46F120032512D
:10534000D8A43ED03251040F016E01C0F6FF080E02
:10535000F76E0900F5CFB0F0080E0001B16F020E34
:10536000B025016E000EB121026E01C0F6FF02C031
:10537000F7FFF86A070EF76403D00800F55005D070
:10538000F6CFE1FFF7CFE2FFE7500001B46F030E65
:10539000B025016E000EB121026E01C0F6FF02C001
:1053A000F7FFF86A070EF76403D00800F55005D040
:1053B000F6CFE1FFF7CFE2FFE7500001B56F120033
:1053C000000E0001B36F1200030E326123D0325180
:1053D000010F016E01C0F6FF080EF76E0900F5CF50
:1053E000B0F0080E0001B16FB0C0F6FFB1C0F7FF1A
:1053F000F86A070EF76403D00800F55005D0F6CF21
:10540000E1FFF7CFE2FFE750016E01500001B46FFA
:10541000B56B1200000E0001B36F1200000E000108
:10542000B36F120004013351016E026A0250000A88
:10543000D8A4F4D70150010AD8B475D7030AD8B458
:105440007ED7010AD8B4C0D7E9D78CC096F08DC0FA
:1054500097F090519111D8B4120096C0D9FF97C01F
:10546000DAFF8EC0DFFF90519625926F9151972100
:10547000936FFF0E9225D96EFF0E9321DA6E8EC0C8
:10548000DFFF915104E1030E905DD8A0120020EEE1
:1054900001F09651D9269751DA228EC0DFFF20EE17
:1054A00002F09651D9269751DA228EC0DFFF905133
:1054B0009625926F91519721936FFE0E9225D96E8A
:1054C000FF0E9321DA6E8EC0DFFF90519625926F0A
:1054D00091519721936FFD0E9225D96EFF0E932166
:1054E000DA6E8EC0DFFF915104E1070E905DD8A007
:1054F000120020EE03F09651D9269751DA228EC081
:10550000DFFF90519625926F91519721936FFC0E7A
:105510009225D96EFF0E9321DA6E8EC0DFFF915176
:1055200004E1090E905DD8A0120096C092F097C0D9
:1055300093F0921F931F924B932B030E9215946F2F
:10554000956B94519627955197239451905F95515F
:10555000915BFC0E9017FF0E91170BD096C0D9FFF0
:1055600097C0DAFF8EC0DFFF9007D8A09107964B57
:10557000972B90519111D8B41200F0D701C00BF0C5
:1055800002C00CF005500610D8B412000BC0D9FFB1
:105590000CC0DAFF03C0DFFF05500B24076E065076
:1055A0000C20086EFF0E0724D96EFF0E0820DA6E5D
:1055B00003C0DFFF065004E1030E055CD8A0120013
:1055C00020EE01F00B50D9260C50DA2203C0DFFF89
:1055D00020EE02F00B50D9260C50DA2203C0DFFF78
:1055E00005500B24076E06500C20086EFE0E072493
:1055F000D96EFF0E0820DA6E03C0DFFF05500B24C2
:10560000076E06500C20086EFD0E0724D96EFF0EA3
:105610000820DA6E03C0DFFF065004E1070E055CC8
:10562000D8A0120020EE03F00B50D9260C50DA223D
:1056300003C0DFFF05500B24076E06500C20086ED8
:10564000FC0E0724D96EFF0E0820DA6E03C0DFFFC0
:10565000065004E1090E055CD8A012000BC007F04B
:105660000CC008F0071E081E074A082A030E07147C
:10567000096E0A6A09500B260A500C220950055E71
:105680000A50065AFC0E0516FF0E06160BD00BC06C
:10569000D9FF0CC0DAFF03C0DFFF0506D8A006065D
:1056A0000B4A0C2A05500610D8B41200F0D7A39468
:1056B000000E676E000E656E000E6A6E6B0E016E58
:1056C0000F0E026E000E046E000E036E000E066ECC
:1056D000020E056EBEEC2AF0160E626E9F0E666E0E
:1056E0007B0E646E000E0D6E0D50040D000EF32443
:1056F000D96E040EF420DA6EDE6ADE6ADE6ADD6AD6
:105700000D2A0B0E0D64F0D7608C000E636E60984E
:10571000609C6596000E0001B36F000EAB6F000E2B
:10572000AD6F000EAC6F65B6F4D7010E0101DF6FEF
:10573000010EDE6F000EDD6F000EDC6F000EE16FFC
:10574000000E0D6E0D50020DF350B60FD96EDA6AD1
:10575000000EDE6E000EDD6E0D50020DAE0EF32457
:10576000D96E020EF420DA6E000EDE6E000EDD6ED3
:10577000C20E0D24D96EDA6A010EDA22000EDF6E37
:10578000BF0E0D24D96EDA6A010EDA22000EDF6E2A
:105790000D2A020E0D64D6D7080E0001B66F040E56
:1057A000B76F160E6A6E040E0401036F300E026F9F
:1057B000080E016F040E006F008F000E0001D26F03
:1057C000000E0201C46F000EC56F000EC66F000E02
:1057D000C76F000E0101DB6F000E5D6E1200A39417
:1057E000000E676E000E656E000E6A6E6B0E8C6F9B
:1057F0000F0E8D6F000E8F6F000E8E6F000E916F6B
:10580000020E906F25EC2AF0160E626E9F0E666EE9
:105810007B0E646E000E986F9851040D000EF324F9
:10582000D96E040EF420DA6EDE6ADE6ADE6ADD6AA4
:10583000982B0B0E9865F0D7608C000E636E609805
:10584000609C6596000EB36F000EAB6F000EAD6FDF
:10585000000EAC6F65B6F5D7010E0101DF6F010ECA
:10586000DE6F000EDD6F000EDC6F000EE16F000ECC
:105870000001986F9851020DF350B60FD96EDA6A95
:10588000000EDE6E000EDD6E9851020DAE0EF3249A
:10589000D96E020EF420DA6E000EDE6E000EDD6EA2
:1058A000C20E9825D96EDA6A010EDA22000EDF6E7A
:1058B000BF0E9825D96EDA6A010EDA22000EDF6E6D
:1058C000982B020E9865D6D7080EB66F040EB76FE8
:1058D000160E6A6E040E0401036F300E026F080E7E
:1058E000016F040E006F008F000E0001D26F000EDA
:1058F0000201C46F000EC56F000EC66F000EC76FA9
:10590000000E0101DB6F000E5D6E12005D04D8B465
:1059100060BA06D0000E656E64806488020E5D6E0B
:1059200065B464A403D06594A3EC3FF060A202D0F8
:10593000A494120065B064A006D057EC2BF0A384A9
:10594000040E5D6E659065B864A802D02EEC01F07F
:1059500065AC1BD064AC0ED0000E0E6E730E0D6ED7
:10596000000E0F6E000E106E000E126E010E116E04
:1059700024EC3CF0659C1BEC02F00001CE51D8A455
:10598000CE07CE51D8B485EC34F065BA64AA02D003
:1059900077EC3EF065B264A20FD07F0E0E6E0D68FC
:1059A000000E0F6E000E106E000E126E010E116EC4
:1059B00024EC3CF0000E676E040E5D6002D0A494EF
:1059C000120064A635D0000E1F6E65A631D061CFDF
:1059D0005EF05E30E832E8320F0B0001CF6F659663
:1059E0005EB406D0BF0ECF25D96EDA6A010E05D09F
:1059F000C20ECF25D96EDA6A010EDA220101DF70FC
:105A00000001CF51D8A403D000EC39F00DD0000E26
:105A10000E6E720E0D6E5E0E0F6E106A000E126E1E
:105A2000000E116E24EC3CF01F2A030E1F64CDD72C
:105A3000A4941200000E9D6F93AF12D0931F921F7B
:105A4000911F901F8F1F8E1F8D1F8C6D000E8D2339
:105A50008E238F239023912392239323010E9D6FF6
:105A60009BAF10D09B1F9A1F991F981F971F961FBF
:105A7000951F946D000E95239623972398239923C1
:105A80009A239B239451951196119711981199116E
:105A90009A119B11D8B43CD0010E9C6F0AD0D890BB
:105AA0009437953796379737983799379A379B3782
:105AB0009C2B9BAFF4D794518C5D95518D59965189
:105AC0008E5997518F5998519059995191599A518E
:105AD00092599B519359D8A010D094518C5F9551F5
:105AE0008D5B96518E5B97518F5B9851905B99516E
:105AF000915B9A51925B9B51935BD8909B339A3305
:105B00009933983397339633953394339C2FD3D767
:105B10009D51D8B410D0931F921F911F901F8F1FBB
:105B20008E1F8D1F8C6D000E8D238E238F2390234F
:105B30009123922393238CC08CF08DC08DF08EC066
:105B40008EF08FC08FF090C090F091C091F092C015
:105B500092F093C093F01200A3940201E051E1117E
:105B6000D8B408D0E0C2D9FFE1C2DAFFDFAE02D07C
:105B7000A3841200030E0001CB19D8A402D0000E9A
:105B8000CB6FCB51D8A402D0A3841200020ECB1944
:105B9000D8A412D0010E8C6F000E8D6F000E8E6F88
:105BA000000E8F6F020E4BEC2FF08CC0E0F28DC018
:105BB000E1F2030ECB6F5FD0CB05D8A45CD0400ED2
:105BC000CA6503D0400E966F02D0CAC096F09651B7
:105BD000CA5DCA6F000E0201C86F050EC96F96C07C
:105BE00095F00101DA51D8B412D027D0CBC2D9FF39
:105BF000CCC2DAFFC8C2E1FFC9C2E2FFDFCFE7FFD4
:105C00000201C84BC92BCB4BCC2B000195070001DF
:105C10009551D8B416D0EAD7CBC2D9FFCCC2DAFF9F
:105C2000C8C2E1FFC9C2E2FFDFCFE7FF0201C84BF4
:105C3000C92BCB4BCC2B0001950700019551D8A463
:105C4000EBD7CA51D8A408D0400E9619D8A402D0D8
:105C5000020E01D0030ECB6F010E8C6F000E8D6F04
:105C6000050E8E6F96C08FF0020E4BEC2FF08CC09D
:105C7000E0F28DC0E1F2A3841200000E9C6F000ED2
:105C80009B6F000E9A6F000E996F01D0932B93C0FB
:105C9000F6FF080EF76E0800F550200AD8B4F6D7C4
:105CA000F70E956FFF0E966F93C0F6FF080EF76E16
:105CB0000800F550976F986B955197279651982348
