:040000004EEF00F0CF
:100008005582E9CF20F0EACF21F0E1CF22F0E2CF0C
:1000180023F0D9CF24F0DACF25F0F3CF26F0F4CFB0
:1000280027F0F6CF28F0F7CF29F0F8CF2AF0F5CF50
:100038002BF0F2AC22EF00F024EF00F034EF00F0E8
:10004800A3A429EF00F02BEF00F034EF00F0A4A4F4
:1000580030EF00F032EF00F034EF00F046EC07F03C
:100068002BC0F5FF2AC0F8FF29C0F7FF28C0F6FF0C
:1000780027C0F4FF26C0F3FF25C0DAFF24C0D9FF4C
:1000880023C0E2FF22C0E1FF21C0EAFF20C0E9FF50
:080098005592110025EF19F04B
:1008000000A8084C088008090809024300020100FA
:10081000C032090400000102020100052400100199
:100820000424020205240600010524010001070535
:1008300081030A000209040100020A000000070502
:1008400002024000000705820240000034034D0010
:100850006900630072006F00630068006900700047
:10086000200054006500630068006E006F006C009B
:100870006F0067007900200049006E0063002E00C1
:10088000160342006F00620069006E0061006400A0
:100890006F00720061001201000202000008D8041B
:1008A0000A000001010200010403090461206361E0
:1008B0007361000004013205D8A461EF04F063EF16
:1008C00004F07FEF04F030511F0B0009D8A46BEF48
:1008D00004F06DEF04F07FEF04F00001758F030E5C
:1008E00004013119D8A477EF04F079EF04F07DEF1B
:1008F00004F0010E4D6E7FEF04F0000E4D6E32518C
:10090000D8A485EF04F087EF04F007EF06F030512C
:100910001F0B020AD8A48FEF04F091EF04F007EF49
:1009200006F034510F0B0009D8B499EF04F09BEF97
:1009300004F007EF06F034510F0B156E030E15602F
:10094000A4EF04F0A6EF04F007EF06F0200E501815
:10095000D8A4ADEF04F0AFEF04F007EF06F000010C
:10096000758F040134BFB7EF04F0B9EF04F0D6EF90
:1009700004F034510F0B156E1550020D7E0EF3244A
:10098000D96E000EF420DA6EDECF1AF0DDCF1BF048
:1009900034510F0B156E166A920E1524D96E000E87
:1009A0001620DA6EDF50196EF1EF04F034510F0BA0
:1009B000156E1550020D780EF324D96E000EF4203A
:1009C000DA6EDECF1AF0DDCF1BF034510F0B156E4F
:1009D000166A950E1524D96E000E1620DA6EDF50B9
:1009E000196E19B0F6EF04F0F8EF04F000EF05F01F
:1009F000FB0E1A141A6EFF0E1B141B6E05EF05F08A
:100A0000040E1A101A6E1B501B6E34BF0AEF05F04D
:100A10000CEF05F01DEF05F034510F0B156E15505E
:100A2000020D7E0EF324D96E000EF420DA6E1AC089
:100A3000DEFF1BC0DDFF2CEF05F034510F0B156EF0
:100A40001550020D780EF324D96E000EF420DA6EE4
:100A50001AC0DEFF1BC0DDFF030E3119D8A433EF2F
:100A600005F035EF05F06FEF05F01AC0D9FF1BC098
:100A7000DAFFDFAE3EEF05F040EF05F061EF05F085
:100A800034BF45EF05F047EF05F055EF05F0345161
:100A90000F0B156E166A920E1524D96E000E1620D5
:100AA000DA6E0001DF8261EF05F034510F0B156E35
:100AB000166A950E1524D96E000E1620DA6E000106
:100AC000DF821AC0D9FF1BC0DAFF000EDB841AC018
:100AD000D9FF1BC0DAFF000EDB8E07EF06F0040E15
:100AE0001A181A6E1B501B6E1AC0D9FF1BC0DAFFF2
:100AF000DFAE7DEF05F07FEF05F09BEF05F01AC04C
:100B0000D9FF1BC0DAFF7F0EDF161AC0D9FF1BC04A
:100B1000DAFF000EDB8C000E0E6E050E0D6E1AC095
:100B20000FF01BC010F0000E126E020E116E4DEC95
:100B300017F0A1EF05F01AC0D9FF1BC0DAFF000EB5
:100B4000DB8C040E1A181A6E1B501B6E19B2ABEF19
:100B500005F0ADEF05F0B8EF05F01AC0D9FF1BC0E6
:100B6000DAFFDFAEB6EF05F0B8EF05F0F0EF05F015
:100B7000040134BFBEEF05F0C0EF05F0CEEF05F085
:100B800034510F0B156E166A920E1524D96E000E95
:100B90001620DA6E0001DF92DAEF05F034510F0B08
:100BA000156E166A950E1524D96E000E1620DA6E93
:100BB0000001DF921AC0D9FF1BC0DAFF3B0EDF161F
:100BC000000E0E6E050E0D6E1AC00FF01BC010F059
:100BD000000E126E020E116E4DEC17F0F6EF05F0DE
:100BE0001AC0D9FF1BC0DAFF3B0EDF1604013451D7
:100BF0000F0B156E166A6A0E1524176E0F0E16204F
:100C0000186E17C0D9FF18C0DAFFFE0EDF161200EB
:100C1000000E0001C76F000EC86F000EBD6F000E02
:100C2000BE6F000EC16F000EC26F34503510D8A4D5
:100C30001CEF06F01EEF06F024EF06F0000EB56F75
:100C4000000EB66F45EF07F034C0C5F035C0C6F0F2
:100C5000AAEF06F0C5C0D9FFC6C0DAFFB551DE184D
:100C600007E1B651DE18D8A438EF06F03AEF06F0E7
:100C700067EF06F0C151C211D8B441EF06F043EF5F
:100C800006F055EF06F020EE02F0C551D926C65108
:100C9000DA2210EE02F0C151E126C251E222DECF8B
:100CA000E6FFDDCFE5FF5FEF06F020EE02F0C55175
:100CB000D926C651DA22DECF34F0DDCF35F0020E70
:100CC000C525B56F000EC621B66F45EF07F0C5C04C
:100CD000D9FFC6C0DAFFDE50B55DDE50B659D8B0D8
:100CE00074EF06F076EF06F09CEF06F0C751C811DE
:100CF000D8B47DEF06F07FEF06F094EF06F0C7C0A2
:100D0000D9FFC8C0DAFFC5C0E1FFC6C0E2FFDE50B0
:100D1000E65CDE50E658D8A090EF06F092EF06F0C1
:100D200094EF06F09CEF06F0C5C0C7F0C6C0C8F04F
:100D3000C1C0BDF0C2C0BEF0C5C0C1F0C6C0C2F0E7
:100D400020EE02F0C551D926C651DA22DECFC5F019
:100D5000DDCFC6F0C551C611D8A4B1EF06F0B3EF90
:100D600006F02AEF06F0C751C811D8B4BAEF06F062
:100D7000BCEF06F01EEF06F020EE02F0C751D926B8
:100D8000C851DA22DECFC3F0DDCFC4F0C7C0D9FF2F
:100D9000C8C0DAFFDECFB7F0DDCFB8F0B551B75F2E
:100DA000B651B85BB85109E1050EB75DD8A0DBEFCD
:100DB00006F0DDEF06F023EF07F0C7C0D9FFC8C08B
:100DC000DAFFDECFB7F0DDCFB8F0B551B75FB6517F
:100DD000B85BFE0EB725BB6FFF0EB821BC6FC7C056
:100DE000D9FFC8C0DAFFB5C0DEFFB6C0DDFFC7C09F
:100DF000D9FFC8C0DAFFDECFB7F0DDCFB8F0C7C08B
:100E0000B9F0C8C0BAF0B751B927B851BA23020E29
:100E1000B925BF6F000EBA21C06FBFC0D9FFC0C0D7
:100E2000DAFFBBC0DEFFBCC0DDFF20EE02F0BF5129
:100E3000D926C051DA22C3C0DEFFC4C0DDFFBFC067
:100E4000C3F0C0C0C4F0C751341807E1C851351809
:100E5000D8A42DEF07F02FEF07F035EF07F0C3C050
:100E600034F0C4C035F03FEF07F020EE02F0BD5182
:100E7000D926BE51DA22C3C0DEFFC4C0DDFF020E98
:100E8000C725B56F000EC821B66F12005004D8A454
:100E90004CEF07F04EEF07F05BEF07F060BA53EF4F
:100EA00007F055EF07F05BEF07F0000E656E64800A
:100EB0006488020E506E65A460EF07F062EF07F0E1
:100EC0006CEF07F064A467EF07F069EF07F06CEFD1
:100ED00007F06594E6EC18F060A271EF07F073EF8D
:100EE00007F076EF07F0A49459EF08F065A07BEFC8
:100EF00007F07DEF07F08AEF07F064A082EF07F0BC
:100F000084EF07F08AEF07F0B1EC0CF0A384040E35
:100F1000506E659065A88FEF07F091EF07F09AEF9C
:100F200007F064A896EF07F098EF07F09AEF07F044
:100F300073EC19F065AC9FEF07F0A1EF07F0CCEF71
:100F400007F064ACA6EF07F0A8EF07F0B6EF07F0E4
:100F5000000E0E6E730E0D6E000E0F6E000E106EF4
:100F6000000E126E010E116E4DEC17F0659C42ECF6
:100F700019F04A50D8B4BFEF07F0C1EF07F0C2EF45
:100F800007F04A064A50D8A4C8EF07F0CAEF07F0A6
:100F9000CCEF07F067EC14F065AAD1EF07F0D3EFC0
:100FA00007F0DCEF07F064AAD8EF07F0DAEF07F0FC
:100FB000DCEF07F0FDEC17F065A2E1EF07F0E3EFDF
:100FC00007F0F9EF07F064A2E8EF07F0EAEF07F0A7
:100FD000F9EF07F07F0E0E6E0D68000E0F6E000E1B
:100FE000106E000E126E010E116E4DEC17F0000E19
:100FF000676E040E5060FFEF07F001EF08F004EF9A
:1010000008F0A49459EF08F064A609EF08F00BEF7C
:1010100008F058EF08F0000E1F6E65A612EF08F0FA
:1010200014EF08F058EF08F061CF53F05330E83276
:10103000E8320F0B4C6E659653B421EF08F023EFA6
:1010400008F02DEF08F0920E4C24D96EDA6A000EEB
:10105000DA220001DF7035EF08F0950E4C24D96ECE
:10106000DA6A000EDA220001DF704C50D8A43BEFA0
:1010700008F03DEF08F041EF08F055EC15F04FEFA8
:1010800008F0000E0E6E720E0D6E530E0F6E000EF7
:10109000106E000E126E000E116E4DEC17F01F2A2E
:1010A000030E1F6456EF08F058EF08F00DEF08F03C
:1010B000A4941200A3940001A051A111D8B463EF2D
:1010C00008F065EF08F073EF08F0A0C0D9FFA1C0E9
:1010D000DAFFDFAE6EEF08F070EF08F073EF08F0A4
:1010E000A38425EF09F0030E4318D8A47AEF08F083
:1010F0007CEF08F07EEF08F0000E436E4350D8A45A
:1011000084EF08F086EF08F089EF08F0A38425EF5C
:1011100009F0020E4318D8A490EF08F092EF08F0FF
:10112000A5EF08F0010EB56F000EB66F000EB76F99
:10113000000EB86F020E40EC0FF0B5C0A0F0B6C0C4
:10114000A1F0030E436E24EF09F04304D8A4ABEFE3
:1011500008F0ADEF08F024EF09F0400EA365B3EFFF
:1011600008F0B5EF08F0B9EF08F0400EC16FBBEF23
:1011700008F0A3C0C1F0C151A35DA36F000E8C6F36
:10118000050E8D6FC1C0C0F0A251D8A4CAEF08F0FF
:10119000CCEF08F0F6EF08F0DDEF08F08FC0D9FFD4
:1011A00090C0DAFF8CC0E1FF8DC0E2FFDFCFE7FF28
:1011B0008C4B8D2B8F4B902BC007C051D8A4E3EFE5
:1011C00008F0E5EF08F0CEEF08F0FEEF08F08FC072
:1011D000D9FF90C0DAFF8CC0E1FF8DC0E2FFDFCF06
:1011E000E7FF8C4B8D2B8F4B902BC007C051D8A4A1
:1011F000FCEF08F0FEEF08F0E7EF08F0A351D8A4E9
:1012000004EF09F006EF09F015EF09F0400EC119DF
:10121000D8A40DEF09F00FEF09F013EF09F0020E5B
:10122000436E15EF09F0030E436E010EB56F000E0D
:10123000B66F050EB76FC1C0B8F0020E40EC0FF0EC
:10124000B5C0A0F0B6C0A1F0A3841200B5C0BFF035
:10125000B6C0C0F00001B951BA11D8A432EF09F0FC
:1012600034EF09F036EF09F0E1EF09F0BFC0D9FF24
:10127000C0C0DAFFB7C0DFFFB951BF25BB6FBA519D
:10128000C021BC6FFF0EBB25D96EFF0EBC21DA6EEC
:10129000B7C0DFFFBA5107E1030EB95DD8B053EF15
:1012A00009F055EF09F057EF09F0E1EF09F020EEF2
:1012B00001F0BF51D926C051DA22B7C0DFFF20EEBE
:1012C00002F0BF51D926C051DA22B7C0DFFFB951B1
:1012D000BF25BB6FBA51C021BC6FFE0EBB25D96EB6
:1012E000FF0EBC21DA6EB7C0DFFFB951BF25BB6F5F
:1012F000BA51C021BC6FFD0EBB25D96EFF0EBC21BB
:10130000DA6EB7C0DFFFBA5107E1070EB95DD8B09A
:101310008CEF09F08EEF09F090EF09F0E1EF09F0A2
:1013200020EE03F0BF51D926C051DA22B7C0DFFF4B
:10133000B951BF25BB6FBA51C021BC6FFC0EBB2594
:10134000D96EFF0EBC21DA6EB7C0DFFFBA5107E1DC
:10135000090EB95DD8B0AFEF09F0B1EF09F0B3EF06
:1013600009F0E1EF09F0BFC0BBF0C0C0BCF0BB1F8B
:10137000BC1FBB4BBC2B030EBB15BD6FBE6BBD5161
:10138000BF27BE51C023BD51B95FBE51BA5BFC0E31
:10139000B917FF0EBA17D8EF09F0BFC0D9FFC0C008
:1013A000DAFFB7C0DFFFB907D8A0BA07BF4BC02B21
:1013B000B951BA11D8A4DFEF09F0E1EF09F0CDEF90
:1013C00009F0120001C00BF002C00CF0055006102D
:1013D000D8A4EDEF09F0EFEF09F0F1EF09F09CEF81
:1013E0000AF00BC0D9FF0CC0DAFF03C0DFFF0550C5
:1013F0000B24076E06500C20086EFF0E0724D96ED2
:10140000FF0E0820DA6E03C0DFFF065007E1030E6F
:10141000055CD8B00EEF0AF010EF0AF012EF0AF0F8
:101420009CEF0AF020EE01F00B50D9260C50DA2286
:1014300003C0DFFF20EE02F00B50D9260C50DA2259
:1014400003C0DFFF05500B24076E06500C20086E0A
:10145000FE0E0724D96EFF0E0820DA6E03C0DFFFF0
:1014600005500B24076E06500C20086EFD0E072455
:10147000D96EFF0E0820DA6E03C0DFFF065007E1C9
:10148000070E055CD8B047EF0AF049EF0AF04BEFC2
:101490000AF09CEF0AF020EE03F00B50D9260C5016
:1014A000DA2203C0DFFF05500B24076E06500C2024
:1014B000086EFC0E0724D96EFF0E0820DA6E03C0FA
:1014C000DFFF065007E1090E055CD8B06AEF0AF0AD
:1014D0006CEF0AF06EEF0AF09CEF0AF00BC007F019
:1014E0000CC008F0071E081E074A082A030E07143E
:1014F000096E0A6A09500B260A500C220950055E33
:101500000A50065AFC0E0516FF0E061693EF0AF057
:101510000BC0D9FF0CC0DAFF03C0DFFF0506D8A05F
:1015200006060B4A0C2A05500610D8A49AEF0AF0BA
:101530009CEF0AF088EF0AF01200800E04013019C7
:10154000D8A4A5EF0AF0A7EF0AF056EF0BF0C00EF3
:101550000001756F3CEF0BF0960E0001726F080EE4
:10156000736F000E776F120E766F56EF0BF03251DD
:10157000D8A4BDEF0AF0BFEF0AF000EF0BF0325134
:10158000020D070EF324F66E080EF420F76E090024
:10159000F5CF72F00A00F5CF73F0020E000172254C
:1015A000016E000E7321026E01C0F6FF02C0F7FF4C
:1015B000F86A070EF76403D00800F55005D0F6CF9F
:1015C000E9FFF7CFEAFFEF500001766F030E7225B7
:1015D000016E000E7321026E01C0F6FF02C0F7FF1C
:1015E000F86A070EF76403D00800F55005D0F6CF6F
:1015F000E9FFF7CFEAFFEF500001776F56EF0BF0EE
:10160000000E0001756F56EF0BF0030E32610BEF09
:101610000BF00DEF0BF032EF0BF03251020D010E1B
:10162000F324F66E080EF420F76E0900F5CF72F081
:101630000A00F5CF73F072C0F6FF73C0F7FFF86AC7
:10164000070EF76403D00800F55005D0F6CFE9FF88
:10165000F7CFEAFFEF50016E01500001766F776B14
:1016600056EF0BF0000E0001756F56EF0BF0000EF9
:101670000001756F56EF0BF004013351016E026AE1
:101680000250000AD8B447EF0BF037EF0BF00150CF
:10169000010AD8B4ACEF0AF0030AD8B4B7EF0AF0E5
:1016A000010AD8B405EF0BF037EF0BF01200B5C00C
:1016B000BBF0B6C0BCF00001B551B611D8A463EFC1
:1016C0000BF065EF0BF067EF0BF00AEF0CF0FE0E7E
:1016D000BB25BD6FFF0EBC21BE6F34503510D8B492
:1016E00074EF0BF076EF0BF0FEEF0BF0BDC0D9FFFF
:1016F000BEC0DAFFDECFB7F0DDCFB8F0BBC0B9F0C7
:10170000BCC0BAF0B751B927B851BA233450B9198F
:1017100007E13550BA19D8A490EF0BF092EF0BF017
:10172000BCEF0BF020EE02F03450D9263550DA220F
:1017300010EE02F0BD51E126BE51E222DECFE6FFFF
:10174000DDCFE5FF34C0D9FF35C0DAFFDECFB7F01B
:10175000DDCFB8F0020EB727000EB823BDC0D9FF09
:10176000BEC0DAFFB751DE26B851DD22BDC034F06D
:10177000BEC035F00AEF0CF034C0D9FF35C0DAFF37
:10178000DECFB7F0DDCFB8F034C0B9F035C0BAF075
:10179000B751B927B851BA23020EB927000EBA23A0
:1017A000BD51B91907E1BE51BA19D8A4DAEF0BF04F
:1017B000DCEF0BF0F2EF0BF0BDC0D9FFBEC0DAFFDB
:1017C000DECFB7F0DDCFB8F0020EB727000EB8239A
:1017D00034C0D9FF35C0DAFFB751DE26B851DD225B
:1017E0000AEF0CF020EE02F0BD51D926BE51DA22EC
:1017F00034C0DEFF35C0DDFFB6EF0BF020EE02F0A7
:10180000BD51D926BE51DA22000EDE6E000EDD6E0D
:10181000B6EF0BF01200A394000E676E000E656E1B
:10182000000E6A6E6B0E0001B56F0F0EB66F000EE4
:10183000B86F000EB76F000EBA6F020EB96F26ECCC
:1018400009F0160E626E9F0E666E7B0E646E000EC1
:101850000001C16FC151040D000EF324D96E040EB6
:10186000F420DA6EDE6ADE6ADE6ADD6AC12B0B0EF8
:10187000C1653DEF0CF03FEF0CF02AEF0CF0608CEF
:10188000000E636E6098609C6596000E756F000E8A
:101890006D6F000E6F6F000E6E6F65B652EF0CF03D
:1018A00054EF0CF044EF0CF0010E486E010E476E41
:1018B000000E466E000E456E000EA56F000EC16F45
:1018C000C151020D780EF324D96E000EF420DA6EA9
:1018D000000EDE6E000EDD6EC151020D7E0EF32491
:1018E000D96E000EF420DA6E000EDE6E000EDD6E94
:1018F000950EC125D96EDA6A000EDA22000EDF6E6F
:10190000920EC125D96EDA6A000EDA22000EDF6E61
:10191000C12B020EC1658FEF0CF091EF0CF060EF60
:101920000CF0080E786F040E796F160E6A6E040EB6
:101930000401036F300E026F080E016F040E006F7A
:10194000008F000E546E000E2C6E000E2D6E000ED9
:101950002E6E000E2F6E000E0001A46F000E506E52
:101960001200A394000E676E000E656E000E6A6E84
:101970006B0E016E0F0E026E000E046E000E036EF3
:10198000000E066E020E056EE2EC09F0160E626E97
:101990009F0E666E7B0E646E000E0D6E0D50040D74
:1019A000000EF324D96E040EF420DA6EDE6ADE6ACD
:1019B000DE6ADD6A0D2A0B0E0D64E1EF0CF0E3EF39
:1019C0000CF0CEEF0CF0608C000E636E6098609CA3
:1019D0006596000E0001756F000E6D6F000E6F6F43
:1019E000000E6E6F65B6F7EF0CF0F9EF0CF0E8EF54
:1019F0000CF0010E486E010E476E000E466E000E92
:101A0000456E000EA56F000E0D6E0D50020D780E86
:101A1000F324D96E000EF420DA6E000EDE6E000E96
:101A2000DD6E0D50020D7E0EF324D96E000EF420F3
:101A3000DA6E000EDE6E000EDD6E950E0D24D96E90
:101A4000DA6A000EDA22000EDF6E920E0D24D96ED5
:101A5000DA6A000EDA22000EDF6E0D2A020E0D6425
:101A600034EF0DF036EF0DF005EF0DF0080E00012C
:101A7000786F040E796F160E6A6E040E0401036F00
:101A8000300E026F080E016F040E006F008F000E03
:101A9000546E000E2C6E000E2D6E000E2E6E000E7B
:101AA0002F6E000E0001A46F000E506E1200000198
:101AB000C951CA11D8A45FEF0DF061EF0DF063EFCB
:101AC0000DF0C94BCA2B32C032F033C033F0CA51CB
:101AD00007E1040EC95DD8B070EF0DF072EF0DF0A4
:101AE00076EF0DF0000ECA6F040EC96FC9C0B5F0D5
:101AF000CAC0B6F008EC06F0B5C0D1F0B6C0D2F05E
:101B00000001D151D211D8A488EF0DF08AEF0DF069
:101B1000F7EF0DF032509A5DCB6F33509B59CC6F7D
:101B2000C951CB5DCA51CC59D8B099EF0DF09BEF9C
:101B30000DF0D5EF0DF0020EC925CD6F000ECA21B4
:101B4000CE6FCD0EB56F000EB66F0BEC16F0B5C0B4
:101B5000D3F0B6C0D4F00001D351D411D8A4B3EF60
:101B60000DF0B5EF0DF0BBEF0DF0000EC96F000EDC
:101B7000CA6FFBEF0DF0D3C0D3F0D4C0D4F09A51AC
:101B8000D31909E19B51D419D8B4C9EF0DF0CBEFAB
:101B90000DF0CFEF0DF0D3C032F0D4C033F0CD5103
:101BA000D3259A6FCE51D4219B6F32C0D1F033C070
:101BB000D2F0D1C0CFF0D2C0D0F0CFC0D9FFD0C0CA
:101BC000DAFFC9C0DEFFCAC0DDFF020ECF27000E5C
:101BD000D023CFC0D1F0D0C0D2F0020EC925CB6F38
:101BE000000ECA21CC6FCB513226CC513322D1C04A
:101BF000C9F0D2C0CAF01200000120EE04F0BF51BB
:101C0000D926C051DA22010EDBBE10EF0EF0010E14
:101C1000DB5008E1DE04D8A010EF0EF012EF0EF05A
:101C200099EF0EF0FF0EC16FFF0EC26F20EE04F0B1
:101C3000BF51D926C051DA22DECFC3F0DDCFC4F0C8
:101C4000C151C327C251C42320EE04F0BF51D9268D
:101C5000C051DA22C3C0DEFFC4C0DDFFBFC0D9FF60
:101C6000C0C0DAFFDECFC1F0DDCFC2F0C1C0D9FF06
:101C7000C2C0DAFFDECFC5F0DDCFC6F0BFC0D9FFEE
:101C8000C0C0DAFFDECFC7F0DDCFC8F0BFC0D9FFDC
:101C9000C0C0DAFF10EE02F0DE50E126DD50E22295
:101CA000BFC0D9FFC0C0DAFFE6CFDEFFE5CFDDFF62
:101CB00020EE04F0BF51D926C051DA22DE50DE10EA
:101CC000D8A465EF0EF067EF0EF07BEF0EF020EE7C
:101CD00002F0BF51D926C051DA22000EDE6E000E8E
:101CE000DD6EBFC0D9FFC0C0DAFF000EDE6E000E91
:101CF000DD6E8DEF0EF0BFC0D9FFC0C0DAFF10EE71
:101D000002F0DE50E126DD50E222BFC0D9FFC0C0A4
:101D1000DAFFE6CFDEFFE5CFDDFFC7C0B5F0C8C014
:101D2000B6F057EC0BF0C5C0BFF0C6C0C0F09DEFD9
:101D30000EF0000EBF6F000EC06F120020EE01F01B
:101D40003E50D9263F50DA22DF50026E0250000189
:101D50006E5D000E6F59D8B0B0EF0EF0B2EF0EF01E
:101D6000B4EF0EF06EC002F002506E5F000E6F5BBB
:101D7000000E016ECBEF0EF0380E0124D96EDA6A38
:101D8000040EDA226AC0E1FF6BC0E2FFDFCFE7FF9B
:101D90006A4B6B2B012A0250015CD8A0D2EF0EF0E7
:101DA000D4EF0EF0BCEF0EF06E516F11D8B4DBEF34
:101DB0000EF0DDEF0EF016EF0FF020EE01F03C50CC
:101DC000D9263D50DA22080EDF6E20EE02F03C509C
:101DD000D9263D50DA22380EDE6E040EDD6E3EC08E
:101DE000D9FF3FC0DAFFDFBCF8EF0EF0FAEF0EF0DC
:101DF00008EF0FF03CC0D9FF3DC0DAFF480EDF6EA0
:101E00003CC0D9FF3DC0DAFF000EDB8E3FEF0FF084
:101E10003CC0D9FF3DC0DAFF080EDF6E3CC0D9FFE1
:101E20003DC0DAFF000EDB8E3FEF0FF020EE01F039
:101E30003C50D9263D50DA22080EDF6E20EE02F02B
:101E40003C50D9263D50DA22300EDE6E040EDD6E97
:101E50003CC0D9FF3DC0DAFF040EDF6E3CC0D9FFA5
:101E60003DC0DAFF000EDB8E6D9F4950D8A43BEFDA
:101E70000FF03DEF0FF03FEF0FF067EC14F01200A2
:101E80000001BD6F0001B551D8B449EF0FF04BEF21
:101E90000FF059EF0FF0BD51020D780EF324D96EFB
:101EA000000EF420DA6EDECFBEF0DDCFBFF065EFBE
:101EB0000FF0BD51020D7E0EF324D96E000EF420FA
:101EC000DA6EDECFBEF0DDCFBFF0BE51BF11D8A4B9
:101ED0006CEF0FF06EEF0FF074EF0FF0000EB56FB8
:101EE000000EB66FE0EF0FF020EE02F0BE51D926E3
:101EF000BF51DA22B6C0DEFFB7C0DDFF20EE01F031
:101F0000BE51D926BF51DA22B8C0DFFFBEC0D9FF0B
:101F1000BFC0DAFF400EDF16BEC0D9FFBFC0DAFF78
:101F2000000EDB86BEC0D9FFBFC0DAFF000EDB8E1D
:101F3000B551D8B49EEF0FF0A0EF0FF0BFEF0FF048
:101F4000BD51020D780EF324D96E000EF420DA6E26
:101F5000DECFB9F0DDCFBAF0040EB919BB6FBA51BC
:101F6000BC6FBD51020D780EF324D96E000EF42023
:101F7000DA6EBBC0DEFFBCC0DDFFDCEF0FF0BD5191
:101F8000020D7E0EF324D96E000EF420DA6EDECF41
:101F9000B9F0DDCFBAF0040EB919BB6FBA51BC6FFE
:101FA000BD51020D7E0EF324D96E000EF420DA6EC0
:101FB000BBC0DEFFBCC0DDFFBEC0B5F0BFC0B6F029
:101FC00012006098000175BFE8EF0FF0EAEF0FF024
:101FD0002FEF10F06DAFEFEF0FF0F1EF0FF003EF19
:101FE00010F0020E4E6E4550D8A4F9EF0FF0FBEF43
:101FF0000FF0FDEF0FF0B1EC15F0000E476E000E84
:10200000486E81EF10F020EE01F03C50D9263D5093
:10201000DA22080EDF6E20EE02F03C50D9263D5049
:10202000DA22300EDE6E040EDD6E3CC0D9FF3DC0FC
:10203000DAFF0C0EDF6E3CC0D9FF3DC0DAFF000EA8
:10204000DB8E78C0D9FF79C0DAFF040EDF6E78C06E
:10205000D9FF79C0DAFF000EDB8E81EF10F00401AA
:1020600030AF35EF10F037EF10F053EF10F0010EF6
:102070004E6E4650D8A43FEF10F041EF10F043EF02
:1020800010F0B1EC15F0000E476E000E486E49508E
:10209000D8A44DEF10F04FEF10F081EF10F067EC87
:1020A00014F081EF10F0020E4E6E20EE01F03C5065
:1020B000D9263D50DA22080EDF6E20EE02F03C50A9
:1020C000D9263D50DA22300EDE6E040EDD6E3CC0A5
:1020D000D9FF3DC0DAFF040EDF6E3CC0D9FF3DC022
:1020E000DAFF000EDB8E000E476E000E486E495080
:1020F000D8A47DEF10F07FEF10F081EF10F04FEFDC
:1021000010F01200096E0150D8B489EF10F08BEF77
:1021100010F099EF10F00950020D780EF324D96EEB
:10212000000EF420DA6EDECF0AF0DDCF0BF0A5EF63
:1021300010F00950020D7E0EF324D96E000EF4202B
:10214000DA6EDECF0AF0DDCF0BF00A500B10D8A408
:10215000ACEF10F0AEEF10F0B4EF10F0000E016E27
:10216000000E026E20EF11F020EE02F00A50D92688
:102170000B50DA2202C0DEFF03C0DDFF20EE01F0CB
:102180000A50D9260B50DA2204C0DFFF0AC0D9FF5B
:102190000BC0DAFF400EDF160AC0D9FF0BC0DAFF12
:1021A000000EDB860AC0D9FF0BC0DAFF000EDB8E03
:1021B0000150D8B4DEEF10F0E0EF10F0FFEF10F0B8
:1021C0000950020D780EF324D96E000EF420DA6E59
:1021D000DECF05F0DDCF06F0040E0518076E0650C1
:1021E000086E0950020D780EF324D96E000EF4200B
:1021F000DA6E07C0DEFF08C0DDFF1CEF11F00950EA
:10220000020D7E0EF324D96E000EF420DA6EDECFBE
:1022100005F0DDCF06F0040E0518076E0650086EB7
:102220000950020D7E0EF324D96E000EF420DA6EF2
:1022300007C0DEFF08C0DDFF0AC001F00BC002F0DE
:1022400012000001D751D811D8A429EF11F02BEFBB
:1022500011F02DEF11F0B9EF11F0000ECA6F040E5E
:10226000C96F57EC0DF0C9C0DDF0CAC0DEF0D9C0AF
:10227000C9F0DAC0CAF057EC0DF0DDC0D9FFDEC0FE
:10228000DAFF0001C9C0DEFFCAC0DDFFDD51DE118B
:10229000D8B44DEF11F04FEF11F0B9EF11F0DDC0F0
:1022A000D9FFDEC0DAFFDE50DE10D8A45AEF11F0FD
:1022B0005CEF11F05EEF11F0B9EF11F0DDC0D9FF66
:1022C000DEC0DAFFDECFB5F0DDCFB6F0D7C0B7F0B5
:1022D000D8C0B8F0C5EC18F0000120EE04F0D551DC
:1022E000D926D651DA22010EDBBE80EF11F0010EA5
:1022F000DB5008E1DE04D8A080EF11F082EF11F08E
:102300009EEF11F020EE02F0D551D926D651DA22F7
:1023100010EE02F0DE50E126DD50E222DDC0E6FFE5
:10232000DEC0E5FF20EE02F0D551D926D651DA22E3
:10233000DDC0DEFFDEC0DDFFB0EF11F020EE02F009
:10234000D551D926D651DA22DDC0DEFFDEC0DDFF51
:10235000D5C0D9FFD6C0DAFFDDC0DEFFDEC0DDFFAD
:1023600020EE04F0D551D926D651DA22DE2A000E0D
:10237000DD22120004013039E832030B0009D8B421
:10238000C4EF11F0C6EF11F013EF12F04CEF12F0A2
:102390000001758F080E506E4CEF12F09DEC0AF0A4
:1023A0004CEF12F0E0EC14F04CEF12F0540E000180
:1023B000726F000E736F7581010E766F758F4CEF23
:1023C00012F0D5EC12F04CEF12F05AEC04F04CEF96
:1023D00012F0510E34250001726F736B000E7323DF
:1023E0007581010E766F758F4CEF12F00001758FBD
:1023F000510E04013425D96EDA6A000EDA2232C495
:10240000DFFF4CEF12F0000E0E6E020E0D6E000E8E
:102410000F6E000E106E000E126E000E116E4DEC5F
:1024200017F04CEF12F031511C6E1D6A1D50000A5E
:10243000D8B41DEF12F04CEF12F01C50000AD8B4C3
:10244000E1EF11F0010AD8B4E5EF11F0020AD8B4B7
:10245000E5EF11F0060AD8B4C8EF11F0030AD8B4BA
:10246000CEEF11F0010AD8B403EF12F00F0AD8B47E
:10247000D6EF11F0010AD8B4D2EF11F0030AD8B4A4
:10248000E9EF11F0010AD8B4F6EF11F0070AD8B459
:102490004CEF12F04CEF12F01200080E016E00012A
:1024A000775107E1080E765DD8B059EF12F05BEF77
:1024B00012F073EF12F076C001F04F50D8A463EF22
:1024C00012F065EF12F069EF12F0010E4F6E73EF2C
:1024D00012F04F04D8A46FEF12F071EF12F073EF07
:1024E00012F0020E4F6E0150765F000E775B20EE09
:1024F00001F07851D9267951DA2201C0DFFF380E78
:102500003A6E040E3B6E75B188EF12F08AEF12F04E
:10251000CCEF12F0A7EF12F072C0F6FF73C0F7FF16
:10252000F86A3AC0D9FF3BC0DAFF070EF76403D060
:102530000800F55005D0F6CFE9FFF7CFEAFFEF50DE
:10254000DF6E0001724B732B3A4A3B2A01060150A1
:10255000D8A4ADEF12F0AFEF12F08CEF12F0D4EF81
:1025600012F072C0F6FF73C0F7FFF86A3AC0D9FFE5
:102570003BC0DAFF070EF76403D00800F55005D022
:10258000F6CFE9FFF7CFEAFFEF50DF6E0001724BA5
:10259000732B3A4A3B2A01060150D8A4D2EF12F01D
:1025A000D4EF12F0B1EF12F01200000E0401386FF8
:1025B000000E396F32EF13F00001758F4D04D8A46F
:1025C000E4EF12F0E6EF12F04CEF13F00401388361
:1025D0004CEF13F00001758F4CEF13F00001758F75
:1025E000040134BFF6EF12F0F8EF12F009EF13F028
:1025F00034510F0B016E0150020D7E0EF324D96E83
:10260000000EF420DA6EDECF03F0DDCF04F018EF19
:1026100013F034510F0B016E0150020D780EF324AC
:10262000D96E000EF420DA6EDECF03F0DDCF04F0B9
:1026300003C0D9FF04C0DAFFDFAE21EF13F023EFB0
:1026400013F04CEF13F003C0D9FF04C0DAFFDFA48E
:102650002CEF13F02EEF13F04CEF13F0010E386F48
:102660004CEF13F030511F0B016E026A0250000A4A
:10267000D8B43DEF13F04CEF13F00150000AD8B47A
:10268000DCEF12F0010AD8B4EAEF12F0030AD8B472
:10269000EEEF12F04CEF13F0000175AF52EF13F0B4
:1026A00054EF13F05BEF13F0380E726F040E736F7C
:1026B0007581020E766F1200040130511F0BE8067F
:1026C000D8B465EF13F067EF13F069EF13F0E1EFA3
:1026D00013F03039E832030BE806D8B472EF13F088
:1026E00074EF13F076EF13F0E1EF13F03451D8B438
:1026F0007CEF13F07EEF13F0C0EF13F03405D8B485
:1027000084EF13F086EF13F0C0EF13F0E1EF13F056
:10271000A60E0001726F000E736F000E776F080E29
:10272000766F7581758FE1EF13F0A60E0001726F61
:10273000000E736F758FE1EF13F036C46EF037C47F
:102740006FF0AE0E00016A6F000E6B6F000E706FBF
:10275000000E716F6D8FE1EF13F0AE0E0001726F1E
:10276000000E736F000E776F070E766FC10E756FD8
:10277000E1EF13F032C442F00001758FE1EF13F086
:102780003151016E026A0250000AD8B4CAEF13F048
:10279000E1EF13F00150000AD8B488EF13F0010AFA
:1027A000D8B495EF13F0210AD8B49DEF13F0010AC5
:1027B000D8B4ADEF13F0030AD8B4BAEF13F0E1EFD9
:1027C00013F0120078C0D9FF79C0DAFF0001000EC3
:1027D000DFBC010E026E040E7819786F7951796FA3
:1027E000080E5018D8A4F7EF13F0F9EF13F00BEF21
:1027F00014F0040132517F0B636E6350D8B403EFC1
:1028000014F005EF14F009EF14F0100E506E0BEFFA
:1028100014F0040E506E4E04D8A411EF14F013EF10
:1028200014F05BEF14F0000120EE02F07851D9268D
:102830007951DA22380EDE6E040EDD6E4DEC12F0A8
:10284000020E4F18D8A427EF14F029EF14F037EF39
:1028500014F078C0D9FF79C0DAFF040EDF6E78C0BB
:10286000D9FF79C0DAFF000EDB8E66EF14F002505C
:10287000D8A43DEF14F03FEF14F04DEF14F078C002
:10288000D9FF79C0DAFF480EDF6E78C0D9FF79C072
:10289000DAFF000EDB8E66EF14F078C0D9FF79C046
:1028A000DAFF080EDF6E78C0D9FF79C0DAFF000EBC
:1028B000DB8E66EF14F000016DAF61EF14F063EF93
:1028C00014F064EF14F06D9F000E4E6E120048502D
:1028D000D8A46DEF14F06FEF14F0DFEF14F0010ED9
:1028E000486E4750D8A477EF14F079EF14F0DFEF7B
:1028F00014F0010E476E020E4E18D8A482EF14F0A9
:1029000084EF14F09BEF14F0000120EE01F07851F9
:10291000D9267951DA22000EDF6E78C0D9FF79C04E
:10292000DAFF480EDF6E78C0D9FF79C0DAFF000EFB
:10293000DB8EDFEF14F04E04D8A4A1EF14F0A3EF68
:1029400014F0DFEF14F0000E4B6E20EE01F03E505D
:10295000D9263F50DA22080EDF6E20EE02F03E50FC
:10296000D9263F50DA22300EDE6E040EDD6E3EC0F8
:10297000D9FF3FC0DAFF040EDF6E3EC0D9FF3FC073
:10298000DAFF000EDB8E010E4B6E20EE01F03C50A4
:10299000D9263D50DA22080EDF6E20EE02F03C50C0
:1029A000D9263D50DA22300EDE6E040EDD6E3CC0BC
:1029B000D9FF3DC0DAFF800EDF6EDFEF14F01200AA
:1029C0000001758F6B0E016E0F0E026E000E046E0D
:1029D000000E036E000E066E020E056EE2EC09F0AC
:1029E000000E016E040E026E000E046E000E036EE9
:1029F000000E066E300E056EE2EC09F0608C000EE3
:102A0000156E950E1524D96EDA6A000EDA22000EC4
:102A1000DF6E920E1524D96EDA6A000EDA22000EED
:102A2000DF6E152A020E156418EF15F01AEF15F077
:102A300001EF15F0510E016E000E026E000E046ED5
:102A4000000E036E000E066E020E056EE2EC09F03B
:102A5000609C080E0001786F040E796F000E3E6EC8
:102A6000040E3F6E3EC03CF03FC03DF032C454F017
:102A70005450D8A43EEF15F040EF15F044EF15F098
:102A8000100E506E54EF15F0000E0E6E010E0D6E0E
:102A9000540E0F6E000E106E000E126E010E116EAF
:102AA0004DEC17F0200E506E12002D0E4A6E53C0E2
:102AB0001EF0FD0E1E16D8A460EF15F062EF15F0A3
:102AC000A4EF15F053C01EF0D8901E323F0E1E1614
:102AD0001E50040D000EF3243E6E040EF4203F6ED3
:102AE0003EC03CF03FC03DF0040E3C183C6E3D50F3
:102AF0003D6E3EC0D9FF3FC0DAFFDF30E8320F0B3A
:102B00000D0AD8A486EF15F088EF15F0A0EF15F0A8
:102B1000300E016E040E026E20EE02F03E50D926F9
:102B20003F50DA22DECF03F0DDCF04F0000E066E58
:102B3000080E056E56EC18F005EC17F0B0EF15F026
:102B400091EC17F0B0EF15F05350FD0B040AD8A428
:102B5000ACEF15F0AEEF15F0B0EF15F0E2EC13F0BE
:102B60001200000E466E000E456E020E4E18D8A4DE
:102B7000BCEF15F0BEEF15F0DEEF15F020EE01F022
:102B80003C50D9263D50DA22080EDF6E20EE02F0CE
:102B90003C50D9263D50DA22380EDE6E040EDD6E32
:102BA0003CC0D9FF3DC0DAFF480EDF6E3CC0D9FF04
:102BB0003DC0DAFF000EDB8E0AEF16F00001765101
:102BC0000401365D0001775104013759D8B0EBEFAD
:102BD00015F0EDEF15F0F1EF15F036C476F037C4CF
:102BE00077F04DEC12F0000120EE02F07851D9267A
:102BF0007951DA22380EDE6E040EDD6E78C0D9FF10
:102C000079C0DAFF480EDF6E78C0D9FF79C0DAFFED
:102C1000000EDB8E1200B5C0D9FFB6C0DAFFDECFE2
:102C2000B9F0DDCFBAF030503110D8A41AEF16F059
:102C30001CEF16F020EF16F0000E306E080E316E0D
:102C40000001BA5107E1060EB95DD8B02AEF16F0BF
:102C50002CEF16F030EF16F0000EBA6F060EB96FBB
:102C6000B951305CBB6FBA513158BC6F800EB76F31
:102C7000050EB86FB751BB5DB851BC59D8A043EF32
:102C800016F045EF16F050EF16F03050BB5D3150A6
:102C9000BC59D8A04EEF16F050EF16F05AEF16F0D0
:102CA000000E996F0C0E986F000EB56F000EB66F88
:102CB00062EF16F0BBC030F0BCC031F030C0B5F0F0
:102CC00031C0B6F01200066E000E076E040E086EDC
:102CD0000150026E036AD890023603360650046E25
:102CE000056AD89004360536D89004360536025069
:102CF000042603500522D89004360536D8900436B1
:102D00000536045007260550082207C0D9FF08C021
:102D1000DAFFDF9E0150D8A490EF16F092EF16F084
:102D2000A0EF16F00650020D7E0EF324D96E000EB1
:102D3000F420DA6E07C0DEFF08C0DDFFACEF16F04E
:102D40000650020D780EF324D96E000EF420DA6ED0
:102D500007C0DEFF08C0DDFF07C0D9FF08C0DAFFEB
:102D6000DF9C20EE04F00750D9260850DA22DF8CD1
:102D700012005CEC19F0F28EF28CE30E0001B56FDC
:102D8000000EB66F07EC19F0E30E0001D56F000ED0
:102D9000D66FAC0ED76F080ED86FAC0EB56F080E9D
:102DA000B66F2DEC18F0B5C0D9F0B6C0DAF021EC52
:102DB00011F0E30E0001BF6F000EC06FFCEC0DF0D0
:102DC000BFC0E1F0C0C0E2F0E1C0C2F0E2C0C3F0B9
:102DD000E1C0B5F0E2C0B6F02DEC18F0B5C0C4F01B
:102DE000B6C0C5F0DCEC19F01F0E0001E06F710EEB
:102DF000DF6F1E0EE82EFED7DF2FFCD7E02FFAD7AD
:102E000000F0C4EF16F04EEF00F0000E4F6E000E13
:102E1000496E000E466E000E456E000E4B6E000EA3
:102E20004E6E78C0D9FF79C0DAFF7F0EDF16040E30
:102E300000017819786F7951796F78C0D9FF79C01E
:102E4000DAFF7F0EDF16040E7819786F7951796FEB
:102E50003CC0D9FF3DC0DAFF7F0EDF16000E756F54
:102E6000000E776F000E766F000E6D6F000E6F6FA5
:102E7000000E6E6FBAEC11F0000E0E6E030E0D6EAA
:102E8000000E0F6E000E106E000E126E000E116E10
:102E90004DEC17F0E1EC0FF0120057EF17F0CBEC10
:102EA00017F090EF17F05CEC13F090EF17F00DC0F7
:102EB00013F00EC014F01450000AD8B466EF17F0E7
:102EC0007F0AD8B489EF17F090EF17F01350010A7A
:102ED000D8B44FEF17F0030AD8B490EF17F0010AF7
:102EE000D8B453EF17F0060AD8B490EF17F0770A6A
:102EF000D8B490EF17F0010AD8B490EF17F0070A92
:102F0000D8B490EF17F0010AD8B490EF17F090EF13
:102F100017F01350FF0AD8B490EF17F090EF17F0A6
:102F20001200020E4E18D8A498EF17F09AEF17F07F
:102F30009EEF17F09EEC0EF0CAEF17F0000E4E6EEB
:102F40004B50D8A4A6EF17F0A8EF17F0C8EF17F072
:102F500020EE01F03C50D9263D50DA22080EDF6EFB
:102F600020EE02F03C50D9263D50DA22300EDE6EC3
:102F7000040EDD6E3CC0D9FF3DC0DAFF0C0EDF6EE3
:102F80003CC0D9FF3DC0DAFF000EDB8ECAEF17F060
:102F9000000E4B6E1200000E0001AE6F4B0EAF6FB5
:102FA000000EB06F000EB16F000EB26F000EB36F67
:102FB000080EB46F000E446E1A0E096E010E7EEC00
:102FC00018F01E0E096E020E7EEC18F0000E016E57
:102FD000400E026E050E036E400E046E020E82EC71
:102FE00010F001C038F002C039F0000E0001A06FEF
:102FF000000EA16F000E436E12006AA002EF18F0DF
:1030000004EF18F02BEF18F03EC0D9FF3FC0DAFFF5
:10301000800EDE18D8A40FEF18F011EF18F02AEF89
:1030200018F078C0D9FF79C0DAFF840EDE18D8A472
:103030001CEF18F01EEF18F02AEF18F03EC0D9FF71
:103040003FC0DAFF0C0EDF6E3EC0D9FF3FC0DAFF93
:10305000000EDB8E6A90659A1200B5C0B7F0B6C05C
:10306000B8F036EF18F00001B54BB62BB5C0F6FF3F
:10307000B6C0F7FFF86A070EF76403D00800F550F2
:1030800005D0F6CFE9FFF7CFEAFFEF500009D8A44B
:103090004CEF18F04EEF18F033EF18F00001B75175
:1030A000B55DB56FB851B659B66F120003C009F0DF
:1030B00004C00AF001C007F002C008F070EF18F079
:1030C00009C0D9FF0AC0DAFFDF500B6E094A0A2A8D
:1030D00007C0D9FF08C0DAFF0BC0DFFF074A082A84
:1030E0000506D8A00606052806E10628D8A47BEF29
:1030F00018F07DEF18F060EF18F012000C6E09A4C4
:1031000084EF18F086EF18F08BEF18F0000E016EC8
:103110000C5063EC16F009A290EF18F092EF18F043
:1031200097EF18F0010E016E0C5063EC16F06A0E6A
:103130000C240A6E0B6A0F0E0B220AC0D9FF0BC0BB
:10314000DAFF09C0DFFF12005050D8A4AAEF18F030
:10315000ACEF18F0C4EF18F0000E606E000E646E55
:10316000160E626E9F0E666E7B0E646EA584A3843F
:10317000BBEF18F0608660A6C0EF18F0C2EF18F041
:10318000BAEF18F0010E506E1200B7C0B9F0B8C017
:10319000BAF0B5C0BBF0B6C0BCF0B9C0F6FFBAC05B
:1031A000F7FF0001B94BBA2BBBC0D9FFBCC0DAFF97
:1031B000BB4BBC2B0800F5CFDFFFDF50D8A4E3EFFB
:1031C00018F0E5EF18F0CDEF18F01200000E000136
:1031D000A56F000E0E6E740E0D6E000E0F6E000EBB
:1031E000106E000E126E000E116E4DEC17F0609214
:1031F0006494FCEF18F0659465B401EF19F003EFE7
:1032000019F0FBEF18F0000E0001A46F1200B5C01A
:10321000D9FFB6C0DAFF000EDE6E000EDD6E0001D3
:1032200020EE02F0B551D926B651DA22000EDE6E3C
:10323000000EDD6E20EE04F0B551D926B651DA222B
:10324000000EDE6E000EDD6E120001EE00F011EEDB
:1032500000F0EE6AE550E150FCE1E250FAE100EEE8
:1032600060F0550EEE6AE806FDE100EE2CF0290E46
:10327000EE6AE806FDE155905592000EF86E0001E9
:10328000B9EF16F0010E2C26000E2D222E222F2231
:103290000001A551D8A44FEF19F051EF19F05BEFE1
:1032A00019F0A42BA451D8A458EF19F05AEF19F033
:1032B0005BEF19F0A469120009EC1AF0A0EC19F008
:1032C000F0EC19F0F9EC19F00BEC0CF0D1EC19F072
:1032D000B5EC19F002EC1AF0C3EC19F0E7EC19F0B8
:1032E000A4EC18F01200648465986082010E00015D
:1032F000A56F000EA46F000E0E6E750E0D6E000E03
:103300000F6E000E106E000E126E000E116E4DEC60
:1033100017F01200A3944350D8A491EF19F093EF43
:1033200019F09EEF19F0B5C08FF0B6C090F0B7C09D
:10333000A3F0010E0001A26F010E436EA3841200E0
:10334000000E896E000E8A6E000E8B6E9268936876
:10335000C70E946EC40E0F015D6F3F0E5C6F2F0E93
:103360005B6F000E856EF18E1200000EB46E000EC3
:10337000B36E000EB26EB2CF36F0B3CF37F0A1927B
:10338000010EB16E1200000ECC6E000ECF6E000E5C
:10339000CE6ECECF9EF0CFCF9FF09E90010ECD6E21
:1033A0001200000EC16E060EC06E000EC36E000E3F
:1033B000C46E010EC26E1200C2C0B5F0C3C0B6F03A
:1033C000C4C0B7F08AEC19F05AEC08F01200000EF5
:1033D000D76E000ED66E000E416EF294D5681200C4
:1033E000700ED36E000ED26E800E9B6E000EB56E08
:1033F0001200040E976E000E906E000E916E0F017B
:1034000059971200BB68000EBC6E9E92040EBA6EF5
:063410001200D09E120024
:020000040020DA
:08000000FFFFFFFFFFFFFFFF00
:020000040030CA
:0E00000023285F3CFFD385FF0FC00FE00F40A9
:00000001FF
