:040000007CEF00F0A1
:100008005982FACF20F0FBCF21F0E9CF22F0EACFD6
:1000180023F0E1CF24F0E2CF25F0D9CF26F0DACFD4
:1000280027F0F3CF28F0F4CF29F0F6CF2AF0F7CF56
:100038002BF0F8CF2CF0F5CF2DF0F2AA26EF00F038
:1000480028EF00F033EF00F0F2A42DEF00F02FEFCF
:1000580000F033EF00F0BEEC2BF05EEF00F0F2ACF6
:1000680038EF00F03AEF00F05EEF00F0A3A43FEFA6
:1000780000F041EF00F04CEF00F0A4A446EF00F0D0
:1000880048EF00F04CEF00F0A7EC14F05EEF00F042
:10009800A0A251EF00F053EF00F05EEF00F0A1A234
:1000A80058EF00F05AEF00F05EEF00F0F2EC2AF0A3
:1000B8005EEF00F02DC0F5FF2CC0F8FF2BC0F7FF56
:1000C8002AC0F6FF29C0F4FF28C0F3FF27C0DAFFD3
:1000D80026C0D9FF25C0E2FF24C0E1FF23C0EAFF04
:1000E80022C0E9FF21C0FBFF20C0FAFF599211008E
:0400F8004AEF29F0B2
:1008000000A8084C088008090809024300020100FA
:10081000C032090400000102020100052400100199
:100820000424020205240600010524010001070535
:1008300081030A000209040100020A000000070502
:1008400002024000000705820240000034034D0010
:100850006900630072006F00630068006900700047
:10086000200054006500630068006E006F006C009B
:100870006F0067007900200049006E0063002E00C1
:10088000160342006F00620069006E0061006400A0
:100890006F00720061001201000202000008D8041B
:1008A0000A0000010102000104030904494E4649FF
:1008B0004E49545900696E66696E697479004E41FB
:0B08C0004E00696E66006E616E000065
:1008CC0000017B517C11D8B46EEF04F070EF04F092
:1008DC007CEF04F07BC0D9FF7CC0DAFF79C0DEFF6F
:1008EC007AC0DDFF7CEF04F0794B7A2B79C0D9FF0D
:1008FC007AC0DAFF200EDE18D8B487EF04F08AEF46
:10090C0004F0010E8BEF04F0000E876F886B87519B
:10091C008811D8A494EF04F096EF04F07AEF04F069
:10092C00F70E7D6FFF0E7E6F79C0D9FF7AC0DAFFAC
:10093C00DF507F6F7F51876F886B87C080F088C0D6
:10094C0081F07D5180277E518123815109E1050E73
:10095C00805DD8A0B4EF04F0B6EF04F07AEF04F0A9
:10096C00000E846F2D0E87198811D8A4C0EF04F0E7
:10097C00C2EF04F0C8EF04F0010E846F794B7A2BB0
:10098C00D4EF04F02B0E87198811D8A4D0EF04F003
:10099C00D2EF04F0D4EF04F0C4EF04F0000E8D6F2E
:1009AC00D9EF04F08D2B8D517925D96E000E7A215B
:1009BC00DA6EDF50D8B4E5EF04F0E7EF04F017EF90
:1009CC0005F08D517925D96E000E7A21DA6EDF5043
:1009DC007D6FB50E8D25F66EF76A080EF7220800AE
:1009EC00F5507D19D8B4FDEF04F0FFEF04F0D8EF0B
:1009FC0004F08D517925D96E000E7A21DA6EDF5014
:100A0C007D6FAC0E8D25F66EF76A080EF722080086
:100A1C00F5507D19D8B415EF05F017EF05F0D8EFA8
:100A2C0004F0020E8D651DEF05F01FEF05F04BEF86
:100A3C0005F0000E896F000E8A6F800E8B6F7F0E93
:100A4C008C6F7B517C11D8B42EEF05F030EF05F094
:100A5C0096EF0CF0080E8D19D8B437EF05F039EF7E
:100A6C0005F03BEF05F0030E8D6F8D5179257D6FF1
:100A7C00000E7A217E6F7BC0D9FF7CC0DAFF7DC06F
:100A8C00DEFF7EC0DDFF96EF0CF0000E8D6F50EF99
:100A9C0005F08D2B8D517925D96E000E7A21DA6EE9
:100AAC00DF50D8B45CEF05F05EEF05F08EEF05F08B
:100ABC008D517925D96E000E7A21DA6EDF507D6F5B
:100ACC00C60E8D25F66EF76A080EF7220800F55053
:100ADC007D19D8B474EF05F076EF05F04FEF05F003
:100AEC008D517925D96E000E7A21DA6EDF507D6F2B
:100AFC00BE0E8D25F66EF76A080EF7220800F5502B
:100B0C007D19D8B48CEF05F08EEF05F04FEF05F0A2
:100B1C00030E8D19D8A495EF05F097EF05F006EFAD
:100B2C0006F0C10E606F080E616F86EC2CF060C091
:100B3C0089F061C08AF062C08BF063C08CF0000158
:100B4C007B517C11D8B4ADEF05F0AFEF05F096EF0B
:100B5C000CF08D517927000E7A2379C0D9FF7AC019
:100B6C00DAFF280EDE18D8A4BEEF05F0C0EF05F0B2
:100B7C00FCEF05F0000E8D6FC5EF05F08D2B8D5140
:100B8C007925D96E000E7A21DA6EDF50D8B4D1EF08
:100B9C0005F0D3EF05F0E2EF05F08D517925D96E14
:100BAC00000E7A21DA6E290EDE18D8A4E0EF05F0DB
:100BBC00E2EF05F0C4EF05F08D517925D96E000EEA
:100BCC007A21DA6E290EDE18D8A4EFEF05F0F1EFDA
:100BDC0005F0FCEF05F08D517D6F7E6B010E7D27CE
:100BEC00000E7E237D5179277E517A237BC0D9FF5D
:100BFC007CC0DAFF79C0DEFF7AC0DDFF96EF0CF027
:100C0C00000E886F000E876F000E896F000E8A6FC2
:100C1C00000E8B6F000E8C6F000E866F000E856FB2
:100C2C00000E8D6F1BEF06F08D2B8D517925D96E33
:100C3C00000E7A21DA6E300EDE18D8B428EF06F0EA
:100C4C002AEF06F01AEF06F08D51D8B430EF06F00B
:100C5C0032EF06F0A7EF09F08D517925D96E000E11
:100C6C007A21DA6E780EDE18D8B43FEF06F041EF39
:100C7C0006F050EF06F08D517925D96E000E7A21D1
:100C8C00DA6E580EDE18D8A44EEF06F050EF06F0D0
:100C9C00A7EF09F08D517D6F7E6B010E7D27000E45
:100CAC007E237D5179277E517A23000E8D6F60EF64
:100CBC0006F08D2B8D517925D96E000E7A21DA6EC6
:100CCC00300EDE18D8B46DEF06F06FEF06F05FEF64
:100CDC0006F0000E8D6F8D517925D96E000E7A219C
:100CEC00DA6E700EDE18D8B47EEF06F080EF06F0E8
:100CFC00F6EF07F08D517925D96E000E7A21DA6E58
:100D0C00500EDE18D8A48DEF06F08FEF06F091EFA1
:100D1C0006F0F6EF07F08D517925D96E000E7A2189
:100D2C00DA6E2E0EDE18D8A49EEF06F0A0EF06F0B9
:100D3C00A4EF06F084898D2BF6EF07F08D51792501
:100D4C00D96E000E7A21DA6EDF507D6F7D51666FA1
:100D5C00676B3EEC28F0000166516711D8B4B9EF0F
:100D6C0006F0BBEF06F02AEF07F0000E836FD00EF3
:100D7C007D6FFF0E7E6F8D517925D96E000E7A2115
:100D8C00DA6EDF507F6F806B7D517F277E51802321
:100D9C00805107E10A0E7F5DD8B0D7EF06F0D9EF8E
:100DAC0006F0E4EF06F08D517925D96E000E7A210C
:100DBC00DA6EDF50D00F836FF5EF06F08D51792589
:100DCC00D96E000E7A21DA6EDF507D6F7D51666F21
:100DDC00676B6EEC2AF000016651C90F836F88BFF8
:100DEC0003EF07F0885107E1080E875DD8B001EFDB
:100DFC0007F003EF07F022EF07F0875107087D6F2C
:100E0C00D8907D37D8907D3783C07EF07F6B806B18
:100E1C00816B7D2B17EF07F0D8907E377F378037AB
:100E2C0081377D2F12EF07F07E5189137F518A1382
:100E3C0080518B1381518C13874B882B040E852783
:100E4C00000E862334EF07F0000E796F000E7A6FD8
:100E5C00000E7B6F000E7C6FB7EF0CF08D2B71EFDB
:100E6C0006F08D517925D96E000E7A21DA6E700E4E
:100E7C00DE18D8B444EF07F046EF07F0FDEF07F0AB
:100E8C008D517925D96E000E7A21DA6E500EDE184E
:100E9C00D8A453EF07F055EF07F057EF07F0FDEF2D
:100EAC0007F08D517925D96E000E7A21DA6E300E4D
:100EBC00DE18D8A464EF07F066EF07F075EF07F0C3
:100ECC0087518811D8A46DEF07F06FEF07F075EF1D
:100EDC0007F0FC0E8527FF0E8623F5EF07F08D51EA
:100EEC007925D96E000E7A21DA6EDF507D6F7D5137
:100EFC00666F676B3EEC28F0000166516711D8B441
:100F0C008AEF07F08CEF07F0F5EF07F0000E836F18
:100F1C00D00E7D6FFF0E7E6F8D517925D96E000E30
:100F2C007A21DA6EDF507F6F806B7D517F277E5187
:100F3C008023805107E10A0E7F5DD8B0A8EF07F03F
:100F4C00AAEF07F0B5EF07F08D517925D96E000E99
:100F5C007A21DA6EDF50D00F836FC6EF07F08D5118
:100F6C007925D96E000E7A21DA6EDF507D6F7D51B6
:100F7C00666F676B6EEC2AF000016651C90F836FC8
:100F8C0088BFD4EF07F0885107E1080E875DD8B011
:100F9C00D2EF07F0D4EF07F0F3EF07F08751070813
:100FAC007D6FD8907D37D8907D3783C07EF07F6B76
:100FBC00806B816B7D2BE8EF07F0D8907E377F3705
:100FCC00803781377D2FE3EF07F07E5189137F51F6
:100FDC008A1380518B1381518C13874B882B8D2B4B
:100FEC0084B9FBEF07F0FDEF07F037EF07F08D51F9
:100FFC007925D96E000E7A21DA6E700EDE18D8B40F
:10100C000AEF08F00CEF08F025EF08F08D51792568
:10101C00D96E000E7A21DA6E500EDE18D8B419EFA4
:10102C0008F01BEF08F025EF08F0000E796F000EAA
:10103C007A6F000E7B6F000E7C6FB7EF0CF08D2B70
:10104C008D517925D96E000E7A21DA6E2B0EDE18B1
:10105C00D8A433EF08F035EF08F038EF08F08D2BFB
:10106C0049EF08F08D517925D96E000E7A21DA6E90
:10107C002D0EDE18D8A445EF08F047EF08F049EF25
:10108C0008F084878D2B8D517927000E7A23000E62
:10109C008D6F52EF08F08D2B8D517925D96E000E86
:1010AC007A21DA6E300EDE18D8B45FEF08F061EFFB
:1010BC0008F051EF08F0000E886F000E876F94EF68
:1010CC0008F08D51D8B46DEF08F06FEF08F07DEF9C
:1010DC0008F087C060F088C061F0000E636F0A0EE4
:1010EC00626F5EEC2CF060C087F061C088F0D00EAF
:1010FC0000017D6FFF0E7E6F8D517925D96E000E2C
:10110C007A21DA6EDF507F6F806B7D517F277E51A5
:10111C0080237F518727805188238D2BD00E7D6FA4
:10112C00FF0E7E6F8D517925D96E000E7A21DA6E05
:10113C00DF507F6F806B7D517F277E5180238051E4
:10114C0009E10A0E7F5DD8A0AEEF08F0B0EF08F011
:10115C0067EF08F08D51D8A4B6EF08F0B8EF08F09F
:10116C00C2EF08F0000E796F000E7A6F000E7B6FE5
:10117C00000E7C6FB7EF0CF084A7C7EF08F0C9EF37
:10118C0008F0CDEF08F0876D881FD8B0882B8751F9
:10119C008527885186237B517C11D8B4D8EF08F071
:1011AC00DAEF08F0E8EF08F08D5179257D6F000E2D
:1011BC007A217E6F7BC0D9FF7CC0DAFF7DC0DEFF59
:1011CC007EC0DDFF89518A118B118C11D8A4F1EFEF
:1011DC0008F0F3EF08F0FDEF08F0000E796F000E49
:1011EC007A6F000E7B6F000E7C6FB7EF0CF0FF0E6A
:1011FC0089157D6F000E8A157E6F000E8B157F6F23
:10120C00000E8C15806F80517F117E1109E1810ECB
:10121C007D5DD8A014EF09F016EF09F028EF09F066
:10122C00000E8927010E8A23000E8B23000E8C23BF
:10123C0028EF09F0D89089378A378B378C37850798
:10124C00D8A086078CAF2DEF09F02FEF09F020EF17
:10125C0009F086AF3BEF09F0830E855DFF0E8659D2
:10126C00D8B03BEF09F03DEF09F049EF09F0FF0E64
:10127C00866F810E856F000E896F000E8A6F000ECF
:10128C008B6F000E8C6F810E851908E18629D8B4FE
:10129C0052EF09F054EF09F05CEF09F0D890893760
:1012AC008A378B378C378507D8A0860786BF68EFBF
:1012BC0009F0865109E1800E855DD8A068EF09F030
:1012CC006AEF09F076EF09F0000E896F000E8A6F55
:1012DC00000E8B6F000E8C6F000E866F800E856F6C
:1012EC00090E7D6FD8908C338B338A3389337D2FE5
:1012FC0078EF09F0FF0E8917FF0E8A177F0E8B17F8
:10130C00000E8C177F0E85257D6F000E86217E6F5B
:10131C00FF0E7D157F6F806B816B826B170ED890E3
:10132C007F37803781378237E82E95EF09F07F5170
:10133C00891380518A1381518B1382518C1396EF30
:10134C000CF084B9ACEF09F0AEEF09F0C0EF09F086
:10135C0079C0D9FF7AC0DAFF2E0EDE18D8A4B9EF07
:10136C0009F0BBEF09F0C0EF09F08489794B7A2BB7
:10137C00A7EF09F0D00E7D6FFF0E7E6F79C0D9FFFD
:10138C007AC0DAFFDF507F6F806B7D517F277E51F3
:10139C008023805109E10A0E7F5DD8A0D8EF09F0B7
:1013AC00DAEF09F0DCEF09F02BEF0AF08483090E79
:1013BC0087198811D8B4E5EF09F0E7EF09F01EEFB3
:1013CC000AF084A9ECEF09F0EEEF09F0F1EF09F067
:1013DC008507D8A08607874B882B89C060F08AC008
:1013EC0061F08BC062F08CC063F00A0E646F000E6B
:1013FC00656F000E666F000E676F77EC28F060C0AB
:10140C0089F061C08AF062C08BF063C08CF079C047
:10141C00D9FF7AC0DAFFDF5000017D6FD00E7D2737
:10142C007D518927000E8A238B238C2327EF0AF00A
:10143C0084B923EF0AF025EF0AF027EF0AF0854B69
:10144C00862B794B7A2BA7EF09F0000E886F000ED4
:10145C00876F79C0D9FF7AC0DAFF650EDE18D8B471
:10146C003AEF0AF03CEF0AF049EF0AF079C0D9FFE5
:10147C007AC0DAFF450EDE18D8A447EF0AF049EF20
:10148C000AF013EF0BF0794B7A2B79C0D9FF7AC0A5
:10149C00DAFF2D0EDE18D8A456EF0AF058EF0AF03A
:1014AC005DEF0AF08487794B7A2B6CEF0AF079C0E8
:1014BC00D9FF7AC0DAFF2B0EDE18D8A468EF0AF039
:1014CC006AEF0AF06CEF0AF0794B7A2B79C0D9FFEE
:1014DC007AC0DAFF300EDE18D8B477EF0AF079EF65
:1014EC000AF06AEF0AF0D00E7D6FFF0E7E6F79C0A6
:1014FC00D9FF7AC0DAFFDF507F6F806B7D517F2779
:10150C007E518023805107E10A0E7F5DD8B091EFA8
:10151C000AF093EF0AF008EF0BF079C0D9FF7AC00C
:10152C00DAFFDF507D6FD00E7D277D51876F886B82
:10153C00794B7A2BD00E7D6FFF0E7E6F79C0D9FF61
:10154C007AC0DAFFDF507F6F806B7D517F277E5131
:10155C008023805107E10A0E7F5DD8B0B8EF0AF006
:10156C00BAEF0AF008EF0BF079C0D9FF7AC0DAFFB6
:10157C00DF507D6FD00E7D2787C060F088C061F092
:10158C00000E636F0A0E626F5EEC2CF000017D5151
:10159C006025876F000E6121886F794B7A2BD00EF6
:1015AC007D6FFF0E7E6F79C0D9FF7AC0DAFFDF50F6
:1015BC007F6F806B7D517F277E518023805107E1A7
:1015CC000A0E7F5DD8B0EDEF0AF0EFEF0AF008EFEE
:1015DC000BF079C0D9FF7AC0DAFFDF507D6FD00EE7
:1015EC007D2787C060F088C061F0000E636F0A0E23
:1015FC00626F5EEC2CF000017D516025876F000E50
:10160C006121886F84A70DEF0BF00FEF0BF013EF38
:10161C000BF0876D881FD8B0882B87518527885190
:10162C0086237B517C11D8B41EEF0BF020EF0BF00E
:10163C002FEF0BF084A325EF0BF027EF0BF02FEF20
:10164C000BF07BC0D9FF7CC0DAFF79C0DEFF7AC01B
:10165C00DDFF89C060F08AC061F08BC062F08CC085
:10166C0063F0000EB9EC15F060C089F061C08AF02F
:10167C0062C08BF063C08CF089C060F08AC061F0EE
:10168C008BC062F08CC063F0000E0001646F000E22
:10169C00656F000E666F000E676F08EC26F0000198
:1016AC00D8A05BEF0BF05DEF0BF067EF0BF0000ECB
:1016BC00796F000E7A6F000E7B6F000E7C6FB7EFA8
:1016CC000CF086BF6EEF0BF06CEF0BF0FFEF0BF036
:1016DC00856D861FD8B0862B93EF0BF089C060F018
:1016EC008AC061F08BC062F08CC063F0F90E646F3D
:1016FC00020E656F150E666F500E676F2FEC11F0B2
:10170C0060C089F061C08AF062C08BF063C08CF05D
:10171C000001F60E8527FF0E862386BFA1EF0BF086
:10172C00865107E10A0E855DD8B09FEF0BF0A1EF53
:10173C000BF074EF0BF0C1EF0BF089C060F08AC0B6
:10174C0061F08BC062F08CC063F0000E646F000E11
:10175C00656F200E666F410E676F2FEC11F060C045
:10176C0089F061C08AF062C08BF063C08CF000011C
:10177C008507D8A0860785518611D8A4C8EF0BF031
:10178C00CAEF0BF0A3EF0BF089C060F08AC061F0D8
:10179C008BC062F08CC063F0000E646F000E656F3E
:1017AC00800E666F000E676FABEC22F00001D8B0B4
:1017BC00E2EF0BF0E4EF0BF096EF0CF084A1E9EF05
:1017CC000BF0EBEF0BF0F5EF0BF0000E796F000E5A
:1017DC007A6F800E7B6F800E7C6FB7EF0CF0000E73
:1017EC00796F000E7A6F800E7B6F000E7C6FB7EFF7
:1017FC000CF086BF0AEF0CF0865108E18505D8A0E5
:10180C000AEF0CF00CEF0CF096EF0CF02DEF0CF047
:10181C0089C060F08AC061F08BC062F08CC063F04C
:10182C00F90E646F020E656F150E666F500E676FC2
:10183C0019EC0FF060C089F061C08AF062C08BF0C7
:10184C0063C08CF00001F60E8527FF0E86238651AF
:10185C0007E10A0E855DD8B036EF0CF038EF0CF0CE
:10186C000EEF0CF058EF0CF089C060F08AC061F0FC
:10187C008BC062F08CC063F0000E646F000E656F5D
:10188C00200E666F410E676F19EC0FF060C089F087
:10189C0061C08AF062C08BF063C08CF000018507D8
:1018AC00D8A0860785518611D8A45FEF0CF061EFA4
:1018BC000CF03AEF0CF0FF0E606FFF0E616F7F0EB5
:1018CC00626F7F0E636F89C064F08AC065F08BC055
:1018DC0066F08CC067F0ABEC22F00001D8B079EF69
:1018EC000CF07BEF0CF096EF0CF084A180EF0CF079
:1018FC0082EF0CF08CEF0CF0000E796F000E7A6F0B
:10190C00800E7B6F800E7C6FB7EF0CF0000E796F42
:10191C00000E7A6F800E7B6F000E7C6FB7EF0CF0B1
:10192C0084A19BEF0CF09DEF0CF0AFEF0CF089C095
:10193C0060F08AC061F08BC062F08CC063F086EC02
:10194C002BF060C089F061C08AF062C08BF063C07C
:10195C008CF089C079F08AC07AF08BC07BF08CC097
:10196C007CF0120000016351800B6C6F6351632596
:10197C006E6F62AFC4EF0CF0C6EF0CF0C7EF0CF05B
:10198C006E816E51D8B4CDEF0CF0CFEF0CF0E4EFCC
:10199C000CF06E29D8A4D5EF0CF0D7EF0CF0DFEFDC
:1019AC000CF0000E606F000E616F000E626F000E87
:1019BC00636F628F000E636FECEF0CF0000E606FC4
:1019CC00000E616F000E626F000E636F6751800B2B
:1019DC006D6F6C516D19D8B4F6EF0CF0F8EF0CF08C
:1019EC00F9EF0CF06C8D675167256D6F66AF01EFE9
:1019FC000DF003EF0DF004EF0DF06D816D51D8B4C7
:101A0C000AEF0DF00CEF0DF021EF0DF06D29D8A4BD
:101A1C0012EF0DF014EF0DF01CEF0DF0000E646FD3
:101A2C00000E656F000E666F000E676F668F000EFE
:101A3C00676F29EF0DF0000E646F000E656F000EDE
:101A4C00666F000E676F6E516D5DD8B030EF0DF0A4
:101A5C0032EF0DF059EF0DF06CAD37EF0DF039EFB3
:101A6C000DF03BEF0DF0800E6C1B6EC06FF06DC077
:101A7C006EF06FC06DF060C06FF064C060F06FC04E
:101A8C0064F061C06FF065C061F06FC065F062C05A
:101A9C006FF066C062F06FC066F063C06FF067C035
:101AAC0063F06FC067F0000E6F6F6E516DC068F021
:101ABC00696B685F000E695B69BF6EEF0DF0695171
:101ACC0009E11A0E685DD8A06EEF0DF070EF0DF005
:101ADC00A7EF0DF06051611162116311D8A479EF79
:101AEC000DF07CEF0DF0010E7DEF0DF0000E6F6F21
:101AFC00000E606F000E616F000E626F000E636F60
:101B0C006DC06EF0B0EF0DF06FA18FEF0DF091EF97
:101B1C000DF097EF0DF0D8906F3101096F6F99EFC1
:101B2C000DF0D8906F3360A19EEF0DF0A0EF0DF08B
:101B3C00A1EF0DF06F8F6335633362336133603324
:101B4C006E2B6D516E5DD8A0AEEF0DF0B0EF0DF0B9
:101B5C008AEF0DF06CBDB5EF0DF0B7EF0DF0F7EFB0
:101B6C000DF06E51D8A4BDEF0DF0BFEF0DF0C9EF25
:101B7C000DF0000E606F000E616F000E626F000EB4
:101B8C00636F18EF0FF06451602765516123665144
:101B9C0062236751632363A1D6EF0DF0D8EF0DF0EC
:101BAC0084EF0EF06FA1DDEF0DF0DFEF0DF0E5EF40
:101BBC000DF0D8906F3101096F6FE7EF0DF0D890F1
:101BCC006F3360A1ECEF0DF0EEEF0DF0EFEF0DF0D9
:101BDC006F8F633563336233613360336E2B84EF05
:101BEC000EF06451605D65516159665162596351E3
:101BFC00800A686F6751800A6859D8B008EF0EF0F8
:101C0C000AEF0EF035EF0EF06051645D686F6151B4
:101C1C006559696F625166596A6F635167596B6F89
:101C2C00FF0E6825606FFF0E6921616FFF0E6A2140
:101C3C00626FFF0E6B21636F800E6C1B6F6D6F51AB
:101C4C00D8A42BEF0EF02DEF0EF03DEF0EF0010EA1
:101C5C006027000E6123622363233DEF0EF0645175
:101C6C00605F6551615B6651625B6751635B60519C
:101C7C00611162116311D8A446EF0EF048EF0EF01B
:101C8C007DEF0EF06F51D8A44EEF0EF050EF0EF02A
:101C9C007DEF0EF0000E606F000E616F000E626F34
:101CAC00000E636F18EF0FF0D89060376137623712
:101CBC0063376FAF64EF0EF066EF0EF067EF0EF068
:101CCC0060816FA16CEF0EF06EEF0EF072EF0EF004
:101CDC00D8806F3774EF0EF0D8906F376E51D8B440
:101CEC007AEF0EF07CEF0EF07DEF0EF06E0762AF28
:101CFC0082EF0EF084EF0EF05AEF0EF0000E6D6FC7
:101D0C006FAF8BEF0EF08DEF0EF0A5EF0EF06FC0F6
:101D1C0068F07F0E6817D8B496EF0EF098EF0EF0BF
:101D2C009CEF0EF0010E6D6FA5EF0EF060A1A1EF10
:101D3C000EF0A3EF0EF0A5EF0EF098EF0EF06D5134
:101D4C00D8B4ABEF0EF0ADEF0EF0D8EF0EF0010EF5
:101D5C006027000E61236223632363A1B8EF0EF0AA
:101D6C00BAEF0EF0D8EF0EF060C068F061C069F009
:101D7C0062C06AF063C06BF06B356B336A336933E6
:101D8C00683368C060F069C061F06AC062F06BC013
:101D9C0063F06E29D8B4D5EF0EF0D7EF0EF0D8EF74
:101DAC000EF06E2B6E29D8B4DEEF0EF0E0EF0EF0D5
:101DBC00E8EF0EF06E51D8A4E6EF0EF0E8EF0EF05F
:101DCC00FAEF0EF0000E606F000E616F000E626F86
:101DDC00000E636F6E51D8A4F6EF0EF0F8EF0EF014
:101DEC00FAEF0EF0000E6C6F6EA1FFEF0EF001EF2C
:101DFC000FF004EF0FF0628F05EF0FF0629FD89099
:101E0C006E31636F6CAF0DEF0FF00FEF0FF010EF43
:101E1C000FF0638F60C060F061C061F062C062F06F
:101E2C0063C063F0120000016351800B6C6F63514F
:101E3C006325726F62AF25EF0FF027EF0FF028EFDD
:101E4C000FF072817251D8B42EEF0FF030EF0FF00B
:101E5C0043EF0FF07229D8A436EF0FF038EF0FF0E4
:101E6C0040EF0FF0000E606F000E616F000E626F9E
:101E7C00000E636F628F4BEF0FF0000E606F000E61
:101E8C00616F000E626F000E636F6751800B6C1BED
:101E9C00675167256D6F66AF56EF0FF058EF0FF077
:101EAC0059EF0FF06D816D51D8B45FEF0FF061EF0A
:101EBC000FF074EF0FF06D29D8A467EF0FF069EFF6
:101ECC000FF071EF0FF0000E646F000E656F000ED7
:101EDC00666F000E676F668F7CEF0FF0000E646FFD
:101EEC00000E656F000E666F000E676F6D51D8B4F3
:101EFC0082EF0FF084EF0FF08CEF0FF07251D8A43B
:101F0C008AEF0FF08CEF0FF096EF0FF0000E606F72
:101F1C00000E616F000E626F000E636F2EEF11F0FA
:101F2C0066516003F3CF77F0F4CF78F077516E6F92
:101F3C006F6B706B716B7851736F746B756B766BB9
:101F4C0065516103F3CF77F0F4CF78F077516E27BA
:101F5C00000E6F237023712378517327000E7423A6
:101F6C007523762364516203F3CF77F0F4CF78F0C6
:101F7C0077516E27000E6F237023712378517327CE
:101F8C00000E74237523762370C071F06FC070F04F
:101F9C006EC06FF06E6B64516103F3CF77F0F4CFCA
:101FAC0078F077516E2778516F23000E7023000E56
:101FBC00712365516003F3CF77F0F4CF78F077514C
:101FCC006E2778516F23000E7023000E712370C0A2
:101FDC0071F06FC070F06EC06FF06E6B6451600387
:101FEC00F3CF77F0F4CF78F077516E2778516F23D9
:101FFC00000E7023000E712366516103F3CF77F04E
:10200C00F4CF78F07751732778517423000E752331
:10201C00000E762365516203F3CF77F0F4CF78F09E
:10202C007751732778517423000E7523000E762395
:10203C0066516203F3CF77F0F4CF78F07751686F85
:10204C007851696F6A6B6B6B6AC06BF069C06AF030
:10205C0068C069F0686B68517327695174236A51C1
:10206C0075236B5176236EC068F06FC069F070C039
:10207C006AF071C06BF0190E49EF10F0D8906B3309
:10208C006A3369336833E82E44EF10F068517327D4
:10209C00695174236A5175236B51762370C071F0AA
:1020AC006FC070F06EC06FF06E6B6D5172C068F0E7
:1020BC00696B6827000E6923820E6825776FFF0E07
:1020CC006921786F7FEF10F0D890733774377537BC
:1020DC00763771AF74EF10F076EF10F077EF10F0F9
:1020EC007381D8906E376F37703771377707D8A0F8
:1020FC00780775AF84EF10F086EF10F06AEF10F0F0
:10210C00000E6D6F71AF8DEF10F08FEF10F0B3EF1D
:10211C0010F0FF0E6E15686FFF0E6F15696FFF0ED6
:10212C0070156A6F7F0E71156B6F685169116A11AA
:10213C006B11D8B4A4EF10F0A6EF10F0AAEF10F0CA
:10214C00010E6D6FB3EF10F073A1AFEF10F0B1EFA4
:10215C0010F0B3EF10F0A6EF10F06D51D8B4B9EF4A
:10216C0010F0BBEF10F0DFEF10F0010E7327000E34
:10217C0074237523762376A1C6EF10F0C8EF10F008
:10218C00DFEF10F073C068F074C069F075C06AF0CE
:10219C0076C06BF06B356B336A336933683368C068
:1021AC0073F069C074F06AC075F06BC076F0774B51
:1021BC00782B78BFEAEF10F0785108E17729D8A096
:1021CC00EAEF10F0ECEF10F0F6EF10F0000E736F7A
:1021DC00000E746F800E756F7F0E766F24EF11F00A
:1021EC0078BF03EF11F0785106E17705D8B001EF15
:1021FC0011F003EF11F00FEF11F0000E736F000EE2
:10220C00746F000E756F000E766F000E6C6F24EFFE
:10221C0011F077C072F0FF0E7317FF0E74177F0E5C
:10222C007517000E761772A11EEF11F020EF11F04A
:10223C0021EF11F0758FD8907231766F6C51761347
:10224C0073C060F074C061F075C062F076C063F06A
:10225C00120000016351800B706F63516325776F1F
:10226C0062AF3BEF11F03DEF11F03EEF11F07781D3
:10227C007751D8B444EF11F046EF11F05BEF11F049
:10228C007729D8A44CEF11F04EEF11F056EF11F066
:10229C00000E606F000E616F000E626F000E636FB8
:1022AC00628F000E636F63EF11F0000E606F000E13
:1022BC00616F000E626F000E636F6751800B701BB5
:1022CC0067516725786F66AF6EEF11F070EF11F004
:1022DC0071EF11F078817851D8B477EF11F079EF74
:1022EC0011F08EEF11F07829D8A47FEF11F081EF67
:1022FC0011F089EF11F0000E646F000E656F000E87
:10230C00666F000E676F668F000E676F96EF11F0A9
:10231C00000E646F000E656F000E666F000E676F27
:10232C006451651166116711D8A49FEF11F0A1EFEC
:10233C0011F0B9EF11F0000E606F000E616F000E1E
:10234C00626F000E636F800E62137F0E6313705109
:10235C00631360C060F061C061F062C062F063C082
:10236C0063F0FCEF12F07751D8A4BFEF11F0C1EF7E
:10237C0011F0CBEF11F0000E606F000E616F000ECC
:10238C00626F000E636FFCEF12F0785177C068F04B
:10239C00696B685F000E695B7F0E6825716F000EBC
:1023AC006921726F60C06CF061C06DF062C06EF03C
:1023BC0063C06FF0000E606F000E616F000E626FF5
:1023CC00000E636F000E736F000E746F000E756F4E
:1023DC00000E766F000E786F2CEF12F07851D8B497
:1023EC00FAEF11F0FCEF11F013EF12F0D8906C37FC
:1023FC006D376E376F37D890603761376237633718
:10240C0076AF0BEF12F00DEF12F00EEF12F06081C1
:10241C00D890733774377537763764516C5D655166
:10242C006D5966516E5967516F59D8A020EF12F053
:10243C0022EF12F02BEF12F0768D64516C5F655128
:10244C006D5B66516E5B67516F5B782B190E78650F
:10245C0032EF12F034EF12F0F4EF11F06C516D1109
:10246C006E116F11D8B43DEF12F03FEF12F057EF31
:10247C0012F0738157EF12F0D890603761376237E2
:10248C00633776AF4CEF12F04EEF12F04FEF12F0C5
:10249C006081D89073377437753776377107D8A049
:1024AC00720762AF5CEF12F05EEF12F042EF12F0C7
:1024BC00000E786F76AF65EF12F067EF12F08BEFCE
:1024CC0012F0FF0E7315686FFF0E7415696FFF0E17
:1024DC0075156A6F7F0E76156B6F685169116A11ED
:1024EC006B11D8B47CEF12F07EEF12F082EF12F089
:1024FC00010E786F8BEF12F060A187EF12F089EF6D
:10250C0012F08BEF12F07EEF12F07851D8B491EFFD
:10251C0012F093EF12F0B7EF12F0010E6027000EDD
:10252C0061236223632363A19EEF12F0A0EF12F0EC
:10253C00B7EF12F060C068F061C069F062C06AF079
:10254C0063C06BF06B356B336A336933683368C0C7
:10255C0060F069C061F06AC062F06BC063F0714BEF
:10256C00722B72BFC2EF12F0725108E17129D8A020
:10257C00C2EF12F0C4EF12F0CFEF12F0000E726F38
:10258C007169000E606F000E616F000E626F000EBD
:10259C00636F72BFDCEF12F0725106E17105D8B0B7
:1025AC00DAEF12F0DCEF12F0EAEF12F0000E726FBD
:1025BC00000E716F000E606F000E616F000E626F87
:1025CC00000E636F000E706F71C077F077A1F1EFA2
:1025DC0012F0F3EF12F0F6EF12F0628FF7EF12F049
:1025EC00629FD8907731636FADEF11F01200040148
:1025FC003205D8A404EF13F006EF13F022EF13F01A
:10260C0030511F0B0009D8A40EEF13F010EF13F08C
:10261C0022EF13F00001AB8F030E04013119D8A483
:10262C001AEF13F01CEF13F020EF13F0010E516EA4
:10263C0022EF13F0000E516E3251D8A428EF13F094
:10264C002AEF13F0A6EF14F030511F0B020AD8A496
:10265C0032EF13F034EF13F0A6EF14F034510F0BEC
:10266C000009D8B43CEF13F03EEF13F0A6EF14F0D2
:10267C0034510F0B156E030E156047EF13F049EF35
:10268C0013F0A6EF14F0200E5418D8A450EF13F04A
:10269C0052EF13F0A6EF14F00001AB8F040134BF1E
:1026AC005AEF13F05CEF13F079EF13F034510F0B7A
:1026BC00156E1550020D0A0EF324D96E010EF4207E
:1026CC00DA6EDECF1AF0DDCF1BF034510F0B156E26
:1026DC00166A360E1524D96E000E1620DA6EDF50EF
:1026EC00196E94EF13F034510F0B156E1550020D3B
:1026FC00AE0EF324D96E000EF420DA6EDECF1AF093
:10270C00DDCF1BF034510F0B156E166A390E1524E4
:10271C00D96E000E1620DA6EDF50196E19B099EFD3
:10272C0013F09BEF13F0A3EF13F0FB0E1A141A6EB9
:10273C00FF0E1B141B6EA8EF13F0040E1A101A6E6A
:10274C001B501B6E34BFADEF13F0AFEF13F0C0EFA7
:10275C0013F034510F0B156E1550020D0A0EF324A5
:10276C00D96E010EF420DA6E1AC0DEFF1BC0DDFF3D
:10277C00CFEF13F034510F0B156E1550020DAE0E3A
:10278C00F324D96E000EF420DA6E1AC0DEFF1BC0E3
:10279C00DDFF030E3119D8A4D6EF13F0D8EF13F0E8
:1027AC0010EF14F01AC0D9FF1BC0DAFFDFAEE1EF57
:1027BC0013F0E3EF13F002EF14F034BFE8EF13F073
:1027CC00EAEF13F0F7EF13F034510F0B156E166A96
:1027DC00360E1524D96E000E1620DA6EDF8202EF4B
:1027EC0014F034510F0B156E166A390E1524D96E70
:1027FC00000E1620DA6EDF821AC0D9FF1BC0DAFF7A
:10280C00000EDB841AC0D9FF1BC0DAFF000EDB8E72
:10281C00A6EF14F0040E1A181A6E1B501B6E1AC079
:10282C00D9FF1BC0DAFFDFAE1EEF14F020EF14F05F
:10283C003CEF14F01AC0D9FF1BC0DAFF7F0EDF1675
:10284C001AC0D9FF1BC0DAFF000EDB8C000E0E6E17
:10285C00050E0D6E1AC00FF01BC010F0000E126E9C
:10286C00020E116E41EC27F042EF14F01AC0D9FFA2
:10287C001BC0DAFF000EDB8C040E1A181A6E1B50EC
:10288C001B6E19B24CEF14F04EEF14F059EF14F01C
:10289C001AC0D9FF1BC0DAFFDFAE57EF14F059EFA7
:1028AC0014F08FEF14F0040134BF5FEF14F061EFFC
:1028BC0014F06EEF14F034510F0B156E166A360EC1
:1028CC001524D96E000E1620DA6EDF9279EF14F013
:1028DC0034510F0B156E166A390E1524D96E000E75
:1028EC001620DA6EDF921AC0D9FF1BC0DAFF3B0E3E
:1028FC00DF16000E0E6E050E0D6E1AC00FF01BC00B
:10290C0010F0000E126E020E116E41EC27F095EFD6
:10291C0014F01AC0D9FF1BC0DAFF3B0EDF160401FE
:10292C0034510F0B156E166A6A0E1524176E0F0EA6
:10293C001620186E17C0D9FF18C0DAFFFE0EDF166E
:10294C0012005404D8A4ADEF14F0AFEF14F0BCEFA8
:10295C0014F060BAB4EF14F0B6EF14F0BCEF14F04E
:10296C00000E656E64806488020E546E65A4C1EF1F
:10297C0014F0C3EF14F0CDEF14F064A4C8EF14F00E
:10298C00CAEF14F0CDEF14F06594D2EC2AF060A2EB
:10299C00D2EF14F0D4EF14F0D7EF14F0A494B8EFF6
:1029AC0015F065A0DCEF14F0DEEF14F0EBEF14F093
:1029BC0064A0E3EF14F0E5EF14F0EBEF14F0C5ECCA
:1029CC001BF0A384040E546E659065A8F0EF14F010
:1029DC00F2EF14F0FBEF14F064A8F7EF14F0F9EF3A
:1029EC0014F0FBEF14F0F0EC2BF065AC00EF15F0ED
:1029FC0002EF15F02DEF15F064AC07EF15F009EFB1
:102A0C0015F017EF15F0000E0E6E730E0D6E000E16
:102A1C000F6E000E106E000E126E010E116E41EC58
:102A2C0027F0659CA3EC2BF04E50D8B420EF15F09A
:102A3C0022EF15F023EF15F04E064E50D8A429EFD7
:102A4C0015F02BEF15F02DEF15F02EEC23F065AAF9
:102A5C0032EF15F034EF15F03DEF15F064AA39EFB5
:102A6C0015F03BEF15F03DEF15F07BEC29F065A26E
:102A7C0042EF15F044EF15F05AEF15F064A249EF50
:102A8C0015F04BEF15F05AEF15F07F0E0E6E0D682A
:102A9C00000E0F6E000E106E000E126E010E116EF7
:102AAC0041EC27F0000E676E040E546060EF15F0D9
:102ABC0062EF15F065EF15F0A494B8EF15F064A66D
:102ACC006AEF15F06CEF15F0B7EF15F0000E1F6EF6
:102ADC0065A673EF15F075EF15F0B7EF15F061CF34
:102AEC0057F05730E832E8320F0B506E659657B4FA
:102AFC0082EF15F084EF15F08DEF15F0360E5024A3
:102B0C00D96EDA6A000EDA22DF7094EF15F0390E06
:102B1C005024D96EDA6A000EDA22DF705050D8A435
:102B2C009AEF15F09CEF15F0A0EF15F052EC25F094
:102B3C00AEEF15F0000E0E6E720E0D6E570E0F6E80
:102B4C00000E106E000E126E000E116E41EC27F08E
:102B5C001F2A030E1F64B5EF15F0B7EF15F06EEFDB
:102B6C0015F0A49412000001686F00016851D8B4EC
:102B7C00C2EF15F0C4EF15F0E6EF15F063BFCBEF25
:102B8C0015F0C9EF15F0E6EF15F060C064F061C008
:102B9C0065F062C066F063C067F0641F651F661F56
:102BAC00671F642B000E65236623672364C06AF0DD
:102BBC0065C06BF066C06CF067C06DF0EEEF15F0A1
:102BCC0060C06AF061C06BF062C06CF063C06DF005
:102BDC006051611162116311D8A4F7EF15F0F9EF90
:102BEC0015F003EF16F0000E606F000E616F000E13
:102BFC00626F000E636F94EF16F0960E696F0DEF17
:102C0C0016F0692BD8906D336C336B336A33000E2E
:102C1C006A15646F000E6B15656F000E6C15666F90
:102C2C00FE0E6D15676F6451651166116711D8A49E
:102C3C0022EF16F024EF16F007EF16F032EF16F035
:102C4C00692B010E6A27000E6B236C236D23D89021
:102C5C006D336C336B336A33000E6A15646F000E80
:102C6C006B15656F000E6C15666FFF0E6D15676F3B
:102C7C006451651166116711D8A447EF16F049EF3E
:102C8C0016F026EF16F051EF16F06907D8906A3758
:102C9C006B376C376D376CBF56EF16F058EF16F07C
:102CAC0060EF16F0020E69615EEF16F060EF16F041
:102CBC004BEF16F069B165EF16F067EF16F068EFA1
:102CCC0016F06C9FD890693369C064F0656B666BC5
:102CDC00676B64C067F0666B656B646B64516A13F9
:102CEC0065516B1366516C1367516D136851D8B4F1
:102CFC0082EF16F084EF16F08CEF16F063BF8BEFBB
:102D0C0016F089EF16F08CEF16F06D8F6AC060F03C
:102D1C006BC061F06CC062F06DC063F01200A394E4
:102D2C00010144514511D8B49EEF16F0A0EF16F0F6
:102D3C00AEEF16F044C1D9FF45C1DAFFDFAEA9EF03
:102D4C0016F0ABEF16F0AEEF16F0A38469EF17F0A8
:102D5C00030E4718D8A4B5EF16F0B7EF16F0B9EF7D
:102D6C0016F0000E476E4750D8A4BFEF16F0C1EF17
:102D7C0016F0C4EF16F0A38469EF17F0020E471893
:102D8C00D8A4CBEF16F0CDEF16F0E1EF16F0010E54
:102D9C000001606F000E616F000E626F000E636FBA
:102DAC00020E6BEC1CF060C044F161C045F1030EE7
:102DBC00476E68EF17F04704D8A4E7EF16F0E9EF79
:102DCC0016F068EF17F0400E0001B565F0EF16F045
:102DDC00F2EF16F0F6EF16F0400E6C6FF8EF16F0FF
:102DEC00B5C06CF06C51B55DB56F000E0101246F70
:102DFC00050E256F6CC06BF04650D8A408EF17F089
:102E0C000AEF17F039EF17F01DEF17F027C1D9FFB4
:102E1C0028C1DAFF24C1E1FF25C1E2FFDFCFE7FFC4
:102E2C000101244B252B274B282B00016B0700019C
:102E3C006B51D8A424EF17F026EF17F00CEF17F016
:102E4C0042EF17F027C1D9FF28C1DAFF24C1E1FFF7
:102E5C0025C1E2FFDFCFE7FF0101244B252B274BD8
:102E6C00282B00016B0700016B51D8A440EF17F021
:102E7C0042EF17F028EF17F0B551D8A448EF17F030
:102E8C004AEF17F059EF17F0400E6C19D8A451EF18
:102E9C0017F053EF17F057EF17F0020E476E59EF7C
:102EAC0017F0030E476E010E606F000E616F050E7A
:102EBC00626F6CC063F0020E6BEC1CF060C044F1EE
:102ECC0061C045F1A3841200000E0001836F000E57
:102EDC00826F1FEF18F082C060F083C061F0000EAB
:102EEC00636F050E626F5EEC2CF00001605178256B
:102EFC00D96E61517921DA6E5A0EDE18D8B489EF89
:102F0C0017F08BEF17F0A5EF17F082C060F083C0BD
:102F1C0061F0000E636F050E626F5EEC2CF0000129
:102F2C0060517825D96E61517921DA6E7A0EDE18EE
:102F3C00D8A4A3EF17F0A5EF17F01CEF18F082C080
:102F4C0060F083C061F0000E636F050E626F5EEC83
:102F5C002CF078C07CF079C07DF0000160517C27AA
:102F6C0061517D23010E7C25D96E000E7D21DA6E18
:102F7C00DECF70F0DECF71F0DECF72F0DECF73F00B
:102F8C0018C174F019C175F01AC176F01BC177F035
:102F9C004AEC2AF070C07EF071C07FF072C080F0F5
:102FAC0073C081F018C160F019C161F01AC162F0F0
:102FBC001BC163F07EC064F07FC065F080C066F01A
:102FCC0081C067F0B8EC0CF060C018F161C019F169
:102FDC0062C01AF163C01BF114C160F015C161F03D
:102FEC0016C162F017C163F07EC064F07FC065F05B
:102FFC0080C066F081C067F0B8EC0CF060C014F1D2
:10300C0061C015F162C016F163C017F17EC060F0AB
:10301C007FC061F080C062F081C063F0A3EC21F04E
:10302C0060C06AF061C06BF0C9EC27F00001824B04
:10303C00832B7A51825D8351800A7C6F7B51800A8D
:10304C007C59D8A02CEF18F02EEF18F071EF17F078
:10305C001200D9EC2BF0D40E0301006F2E0E016F71
:10306C00F28EF28CF0EC2CF00A0E0001606F4F0E19
:10307C00616FE6EC2CF0C80E0001606F020E616F00
:10308C0011EC2BF081908188818A819281948196B8
:10309C00000E0001B46FFCEC26F00001B451D8B462
:1030AC005AEF18F05CEF18F0D8EF18F0800E706F34
:1030BC00020E716F400E726F020E736F92EC24F061
:1030CC0070C0CEF271C0CFF280C26DF081C26EF0D2
:1030DC0080C260F081C261F02FEC2BF060C06FF009
:1030EC0061C070F0C2EC2CF0000E0001B46F940EB5
:1030FC008E6F020E8F6F800E906F020E916FCEC28C
:10310C0092F0CFC293F00CEC20F00201945100012C
:10311C00A66FA76BA6C06DF0A7C06EF0000E706F07
:10312C00010E6F6FC2EC2CF0470E02019419D8A45B
:10313C00A2EF18F0A4EF18F0D8EF18F095C260F0D9
:10314C0096C261F097C262F098C263F0A3EC21F0D2
:10315C00D890000160376137000E6025D96E030EE0
:10316C006121DA6EDECFC6F2DDCFC7F2990E786F31
:10317C00020E796FFF0E0201CE2500017A6FFF0E51
:10318C000201CF2100017B6F02D8D8EF18F00500A7
:10319C000201FA6EC651FD6EC751FE6EF850FF6EFD
:1031AC00FA501200000E0201806F000E816F1F0E8C
:1031BC000001A76F710EA66F1E0EE82EFED7A62F6C
:1031CC00FCD7A72FFAD700F051EF18F07CEF00F0E6
:1031DC0060C06AF061C06BF0000164516511D8A445
:1031EC00FAEF18F0FCEF18F0FEEF18F0A9EF19F059
:1031FC006AC0D9FF6BC0DAFF62C0DFFF64516A2579
:10320C00666F65516B21676FFF0E6625D96EFF0ED9
:10321C006721DA6E62C0DFFF655107E1030E645D62
:10322C00D8B01BEF19F01DEF19F01FEF19F0A9EF33
:10323C0019F020EE01F06A51D9266B51DA2262C0E6
:10324C00DFFF20EE02F06A51D9266B51DA2262C000
:10325C00DFFF64516A25666F65516B21676FFE0E47
:10326C006625D96EFF0E6721DA6E62C0DFFF6451EE
:10327C006A25666F65516B21676FFD0E6625D96EE9
:10328C00FF0E6721DA6E62C0DFFF655107E1070EA2
:10329C00645DD8B054EF19F056EF19F058EF19F0EF
:1032AC00A9EF19F020EE03F06A51D9266B51DA22FE
:1032BC0062C0DFFF64516A25666F65516B21676FD1
:1032CC00FC0E6625D96EFF0E6721DA6E62C0DFFF39
:1032DC00655107E1090E645DD8B077EF19F079EF0D
:1032EC0019F07BEF19F0A9EF19F06AC066F06BC00A
:1032FC0067F0661F671F664B672B030E6615686FBA
:10330C00696B68516A2769516B236851645F695115
:10331C00655BFC0E6417FF0E6517A0EF19F06AC011
:10332C00D9FF6BC0DAFF62C0DFFF6407D8A0650766
:10333C006A4B6B2B64516511D8A4A7EF19F0A9EF58
:10334C0019F095EF19F0120001C00BF002C00CF04F
:10335C0005500610D8A4B5EF19F0B7EF19F0B9EF76
:10336C0019F064EF1AF00BC0D9FF0CC0DAFF03C0E0
:10337C00DFFF05500B24076E06500C20086EFF0E65
:10338C000724D96EFF0E0820DA6E03C0DFFF06504B
:10339C0007E1030E055CD8B0D6EF19F0D8EF19F0A1
:1033AC00DAEF19F064EF1AF020EE01F00B50D92689
:1033BC000C50DA2203C0DFFF20EE02F00B50D926AE
:1033CC000C50DA2203C0DFFF05500B24076E0650A9
:1033DC000C20086EFE0E0724D96EFF0E0820DA6E44
:1033EC0003C0DFFF05500B24076E06500C20086E3F
:1033FC00FD0E0724D96EFF0E0820DA6E03C0DFFF26
:10340C00065007E1070E055CD8B00FEF1AF011EF6C
:10341C001AF013EF1AF064EF1AF020EE03F00B50D1
:10342C00D9260C50DA2203C0DFFF05500B24076E9F
:10343C0006500C20086EFC0E0724D96EFF0E0820D7
:10344C00DA6E03C0DFFF065007E1090E055CD8B049
:10345C0032EF1AF034EF1AF036EF1AF064EF1AF07C
:10346C000BC007F00CC008F0071E081E074A082AFC
:10347C00030E0714096E0A6A09500B260A500C2217
:10348C000950055E0A50065AFC0E0516FF0E06166C
:10349C005BEF1AF00BC0D9FF0CC0DAFF03C0DFFFE3
:1034AC000506D8A006060B4A0C2A05500610D8A40F
:1034BC0062EF1AF064EF1AF050EF1AF01200800E5F
:1034CC0004013019D8A46DEF1AF06FEF1AF01EEF4B
:1034DC001BF0C00E0001AB6F04EF1BF0960E000149
:1034EC00A86F080EA96F000EAD6F120EAC6F1EEF19
:1034FC001BF03251D8A485EF1AF087EF1AF0C8EF01
:10350C001AF03251020D070EF324F66E080EF42059
:10351C00F76E0900F5CFA8F00A00F5CFA9F0020E5E
:10352C000001A825016E000EA921026E01C0F6FF54
:10353C0002C0F7FFF86A070EF76403D00800F550D5
:10354C0005D0F6CFE9FFF7CFEAFFEF500001AC6FE3
:10355C00030EA825016E000EA921026E01C0F6FF14
:10356C0002C0F7FFF86A070EF76403D00800F550A5
:10357C0005D0F6CFE9FFF7CFEAFFEF500001AD6FB2
:10358C001EEF1BF0000E0001AB6F1EEF1BF0030EC5
:10359C003261D3EF1AF0D5EF1AF0FAEF1AF032517C
:1035AC00020D010EF324F66E080EF420F76E0900DE
:1035BC00F5CFA8F00A00F5CFA9F0A8C0F6FFA9C076
:1035CC00F7FFF86A070EF76403D00800F55005D032
:1035DC00F6CFE9FFF7CFEAFFEF50016E0150000183
:1035EC00AC6FAD6B1EEF1BF0000E0001AB6F1EEF4E
:1035FC001BF0000E0001AB6F1EEF1BF004013351EA
:10360C00016E026A0250000AD8B40FEF1BF0FFEFF4
:10361C001AF00150010AD8B474EF1AF0030AD8B4A6
:10362C007FEF1AF0010AD8B4CDEF1AF0FFEF1AF0C1
:10363C001200A394000E676E000E656E000E6A6E8B
:10364C006B0E0001606F0F0E616F000E636F000E4A
:10365C00626F000E656F020E646FEEEC18F0160EC2
:10366C00626E9F0E666E7B0E646E000E00016C6FB8
:10367C006C51040D000EF324D96E040EF420DA6E96
:10368C00DE6ADE6ADE6ADD6A6C2B0B0E6C6551EF4E
:10369C001BF053EF1BF03EEF1BF0608C000E636EC3
:1036AC006098609C6596000EAB6F000E316E000E3C
:1036BC00336E000E326E65B666EF1BF068EF1BF0D2
:1036CC0058EF1BF0010E4C6E010E4B6E000E4A6E45
:1036DC00000E496E000EB76F000E6C6F6C51020D30
:1036EC00AE0EF324D96E000EF420DA6E000EDE6EF0
:1036FC00000EDD6E6C51020D0A0EF324D96E010E14
:10370C00F420DA6E000EDE6E000EDD6E390E6C25C6
:10371C00D96EDA6A000EDA22000EDF6E360E6C25D8
:10372C00D96EDA6A000EDA22000EDF6E6C2B020EF6
:10373C006C65A3EF1BF0A5EF1BF074EF1BF0080EEC
:10374C00AE6F040EAF6F160E6A6E040E0401036F9B
:10375C00300E026F080E016F040E006F008F000E0A
:10376C00586E000E0101206F000E216F000E226FAB
:10377C00000E236F000E486E000E546E1200A394C0
:10378C00000E676E000E656E000E6A6E6B0E016E9B
:10379C000F0E026E000E046E000E036E000E066E0F
:1037AC00020E056EAAEC19F0160E626E9F0E666E76
:1037BC007B0E646E000E0D6E0D50040D000EF32486
:1037CC00D96E040EF420DA6EDE6ADE6ADE6ADD6A19
:1037DC000D2A0B0E0D64F5EF1BF0F7EF1BF0E2EF6B
:1037EC001BF0608C000E636E6098609C6596000EFA
:1037FC000001AB6F000E316E000E336E000E326E98
:10380C0065B60BEF1CF00DEF1CF0FCEF1BF0010E7E
:10381C004C6E010E4B6E000E4A6E000E496E000E81
:10382C00B76F000E0D6E0D50020DAE0EF324D96E57
:10383C00000EF420DA6E000EDE6E000EDD6E0D5002
:10384C00020D0A0EF324D96E010EF420DA6E000E6E
:10385C00DE6E000EDD6E390E0D24D96EDA6A000EA6
:10386C00DA22000EDF6E360E0D24D96EDA6A000EE7
:10387C00DA22000EDF6E0D2A020E0D6448EF1CF0EA
:10388C004AEF1CF019EF1CF0080E0001AE6F040E8D
:10389C00AF6F160E6A6E040E0401036F300E026FCA
:1038AC00080E016F040E006F008F000E586E000E94
:1038BC000101206F000E216F000E226F000E236F8E
:1038CC00000E486E000E546E12000001686F00016D
:1038DC006051D8B474EF1CF076EF1CF084EF1CF040
:1038EC006851020DAE0EF324D96E000EF420DA6E80
:1038FC00DECF69F0DDCF6AF090EF1CF06851020D5D
:10390C000A0EF324D96E010EF420DA6EDECF69F0C4
:10391C00DDCF6AF069516A11D8A497EF1CF099EFCA
:10392C001CF09FEF1CF0000E606F000E616F0BEF30
:10393C001DF020EE02F06951D9266A51DA2261C0DD
:10394C00DEFF62C0DDFF20EE01F06951D9266A511D
:10395C00DA2263C0DFFF69C0D9FF6AC0DAFF400E0C
:10396C00DF1669C0D9FF6AC0DAFF000EDB8669C0BA
:10397C00D9FF6AC0DAFF000EDB8E6051D8B4C9EFF4
:10398C001CF0CBEF1CF0EAEF1CF06851020DAE0EF0
:10399C00F324D96E000EF420DA6EDECF64F0DDCFA6
:1039AC0065F0040E6419666F6551676F6851020DFE
:1039BC00AE0EF324D96E000EF420DA6E66C0DEFF74
:1039CC0067C0DDFF07EF1DF06851020D0A0EF324EE
:1039DC00D96E010EF420DA6EDECF64F0DDCF65F027
:1039EC00040E6419666F6551676F6851020D0A0EFB
:1039FC00F324D96E010EF420DA6E66C0DEFF67C0C8
:103A0C00DDFF69C060F06AC061F0120060980001CF
:103A1C00ABBF13EF1DF015EF1DF05AEF1DF031AEDB
:103A2C001AEF1DF01CEF1DF02EEF1DF0020E526E62
:103A3C004950D8A424EF1DF026EF1DF028EF1DF0FF
:103A4C00AEEC25F0000E4B6E000E4C6EACEF1DF084
:103A5C0020EE01F04050D9264150DA22080EDF6EDC
:103A6C0020EE02F04050D9264150DA22300EDE6EA4
:103A7C00040EDD6E40C0D9FF41C0DAFF0C0EDF6EC4
:103A8C0040C0D9FF41C0DAFF000EDB8EAEC0D9FFBB
:103A9C00AFC0DAFF040EDF6EAEC0D9FFAFC0DAFFE5
:103AAC00000EDB8EACEF1DF0040130AF60EF1DF0AB
:103ABC0062EF1DF07EEF1DF0010E526E4A50D8A43D
:103ACC006AEF1DF06CEF1DF06EEF1DF0AEEC25F003
:103ADC00000E4B6E000E4C6E4D50D8A478EF1DF0BE
:103AEC007AEF1DF0ACEF1DF02EEC23F0ACEF1DF0D7
:103AFC00020E526E20EE01F04050D9264150DA22CF
:103B0C00080EDF6E20EE02F04050D9264150DA222A
:103B1C00300EDE6E040EDD6E40C0D9FF41C0DAFF00
:103B2C00040EDF6E40C0D9FF41C0DAFF000EDB8E01
:103B3C00000E4B6E000E4C6E4D50D8A4A8EF1DF02D
:103B4C00AAEF1DF0ACEF1DF07AEF1DF0120020EE85
:103B5C0001F04250D9264350DA22DF50026E025057
:103B6C00325C000E3358D8B0BEEF1DF0C0EF1DF024
:103B7C00C2EF1DF032C002F00250325E000E335A1A
:103B8C00000E016ED9EF1DF0380E0124D96EDA6AE1
:103B9C00040EDA222EC0E1FF2FC0E2FFDFCFE7FFD9
:103BAC002E4A2F2A012A0250015CD8A0E0EF1DF00A
:103BBC00E2EF1DF0CAEF1DF032503310D8B4E9EF2C
:103BCC001DF0EBEF1DF024EF1EF020EE01F0405045
:103BDC00D9264150DA22080EDF6E20EE02F040505A
:103BEC00D9264150DA22380EDE6E040EDD6E42C04C
:103BFC00D9FF43C0DAFFDFBC06EF1EF008EF1EF062
:103C0C0016EF1EF040C0D9FF41C0DAFF480EDF6E40
:103C1C0040C0D9FF41C0DAFF000EDB8E4DEF1EF025
:103C2C0040C0D9FF41C0DAFF080EDF6E40C0D9FF9B
:103C3C0041C0DAFF000EDB8E4DEF1EF020EE01F0DE
:103C4C004050D9264150DA22080EDF6E20EE02F0E9
:103C5C004050D9264150DA22300EDE6E040EDD6E55
:103C6C0040C0D9FF41C0DAFF040EDF6E40C0D9FF5F
:103C7C0041C0DAFF000EDB8E319E4D50D8A449EFC7
:103C8C001EF04BEF1EF04DEF1EF02EEC23F0120049
:103C9C00096E0150D8B455EF1EF057EF1EF065EFCA
:103CAC001EF00950020DAE0EF324D96E000EF42056
:103CBC00DA6EDECF0AF0DDCF0BF071EF1EF009509B
:103CCC00020D0A0EF324D96E010EF420DA6EDECF4B
:103CDC000AF0DDCF0BF00A500B10D8A478EF1EF0D1
:103CEC007AEF1EF080EF1EF0000E016E000E026ED9
:103CFC00ECEF1EF020EE02F00A50D9260B50DA221F
:103D0C0002C0DEFF03C0DDFF20EE01F00A50D92611
:103D1C000B50DA2204C0DFFF0AC0D9FF0BC0DAFF58
:103D2C00400EDF160AC0D9FF0BC0DAFF000EDB868F
:103D3C000AC0D9FF0BC0DAFF000EDB8E0150D8B4DD
:103D4C00AAEF1EF0ACEF1EF0CBEF1EF00950020DE7
:103D5C00AE0EF324D96E000EF420DA6EDECF05F031
:103D6C00DDCF06F0040E0518076E0650086E0950DC
:103D7C00020DAE0EF324D96E000EF420DA6E07C0DD
:103D8C00DEFF08C0DDFFE8EF1EF00950020D0A0E41
:103D9C00F324D96E010EF420DA6EDECF05F0DDCF00
:103DAC0006F0040E0518076E0650086E0950020D39
:103DBC000A0EF324D96E010EF420DA6E07C0DEFF72
:103DCC0008C0DDFF0AC001F00BC002F012000401B4
:103DDC003039E832030B0009D8B4F7EF1EF0F9EFD5
:103DEC001EF046EF1FF07FEF1FF00001AB8F080EA7
:103DFC00546E7FEF1FF065EC1AF07FEF1FF01DEC97
:103E0C0024F07FEF1FF0580E0001A86F000EA96F71
:103E1C00AB81010EAC6FAB8F7FEF1FF097EC20F0F6
:103E2C007FEF1FF0FDEC12F07FEF1FF0550E3425E5
:103E3C000001A86FA96B000EA923AB81010EAC6F1A
:103E4C00AB8F7FEF1FF00001AB8F550E04013425B3
:103E5C00D96EDA6A000EDA2232C4DFFF7FEF1FF070
:103E6C00000E0E6E020E0D6E000E0F6E000E106E1A
:103E7C00000E126E000E116E41EC27F07FEF1FF05A
:103E8C0031511C6E1D6A1D50000AD8B450EF1FF042
:103E9C007FEF1FF01C50000AD8B414EF1FF0010A7A
:103EAC00D8B418EF1FF0020AD8B418EF1FF0060AA6
:103EBC00D8B4FBEF1EF0030AD8B401EF1FF0010ACF
:103ECC00D8B436EF1FF00F0AD8B409EF1FF0010A6F
:103EDC00D8B405EF1FF0030AD8B41CEF1FF0010A89
:103EEC00D8B429EF1FF0070AD8B47FEF1FF07FEF8B
:103EFC001FF01200080E016E0001AD5107E1080E13
:103F0C00AC5DD8B08CEF1FF08EEF1FF0A6EF1FF05A
:103F1C00ACC001F05350D8A496EF1FF098EF1FF0EF
:103F2C009CEF1FF0010E536EA6EF1FF05304D8A4A4
:103F3C00A2EF1FF0A4EF1FF0A6EF1FF0020E536EBE
:103F4C000150AC5F000EAD5B20EE01F0AE51D926F6
:103F5C00AF51DA2201C0DFFF380E0101466F040EAB
:103F6C00476F0001ABB1BDEF1FF0BFEF1FF003EFC8
:103F7C0020F0DDEF1FF0A8C0F6FFA9C0F7FFF86A2C
:103F8C0046C1D9FF47C1DAFF070EF76403D008001A
:103F9C00F55005D0F6CFE9FFF7CFEAFFEF50DF6E13
:103FAC000001A84BA92B0101464B472B01060150E0
:103FBC00D8A4E3EF1FF0E5EF1FF0C1EF1FF00BEFFC
:103FCC0020F0A8C0F6FFA9C0F7FFF86A46C1D9FFD8
:103FDC0047C1DAFF070EF76403D00800F55005D08F
:103FEC00F6CFE9FFF7CFEAFFEF50DF6E0001A84BE9
:103FFC00A92B0101464B472B01060150D8A409EF10
:10400C0020F00BEF20F0E7EF1FF01200000E000184
:10401C00A56F000EA46F87EF20F0D890A435D96E51
:10402C00A535DA6E9051D9269151DA22DECF94F073
:10403C00DDCF95F094C0D9FF95C0DAFFA4C060F035
:10404C00A5C061F0000E636F050E626F5EEC2CF084
:10405C00000160518E25E16E61518F21E26EDFCF40
:10406C00E7FF9A0E606F000E616FD890A435D96E81
:10407C00A535DA6E9051D9269151DA22DECF94F023
:10408C00DDCF95F0010E9425626F000E9521636FC4
:10409C00B2EC2AF09A0E0001796F000E7A6F000EC6
:1040AC007B6F000E7C6F66EC04F079C094F07AC0E4
:1040BC0095F07BC096F07CC097F0A4C060F0A5C0D2
:1040CC0061F0000E0001636F050E626F5EEC2CF068
:1040DC008EC098F08FC099F0000160519827615103
:1040EC009923010E9825D96E000E9921DA6E94C091
:1040FC00DEFF95C0DEFF96C0DEFF97C0DEFFA44B4F
:10410C00A52B9251A45DA551800A946F9351800AFE
:10411C009459D8A094EF20F096EF20F013EF20F0F4
:10412C001200000E0401386F000E396FF4EF20F00E
:10413C000001AB8F5104D8A4A6EF20F0A8EF20F01B
:10414C000EEF21F0040138830EEF21F00001AB8F4C
:10415C000EEF21F00001AB8F040134BFB8EF20F05B
:10416C00BAEF20F0CBEF20F034510F0B016E015061
:10417C00020D0A0EF324D96E010EF420DA6EDECF96
:10418C0003F0DDCF04F0DAEF20F034510F0B016EA9
:10419C000150020DAE0EF324D96E000EF420DA6E2F
:1041AC00DECF03F0DDCF04F003C0D9FF04C0DAFF8B
:1041BC00DFAEE3EF20F0E5EF20F00EEF21F003C0CF
:1041CC00D9FF04C0DAFFDFA4EEEF20F0F0EF20F00F
:1041DC000EEF21F0010E386F0EEF21F030511F0B56
:1041EC00016E026A0250000AD8B4FFEF20F00EEF05
:1041FC0021F00150000AD8B49EEF20F0010AD8B487
:10420C00ACEF20F0030AD8B4B0EF20F00EEF21F0A1
:10421C000001ABAF14EF21F016EF21F01DEF21F0F0
:10422C00380EA86F040EA96FAB81020EAC6F120092
:10423C00040130511F0BE806D8B427EF21F029EF09
:10424C0021F02BEF21F0A2EF21F03039E832030BF3
:10425C00E806D8B434EF21F036EF21F038EF21F036
:10426C00A2EF21F03451D8B43EEF21F040EF21F011
:10427C0081EF21F03405D8B446EF21F048EF21F05E
:10428C0081EF21F0A2EF21F0C80E0001A86F010E02
:10429C00A96F000EAD6F080EAC6FAB81AB8FA2EFA8
:1042AC0021F0C80E0001A86F010EA96FAB8FA2EF11
:1042BC0021F036C432F037C433F0D00E2E6E010E1E
:1042CC002F6E000E346E000E356E318EA2EF21F083
:1042DC00D00E0001A86F010EA96F000EAD6F070E76
:1042EC00AC6FC10EAB6FA2EF21F032C445F00001F0
:1042FC00AB8FA2EF21F03151016E026A0250000A1D
:10430C00D8B48BEF21F0A2EF21F00150000AD8B401
:10431C004AEF21F0010AD8B457EF21F0210AD8B4A2
:10432C005FEF21F0010AD8B46EEF21F0030AD8B484
:10433C007BEF21F0A2EF21F0120000016235633512
:10434C00696F6951D8A4ADEF21F0AFEF21F0B9EF4F
:10435C0021F0000E606F000E616F000E626F000E98
:10436C00636F26EF22F060C064F061C065F062C03C
:10437C0066F063C067F0200EC9EF21F0D890673368
:10438C00663365336433E82EC4EF21F06451686FF3
:10439C00628FFF0E6017FF0E6117FF0E6217000E83
:1043AC006317960E695F69BFE0EF21F0DEEF21F035
:1043BC00F6EF21F06951800A970FD8B0E8EF21F0A1
:1043CC00EAEF21F0ECEF21F0AFEF21F0D89063335E
:1043DC00623361336033693FECEF21F00EEF22F072
:1043EC001F0E6965FCEF21F0FEEF21F006EF22F0C5
:1043FC00AFEF21F0D89060376137623763376907C8
:10440C006951D8A40CEF22F00EEF22F000EF22F04D
:10441C006851D8B414EF22F016EF22F01EEF22F000
:10442C00631F621F611F606D000E61236223632393
:10443C0060C060F061C061F062C062F063C063F0A4
:10444C001200AEC0D9FFAFC0DAFF0001000EDFBC16
:10445C00010E026E040EAE19AE6FAF51AF6F080EA7
:10446C005418D8A43CEF22F03EEF22F050EF22F08B
:10447C00040132517F0B636E6350D8B448EF22F0C5
:10448C004AEF22F04EEF22F0100E546E50EF22F055
:10449C00040E546E5204D8A456EF22F058EF22F0BA
:1044AC00A0EF22F0000120EE02F0AE51D926AF5160
:1044BC00DA22380EDE6E040EDD6E80EC1FF0020E7A
:1044CC005318D8A46CEF22F06EEF22F07CEF22F0A0
:1044DC00AEC0D9FFAFC0DAFF040EDF6EAEC0D9FF9D
:1044EC00AFC0DAFF000EDB8EAAEF22F00250D8A488
:1044FC0082EF22F084EF22F092EF22F0AEC0D9FFCF
:10450C00AFC0DAFF480EDF6EAEC0D9FFAFC0DAFF26
:10451C00000EDB8EAAEF22F0AEC0D9FFAFC0DAFFDF
:10452C00080EDF6EAEC0D9FFAFC0DAFF000EDB8E17
:10453C00AAEF22F031AEA5EF22F0A7EF22F0A8EF00
:10454C0022F0319E000E526E1200000E000160151A
:10455C00686F000E6115696F800E62156A6F7F0EB1
:10456C0063156B6F685169116A116B11D8A4C1EF97
:10457C0022F0C3EF22F0CBEF22F0000E606F000EA2
:10458C00616F000E626F000E636F000E6415686F32
:10459C00000E6515696F800E66156A6F7F0E6715C4
:1045AC006B6F685169116A116B11D8A4E0EF22F09E
:1045BC00E2EF22F0EAEF22F0000E646F000E656F5E
:1045CC00000E666F000E676F63AFEFEF22F0F1EF36
:1045DC0022F0FAEF22F0606D611FD8B0612B621FE0
:1045EC00D8B0622B800E635767AFFFEF22F001EF5C
:1045FC0023F00AEF23F0646D651FD8B0652B661F9E
:10460C00D8B0662B800E6757000E601B000E611B26
:10461C00000E621B800E631B000E641B000E651BDC
:10462C00000E661B800E671B6451605D65516159FD
:10463C006651625967516359D8B027EF23F029EFBF
:10464C0023F02CEF23F0D8902DEF23F0D88012001C
:10465C004C50D8A434EF23F036EF23F0A6EF23F020
:10466C00010E4C6E4B50D8A43EEF23F040EF23F0DC
:10467C00A6EF23F0010E4B6E020E5218D8A449EF90
:10468C0023F04BEF23F062EF23F0000120EE01F05A
:10469C00AE51D926AF51DA22000EDF6EAEC0D9FF73
:1046AC00AFC0DAFF480EDF6EAEC0D9FFAFC0DAFF85
:1046BC00000EDB8EA6EF23F05204D8A468EF23F093
:1046CC006AEF23F0A6EF23F0000E4F6E20EE01F000
:1046DC004250D9264350DA22080EDF6E20EE02F04B
:1046EC004250D9264350DA22300EDE6E040EDD6EB7
:1046FC0042C0D9FF43C0DAFF040EDF6E42C0D9FFBF
:10470C0043C0DAFF000EDB8E010E4F6E20EE01F07F
:10471C004050D9264150DA22080EDF6E20EE02F00E
:10472C004050D9264150DA22300EDE6E040EDD6E7A
:10473C0040C0D9FF41C0DAFF800EDF6EA6EF23F038
:10474C00120000016C516D11D8A4AFEF23F0B1EF42
:10475C0023F0C4EF23F02AC16CF02BC16DF06C5127
:10476C006D11D8A4BCEF23F0BEEF23F0C4EF23F0FF
:10477C00000E6C6F000E6D6F1CEF24F06CC065F0BA
:10478C006DC066F06EC067F06FC068F0ADEC28F0DD
:10479C00000165516C2766516D236CC0D9FF6DC04B
:1047AC00DAFFDF50D8A4DDEF23F0DFEF23F0EAEFE0
:1047BC0023F0000E01012A6F000E2B6F2AC16CF042
:1047CC002BC16DF01CEF24F06CC065F06DC066F071
:1047DC006EC067F06FC068F0E2EC28F00001655124
:1047EC006C2501012A6F000166516D2101012B6FAF
:1047FC002AC1D9FF2BC1DAFFDF50D8B408EF24F05F
:10480C000AEF24F014EF24F02AC1D9FF2BC1DAFFF0
:10481C00000EDF6E2A4B2B2B18EF24F0000E2A6FA4
:10482C00000E2B6F6CC06CF06DC06DF012000001AF
:10483C00AB8F6B0E016E0F0E026E000E046E000E2F
:10484C00036E000E066E020E056EAAEC19F0000E39
:10485C00016E040E026E000E046E000E036E000E4E
:10486C00066E300E056EAAEC19F0608C000E156EFB
:10487C00390E1524D96EDA6A000EDA22000EDF6EBC
:10488C00360E1524D96EDA6A000EDA22000EDF6EAF
:10489C00152A020E156455EF24F057EF24F03EEF65
:1048AC0024F0550E016E000E026E000E046E000E0A
:1048BC00036E000E066E020E056EAAEC19F0609CDB
:1048CC00080E0001AE6F040EAF6F000E426E040EA8
:1048DC00436E42C040F043C041F032C458F05850CF
:1048EC00D8A47BEF24F07DEF24F081EF24F0100EA0
:1048FC00546E91EF24F0000E0E6E010E0D6E580EDC
:10490C000F6E000E106E000E126E010E116E41EC49
:10491C0027F0200E546E1200D7C176F0D8C177F074
:10492C0072C06CF073C06DF0760E00016E6F000EED
:10493C006F6FA7EC23F070C0D9FF71C0DAFF0001D4
:10494C006CC0DEFF6DC0DDFF70C0D9FF71C0DAFF37
:10495C00DE50DE10D8A4B5EF24F0B7EF24F0BDEF95
:10496C0024F0000E716F000E706FF5EF24F0000E46
:10497C00796F000E786FDDEF24F0784B792B000EF9
:10498C006C6F000E6D6F760E6E6F000E6F6FA7EC76
:10499C0023F0D89000017835D96E7935DA6E7051E4
:1049AC00D9267151DA226CC0DEFF6DC0DDFFD890C4
:1049BC007835D96E7935DA6E7051D9267151DA2283
:1049CC00DE50DE10D8A4EDEF24F0EFEF24F0C3EFAF
:1049DC0024F0010E7825706F000E7921716F120092
:1049EC00000E0001B66F3E503F10D8B400EF25F01A
:1049FC0002EF25F00DEF25F03EC0D9FF3FC0DAFFE6
:104A0C00DFBE0BEF25F00DEF25F04FEF25F020EE7C
:104A1C0001F03E50D9263F50DA226D51DE5CD8B001
:104A2C001AEF25F01CEF25F024EF25F020EE01F015
:104A3C003E50D9263F50DA22DF506D6F000EB66F14
:104A4C0037EF25F0400EB625D96EDA6A050EDA225C
:104A5C00B6516B25E16E000E6C21E26EDFCFE7FFE5
:104A6C00B62B6D51B65DD8A03EEF25F040EF25F08A
:104A7C0028EF25F0000E606F400E616F050E626F1F
:104A8C00400E636F020E6BEC1CF060C03EF061C018
:104A9C003FF00001B65112002D0E4E6E57C01EF0A5
:104AAC00FD0E1E16D8A45DEF25F05FEF25F0A1EFEB
:104ABC0025F057C01EF0D8901E323F0E1E161E5009
:104ACC00040D000EF324426E040EF420436E42C01B
:104ADC0040F043C041F0040E4018406E4150416E0E
:104AEC0042C0D9FF43C0DAFFDF30E8320F0B0D0AAA
:104AFC00D8A483EF25F085EF25F09DEF25F0300E3F
:104B0C00016E040E026E20EE02F04250D926435084
:104B1C00DA22DECF03F0DDCF04F0000E066E080EB5
:104B2C00056ED5EC29F0B4EC26F0ADEF25F004ECD5
:104B3C0028F0ADEF25F05750FD0B040AD8A4A9EFCF
:104B4C0025F0ABEF25F0ADEF25F027EC22F01200AD
:104B5C00000E4A6E000E496E020E5218D8A4B9EF20
:104B6C0025F0BBEF25F0DBEF25F020EE01F04050F7
:104B7C00D9264150DA22080EDF6E20EE02F04050AA
:104B8C00D9264150DA22380EDE6E040EDD6E40C09E
:104B9C00D9FF41C0DAFF480EDF6E40C0D9FF41C0DB
:104BAC00DAFF000EDB8E07EF26F00001AC5104019A
:104BBC00365D0001AD5104013759D8B0E8EF25F04E
:104BCC00EAEF25F0EEEF25F036C4ACF037C4ADF0CB
:104BDC0080EC1FF0000120EE02F0AE51D926AF514F
:104BEC00DA22380EDE6E040EDD6EAEC0D9FFAFC019
:104BFC00DAFF480EDF6EAEC0D9FFAFC0DAFF000E91
:104C0C00DB8E1200000E00016015686F000E61153E
:104C1C00696F800E62156A6F7F0E63156B6F68513A
:104C2C0069116A116B11D8A41EEF26F020EF26F043
:104C3C0028EF26F0000E606F000E616F000E626FA1
:104C4C00000E636F000E6415686F000E6515696FBA
:104C5C00800E66156A6F7F0E67156B6F6851691150
:104C6C006A116B11D8A43DEF26F03FEF26F047EF09
:104C7C0026F0000E646F000E656F000E666F000E5E
:104C8C00676F645160190FE1655161190CE1665150
:104C9C00621909E167516319D8B457EF26F059EF3F
:104CAC0026F05CEF26F0D8905DEF26F0D88012004D
:104CBC00066E000E076E040E086E0150026E036A3B
:104CCC00D890023603360650046E056AD890043626
:104CDC000536D890043605360250042603500522BA
:104CEC00D89004360536D89004360536045007267D
:104CFC000550082207C0D9FF08C0DAFFDF9E01501B
:104D0C00D8A48BEF26F08DEF26F09BEF26F0065003
:104D1C00020D0A0EF324D96E010EF420DA6E07C0D0
:104D2C00DEFF08C0DDFFA7EF26F00650020DAE0E29
:104D3C00F324D96E000EF420DA6E07C0DEFF08C033
:104D4C00DDFF07C0D9FF08C0DAFFDF9C20EE04F0BE
:104D5C000750D9260850DA22DF8C1200000E536E51
:104D6C00000E4D6E000E4A6E000E496E000E4F6E18
:104D7C00000E526EAEC0D9FFAFC0DAFF7F0EDF1649
:104D8C00040E0001AE19AE6FAF51AF6FAEC0D9FFBC
:104D9C00AFC0DAFF7F0EDF16040EAE19AE6FAF5147
:104DAC00AF6F40C0D9FF41C0DAFF7F0EDF16000E97
:104DBC00AB6F000EAD6F000EAC6F000E316E000EBF
:104DCC00336E000E326EEDEC1EF0000E0E6E030E06
:104DDC000D6E000E0F6E000E106E000E126E000E99
:104DEC00116E41EC27F00CEC1DF01200200E5460FB
:104DFC0002EF27F004EF27F006EF27F040EF27F043
:104E0C0060A20BEF27F00DEF27F00FEF27F040EF2C
:104E1C0027F04750D8A415EF27F017EF27F03EEFF7
:104E2C0027F0400E00016B6F020E6C6F400E6D6F21
:104E3C00F6EC24F00001B46F000E6F6F35EF27F025
:104E4C00400E6F25D96EDA6A020EDA22000E6F253B
:104E5C00E16EE26A020EE222DFCFE7FF6F2BB45164
:104E6C006F5DD8A03CEF27F03EEF27F026EF27F040
:104E7C0095EC16F012004BEF27F017EC29F084EFAD
:104E8C0027F01EEC21F084EF27F00DC013F00EC0BC
:104E9C0014F01450000AD8B45AEF27F07F0AD8B493
:104EAC007DEF27F084EF27F01350010AD8B443EFBD
:104EBC0027F0030AD8B484EF27F0010AD8B447EFDF
:104ECC0027F0060AD8B484EF27F0770AD8B484EF19
:104EDC0027F0010AD8B484EF27F0070AD8B484EF7E
:104EEC0027F0010AD8B484EF27F084EF27F0135091
:104EFC00FF0AD8B484EF27F084EF27F012008ABCA5
:104F0C008AEF27F08DEF27F0010E8EEF27F0000EC1
:104F1C00FF0A036E033A034603468A500318BF0B7D
:104F2C0003188A6E000E026E7F0E016E72EC2CF06E
:104F3C0001013A513B11D8A4A6EF27F0A8EF27F0B6
:104F4C00AEEF27F0000E3B6F010E3A6FC8EF27F063
:104F5C00FF0E3625366FFF0E3721376F000E3B6F75
:104F6C00000E3A6F36513711D8A4BFEF27F0C1EFBE
:104F7C0027F0C8EF27F0F6EC2CF0000E0101396F8A
:104F8C00000E386F1200010138053911D8B4D1EF79
:104F9C0027F0D3EF27F0C9EF27F0000E396F010E81
:104FAC00386F00016BBFDFEF27F0DDEF27F0E6EF86
:104FBC0027F0819E6A6D6B1FD8B06B2BE7EF27F043
:104FCC00818E6AC060F06BC061F0000E636F210EC1
:104FDC00626F5EEC2CF060C036F161C037F1000EF0
:104FEC0001013B6F000E3A6F000E0001616F000E65
:104FFC00606F33EC2CF0F4EC2CF01200020E521813
:10500C00D8A40BEF28F00DEF28F011EF28F0ADEC41
:10501C001DF03DEF28F0000E526E4F50D8A419EF42
:10502C0028F01BEF28F03BEF28F020EE01F0405069
:10503C00D9264150DA22080EDF6E20EE02F04050E5
:10504C00D9264150DA22300EDE6E040EDD6E40C0E1
:10505C00D9FF41C0DAFF0C0EDF6E40C0D9FF41C052
:10506C00DAFF000EDB8E3DEF28F0000E4F6E1200C3
:10507C00010E00016C6FD00E686FFF0E696F66C079
:10508C006AF067C06BF068516A2769516B236B51EA
:10509C0009E10A0E6A5DD8A056EF28F058EF28F007
:1050AC0073EF28F09F0E686FFF0E696F200E66116C
:1050BC006A6F000E67116B6F68516A2769516B2319
:1050CC006B5109E1060E6A5DD8A06FEF28F071EF05
:1050DC0028F073EF28F0000E6C6F6CC066F0676BF5
:1050EC001200000E0001686F000E696F000E6A6FEF
:1050FC00000E6B6F60A185EF28F087EF28F08FEF23
:10510C0028F0645168276551692366516A236751F9
:10511C006B23D8906437653766376737D89063331D
:10512C006233613360336051611162116311D8A431
:10513C00A2EF28F0A4EF28F080EF28F068C060F010
:10514C0069C061F06AC062F06BC063F01200000EBF
:10515C0000016B6F000E6A6FB8EF28F0654B662B81
:10516C006A4B6B2B65C0D9FF66C0DAFFDF50D8B431
:10517C00C2EF28F0C4EF28F0DDEF28F067C060F034
:10518C0068C061F065C0D9FF66C0DAFFDF50696F97
:10519C006951626F636BFDEC29F000016051611184
:1051AC00D8A4DBEF28F0DDEF28F0B4EF28F06AC0CC
:1051BC0065F06BC066F01200000E00016B6F000E04
:1051CC006A6FEDEF28F0654B662B6A4B6B2B65C055
:1051DC00D9FF66C0DAFFDF50D8B4F7EF28F0F9EF4B
:1051EC0028F012EF29F067C060F068C061F065C06C
:1051FC00D9FF66C0DAFFDF50696F6951626F636B6C
:10520C00FDEC29F0000160516111D8B410EF29F0C8
:10521C0012EF29F0E9EF28F06AC065F06BC066F078
:10522C001200000E0101D06F4B0ED16F000ED26F29
:10523C00000ED36F000ED46F000ED56F080ED66F14
:10524C00000E0001B66F1A0E096E010E24EC2AF046
:10525C001E0E096E020E24EC2AF0000E016E400E9A
:10526C00026E050E036E400E046E020E4EEC1EF026
:10527C0001C03EF002C03FF0000E0101446F000E71
:10528C00456F000E476E1200F00EF66E590EF76E5B
:10529C00000EF86E0900F5CFD7F10900F5CFD8F163
:1052AC0003EE00F0C80EEE6AE806FDE102EE00F037
:1052BC00800EEE6AE806FDE101EE00F0D70EEE6A14
:1052CC00E806FDE100EEA8F0100EEE6AE806FDE13E
:1052DC0000EE2EF02B0EEE6AE806FDE15990599285
:1052EC00000EF86E00012FEF18F06AA080EF29F085
:1052FC0082EF29F0A9EF29F042C0D9FF43C0DAFFB1
:10530C00800EDE18D8A48DEF29F08FEF29F0A8EFCE
:10531C0029F0AEC0D9FFAFC0DAFF840EDE18D8A4D6
:10532C009AEF29F09CEF29F0A8EF29F042C0D9FFA1
:10533C0043C0DAFF0C0EDF6E42C0D9FF43C0DAFF68
:10534C00000EDB8E6A90659A1200010E0001666FEA
:10535C00200E60196111D8B4B6EF29F0B8EF29F01E
:10536C00D1EF29F0F70E626FFF0E636F60C064F02F
:10537C0061C065F06251642763516523655109E191
:10538C00050E645DD8A0CDEF29F0CFEF29F0D1EF59
:10539C0029F0000E666F66C060F0616B120003C0EE
:1053AC0009F004C00AF001C007F002C008F0EFEFEA
:1053BC0029F009C0D9FF0AC0DAFFDF500B6E094A89
:1053CC000A2A07C0D9FF08C0DAFF0BC0DFFF074A63
:1053DC00082A0506D8A00606052806E10628D8A442
:1053EC00FAEF29F0FCEF29F0DFEF29F0120060C092
:1053FC00D9FF61C0DAFF00016251DE18D8A409EFB1
:10540C002AF00BEF2AF011EF2AF060C060F061C0B7
:10541C0061F023EF2AF060C0D9FF61C0DAFF604B66
:10542C00612BDF50D8A41DEF2AF01FEF2AF0FDEFFF
:10543C0029F0000E606F000E616F12000C6E09A453
:10544C002AEF2AF02CEF2AF031EF2AF0000E016E31
:10545C000C505EEC26F009A236EF2AF038EF2AF059
:10546C003DEF2AF0010E016E0C505EEC26F06A0E38
:10547C000C240A6E0B6A0F0E0B220AC0D9FF0BC04C
:10548C00DAFF09C0DFFF1200000E0001741B000ED2
:10549C00751B000E761B800E771B70C060F071C000
:1054AC0061F072C062F073C063F074C064F075C0D8
:1054BC0065F076C066F077C067F0B8EC0CF060C0B1
:1054CC0070F061C071F062C072F063C073F01200D2
:1054DC009F0E0001686FFF0E696F66C06AF067C0AF
:1054EC006BF068516A2769516B236B5107E11A0EF7
:1054FC006A5DD8B084EF2AF086EF2AF08CEF2AF0A0
:10550C005F0E6615666F676B90EF2AF066C066F0EB
:10551C0067C067F012005450D8A497EF2AF099EFA7
:10552C002AF0B1EF2AF0000E606E000E646E160EBB
:10553C00626E9F0E666E7B0E646EA584A384A8EFCC
:10554C002AF0608660A6ADEF2AF0AFEF2AF0A7EF45
:10555C002AF0010E546E120062C064F063C065F054
:10556C0060C066F061C067F064C0D9FF65C0DAFF47
:10557C000001644B652B66C0E1FF67C0E2FF664B20
:10558C00672BDFCFE7FFE750D8A4CFEF2AF0D1EF9E
:10559C002AF0BAEF2AF01200000E0001B76F000ECD
:1055AC000E6E740E0D6E000E0F6E000E106E000E51
:1055BC00126E000E116E41EC27F060926494E8EFCD
:1055CC002AF0659465B4EDEF2AF0EFEF2AF0E7EFDF
:1055DC002AF0000E486E1200A1923CC001F03DC0B2
:1055EC0002F072EC2CF0010142514311D8B401EFDE
:1055FC002BF003EF2BF010EF2BF002D810EF2BF069
:10560C000500FA6E4251FD6E4351FE6EF850FF6E6E
:10561C00FA501200120060C0D9FF61C0DAFF000E10
:10562C00DE6E000EDD6E000120EE02F06051D92618
:10563C006151DA22000EDE6E000EDD6E20EE04F0FB
:10564C006051D9266151DA22000EDE6E000EDD6E3D
:10565C00120060C062F061C063F038EF2BF0000103
:10566C00604B612B60C0D9FF61C0DAFFDF50D8A45A
:10567C0042EF2BF044EF2BF035EF2BF00001625191
:10568C00605D606F63516159616F12009F0E000184
:10569C00626FFF0E636F60C064F061C065F06251B1
:1056AC0064276351652365510AE11A0E645DD8A025
:1056BC0062EF2BF065EF2BF0010E66EF2BF0000E76
:1056CC00606F616B1200D00E0001626FFF0E636F92
:1056DC0060C064F061C065F062516427635165235A
:1056EC0065510AE10A0E645DD8A07FEF2BF082EFC2
:1056FC002BF0010E83EF2BF0000E606F616B12002C
:10570C0000016051611162116311D8B490EF2BF05C
:10571C0092EF2BF09AEF2BF0000E601B000E611B2A
:10572C00000E621B800E631B60C060F061C061F0F4
:10573C0062C062F063C063F01200010E0101202709
:10574C00000E2123222323230001B751D8A4B1EF4B
:10575C002BF0B3EF2BF0BDEF2BF0482A4850D8A418
:10576C00BAEF2BF0BCEF2BF0BDEF2BF0486812001A
:10577C00F29444C0D6FF01013E513F11D8B4C9EF99
:10578C002BF0CBEF2BF0D8EF2BF002D8D8EF2BF07F
:10579C000500FA6E3E51FD6E3F51FE6EF850FF6EE5
:1057AC00FA5012001200F2EC2CF01DEC2CF0CDECA7
:1057BC002CF0D6EC2CF01FEC1BF0B7EC2CF007EC1B
:1057CC002CF0DFEC2CF0A9EC2CF098EC2CF091ECFC
:1057DC002AF01200648465986082010E0001B76F94
:1057EC00000E486E000E0E6E750E0D6E000E0F6ED6
:1057FC00000E106E000E126E000E116E41EC27F0B2
:10580C001200000EB46E440EB36E800EB26EB2CFA8
:10581C003CF0B3CF3DF0A192A082F20E0001606F7C
:10582C00590E616FE6EC2CF0010EB16E1200000EF9
:10583C00896E000E8A6E000E8B6E9268000E936E4F
:10584C00C70E946EC40E0F015D6F000E5C6F2F0EB1
:10585C005B6F000E856EF18E1200B1A438EF2CF048
:10586C003AEF2CF043EF2CF0B19000016151B36E84
:10587C0060C0B2FFB18048EF2CF000016151B36EF3
:10588C0060C0B2FF1200A3944750D8A450EF2CF084
:10589C0052EF2CF05CEF2CF060C027F161C028F1C6
:1058AC0062C0B5F0010E466E010E476EA384120065
:1058BC00000160516203F3CF64F0F4CF65F06051E6
:1058CC006303F350652761516203F350652764C08D
:1058DC0060F065C061F01200B1A477EF2CF079EFA5
:1058EC002CF081EF2CF0B1900250B36E01C0B2FFDE
:1058FC00B18085EF2CF00250B36E01C0B2FF1200E4
:10590C00FF0E0001646FFF0E656FFF0E666F7F0E5A
:10591C00676F64C060F065C061F066C062F067C01C
:10592C0063F01200000ED76E000ED66E000E446EA1
:10593C00F294F28AF40E0001606F590E616FEBEC79
:10594C002CF0D5681200000ECC6E000ECF6E000E3F
:10595C00CE6ECECF40F1CFCF41F19E90010ECD6EE9
:10596C001200000EC16E060EC06E000EC36E000E4D
:10597C00C46E010EC26E12006DC060F06EC061F09C
:10598C006FC062F049EC2CF095EC16F01200700E22
:10599C00D36E000ED26E800E9B6E000EB56E120092
:1059AC00040E976E000E906E000E916E0F015997BB
:1059BC001200BB68000EBC6E9E92040EBA6E1200F2
:1059CC0060C042F161C043F1120060C03EF161C0A1
:1059DC003FF11200B1901200D09E1200B180120063
:0A59EC00B19012002000120012001A
:020000040020DA
:08000000FFFFFFFFFFFFFFFF00
:020000040030CA
:0E00000023285F3CFFD385FF0FC00FE00F40A9
:00000001FF
