:040000007CEF00F0A1
:100008005982FACF20F0FBCF21F0E9CF22F0EACFD6
:1000180023F0E1CF24F0E2CF25F0D9CF26F0DACFD4
:1000280027F0F3CF28F0F4CF29F0F6CF2AF0F7CF56
:100038002BF0F8CF2CF0F5CF2DF0F2AA26EF00F038
:1000480028EF00F033EF00F0F2A42DEF00F02FEFCF
:1000580000F033EF00F039EC3CF05EEF00F0F2AC6A
:1000680038EF00F03AEF00F05EEF00F0A3A43FEFA6
:1000780000F041EF00F04CEF00F0A4A446EF00F0D0
:1000880048EF00F04CEF00F0E6EC1EF05EEF00F0F9
:10009800A0A251EF00F053EF00F05EEF00F0A1A234
:1000A80058EF00F05AEF00F05EEF00F06BEC3BF019
:1000B8005EEF00F02DC0F5FF2CC0F8FF2BC0F7FF56
:1000C8002AC0F6FF29C0F4FF28C0F3FF27C0DAFFD3
:1000D80026C0D9FF25C0E2FF24C0E1FF23C0EAFF04
:1000E80022C0E9FF21C0FBFF20C0FAFF599211008E
:0400F80090EF37F05E
:1008000000A8084C088008090809024300020100FA
:10081000C032090400000102020100052400100199
:100820000424020205240600010524010001070535
:1008300081030A000209040100020A000000070502
:1008400002024000000705820240000034034D0010
:100850006900630072006F00630068006900700047
:10086000200054006500630068006E006F006C009B
:100870006F0067007900200049006E0063002E00C1
:10088000160342006F00620069006E0061006400A0
:100890006F00720061001201000202000008D8041B
:1008A0000A00000101020001040309042573202548
:1008B0006320256320256620256620256400494E97
:1008C00046494E49545900696E66696E69747900EB
:1008D000257320257300494E46004E414E00696E37
:1008E00066006E616E006C6C73006C660000000147
:1008F00087518811D8B47FEF04F081EF04F08DEFB9
:1009000004F087C0D9FF88C0DAFF85C0DEFF86C04B
:10091000DDFF8DEF04F0854B862B85C0D9FF86C0A7
:10092000DAFF200EDE18D8B498EF04F09BEF04F045
:10093000010E9CEF04F0000E936F946B9351941191
:10094000D8A4A5EF04F0A7EF04F08BEF04F0F70EA6
:10095000896FFF0E8A6F85C0D9FF86C0DAFFDF502E
:100960008B6F8B51936F946B93C08CF094C08DF010
:1009700089518C278A518D238D5109E1050E8C5D9B
:10098000D8A0C5EF04F0C7EF04F08BEF04F0000E21
:10099000906F2D0E93199411D8A4D1EF04F0D3EFDA
:1009A00004F0D9EF04F0010E906F854B862BE5EF34
:1009B00004F02B0E93199411D8A4E1EF04F0E3EFA7
:1009C00004F0E5EF04F0D5EF04F0000E996FEAEFC4
:1009D00004F0992B99518525D96E000E8621DA6E87
:1009E000DF50D8B4F6EF04F0F8EF04F028EF05F08C
:1009F00099518525D96E000E8621DA6EDF50896FF8
:100A0000C70E9925F66EF76A080EF7220800F55012
:100A10008919D8B40EEF05F010EF05F0E9EF04F0F6
:100A200099518525D96E000E8621DA6EDF50896FC7
:100A3000BE0E9925F66EF76A080EF7220800F550EB
:100A40008919D8B426EF05F028EF05F0E9EF04F096
:100A5000020E99652EEF05F030EF05F05CEF05F022
:100A6000000E956F000E966F800E976F7F0E986F39
:100A700087518811D8B43FEF05F041EF05F0A7EF9B
:100A80000CF0080E9919D8B448EF05F04AEF05F0BC
:100A90004CEF05F0030E996F99518525896F000E73
:100AA00086218A6F87C0D9FF88C0DAFF89C0DEFF40
:100AB0008AC0DDFFA7EF0CF0000E996F61EF05F023
:100AC000992B99518525D96E000E8621DA6EDF505B
:100AD000D8B46DEF05F06FEF05F09FEF05F0995179
:100AE0008525D96E000E8621DA6EDF50896FE20E01
:100AF0009925F66EF76A080EF7220800F550891955
:100B0000D8B485EF05F087EF05F060EF05F0995157
:100B10008525D96E000E8621DA6EDF50896FDA0ED8
:100B20009925F66EF76A080EF7220800F550891924
:100B3000D8B49DEF05F09FEF05F060EF05F0030ED0
:100B40009919D8A4A6EF05F0A8EF05F017EF06F065
:100B5000D90E606F080E616FF0EC3CF060C095F04C
:100B600061C096F062C097F063C098F000018751B1
:100B70008811D8B4BEEF05F0C0EF05F0A7EF0CF078
:100B800099518527000E862385C0D9FF86C0DAFFDC
:100B9000280EDE18D8A4CFEF05F0D1EF05F00DEF49
:100BA00006F0000E996FD6EF05F0992B9951852527
:100BB000D96E000E8621DA6EDF50D8B4E2EF05F070
:100BC000E4EF05F0F3EF05F099518525D96E000E9D
:100BD0008621DA6E290EDE18D8A4F1EF05F0F3EFC6
:100BE00005F0D5EF05F099518525D96E000E8621C7
:100BF000DA6E290EDE18D8A400EF06F002EF06F038
:100C00000DEF06F09951896F8A6B010E8927000E4E
:100C10008A23895185278A51862387C0D9FF88C0B6
:100C2000DAFF85C0DEFF86C0DDFFA7EF0CF0000E07
:100C3000946F000E936F000E956F000E966F000E6E
:100C4000976F000E986F000E926F000E916F000E5E
:100C5000996F2CEF06F0992B99518525D96E000ECE
:100C60008621DA6E300EDE18D8B439EF06F03BEF8D
:100C700006F02BEF06F09951D8B441EF06F043EFA0
:100C800006F0B8EF09F099518525D96E000E86213E
:100C9000DA6E780EDE18D8B450EF06F052EF06F098
:100CA00061EF06F099518525D96E000E8621DA6E26
:100CB000580EDE18D8A45FEF06F061EF06F0B8EF2B
:100CC00009F09951896F8A6B010E8927000E8A23DA
:100CD000895185278A518623000E996F71EF06F09E
:100CE000992B99518525D96E000E8621DA6E300E2A
:100CF000DE18D8B47EEF06F080EF06F070EF06F055
:100D0000000E996F99518525D96E000E8621DA6EF5
:100D1000700EDE18D8B48FEF06F091EF06F007EFF3
:100D200008F099518525D96E000E8621DA6E500E95
:100D3000DE18D8A49EEF06F0A0EF06F0A2EF06F0B2
:100D400007EF08F099518525D96E000E8621DA6EDD
:100D50002E0EDE18D8A4AFEF06F0B1EF06F0B5EF17
:100D600006F09089992B07EF08F099518525D96EE7
:100D7000000E8621DA6EDF50896F8951666F676BCE
:100D80000EEC38F0000166516711D8B4CAEF06F0D6
:100D9000CCEF06F03BEF07F0000E8F6FD00E896F9F
:100DA000FF0E8A6F99518525D96E000E8621DA6E65
:100DB000DF508B6F8C6B89518B278A518C238C5120
:100DC00007E10A0E8B5DD8B0E8EF06F0EAEF06F017
:100DD000F5EF06F099518525D96E000E8621DA6E61
:100DE000DF50D00F8F6F06EF07F099518525D96E30
:100DF000000E8621DA6EDF50896F8951666F676B4E
:100E0000E5EC3AF000016651C90F8F6F94BF14EF03
:100E100007F0945107E1080E935DD8B012EF07F088
:100E200014EF07F033EF07F093510708896FD8905C
:100E30008937D89089378FC08AF08B6B8C6B8D6B1C
:100E4000892B28EF07F0D8908A378B378C378D376E
:100E5000892F23EF07F08A5195138B5196138C51EC
:100E600097138D519813934B942B040E9127000EDA
:100E7000922345EF07F0000E856F000E866F000E7F
:100E8000876F000E886FC8EF0CF0992B82EF06F089
:100E900099518525D96E000E8621DA6E700EDE1806
:100EA000D8B455EF07F057EF07F00EEF08F099515F
:100EB0008525D96E000E8621DA6E500EDE18D8A474
:100EC00064EF07F066EF07F068EF07F00EEF08F049
:100ED00099518525D96E000E8621DA6E300EDE1806
:100EE000D8A475EF07F077EF07F086EF07F093517E
:100EF0009411D8A47EEF07F080EF07F086EF07F09B
:100F0000FC0E9127FF0E922306EF08F099518525DC
:100F1000D96E000E8621DA6EDF50896F8951666FB7
:100F2000676B0EEC38F0000166516711D8B49BEF87
:100F300007F09DEF07F006EF08F0000E8F6FD00E60
:100F4000896FFF0E8A6F99518525D96E000E862113
:100F5000DA6EDF508B6F8C6B89518B278A518C2313
:100F60008C5107E10A0E8B5DD8B0B9EF07F0BBEFEB
:100F700007F0C6EF07F099518525D96E000E86213E
:100F8000DA6EDF50D00F8F6FD7EF07F099518525BC
:100F9000D96E000E8621DA6EDF50896F8951666F37
:100FA000676BE5EC3AF000016651C90F8F6F94BF93
:100FB000E5EF07F0945107E1080E935DD8B0E3EF39
:100FC00007F0E5EF07F004EF08F093510708896F89
:100FD000D8908937D89089378FC08AF08B6B8C6B0B
:100FE0008D6B892BF9EF07F0D8908A378B378C37C8
:100FF0008D37892FF4EF07F08A5195138B51961393
:101000008C5197138D519813934B942B992B90B926
:101010000CEF08F00EEF08F048EF07F09951852526
:10102000D96E000E8621DA6E700EDE18D8B41BEF72
:1010300008F01DEF08F036EF08F099518525D96EBC
:10104000000E8621DA6E500EDE18D8B42AEF08F0B2
:101050002CEF08F036EF08F0000E856F000E866F5B
:10106000000E876F000E886FC8EF0CF0992B995116
:101070008525D96E000E8621DA6E2B0EDE18D8A4D7
:1010800044EF08F046EF08F049EF08F0992B5AEFCB
:1010900008F099518525D96E000E8621DA6E2D0E45
:1010A000DE18D8A456EF08F058EF08F05AEF08F011
:1010B0009087992B99518527000E8623000E996FF2
:1010C00063EF08F0992B99518525D96E000E862182
:1010D000DA6E300EDE18D8B470EF08F072EF08F058
:1010E00062EF08F0000E946F000E936FA5EF08F00A
:1010F0009951D8B47EEF08F080EF08F08EEF08F039
:1011000093C060F094C061F0000E636F0A0E626FCE
:10111000C8EC3CF060C093F061C094F0D00E0001C8
:10112000896FFF0E8A6F99518525D96E000E862131
:10113000DA6EDF508B6F8C6B89518B278A518C2331
:101140008B5193278C519423992BD00E896FFF0ECE
:101150008A6F99518525D96E000E8621DA6EDF508F
:101160008B6F8C6B89518B278A518C238C5109E1B1
:101170000A0E8B5DD8A0BFEF08F0C1EF08F078EF42
:1011800008F09951D8A4C7EF08F0C9EF08F0D3EFE1
:1011900008F0000E856F000E866F000E876F000E40
:1011A000886FC8EF0CF090A7D8EF08F0DAEF08F0DE
:1011B000DEEF08F0936D941FD8B0942B93519127D4
:1011C0009451922387518811D8B4E9EF08F0EBEFDE
:1011D00008F0F9EF08F099518525896F000E8621F6
:1011E0008A6F87C0D9FF88C0DAFF89C0DEFF8AC056
:1011F000DDFF9551961197119811D8A402EF09F0CF
:1012000004EF09F00EEF09F0000E856F000E866FF7
:10121000000E876F000E886FC8EF0CF0FF0E95155B
:10122000896F000E96158A6F000E97158B6F000E52
:1012300098158C6F8C518B118A1109E1810E895D93
:10124000D8A025EF09F027EF09F039EF09F0000EDB
:101250009527010E9623000E9723000E982339EF51
:1012600009F0D89095379637973798379107D8A0D7
:10127000920798AF3EEF09F040EF09F031EF09F027
:1012800092AF4CEF09F0830E915DFF0E9259D8B0EA
:101290004CEF09F04EEF09F05AEF09F0FF0E926F94
:1012A000810E916F000E956F000E966F000E976F76
:1012B000000E986F810E911908E19229D8B463EF5E
:1012C00009F065EF09F06DEF09F0D8909537963782
:1012D000973798379107D8A0920792BF79EF09F016
:1012E000925109E1800E915DD8A079EF09F07BEF72
:1012F00009F087EF09F0000E956F000E966F000E53
:10130000976F000E986F000E926F800E916F090E0E
:10131000896FD8909833973396339533892F89EF17
:1013200009F0FF0E9517FF0E96177F0E9717000E08
:1013300098177F0E9125896F000E92218A6FFF0EFC
:1013400089158B6F8C6B8D6B8E6B170ED8908B37CE
:101350008C378D378E37E82EA6EF09F08B51951319
:101360008C5196138D5197138E519813A7EF0CF053
:1013700090B9BDEF09F0BFEF09F0D1EF09F085C0DA
:10138000D9FF86C0DAFF2E0EDE18D8A4CAEF09F006
:10139000CCEF09F0D1EF09F09089854B862BB8EF9F
:1013A00009F0D00E896FFF0E8A6F85C0D9FF86C005
:1013B000DAFFDF508B6F8C6B89518B278A518C231E
:1013C0008C5109E10A0E8B5DD8A0E9EF09F0EBEF33
:1013D00009F0EDEF09F03CEF0AF09083090E931944
:1013E0009411D8B4F6EF09F0F8EF09F02FEF0AF0F6
:1013F00090A9FDEF09F0FFEF09F002EF0AF0910765
:10140000D8A09207934B942B95C060F096C061F0E2
:1014100097C062F098C063F00A0E646F000E656FAB
:10142000000E666F000E676F47EC38F060C095F0F5
:1014300061C096F062C097F063C098F085C0D9FF94
:1014400086C0DAFFDF500001896FD00E89278951ED
:101450009527000E96239723982338EF0AF090B92A
:1014600034EF0AF036EF0AF038EF0AF0914B922B86
:10147000854B862BB8EF09F0000E946F000E936F2A
:1014800085C0D9FF86C0DAFF650EDE18D8B44BEFF1
:101490000AF04DEF0AF05AEF0AF085C0D9FF86C076
:1014A000DAFF450EDE18D8A458EF0AF05AEF0AF01A
:1014B00024EF0BF0854B862B85C0D9FF86C0DAFF61
:1014C0002D0EDE18D8A467EF0AF069EF0AF06EEF70
:1014D0000AF09087854B862B7DEF0AF085C0D9FFF7
:1014E00086C0DAFF2B0EDE18D8A479EF0AF07BEF66
:1014F0000AF07DEF0AF0854B862B85C0D9FF86C0A8
:10150000DAFF300EDE18D8B488EF0AF08AEF0AF05E
:101510007BEF0AF0D00E896FFF0E8A6F85C0D9FF6E
:1015200086C0DAFFDF508B6F8C6B89518B278A5115
:101530008C238C5107E10A0E8B5DD8B0A2EF0AF024
:10154000A4EF0AF019EF0BF085C0D9FF86C0DAFFCF
:10155000DF50896FD00E89278951936F946B854B2B
:10156000862BD00E896FFF0E8A6F85C0D9FF86C08B
:10157000DAFFDF508B6F8C6B89518B278A518C235C
:101580008C5107E10A0E8B5DD8B0C9EF0AF0CBEFA2
:101590000AF019EF0BF085C0D9FF86C0DAFFDF50E3
:1015A000896FD00E892793C060F094C061F0000E5F
:1015B000636F0A0E626FC8EC3CF000018951602530
:1015C000936F000E6121946F854B862BD00E896F2F
:1015D000FF0E8A6F85C0D9FF86C0DAFFDF508B6FA0
:1015E0008C6B89518B278A518C238C5107E10A0E11
:1015F0008B5DD8B0FEEF0AF000EF0BF019EF0BF0A7
:1016000085C0D9FF86C0DAFFDF50896FD00E8927E9
:1016100093C060F094C061F0000E636F0A0E626FB9
:10162000C8EC3CF0000189516025936F000E6121E8
:10163000946F90A71EEF0BF020EF0BF024EF0BF050
:10164000936D941FD8B0942B93519127945192236A
:1016500087518811D8B42FEF0BF031EF0BF040EF2A
:101660000BF090A336EF0BF038EF0BF040EF0BF0E0
:1016700087C0D9FF88C0DAFF85C0DEFF86C0DDFFE6
:1016800095C060F096C061F097C062F098C063F0BA
:10169000000E05EC21F060C095F061C096F062C0CC
:1016A00097F063C098F095C060F096C061F097C065
:1016B00062F098C063F0000E0001646F000E656F69
:1016C000000E666F000E676FCCEC35F00001D8A0FD
:1016D0006CEF0BF06EEF0BF078EF0BF0000E856FF8
:1016E000000E866F000E876F000E886FC8EF0CF03B
:1016F00092BF7FEF0BF07DEF0BF010EF0CF0916DD0
:10170000921FD8B0922BA4EF0BF095C060F096C05A
:1017100061F097C062F098C063F0F90E646F020E3A
:10172000656F150E666F500E676FF9EC19F060C0AB
:1017300095F061C096F062C097F063C098F0000128
:10174000F60E9127FF0E922392BFB2EF0BF092514B
:1017500007E10A0E915DD8B0B0EF0BF0B2EF0BF0DD
:1017600085EF0BF0D2EF0BF095C060F096C061F002
:1017700097C062F098C063F0000E646F000E656F52
:10178000200E666F410E676FF9EC19F060C095F09E
:1017900061C096F062C097F063C098F000019107B5
:1017A000D8A0920791519211D8A4D9EF0BF0DBEF9A
:1017B0000BF0B4EF0BF095C079F096C07AF097C0BB
:1017C0007BF098C07CF0000E7D6F000E7E6F800E67
:1017D0007F6F000E806F7AEC2EF00001D8B0F3EF2F
:1017E0000BF0F5EF0BF0A7EF0CF090A1FAEF0BF078
:1017F000FCEF0BF006EF0CF0000E856F000E866F0D
:10180000800E876F800E886FC8EF0CF0000E856F1A
:10181000000E866F800E876F000E886FC8EF0CF089
:1018200092BF1BEF0CF0925108E19105D8A01BEF7D
:101830000CF01DEF0CF0A7EF0CF03EEF0CF095C094
:1018400060F096C061F097C062F098C063F0F90E46
:10185000646F020E656F150E666F500E676FE3ECD6
:1018600017F060C095F061C096F062C097F063C059
:1018700098F00001F60E9127FF0E9223925107E196
:101880000A0E915DD8B047EF0CF049EF0CF01FEF56
:101890000CF069EF0CF095C060F096C061F097C055
:1018A00062F098C063F0000E646F000E656F200E4A
:1018B000666F410E676FE3EC17F060C095F061C092
:1018C00096F062C097F063C098F000019107D8A02D
:1018D000920791519211D8A470EF0CF072EF0CF0B6
:1018E0004BEF0CF0FF0E796FFF0E7A6F7F0E7B6F60
:1018F0007F0E7C6F95C07DF096C07EF097C07FF024
:1019000098C080F07AEC2EF00001D8B08AEF0CF08D
:101910008CEF0CF0A7EF0CF090A191EF0CF093EF8F
:101920000CF09DEF0CF0000E856F000E866F800EA0
:10193000876F800E886FC8EF0CF0000E856F000E69
:10194000866F800E876F000E886FC8EF0CF090A135
:10195000ACEF0CF0AEEF0CF0C0EF0CF095C060F007
:1019600096C061F097C062F098C063F01CEC3CF048
:1019700060C095F061C096F062C097F063C098F0C7
:1019800095C085F096C086F097C087F098C088F023
:101990001200000E0001AE6F000EAD6F8FC0BFF0E1
:1019A00090C0C0F091C0C1F092C0C2F0C2BFDDEFE4
:1019B0000CF0DBEF0CF0F3EF0CF0000EAE6F010E4D
:1019C000AD6FBFC060F0C0C061F0C1C062F0C2C006
:1019D00063F01CEC3CF060C0BFF061C0C0F062C0BE
:1019E000C1F063C0C2F0000E0001C66F000EC56FEB
:1019F00042C0B1F043C0B2F0AD51AE11D8A403EF74
:101A00000DF005EF0DF00CEF0DF046A40AEF0DF010
:101A10000CEF0DF026EF0DF0AD51AE11D8A413EF81
:101A20000DF015EF0DF01BEF0DF0000E9A6F2B0E61
:101A3000996F1FEF0DF0000E9A6F2D0E996F99C0E0
:101A40002AF2C54BC62BB107D8A0B207BFC060F0C1
:101A5000C0C061F0C1C062F0C2C063F083EC30F07E
:101A6000000160056111D8A438EF0DF03AEF0DF0D8
:101A700084EF0DF0BF0E946FFF0E956F9351966F2C
:101A8000976B9451962795519723975107E11A0E1A
:101A9000965DD8B04EEF0DF050EF0DF05EEF0DF00B
:101AA0002A0EC525606F020EC621616FD60E626FC9
:101AB000080E636F7FEC39F06AEF0DF02A0EC52532
:101AC000606F020EC621616FDE0E626F080E636FDB
:101AD0007FEC39F00001FD0EB127FF0EB2238DC05F
:101AE00070F08EC071F02A0E0001726F020E736FDB
:101AF000B1C074F0B2C075F03AEC33F070C08DF044
:101B000071C08EF0D4EF12F0BFC060F0C0C061F0C1
:101B1000C1C062F0C2C063F083EC30F000016051DC
:101B20006111D8A496EF0DF098EF0DF0CAEF0DF00B
:101B3000BF0E946FFF0E956F9351966F976B9451F4
:101B4000962795519723975107E11A0E965DD8B0C5
:101B5000ACEF0DF0AEEF0DF0BCEF0DF02A0EC52589
:101B6000606F020EC621616FDA0E626F080E636F3E
:101B70007FEC39F06AEF0DF02A0EC525606F020E7A
:101B8000C621616FE20E626F080E636F7FEC39F061
:101B90006AEF0DF0000EC76F000EC86F800EC96FA0
:101BA0003F0ECA6F000EC46F000EC36FBFC060F05F
:101BB000C0C061F0C1C062F0C2C063F0000E646FCB
:101BC000000E656F000E666F000E676FCCEC35F08F
:101BD0000001D8B0EEEF0DF0F0EF0DF075EF0EF064
:101BE0000FEF0EF0C7C060F0C8C061F0C9C062F06E
:101BF000CAC063F0000E646F000E656F200E666F42
:101C0000410E676FE3EC17F060C0C7F061C0C8F029
:101C100062C0C9F063C0CAF00001C34BC42BBFC08F
:101C200079F0C0C07AF0C1C07BF0C2C07CF0000E79
:101C3000646F000E656F200E666F410E676FC7C040
:101C400060F0C8C061F0C9C062F0CAC063F0E3ECE4
:101C500017F060C07DF061C07EF062C07FF063C0AD
:101C600080F07AEC2EF00001D8B039EF0EF03BEFA7
:101C70000EF0F2EF0DF05BEF0EF0C7C060F0C8C0E1
:101C800061F0C9C062F0CAC063F0000E646F000E5C
:101C9000656F200E666F410E676FF9EC19F060C03A
:101CA000C7F061C0C8F062C0C9F063C0CAF00001EB
:101CB000C307D8A0C407BFC079F0C0C07AF0C1C0C4
:101CC0007BF0C2C07CF0C7C07DF0C8C07EF0C9C048
:101CD0007FF0CAC080F07AEC2EF00001D8A073EF3C
:101CE0000EF075EF0EF03DEF0EF093C066F0676BEF
:101CF00079EC3AF000016651B46FB4C0B3F0670EEE
:101D0000B419D8A486EF0EF088EF0EF0AEEF0EF007
:101D100044504510D8A48FEF0EF091EF0EF095EFE0
:101D20000EF0000E456E010E446E45BEA2EF0EF0A1
:101D3000455006E14404D8B0A0EF0EF0A2EF0EF03B
:101D4000A8EF0EF0000EB06F060EAF6FB7EF0EF0FB
:101D500044C0AFF045C0B0F0B7EF0EF045BEB3EFF2
:101D60000EF0B5EF0EF0A2EF0EF0A8EF0EF0670E3A
:101D7000B419D8A4BEEF0EF0C0EF0EF0EFEF0EF0E6
:101D8000C4AFCEEF0EF0FC0EC35DFF0EC459D8A059
:101D9000CCEF0EF0CEEF0EF0EDEF0EF0FF0E946FE5
:101DA000FF0E956FAFC096F0B0C097F09451962794
:101DB00095519723C351965D9751800A986FC451EE
:101DC000800A9859D8A0E7EF0EF0E9EF0EF0EDEF9A
:101DD0000EF0660EB36FEFEF0EF0650EB36FAFC08F
:101DE000A5F0B0C0A6F0670EB419D8A4FAEF0EF0B3
:101DF000FCEF0EF00CEF0FF0660EB319D8A403EF52
:101E00000FF005EF0FF00EEF0FF0C4BF0CEF0FF067
:101E10000AEF0FF00EEF0FF0A54BA62B660EB319CD
:101E2000D8A415EF0FF017EF0FF037EF0FF0C4BF86
:101E30001EEF0FF01CEF0FF02AEF0FF0000EC76F30
:101E4000000EC86F800EC96F3F0ECA6F000EC46FC0
:101E5000000EC36F670EB419D8B431EF0FF033EF33
:101E60000FF037EF0FF0C351A527C451A623000E82
:101E7000BE6F000EBD6FBFC0B5F0C0C0B6F0C1C030
:101E8000B7F0C2C0B8F0C7C0A7F0C8C0A8F0C9C0BA
:101E9000A9F0CAC0AAF0C9EF0FF0B5C060F0B6C093
:101EA00061F0B7C062F0B8C063F0C7C064F0C8C0EA
:101EB00065F0C9C066F0CAC067F0F9EC19F060C0FF
:101EC00079F061C07AF062C07BF063C07CF0FAEC1C
:101ED0001FF079C0B9F07AC0BAF07BC0BBF07CC00B
:101EE000BCF0B9C060F0BAC061F0BBC062F0BCC069
:101EF00063F0F6EC2DF060C0ABF061C0ACF0B5C0A3
:101F000079F0B6C07AF0B7C07BF0B8C07CF0C7C03B
:101F100064F0C8C065F0C9C066F0CAC067F0B9C057
:101F200060F0BAC061F0BBC062F0BCC063F0E3EC2B
:101F300017F060C07DF061C07EF062C07FF063C0CA
:101F400080F09DEC3AF079C0B5F07AC0B6F07BC075
:101F5000B7F07CC0B8F0C7C060F0C8C061F0C9C0BD
:101F600062F0CAC063F0000E0001646F000E656F7E
:101F7000200E666F410E676FF9EC19F060C0C7F074
:101F800061C0C8F062C0C9F063C0CAF00001BD4BB7
:101F9000BE2BA551BD5DBE51800A946FA651800A2B
:101FA0009459D8A0D6EF0FF0D8EF0FF04DEF0FF007
:101FB000C7C060F0C8C061F0C9C062F0CAC063F0B9
:101FC000000E646F000E656FA00E666F400E676FA7
:101FD000E3EC17F060C0B9F061C0BAF062C0BBF0CA
:101FE00063C0BCF0B5C079F0B6C07AF0B7C07BF082
:101FF000B8C07CF0B9C07DF0BAC07EF0BBC07FF045
:10200000BCC080F07AEC2EF00001D8B00AEF10F0DE
:102010000CEF10F016EF10F0000EB96F000EBA6F53
:10202000000EBB6F000EBC6F3FEF10F0B5C060F04C
:10203000B6C061F0B7C062F0B8C063F0B9C064F078
:10204000BAC065F0BBC066F0BCC067F0CCEC35F040
:102050000001D8A02EEF10F030EF10F03FEF10F09D
:10206000ABB135EF10F037EF10F03FEF10F0000E8E
:10207000B96F000EBA6F000EBB6F000EBC6FBFC011
:1020800060F0C0C061F0C1C062F0C2C063F0B9C00E
:1020900064F0BAC065F0BBC066F0BCC067F082EC0B
:1020A00015F060C0B5F061C0B6F062C0B7F063C0B3
:1020B000B8F0B5C079F0B6C07AF0B7C07BF0B8C060
:1020C0007CF0000E0001646F000E656F200E666FDD
:1020D000410E676FA7C060F0A8C061F0A9C062F0B0
:1020E000AAC063F0E3EC17F060C07DF061C07EF041
:1020F00062C07FF063C080F07AEC2EF00001D8A0BF
:1021000084EF10F086EF10F0AEEF10F0C34BC42B4D
:10211000A7C060F0A8C061F0A9C062F0AAC063F0D7
:10212000000E646F000E656F200E666F410E676FC4
:10213000E3EC17F060C0A7F061C0A8F062C0A9F09E
:1021400063C0AAF0660E0001B319D8A4AAEF10F07C
:10215000ACEF10F0AEEF10F0A54BA62BA7C0C7F068
:10216000A8C0C8F0A9C0C9F0AAC0CAF0650EB319CA
:10217000D8B4BDEF10F0BFEF10F0C5EF10F0C3C042
:10218000A3F0C4C0A4F0C9EF10F0000EA46F000EBD
:10219000A36F000EA26F000EA16F000EA06F000EC5
:1021A0009F6F000EBE6F000EBD6FC6EF11F0B5C081
:1021B00060F0B6C061F0B7C062F0B8C063F0C7C0ED
:1021C00064F0C8C065F0C9C066F0CAC067F0F9EC39
:1021D00019F060C079F061C07AF062C07BF063C032
:1021E0007CF0FAEC1FF079C0B9F07AC0BAF07BC08D
:1021F000BBF07CC0BCF0B9C060F0BAC061F0BBC03D
:1022000062F0BCC063F0F6EC2DF060C0ABF061C0D2
:10221000ACF046B80EEF11F010EF11F02EEF11F008
:102220000001AB51AC11D8A418EF11F01AEF11F066
:102230002EEF11F0670EB419D8A421EF11F023EF9F
:1022400011F02EEF11F0A4BF2AEF11F028EF11F0DA
:102250002EEF11F09F4BA02B79EF11F00001A1514F
:10226000A211D8A436EF11F038EF11F062EF11F09F
:10227000A4BF3FEF11F03DEF11F062EF11F02A0E15
:10228000C525D96E020EC621DA6E2E0EDF6EC54B45
:10229000C62BB107D8A0B207000EA26F010EA16F26
:1022A00062EF11F02A0EC525D96E020EC621DA6E34
:1022B000300EDF6EC54BC62BB107D8A0B2079F0703
:1022C000D8A0A0079F51A011D8A469EF11F06BEF1F
:1022D00011F052EF11F02A0EC525D96E020EC6215B
:1022E000DA6EAB51300FDF6EC54BC62BB107D8A0ED
:1022F000B207B5C079F0B6C07AF0B7C07BF0B8C00D
:102300007CF0C7C064F0C8C065F0C9C066F0CAC040
:1023100067F0B9C060F0BAC061F0BBC062F0BCC089
:1023200063F0E3EC17F060C07DF061C07EF062C046
:102330007FF063C080F09DEC3AF079C0B5F07AC0D0
:10234000B6F07BC0B7F07CC0B8F0C7C060F0C8C0C2
:1023500061F0C9C062F0CAC063F0000E0001646F92
:10236000000E656F200E666F410E676FF9EC19F075
:1023700060C0C7F061C0C8F062C0C9F063C0CAF0F5
:102380000001A307D8A0A407BD4BBE2BA551BD5D7E
:10239000BE51800A946FA651800A9459D8B0D3EFE9
:1023A00011F0D5EF11F0E3EF11F0C6BFE1EF11F03E
:1023B000C65109E14B0EC55DD8A0E1EF11F0E3EF86
:1023C00011F0D7EF10F0A151A211D8A4EAEF11F04B
:1023D000ECEF11F0FDEF11F046A8F1EF11F0F3EF83
:1023E00011F0FDEF11F02A0EC525D96E020EC6219F
:1023F000DA6E2E0EDF6EC54BC62B2A0EC525D96EA2
:10240000020EC621DA6E000EDF6E650EB319D8A477
:102410000CEF12F00EEF12F06FEF0DF0000EBE6F2A
:102420004F0EBD6F2A0EBD25D96E020EBE21DA6E8B
:10243000000EDF6E000EAE6F000EAD6FC4BF25EF55
:1024400012F023EF12F02DEF12F0000EAE6F010E1E
:10245000AD6FC36DC41FD8B0C42B000EB06F020E99
:10246000AF6F5FEF12F0BD07D8A0BE072A0EBD25E3
:10247000D96E020EBE21DA6EC3C060F0C4C061F036
:10248000000E636F0A0E626F1CEC35F000016051A4
:10249000300FDF6EC3C060F0C4C061F0000E636F28
:1024A0000A0E626F02EC34F060C0C3F061C0C4F089
:1024B0000001AF07D8A0B007B107D8A0B207C35139
:1024C000C411D8A466EF12F068EF12F033EF12F0E7
:1024D000B0BF75EF12F0B05106E1AF05D8B073EFA1
:1024E00012F075EF12F033EF12F0BD07D8A0BE075F
:1024F000AD51AE11D8A47FEF12F081EF12F087EF4B
:1025000012F0000E9C6F2B0E9B6F8BEF12F0000EE3
:102510009C6F2D0E9B6F2A0EBD25D96E020EBE211B
:10252000DA6E9BC0DFFFB107D8A0B207BD07D8A005
:10253000BE07BF0E946FFF0E956F9351966F976B0A
:102540009451962795519723975109E11A0E965D5C
:10255000D8A0ADEF12F0AFEF12F0B5EF12F0000E11
:102560009E6F650E9D6FB9EF12F0000E9E6F450EC7
:102570009D6F2A0EBD25D96E020EBE21DA6E9DC05A
:10258000DFFFB107D8A0B2072A0EC525606F020E83
:10259000C621616F2A0EBD25626F020EBE21636FD8
:1025A0007FEC39F06FEF0DF01200CDC0D9FFCEC037
:1025B000DAFFDECFF6FFDDCFF7FF0800F550250A82
:1025C000D8A4E5EF12F0E7EF12F065EF15F0CDC0FB
:1025D000D9FFCEC0DAFFDE2A000EDD22000E436EE8
:1025E000000E426E42C046F043C047F04468456862
:1025F000CDC0D9FFCEC0DAFFDECFF6FFDDCFF7FFCB
:102600000800F5500001666F676B79EC3AF0000145
:102610006651E56FE551D8B410EF13F012EF13F0E7
:102620004CEF13F0CDC0D9FFCEC0DAFFDECFD1F032
:10263000DDCFD2F0010ED127000ED223D1C0F6FF9C
:10264000D2C0F7FF0800F550666F676B79EC3AF07F
:1026500000016651E66FE651D8B431EF13F033EF65
:1026600013F04CEF13F0CDC0D9FFCEC0DAFFDECFB0
:10267000D1F0DDCFD2F0020ED127000ED223D1C08F
:10268000F6FFD2C0F7FF0800F550666F676B79EC74
:102690003AF000016651E76FCDC0D9FFCEC0DAFF36
:1026A000DECFF6FFDDCFF7FF0800F550630AD8A4B0
:1026B0005CEF13F05EEF13F085EF13F0CDC0D9FFA0
:1026C000CEC0DAFFDE2A000EDD22CFC0D9FFD0C097
:1026D000DAFFDFCFD1F0020EDE26DFCFD2F0000E20
:1026E000DD22D1C0D9FFD2C0DAFFDF50E86FCBC006
:1026F00069F0CCC06AF0E8C06BF065EC32F069C0FC
:10270000CBF06AC0CCF081EF15F0CDC0D9FFCEC0C0
:10271000DAFFDECFF6FFDDCFF7FF0800F550640AE1
:10272000D8B495EF13F097EF13F0A9EF13F0CDC0E5
:10273000D9FFCEC0DAFFDECFF6FFDDCFF7FF08000E
:10274000F550690AD8A4A7EF13F0A9EF13F0E9EF49
:1027500013F0CDC0D9FFCEC0DAFFDE2A000EDD2295
:10276000CFC0D9FFD0C0DAFFDFCFD1F0020EDE2616
:10277000DFCFD2F0000EDD22D1C0D9FFD2C0DAFF08
:10278000DECFD5F0DDCFD6F0000ED6BFFF0ED76F6F
:10279000D86FD96FDA6FDB6FDC6FCBC07BF0CCC04A
:1027A0007CF0D5C07DF0D6C07EF0D7C07FF0D8C019
:1027B00080F0D9C081F0DAC082F0DBC083F0DCC0E9
:1027C00084F074EC1DF07BC0CBF07CC0CCF081EFCA
:1027D00015F0660EE519D8A4F0EF13F0F2EF13F040
:1027E00032EF14F0CDC0D9FFCEC0DAFFDECFF6FF56
:1027F000DDCFF7FF0800F5CFE8F0CDC0D9FFCEC0A0
:10280000DAFFDE2A000EDD22CFC0D9FFD0C0DAFF0A
:10281000DFCFD1F0040EDE26DFCFD2F0000EDD22B6
:10282000D1C0D9FFD2C0DAFFDECFE1F0DECFE2F0D7
:10283000DECFE3F0DECFE4F0CBC08DF0CCC08EF085
:10284000E1C08FF0E2C090F0E3C091F0E4C092F0FC
:10285000E8C093F0C9EC0CF08DC0CBF08EC0CCF08A
:1028600081EF15F0E50E606F000E616FEA0E626F8A
:10287000080E636F000E656F020E646FC4EC2BF0E0
:10288000000160516111D8A448EF14F04AEF14F030
:10289000B8EF14F0CDC0D9FFCEC0DAFFDECFD1F053
:1028A000DDCFD2F0010ED127000ED223D1C0F6FF2A
:1028B000D2C0F7FF0800F5CFE8F0BF0ED16FFF0ED2
:1028C000D26FCDC0D9FFCEC0DAFFDECFF6FFDDCFAD
:1028D000F7FF0800F550D36FD46BD151D327D251F5
:1028E000D423D45107E11A0ED35DD8B07AEF14F097
:1028F0007CEF14F096EF14F0CFC0D9FFD0C0DAFF10
:10290000DFCFD1F0040EDE26DFCFD2F0000EDD22C5
:10291000D1C0D9FFD2C0DAFFDECFE1F0DECFE2F0E6
:10292000DECFE3F0DECFE4F0AEEF14F0CFC0D9FF9E
:10293000D0C0DAFFDFCFD1F0040EDE26DFCFD2F039
:10294000000EDD22D1C0D9FFD2C0DAFFDECFE1F028
:10295000DECFE2F0DECFE3F0DECFE4F0020ECDC05A
:10296000D9FFCEC0DAFFDE26000EDD221CEF14F008
:10297000CDC0D9FFCEC0DAFFDECFF6FFDDCFF7FF47
:102980000800F550730AD8B4C8EF14F0CAEF14F079
:10299000E6EF14F0CDC0D9FFCEC0DAFFDECF60F095
:1029A000DDCF61F0E60E626F080E636F000E656F9B
:1029B000030E646FC4EC2BF0000160516111D8A4C8
:1029C000E4EF14F0E6EF14F02EEF15F0CDC0D9FFD0
:1029D000CEC0DAFFDECFF6FFDDCFF7FF0800F550FF
:1029E000730AD8B4F6EF14F0F8EF14F0FEEF14F019
:1029F000000EE06F030EDF6F02EF15F0000EE06FC8
:102A0000010EDF6FCDC0D9FFCEC0DAFFDF51DE2669
:102A1000E051DD22CFC0D9FFD0C0DAFFDFCFD1F047
:102A2000020EDE26DFCFD2F0000EDD22D1C0D9FFAC
:102A3000D2C0DAFFDECFDDF0DDCFDEF0CBC069F053
:102A4000CCC06AF0DDC06BF0DEC06CF08CEC23F023
:102A500069C0CBF06AC0CCF081EF15F0CDC0D9FFD2
:102A6000CEC0DAFFDECFF6FFDDCFF7FF0800F5506E
:102A7000250AD8A43EEF15F040EF15F058EF15F0F9
:102A8000CDC0D9FFCEC0DAFFDE2A000EDD22000E57
:102A9000616F250E606FCBC062F0CCC063F0D4ECE8
:102AA00032F0000E0001CC6F010ECB6F81EF15F0FC
:102AB000CDC0D9FFCEC0DAFFDE2A000EDD22000E27
:102AC000CC6F000ECB6F81EF15F0CDC0D9FFCEC01B
:102AD000DAFFDECFF6FFDDCFF7FF0800F55000018B
:102AE000606F616BCBC062F0CCC063F0D4EC32F0AD
:102AF000CDC0D9FFCEC0DAFFDE2A000EDD2251EFB5
:102B000015F0120000016351800B6C6F6351632557
:102B10006E6F62AF8EEF15F090EF15F091EF15F03C
:102B20006E816E51D8B497EF15F099EF15F0AEEFB6
:102B300015F06E29D8A49FEF15F0A1EF15F0A9EFBD
:102B400015F0000E606F000E616F000E626F000ED8
:102B5000636F628F000E636FB6EF15F0000E606F4B
:102B6000000E616F000E626F000E636F6751800B85
:102B70006D6F6C516D19D8B4C0EF15F0C2EF15F040
:102B8000C3EF15F06C8D675167256D6F66AFCBEFA6
:102B900015F0CDEF15F0CEEF15F06D816D51D8B475
:102BA000D4EF15F0D6EF15F0EBEF15F06D29D8A4A2
:102BB000DCEF15F0DEEF15F0E6EF15F0000E646FB8
:102BC000000E656F000E666F000E676F668F000E59
:102BD000676FF3EF15F0000E646F000E656F000E67
:102BE000666F000E676F6E516D5DD8B0FAEF15F02D
:102BF000FCEF15F023EF16F06CAD01EF16F003EFCC
:102C000016F005EF16F0800E6C1B6EC06FF06DC0F5
:102C10006EF06FC06DF060C06FF064C060F06FC0A8
:102C200064F061C06FF065C061F06FC065F062C0B4
:102C30006FF066C062F06FC066F063C06FF067C08F
:102C400063F06FC067F0000E6F6F6E516DC068F07B
:102C5000696B685F000E695B69BF38EF16F06951F8
:102C600009E11A0E685DD8A038EF16F03AEF16F0B9
:102C700071EF16F06051611162116311D8A443EF36
:102C800016F046EF16F0010E47EF16F0000E6F6FCC
:102C9000000E606F000E616F000E626F000E636FBA
:102CA0006DC06EF07AEF16F06FA159EF16F05BEF82
:102CB00016F061EF16F0D8906F3101096F6F63EF76
:102CC00016F0D8906F3360A168EF16F06AEF16F037
:102CD0006BEF16F06F8F63356333623361336033AC
:102CE0006E2B6D516E5DD8A078EF16F07AEF16F06E
:102CF00054EF16F06CBD7FEF16F081EF16F0C1EFC8
:102D000016F06E51D8A487EF16F089EF16F093EF06
:102D100016F0000E606F000E616F000E626F000E05
:102D2000636FE2EF17F064516027655161236651CC
:102D300062236751632363A1A0EF16F0A2EF16F0A0
:102D40004EEF17F06FA1A7EF16F0A9EF16F0AFEF57
:102D500016F0D8906F3101096F6FB1EF16F0D8906F
:102D60006F3360A1B6EF16F0B8EF16F0B9EF16F0BA
:102D70006F8F633563336233613360336E2B4EEF95
:102D800017F06451605D6551615966516259635134
:102D9000800A686F6751800A6859D8B0D2EF16F080
:102DA000D4EF16F0FFEF16F06051645D686F61516B
:102DB0006559696F625166596A6F635167596B6FE4
:102DC000FF0E6825606FFF0E6921616FFF0E6A219B
:102DD000626FFF0E6B21636F800E6C1B6F6D6F5106
:102DE000D8A4F5EF16F0F7EF16F007EF17F0010E85
:102DF0006027000E61236223632307EF17F06451FD
:102E0000605F6551615B6651625B6751635B6051F6
:102E1000611162116311D8A410EF17F012EF17F0CF
:102E200047EF17F06F51D8A418EF17F01AEF17F00B
:102E300047EF17F0000E606F000E616F000E626FBB
:102E4000000E636FE2EF17F0D8906037613762379A
:102E500063376FAF2EEF17F030EF17F031EF17F049
:102E600060816FA136EF17F038EF17F03CEF17F0E5
:102E7000D8806F373EEF17F0D8906F376E51D8B4C7
:102E800044EF17F046EF17F047EF17F06E0762AF09
:102E90004CEF17F04EEF17F024EF17F0000E6D6FA8
:102EA0006FAF55EF17F057EF17F06FEF17F06FC0D8
:102EB00068F07F0E6817D8B460EF17F062EF17F074
:102EC00066EF17F0010E6D6F6FEF17F060A16BEFFB
:102ED00017F06DEF17F06FEF17F062EF17F06D510D
:102EE000D8B475EF17F077EF17F0A2EF17F0010ED7
:102EF0006027000E61236223632363A182EF17F032
:102F000084EF17F0A2EF17F060C068F061C069F0BD
:102F100062C06AF063C06BF06B356B336A33693340
:102F2000683368C060F069C061F06AC062F06BC06D
:102F300063F06E29D8B49FEF17F0A1EF17F0A2EF5E
:102F400017F06E2B6E29D8B4A8EF17F0AAEF17F080
:102F5000B2EF17F06E51D8A4B0EF17F0B2EF17F040
:102F6000C4EF17F0000E606F000E616F000E626F0D
:102F7000000E636F6E51D8A4C0EF17F0C2EF17F0C8
:102F8000C4EF17F0000E6C6F6EA1C9EF17F0CBEF16
:102F900017F0CEEF17F0628FCFEF17F0629FD89047
:102FA0006E31636F6CAFD7EF17F0D9EF17F0DAEF30
:102FB00017F0638F60C060F061C061F062C062F0C2
:102FC00063C063F0120000016351800B6C6F6351AA
:102FD0006325726F62AFEFEF17F0F1EF17F0F2EFCA
:102FE00017F072817251D8B4F8EF17F0FAEF17F0BA
:102FF0000DEF18F07229D8A400EF18F002EF18F0C6
:103000000AEF18F0000E606F000E616F000E626F25
:10301000000E636F628F15EF18F0000E606F000EE8
:10302000616F000E626F000E636F6751800B6C1B47
:10303000675167256D6F66AF20EF18F022EF18F02B
:1030400023EF18F06D816D51D8B429EF18F02BEFF4
:1030500018F03EEF18F06D29D8A431EF18F033EFD7
:1030600018F03BEF18F0000E646F000E656F000E55
:10307000666F000E676F668F46EF18F0000E646F84
:10308000000E656F000E666F000E676F6D51D8B44D
:103090004CEF18F04EEF18F056EF18F07251D8A41C
:1030A00054EF18F056EF18F060EF18F0000E606F54
:1030B000000E616F000E626F000E636FF8EF19F083
:1030C00066516003F3CF77F0F4CF78F077516E6FED
:1030D0006F6B706B716B7851736F746B756B766B14
:1030E00065516103F3CF77F0F4CF78F077516E2715
:1030F000000E6F237023712378517327000E742301
:103100007523762364516203F3CF77F0F4CF78F020
:1031100077516E27000E6F23702371237851732728
:10312000000E74237523762370C071F06FC070F0A9
:103130006EC06FF06E6B64516103F3CF77F0F4CF24
:1031400078F077516E2778516F23000E7023000EB0
:10315000712365516003F3CF77F0F4CF78F07751A6
:103160006E2778516F23000E7023000E712370C0FC
:1031700071F06FC070F06EC06FF06E6B64516003E1
:10318000F3CF77F0F4CF78F077516E2778516F2333
:10319000000E7023000E712366516103F3CF77F0A8
:1031A000F4CF78F07751732778517423000E75238C
:1031B000000E762365516203F3CF77F0F4CF78F0F9
:1031C0007751732778517423000E7523000E7623F0
:1031D00066516203F3CF77F0F4CF78F07751686FE0
:1031E0007851696F6A6B6B6B6AC06BF069C06AF08B
:1031F00068C069F0686B68517327695174236A511C
:1032000075236B5176236EC068F06FC069F070C093
:103210006AF071C06BF0190E13EF19F0D8906B3390
:103220006A3369336833E82E0EEF19F0685173275B
:10323000695174236A5175236B51762370C071F004
:103240006FC070F06EC06FF06E6B6D5172C068F041
:10325000696B6827000E6923820E6825776FFF0E61
:103260006921786F49EF19F0D89073377437753743
:10327000763771AF3EEF19F040EF19F041EF19F0DA
:103280007381D8906E376F37703771377707D8A052
:10329000780775AF4EEF19F050EF19F034EF19F0D1
:1032A000000E6D6F71AF57EF19F059EF19F07DEF08
:1032B00019F0FF0E6E15686FFF0E6F15696FFF0E28
:1032C00070156A6F7F0E71156B6F685169116A1105
:1032D0006B11D8B46EEF19F070EF19F074EF19F0AC
:1032E000010E6D6F7DEF19F073A179EF19F07BEF8F
:1032F00019F07DEF19F070EF19F06D51D8B483EF2C
:1033000019F085EF19F0A9EF19F0010E7327000EDF
:1033100074237523762376A190EF19F092EF19F0BC
:10332000A9EF19F073C068F074C069F075C06AF055
:1033300076C06BF06B356B336A336933683368C0C2
:1033400073F069C074F06AC075F06BC076F0774BAB
:10335000782B78BFB4EF19F0785108E17729D8A01D
:10336000B4EF19F0B6EF19F0C0EF19F0000E736F5B
:10337000000E746F800E756F7F0E766FEEEF19F092
:1033800078BFCDEF19F0785106E17705D8B0CBEFD3
:1033900019F0CDEF19F0D9EF19F0000E736F000E90
:1033A000746F000E756F000E766F000E6C6FEEEF8F
:1033B00019F077C072F0FF0E7317FF0E74177F0EAF
:1033C0007517000E761772A1E8EF19F0EAEF19F001
:1033D000EBEF19F0758FD8907231766F6C517613D0
:1033E00073C060F074C061F075C062F076C063F0C5
:1033F000120000016351800B706F63516325776F7A
:1034000062AF05EF1AF007EF1AF008EF1AF07781B4
:103410007751D8B40EEF1AF010EF1AF025EF1AF02A
:103420007729D8A416EF1AF018EF1AF020EF1AF047
:10343000000E606F000E616F000E626F000E636F12
:10344000628F000E636F2DEF1AF0000E606F000E9A
:10345000616F000E626F000E636F6751800B701B0F
:1034600067516725786F66AF38EF1AF03AEF1AF0B8
:103470003BEF1AF078817851D8B441EF1AF043EF5E
:103480001AF058EF1AF07829D8A449EF1AF04BEF48
:103490001AF053EF1AF0000E646F000E656F000E05
:1034A000666F000E676F668F000E676F60EF1AF031
:1034B000000E646F000E656F000E666F000E676F82
:1034C0006451651166116711D8A469EF1AF06BEFAA
:1034D0001AF083EF1AF0000E606F000E616F000E9D
:1034E000626F000E636F800E62137F0E6313705164
:1034F000631360C060F061C061F062C062F063C0DD
:1035000063F0C6EF1BF07751D8A489EF1AF08BEF68
:103510001AF095EF1AF0000E606F000E616F000E4A
:10352000626F000E636FC6EF1BF0785177C068F0D2
:10353000696B685F000E695B7F0E6825716F000E16
:103540006921726F60C06CF061C06DF062C06EF096
:1035500063C06FF0000E606F000E616F000E626F4F
:10356000000E636F000E736F000E746F000E756FA8
:10357000000E766F000E786FF6EF1AF07851D8B41F
:10358000C4EF1AF0C6EF1AF0DDEF1AF0D8906C37DE
:103590006D376E376F37D890603761376237633772
:1035A00076AFD5EF1AF0D7EF1AF0D8EF1AF06081A6
:1035B000D890733774377537763764516C5D6551C1
:1035C0006D5966516E5967516F59D8A0EAEF1AF0DC
:1035D000ECEF1AF0F5EF1AF0768D64516C5F6551DF
:1035E0006D5B66516E5B67516F5B782B190E78656A
:1035F000FCEF1AF0FEEF1AF0BEEF1AF06C516D11ED
:103600006E116F11D8B407EF1BF009EF1BF021EF1B
:103610001BF0738121EF1BF0D89060376137623760
:10362000633776AF16EF1BF018EF1BF019EF1BF0A6
:103630006081D89073377437753776377107D8A0A3
:10364000720762AF26EF1BF028EF1BF00CEF1BF0A8
:10365000000E786F76AF2FEF1BF031EF1BF055EFB8
:103660001BF0FF0E7315686FFF0E7415696FFF0E68
:1036700075156A6F7F0E76156B6F685169116A1147
:103680006B11D8B446EF1BF048EF1BF04CEF1BF06A
:10369000010E786F55EF1BF060A151EF1BF053EF57
:1036A0001BF055EF1BF048EF1BF07851D8B45BEFDF
:1036B0001BF05DEF1BF081EF1BF0010E6027000E89
:1036C00061236223632363A168EF1BF06AEF1BF0A1
:1036D00081EF1BF060C068F061C069F062C06AF001
:1036E00063C06BF06B356B336A336933683368C022
:1036F00060F069C061F06AC062F06BC063F0714B4A
:10370000722B72BF8CEF1BF0725108E17129D8A0A7
:103710008CEF1BF08EEF1BF099EF1BF0000E726F19
:103720007169000E606F000E616F000E626F000E17
:10373000636F72BFA6EF1BF0725106E17105D8B03E
:10374000A4EF1BF0A6EF1BF0B4EF1BF0000E726F9E
:10375000000E716F000E606F000E616F000E626FE1
:10376000000E636F000E706F71C077F077A1BBEF32
:103770001BF0BDEF1BF0C0EF1BF0628FC1EF1BF021
:10378000629FD8907731636F77EF1AF012000401CF
:103790003205D8A4CEEF1BF0D0EF1BF0ECEF1BF0FE
:1037A00030511F0B0009D8A4D8EF1BF0DAEF1BF043
:1037B000ECEF1BF0398E030E3119D8A4E2EF1BF0A9
:1037C000E4EF1BF0E9EF1BF0010E01013A6FECEFA3
:1037D0001BF0000E01013A6F04013251D8A4F3EF3F
:1037E0001BF0F5EF1BF073EF1DF030511F0B020AB9
:1037F000D8A4FDEF1BF0FFEF1BF073EF1DF0345169
:103800000F0B0009D8B407EF1CF009EF1CF073EFA1
:103810001DF034510F0B156E030E156012EF1CF0E6
:1038200014EF1CF073EF1DF0200E5618D8A41BEFF8
:103830001CF01DEF1CF073EF1DF0398E34BF23EF29
:103840001CF025EF1CF042EF1CF034510F0B156EED
:103850001550020D000EF324D96E010EF420DA6E1D
:10386000DECF1AF0DDCF1BF034510F0B156E166A48
:10387000100E1524D96E010E1620DA6EDF50196E67
:103880005DEF1CF034510F0B156E1550020D3C0E00
:10389000F324D96E000EF420DA6EDECF1AF0DDCFFD
:1038A0001BF034510F0B156E166A130E1524D96ECA
:1038B000010E1620DA6EDF50196E19B062EF1CF09F
:1038C00064EF1CF06CEF1CF0FB0E1A141A6EFF0E66
:1038D0001B141B6E71EF1CF0040E1A101A6E1B5095
:1038E0001B6E34BF76EF1CF078EF1CF089EF1CF0F4
:1038F00034510F0B156E1550020D000EF324D96EC6
:10390000010EF420DA6E1AC0DEFF1BC0DDFF98EF57
:103910001CF034510F0B156E1550020D3C0EF324A4
:10392000D96E000EF420DA6E1AC0DEFF1BC0DDFF78
:10393000030E3119D8A49FEF1CF0A1EF1CF0DBEFB0
:103940001CF01AC0D9FF1BC0DAFFDFAEAAEF1CF0D3
:10395000ACEF1CF0CDEF1CF034BFB1EF1CF0B3EFB7
:103960001CF0C1EF1CF034510F0B156E166A100ECF
:103970001524D96E010E1620DA6E0101DF82CDEF1B
:103980001CF034510F0B156E166A130E1524D96EE8
:10399000010E1620DA6E0101DF821AC0D9FF1BC0AA
:1039A000DAFF000EDB841AC0D9FF1BC0DAFF000E5D
:1039B000DB8E73EF1DF0040E1A181A6E1B501B6E6F
:1039C0001AC0D9FF1BC0DAFFDFAEE9EF1CF0EBEF46
:1039D0001CF007EF1DF01AC0D9FF1BC0DAFF7F0EE5
:1039E000DF161AC0D9FF1BC0DAFF000EDB8C000EF9
:1039F0000E6E050E0D6E1AC00FF01BC010F0000EFB
:103A0000126E020E116E08EC37F00DEF1DF01AC0A9
:103A1000D9FF1BC0DAFF000EDB8C040E1A181A6ED9
:103A20001B501B6E19B217EF1DF019EF1DF024EF9C
:103A30001DF01AC0D9FF1BC0DAFFDFAE22EF1DF068
:103A400024EF1DF05CEF1DF0040134BF2AEF1DF0E0
:103A50002CEF1DF03AEF1DF034510F0B156E166A66
:103A6000100E1524D96E010E1620DA6E0101DF92B8
:103A700046EF1DF034510F0B156E166A130E152408
:103A8000D96E010E1620DA6E0101DF921AC0D9FF3D
:103A90001BC0DAFF3B0EDF16000E0E6E050E0D6E1C
:103AA0001AC00FF01BC010F0000E126E020E116E45
:103AB00008EC37F062EF1DF01AC0D9FF1BC0DAFF27
:103AC0003B0EDF16040134510F0B156E166A6A0E99
:103AD0001524176E0F0E1620186E17C0D9FF18C0C8
:103AE000DAFFFE0EDF1612007DC095F07EC096F064
:103AF0007FC097F080C098F081C099F082C09AF0A2
:103B000083C09BF084C09CF000019CBF8AEF1DF035
:103B10008DEF1DF0010E8EEF1DF0000E936F946B74
:103B200093519411D8B497EF1DF099EF1DF0A9EFC0
:103B30001DF09C1F9B1F9A1F991F981F971F961F70
:103B4000956D000E96239723982399239A239B2300
:103B50009C2345BEAEEF1DF0B0EF1DF0B1EF1DF0A0
:103B6000469245BEBEEF1DF0455006E14404D8B074
:103B7000BCEF1DF0BEEF1DF0C4EF1DF0000E906F06
:103B8000010E8F6FC8EF1DF044C08FF045C090F05C
:103B900042C091F043C092F093519411D8A4D3EF56
:103BA0001DF0D5EF1DF0DCEF1DF046A4DAEF1DF09F
:103BB000DCEF1DF0DFEF1DF09107D8A09207000E9B
:103BC0009E6F4F0E9D6F000E0201796F65EF1EF024
:103BD0009D07D8A09E072A0E9D25D96E020E9E2114
:103BE000DA6E95C060F096C061F097C062F098C040
:103BF00063F099C064F09AC065F09BC066F09CC009
:103C000067F00A0E686F000E696F000E6A6F000E93
:103C10006B6F000E6C6F000E6D6F000E6E6F000EFE
:103C20006F6F8EEC26F060C085F061C086F062C0D8
:103C300087F063C088F064C089F065C08AF066C010
:103C40008BF067C08CF085C072F087C073F008EC11
:103C50003BF000017251300FDF6E8F07D8A0900744
:103C60009107D8A0920795C060F096C061F097C008
:103C700062F098C063F099C064F09AC065F09BC090
:103C800066F09CC067F00A0E686F000E696F000E48
:103C90006A6F000E6B6F000E6C6F000E6D6F000E82
:103CA0006E6F000E6F6F52EC24F060C095F061C033
:103CB00096F062C097F063C098F064C099F065C058
:103CC0009AF066C09BF067C09CF000019EBF71EF48
:103CD0001EF09E5108E19D05D8A071EF1EF073EF14
:103CE0001EF0A3EF1EF0955196119711981199119E
:103CF0009A119B119C11D8A480EF1EF082EF1EF048
:103D0000E8EF1DF090BF8FEF1EF0905106E18F0598
:103D1000D8B08DEF1EF08FEF1EF0E8EF1DF092BFD0
:103D20009AEF1EF0925108E19105D8A09AEF1EF08B
:103D30009CEF1EF0A3EF1EF046B2A1EF1EF0A3EF22
:103D40001EF0E8EF1DF093519411D8A4AAEF1EF0D5
:103D5000ACEF1EF0B3EF1EF046A4B1EF1EF0B3EFD0
:103D60001EF0D1EF1EF09D07D8A09E07935194112D
:103D7000D8A4BDEF1EF0BFEF1EF0C5EF1EF0000E81
:103D80008E6F2B0E8D6FC9EF1EF0000E8E6F2D0EF5
:103D90008D6F2A0E9D25D96E020E9E21DA6E8DC082
:103DA000DFFF7BC070F07CC071F02A0E9D25726F22
:103DB000020E9E21736F91C074F092C075F03AECC0
:103DC00033F070C07BF071C07CF012005604D8A4B0
:103DD000ECEF1EF0EEEF1EF0FBEF1EF060BAF3EF1B
:103DE0001EF0F5EF1EF0FBEF1EF0000E656E648016
:103DF0006488020E566E65A400EF1FF002EF1FF0FC
:103E00000CEF1FF064A407EF1FF009EF1FF00CEF99
:103E10001FF065944AEC3BF060A211EF1FF013EF26
:103E20001FF016EF1FF0A494F9EF1FF065A01BEF31
:103E30001FF01DEF1FF02AEF1FF064A022EF1FF00C
:103E400024EF1FF02AEF1FF099EC28F0A384040E52
:103E5000566E659065A82FEF1FF031EF1FF03AEF17
:103E60001FF064A836EF1FF038EF1FF03AEF1FF095
:103E700085EC3CF065AC3FEF1FF041EF1FF06CEFBD
:103E80001FF064AC46EF1FF048EF1FF056EF1FF035
:103E9000000E0E6E730E0D6E000E0F6E000E106E85
:103EA000000E126E010E116E08EC37F0659C54EC9A
:103EB0003CF05250D8B45FEF1FF061EF1FF062EF9B
:103EC0001FF052065250D8A468EF1FF06AEF1FF09F
:103ED0006CEF1FF003EC31F065AA71EF1FF073EF88
:103EE0001FF07CEF1FF064AA78EF1FF07AEF1FF04D
:103EF0007CEF1FF04FEC39F065A281EF1FF083EFEC
:103F00001FF099EF1FF064A288EF1FF08AEF1FF0F7
:103F100099EF1FF07F0E0E6E0D68000E0F6E000EF3
:103F2000106E000E126E010E116E08EC37F0000ECE
:103F3000676E040E56609FEF1FF0A1EF1FF0A4EF15
:103F40001FF0A494F9EF1FF064A6A9EF1FF0ABEFE8
:103F50001FF0F8EF1FF0000E1F6E65A6B2EF1FF006
:103F6000B4EF1FF0F8EF1FF061CF57F05730E83291
:103F7000E8320F0B536E659657B4C1EF1FF0C3EFD5
:103F80001FF0CDEF1FF0100E5324D96EDA6A010E28
:103F9000DA220101DF70D5EF1FF0130E5324D96E22
:103FA000DA6A010EDA220101DF705350D8A4DBEF88
:103FB0001FF0DDEF1FF0E1EF1FF065EC34F0EFEFE5
:103FC0001FF0000E0E6E720E0D6E570E0F6E000E6D
:103FD000106E000E126E000E116E08EC37F01F2AE4
:103FE000030E1F64F6EF1FF0F8EF1FF0ADEF1FF0A8
:103FF000A49412000AC289F00BC28AF00CC28BF0A2
:104000000DC28CF079C089F07AC08AF07BC08BF049
:104010007CC08CF0810E00017D6FFF0E7E6F89C029
:104020007FF08AC080F08BC081F08CC082F0180EC7
:104030001FEF20F0D8908233813380337F33E82E16
:104040001AEF20F07F517D25876F000E7E21886F4B
:1040500088BF34EF20F0885109E1170E875DD8A0A2
:1040600034EF20F036EF20F040EF20F079C079F007
:104070007AC07AF07BC07BF07CC07CF004EF21F04A
:1040800088BF45EF20F047EF20F0B8EF20F087C061
:104090007DF0FF0E7E6FFF0E7F6F7F0E806F000E34
:1040A000816F7D6756EF20F05EEF20F08135813320
:1040B00080337F337E337D2F51EF20F07EC083F03D
:1040C0007FC084F080C085F081C086F000018351FC
:1040D00089157D6F84518A157E6F85518B157F6F91
:1040E00086518C15806F7D517E117F118011D8A46F
:1040F0007CEF20F07EEF20F080EF20F036EF20F014
:1041000089C07DF08AC07EF08BC07FF08CC080F0CB
:10411000200E90EF20F0D89080337F337E337D33B4
:10412000E82E8BEF20F07D517E117F118011D8B4E5
:104130009CEF20F09EEF20F0A6EF20F0835189271E
:1041400084518A2385518B2386518C23831D7D6F57
:10415000841D7E6F851D7F6F861D806F7D51891741
:104160007E518A177F518B1780518C17FCEF20F0FE
:1041700089C07DF08AC07EF08BC07FF08CC080F05B
:10418000200EC8EF20F0D89080337F337E337D330C
:10419000E82EC3EF20F07D517E117F118011D8A44D
:1041A000D4EF20F0D6EF20F0E0EF20F0000E896F82
:1041B000000E8A6F000E8B6F000E8C6FFCEF20F0EC
:1041C000D89089357D6F8A357E6F8B357F6F8C35C2
:1041D000806F7D517E117F118011D8B4F2EF20F0F5
:1041E000F4EF20F0FCEF20F0000E896F000E8A6FD4
:1041F000800E8B6FBF0E8C6F89C079F08AC07AF009
:104200008BC07BF08CC07CF012000001686F000155
:104210006851D8B40EEF21F010EF21F032EF21F009
:1042200063BF17EF21F015EF21F032EF21F060C0EE
:1042300064F061C065F062C066F063C067F0641F3F
:10424000651F661F671F642B000E652366236723A7
:1042500064C06AF065C06BF066C06CF067C06DF05A
:104260003AEF21F060C06AF061C06BF062C06CF0A0
:1042700063C06DF06051611162116311D8A443EF06
:1042800021F045EF21F04FEF21F0000E606F000E9E
:10429000616F000E626F000E636FE0EF21F0960E0B
:1042A000696F59EF21F0692BD8906D336C336B3304
:1042B0006A33000E6A15646F000E6B15656F000E91
:1042C0006C15666FFE0E6D15676F64516511661192
:1042D0006711D8A46EEF21F070EF21F053EF21F0B9
:1042E0007EEF21F0692B010E6A27000E6B236C23F1
:1042F0006D23D8906D336C336B336A33000E6A15BF
:10430000646F000E6B15656F000E6C15666FFF0E07
:104310006D15676F6451651166116711D8A493EF2D
:1043200021F095EF21F072EF21F09DEF21F0690768
:10433000D8906A376B376C376D376CBFA2EF21F0BE
:10434000A4EF21F0ACEF21F0020E6961AAEF21F099
:10435000ACEF21F097EF21F069B1B1EF21F0B3EFAD
:1043600021F0B4EF21F06C9FD890693369C064F0FC
:10437000656B666B676B64C067F0666B656B646BDF
:1043800064516A1365516B1366516C1367516D1359
:104390006851D8B4CEEF21F0D0EF21F0D8EF21F062
:1043A00063BFD7EF21F0D5EF21F0D8EF21F06D8F6B
:1043B0006AC060F06BC061F06CC062F06DC063F009
:1043C00012006EEC3CF0000E0601006F000E016F53
:1043D000000E6A6F000E6B6FF28EF28C53EC3DF0A4
:1043E000980E0001606F6E0E616F45EC3DF0EA0EB5
:1043F0000001606F040E616F8AEC3BF08190818850
:10440000818A819281948196000E0101306F78EC4F
:1044100036F001013051D8B410EF22F012EF22F043
:10442000ABEF22F08190400E3D6F040E3E6FD30E35
:104430003F6F080E406F7A0E416F020E426FAEEC76
:1044400039F0070E0101526F170E516F6A0EE82EF8
:10445000FED7512FFCD7522FFAD700F0A40E00013F
:10446000706F040E716F7A0E726F020E736F9EEC96
:1044700033F070C0F0F471C0F1F4B80E00019A6F1F
:10448000040E9B6FA40E9C6F040E9D6FF0C49EF0F3
:10449000F1C49FF0E3EC2CF0A4C4D9FFA5C4DAFF6B
:1044A000DF500401B86F000E0101306F400E3D6F08
:1044B000040E3E6FAC0E3F6F080E406F400E416F12
:1044C000040E426FB8C443F1446BBDC445F1466B62
:1044D000B9C447F1BAC448F1BBC449F1BCC44AF1FC
:1044E000BEC44BF1BFC44CF1C0C44DF1C1C44EF1C8
:1044F000F0C44FF1F1C450F1AEEC39F0400E0101BF
:104500003D6F040E3E6FD00E3F6F080E406F400EA1
:10451000416F040E426FA4C443F1A5C444F1AEEC54
:1045200039F0000E0401F36F000EF26F7A0EF225DF
:10453000D96E020EF321DA6E000EDF6EF24BF32B12
:10454000F35109E1400EF25DD8A0A9EF22F0ABEFE4
:1045500022F096EF22F0B7EC22F08180000E0401E9
:10456000A46F000EA56F07EF22F07CEF00F0A3947C
:1045700001012C512D11D8B4C0EF22F0C2EF22F06E
:10458000D0EF22F02CC1D9FF2DC1DAFFDFAECBEF87
:1045900022F0CDEF22F0D0EF22F0A3848BEF23F0B6
:1045A000030E0001FE19D8A4D8EF22F0DAEF22F0B2
:1045B000DCEF22F0000EFE6FFE51D8A4E2EF22F0F5
:1045C000E4EF22F0E7EF22F0A3848BEF23F0020E5A
:1045D000FE19D8A4EEEF22F0F0EF22F004EF23F062
:1045E000010E606F000E616F000E626F000E636F50
:1045F000020EE3EC29F060C02CF161C02DF1030E36
:104600000001FE6F8AEF23F0FE05D8A40AEF23F025
:104610000CEF23F08AEF23F0400E4F6412EF23F0EB
:1046200014EF23F018EF23F0400E6C6F1AEF23F015
:104630004FC06CF06C514F5C4F6E000E01010A6F61
:10464000050E0B6F6CC06BF03251D8A42AEF23F02B
:104650002CEF23F05BEF23F03FEF23F00DC1D9FFE8
:104660000EC1DAFF0AC1E1FF0BC1E2FFDFCFE7FFB6
:1046700001010A4B0B2B0D4B0E2B00016B070001A8
:104680006B51D8A446EF23F048EF23F02EEF23F030
:1046900064EF23F00DC1D9FF0EC1DAFF0AC1E1FFBB
:1046A0000BC1E2FFDFCFE7FF01010A4B0B2B0D4BE4
:1046B0000E2B00016B0700016B51D8A462EF23F0B1
:1046C00064EF23F04AEF23F04F50D8A46AEF23F0B1
:1046D0006CEF23F07BEF23F0400E6C19D8A473EF3E
:1046E00023F075EF23F079EF23F0020EFE6F7BEFDE
:1046F00023F0030EFE6F010E606F000E616F050E5A
:10470000626F6CC063F0020EE3EC29F060C02CF124
:1047100061C02DF1A384120022EEC9F010EE6EF0FC
:10472000060EDBCFE3FFE806FCE26BC079F06CC05D
:104730007AF0000179517A11D8A4A1EF23F0A3EF08
:1047400023F0A7EF23F06E0E796F000E7A6F79C019
:1047500060F07AC061F0C5EC3BF060C07DF061C0F4
:104760007EF044C07BF045C07CF000017CBFBBEF15
:1047700023F0BDEF23F0D2EF23F07D517B5D7C5120
:10478000800A6D6F7E51800A6D59D8A0CAEF23F060
:10479000CCEF23F0CEEF23F0D2EF23F07BC07DF0FF
:1047A0007CC07EF07DC07BF07EC07CF042C077F0A4
:1047B00043C078F046B0DFEF23F0E1EF23F0FFEFE6
:1047C00023F0F0EF23F0000E616F200E606F69C0E0
:1047D00062F06AC063F0D4EC32F000017D4B7E2BB6
:1047E00077517D5D7E51800A6D6F7851800A6D59D9
:1047F000D8A0FDEF23F0FFEF23F0E3EF23F0000E4E
:10480000766F000E756F19EF24F079C0D9FF7AC06A
:10481000DAFFDF506D6F6D51606F616B69C062F0E0
:104820006AC063F0D4EC32F00001794B7A2B754BFF
:10483000762B7B51755D7651800A6D6F7C51800AB5
:104840006D59D8A026EF24F028EF24F005EF24F0CE
:1048500046A02DEF24F02FEF24F04DEF24F03EEF93
:1048600024F0000E616F200E606F69C062F06AC0B4
:1048700063F0D4EC32F000017D4B7E2B77517D5DEF
:104880007E51800A6D6F7851800A6D59D8A04BEF28
:1048900024F04DEF24F031EF24F07DC069F07EC0AC
:1048A0006AF01200000E0001716F6FBF5CEF24F020
:1048B0005AEF24F06EEF24F06F1F6E1F6D1F6C1FF8
:1048C0006B1F6A1F691F686D000E69236A236B23C3
:1048D0006C236D236E236F23010E716F67BF75EF1D
:1048E00024F073EF24F087EF24F0671F661F651F25
:1048F000641F631F621F611F606D000E61236223CE
:1049000063236423652366236723010E711B20EE56
:1049100072F0070EDE6AE806FDE2685169116A115D
:104920006B116C116D116E116F11D8B49AEF24F0E8
:104930009CEF24F0EEEF24F0010E706FAAEF24F04C
:10494000D890683769376A376B376C376D376E3791
:104950006F37702B6FAFAFEF24F0B1EF24F0A0EF03
:1049600024F0D890723773377437753776377737C6
:10497000783779376851605D695161596A51625978
:104980006B5163596C5164596D5165596E5166593B
:104990006F516759D8A0CFEF24F0D1EF24F0E2EFA8
:1049A00024F06851605F6951615B6A51625B6B51D1
:1049B000635B6C51645B6D51655B6E51665B6F51FF
:1049C000675B7281D8906F336E336D336C336B33AA
:1049D0006A3369336833702FB1EF24F07151D8B462
:1049E000F4EF24F0F6EF24F006EF25F0791F781F9E
:1049F000771F761F751F741F731F726D000E732350
:104A000074237523762377237823792372C060F08B
:104A100073C061F074C062F075C063F076C064F07A
:104A200077C065F078C066F079C067F0120060C0AA
:104A30006AF061C06BF0000164516511D8A423EFE6
:104A400025F025EF25F027EF25F0D2EF25F06AC0FD
:104A5000D9FF6BC0DAFF62C0DFFF64516A25666F61
:104A600065516B21676FFF0E6625D96EFF0E6721BA
:104A7000DA6E62C0DFFF655107E1030E645DD8B0F6
:104A800044EF25F046EF25F048EF25F0D2EF25F072
:104A900020EE01F06A51D9266B51DA2262C0DFFFA5
:104AA00020EE02F06A51D9266B51DA2262C0DFFF94
:104AB00064516A25666F65516B21676FFE0E66252E
:104AC000D96EFF0E6721DA6E62C0DFFF64516A257E
:104AD000666F65516B21676FFD0E6625D96EFF0EFF
:104AE0006721DA6E62C0DFFF655107E1070E645D82
:104AF000D8B07DEF25F07FEF25F081EF25F0D2EFE4
:104B000025F020EE03F06A51D9266B51DA2262C0FB
:104B1000DFFF64516A25666F65516B21676FFC0E7C
:104B20006625D96EFF0E6721DA6E62C0DFFF655120
:104B300007E1090E645DD8B0A0EF25F0A2EF25F0E3
:104B4000A4EF25F0D2EF25F06AC066F06BC067F0E5
:104B5000661F671F664B672B030E6615686F696BD0
:104B600068516A2769516B236851645F6951655BBD
:104B7000FC0E6417FF0E6517C9EF25F06AC0D9FF58
:104B80006BC0DAFF62C0DFFF6407D8A065076A4B1D
:104B90006B2B64516511D8A4D0EF25F0D2EF25F02E
:104BA000BEEF25F0120001C00BF002C00CF0055062
:104BB0000610D8A4DEEF25F0E0EF25F0E2EF25F0B7
:104BC0008DEF26F00BC0D9FF0CC0DAFF03C0DFFF6A
:104BD00005500B24076E06500C20086EFF0E0724AC
:104BE000D96EFF0E0820DA6E03C0DFFF065007E122
:104BF000030E055CD8B0FFEF25F001EF26F003EFC0
:104C000026F08DEF26F020EE01F00B50D9260C5047
:104C1000DA2203C0DFFF20EE02F00B50D9260C5041
:104C2000DA2203C0DFFF05500B24076E06500C206C
:104C3000086EFE0E0724D96EFF0E0820DA6E03C040
:104C4000DFFF05500B24076E06500C20086EFD0E8A
:104C50000724D96EFF0E0820DA6E03C0DFFF06506E
:104C600007E1070E055CD8B038EF26F03AEF26F0E2
:104C70003CEF26F08DEF26F020EE03F00B50D92606
:104C80000C50DA2203C0DFFF05500B24076E0650DC
:104C90000C20086EFC0E0724D96EFF0E0820DA6E79
:104CA00003C0DFFF065007E1090E055CD8B05BEFDB
:104CB00026F05DEF26F05FEF26F08DEF26F00BC0BB
:104CC00007F00CC008F0071E081E074A082A030E4A
:104CD0000714096E0A6A09500B260A500C22095063
:104CE000055E0A50065AFC0E0516FF0E061684EFE6
:104CF00026F00BC0D9FF0CC0DAFF03C0DFFF0506AA
:104D0000D8A006060B4A0C2A05500610D8A48BEF33
:104D100026F08DEF26F079EF26F01200000E00014C
:104D2000716F67BF98EF26F096EF26F0AAEF26F096
:104D3000671F661F651F641F631F621F611F606D11
:104D4000000E6123622363236423652366236723A4
:104D5000010E716F6FBFB1EF26F0AFEF26F0C1EF1C
:104D600026F06F1F6E1F6D1F6C1F6B1F6A1F691F60
:104D7000686D000E69236A236B236C236D236E23F9
:104D80006F23685169116A116B116C116D116E11ED
:104D90006F11D8B4CEEF26F0D0EF26F018EF27F041
:104DA000010E706FDEEF26F0D890683769376A37EA
:104DB0006B376C376D376E376F37702B6FAFE3EF34
:104DC00026F0E5EF26F0D4EF26F06851605D6951DA
:104DD00061596A5162596B5163596C5164596D51F3
:104DE00065596E5166596F516759D8A0FAEF26F090
:104DF000FCEF26F00CEF27F06851605F6951615BB2
:104E00006A51625B6B51635B6C51645B6D51655BB6
:104E10006E51665B6F51675BD8906F336E336D3345
:104E20006C336B336A3369336833702FE5EF26F0E8
:104E30007151D8B41EEF27F020EF27F030EF27F0A4
:104E4000671F661F651F641F631F621F611F606D00
:104E5000000E612362236323642365236623672393
:104E600060C060F061C061F062C062F063C063F076
:104E700064C064F065C065F066C066F067C067F046
:104E80001200800E04013019D8A449EF27F04BEF2F
:104E900027F0F0EF27F0C00E396ED7EF27F0960E0F
:104EA000366E080E376E000E3B6E120E3A6EF0EF45
:104EB00027F03251D8A45FEF27F061EF27F09FEF82
:104EC00027F03251020D070EF324F66E080EF4207F
:104ED000F76E0900F5CF36F00A00F5CF37F0020E75
:104EE0003624016E000E3720026E01C0F6FF02C0AC
:104EF000F7FFF86A070EF76403D00800F55005D0F5
:104F0000F6CFE9FFF7CFEAFFEF503A6E030E3624F3
:104F1000016E000E3720026E01C0F6FF02C0F7FFDF
:104F2000F86A070EF76403D00800F55005D0F6CFF5
:104F3000E9FFF7CFEAFFEF503B6EF0EF27F0000EEE
:104F4000396EF0EF27F0030E3261A9EF27F0ABEFD7
:104F500027F0CFEF27F03251020D010EF324F66E49
:104F6000080EF420F76E0900F5CF36F00A00F5CFF1
:104F700037F036C0F6FF37C0F7FFF86A070EF76460
:104F800003D00800F55005D0F6CFE9FFF7CFEAFFD0
:104F9000EF50016E01503A6E3B6AF0EF27F0000EC1
:104FA000396EF0EF27F0000E396EF0EF27F0335135
:104FB000016E026A0250000AD8B4E1EF27F0D3EF85
:104FC00027F00150010AD8B44FEF27F0030AD8B4F4
:104FD00059EF27F0010AD8B4A3EF27F0D3EF27F059
:104FE0001200A394000E676E000E656E000E6A6ECE
:104FF0006B0E0001606F0F0E616F000E636F000E8D
:10500000626F000E656F020E646F17EC25F0160ECE
:10501000626E9F0E666E7B0E646E000E00016C6FFA
:105020006C51040D000EF324D96E040EF420DA6ED8
:10503000DE6ADE6ADE6ADD6A6C2B0B0E6C6523EFBE
:1050400028F025EF28F010EF28F0608C000E636E3A
:105050006098609C6596000E396E000E316E000EF1
:10506000336E000E326E65B638EF28F03AEF28F056
:105070002AEF28F0010E0101376F010E366F000E86
:10508000356F000E346F000E396F000E00016C6F2B
:105090006C51020D3C0EF324D96E000EF420DA6E32
:1050A000000EDE6E000EDD6E6C51020D000EF3245C
:1050B000D96E010EF420DA6E000EDE6E000EDD6E8B
:1050C000130E6C25D96EDA6A010EDA22000EDF6E3D
:1050D000100E6C25D96EDA6A010EDA22000EDF6E30
:1050E0006C2B020E6C6577EF28F079EF28F048EF13
:1050F00028F0080E3C6E040E3D6E160E6A6E040E0D
:105100000401036F300E026F080E016F040E006F72
:10511000008F000E586E000E0101066F000E076F23
:10512000000E086F000E096F000E336F000E566EF2
:105130001200A394000E676E000E656E000E6A6E7C
:105140006B0E016E0F0E026E000E046E000E036EEB
:10515000000E066E020E056ED3EC25F0160E626E82
:105160009F0E666E7B0E646E000E0D6E0D50040D6C
:10517000000EF324D96E040EF420DA6EDE6ADE6AC5
:10518000DE6ADD6A0D2A0B0E0D64C9EF28F0CBEF45
:1051900028F0B6EF28F0608C000E636E6098609C7B
:1051A0006596000E396E000E316E000E336E000EE5
:1051B000326E65B6DEEF28F0E0EF28F0D0EF28F091
:1051C000010E0101376F010E366F000E356F000EB4
:1051D000346F000E396F000E0D6E0D50020D3C0E37
:1051E000F324D96E000EF420DA6E000EDE6E000E8F
:1051F000DD6E0D50020D000EF324D96E010EF42069
:10520000DA6E000EDE6E000EDD6E130E0D24D96E0A
:10521000DA6A010EDA22000EDF6E100E0D24D96E4E
:10522000DA6A010EDA22000EDF6E0D2A020E0D641C
:105230001CEF29F01EEF29F0EDEF28F0080E3C6E70
:10524000040E3D6E160E6A6E040E0401036F300EDE
:10525000026F080E016F040E006F008F000E586E73
:10526000000E0101066F000E076F000E086F000EA2
:10527000096F000E336F000E566E1200609839BE33
:1052800044EF29F046EF29F08DEF29F031AE4BEFD6
:1052900029F04DEF29F061EF29F0020E546E010163
:1052A0003451D8A456EF29F058EF29F05AEF29F0DD
:1052B00075EC35F0000E0101366F000E376FE2EF2E
:1052C00029F020EE01F04A50D9264B50DA22080E80
:1052D000DF6E20EE02F04A50D9264B50DA22300E13
:1052E000DE6E040EDD6E4AC0D9FF4BC0DAFF0C0E35
:1052F000DF6E4AC0D9FF4BC0DAFF000EDB8E3CC028
:10530000D9FF3DC0DAFF040EDF6E3CC0D9FF3DC0BF
:10531000DAFF000EDB8EE2EF29F0040130AF93EFED
:1053200029F095EF29F0B3EF29F0010E546E010139
:105330003551D8A49EEF29F0A0EF29F0A2EF29F073
:1053400075EC35F0000E0101366F000E376F5150CD
:10535000D8A4ADEF29F0AFEF29F0E2EF29F003EC8C
:1053600031F0E2EF29F0020E546E20EE01F04A50C7
:10537000D9264B50DA22080EDF6E20EE02F04A509A
:10538000D9264B50DA22300EDE6E040EDD6E4AC096
:10539000D9FF4BC0DAFF040EDF6E4AC0D9FF4BC005
:1053A000DAFF000EDB8E000E0101366F000E376F44
:1053B0005150D8A4DEEF29F0E0EF29F0E2EF29F018
:1053C000AFEF29F012000001686F00016051D8B4FE
:1053D000ECEF29F0EEEF29F0FCEF29F06851020D17
:1053E0003C0EF324D96E000EF420DA6EDECF69F0A5
:1053F000DDCF6AF008EF2AF06851020D000EF324A9
:10540000D96E010EF420DA6EDECF69F0DDCF6AF0DE
:1054100069516A11D8A40FEF2AF011EF2AF017EFA3
:105420002AF0000E606F000E616F83EF2AF020EE0D
:1054300002F06951D9266A51DA2261C0DEFF62C0EA
:10544000DDFF20EE01F06951D9266A51DA2263C0EE
:10545000DFFF69C0D9FF6AC0DAFF400EDF1669C0FE
:10546000D9FF6AC0DAFF000EDB8669C0D9FF6AC0C7
:10547000DAFF000EDB8E6051D8B441EF2AF043EF23
:105480002AF062EF2AF06851020D3C0EF324D96E27
:10549000000EF420DA6EDECF64F0DDCF65F0040E8E
:1054A0006419666F6551676F6851020D3C0EF324F5
:1054B000D96E000EF420DA6E66C0DEFF67C0DDFF35
:1054C0007FEF2AF06851020D000EF324D96E010E11
:1054D000F420DA6EDECF64F0DDCF65F0040E6419DF
:1054E000666F6551676F6851020D000EF324D96E27
:1054F000010EF420DA6E66C0DEFF67C0DDFF69C012
:1055000060F06AC061F0120020EE01F04C50D92624
:105510004D50DA22DF50026E0250325C000E3358DA
:10552000D8B095EF2AF097EF2AF099EF2AF032C021
:1055300002F00250325E000E335A000E016EB0EFE0
:105540002AF0380E0124D96EDA6A040EDA222EC04F
:10555000E1FF2FC0E2FFDFCFE7FF2E4A2F2A012A0B
:105560000250015CD8A0B7EF2AF0B9EF2AF0A1EF02
:105570002AF032503310D8B4C0EF2AF0C2EF2AF02C
:10558000FBEF2AF020EE01F04A50D9264B50DA22E8
:10559000080EDF6E20EE02F04A50D9264B50DA2278
:1055A000380EDE6E040EDD6E4CC0D9FF4DC0DAFF42
:1055B000DFBCDDEF2AF0DFEF2AF0EDEF2AF04AC082
:1055C000D9FF4BC0DAFF480EDF6E4AC0D9FF4BC08F
:1055D000DAFF000EDB8E24EF2BF04AC0D9FF4BC060
:1055E000DAFF080EDF6E4AC0D9FF4BC0DAFF000EAB
:1055F000DB8E24EF2BF020EE01F04A50D9264B50E1
:10560000DA22080EDF6E20EE02F04A50D9264B5007
:10561000DA22300EDE6E040EDD6E4AC0D9FF4BC0BA
:10562000DAFF040EDF6E4AC0D9FF4BC0DAFF000E6E
:10563000DB8E319E5150D8A420EF2BF022EF2BF0BF
:1056400024EF2BF003EC31F01200096E0150D8B4B6
:105650002CEF2BF02EEF2BF03CEF2BF00950020D2E
:105660003C0EF324D96E000EF420DA6EDECF0AF081
:10567000DDCF0BF048EF2BF00950020D000EF324A4
:10568000D96E010EF420DA6EDECF0AF0DDCF0BF01A
:105690000A500B10D8A44FEF2BF051EF2BF057EF1F
:1056A0002BF0000E016E000E026EC3EF2BF020EE09
:1056B00002F00A50D9260B50DA2202C0DEFF03C0E6
:1056C000DDFF20EE01F00A50D9260B50DA2204C08B
:1056D000DFFF0AC0D9FF0BC0DAFF400EDF160AC099
:1056E000D9FF0BC0DAFF000EDB860AC0D9FF0BC062
:1056F000DAFF000EDB8E0150D8B481EF2BF083EF80
:105700002BF0A2EF2BF00950020D3C0EF324D96EC2
:10571000000EF420DA6EDECF05F0DDCF06F0040EC9
:105720000518076E0650086E0950020D3C0EF32452
:10573000D96E000EF420DA6E07C0DEFF08C0DDFF70
:10574000BFEF2BF00950020D000EF324D96E010EAD
:10575000F420DA6EDECF05F0DDCF06F0040E05187A
:10576000076E0650086E0950020D000EF324D96E24
:10577000010EF420DA6E07C0DEFF08C0DDFF0AC0AC
:1057800001F00BC002F0120060C067F061C068F069
:1057900062C069F063C06AF000016407D8A06507C1
:1057A000642906E16529D8A4D8EF2BF0DAEF2BF0B5
:1057B000E8EF2BF0000E616F000E606F54EF2CF0DD
:1057C0000001674B682B694B6A2B6407D8A06507FB
:1057D00067C0F6FF68C0F7FFF86A070EF76403D0EA
:1057E0000800F55005D0F6CFE9FFF7CFEAFFEF50FC
:1057F0000009D8B4FEEF2BF000EF2CF037EF2CF0BF
:1058000069C0F6FF6AC0F7FF0800F5500009D8B478
:105810000CEF2CF00EEF2CF037EF2CF00001645160
:105820006511D8B416EF2CF018EF2CF037EF2CF0F0
:1058300069C0F6FF6AC0F7FF0800F5CF66F067C0E1
:10584000F6FF68C0F7FFF86A070EF76403D0080098
:10585000F55005D0F6CFE9FFF7CFEAFFEF50661914
:10586000D8B435EF2CF037EF2CF0E0EF2BF067C019
:10587000F6FF68C0F7FFF86A070EF76403D0080068
:10588000F55005D0F6CFE9FFF7CFEAFFEF50000162
:10589000666F69C0F6FF6AC0F7FF0800F550665DE5
:1058A000606F616BD8A06107120004013039E832E3
:1058B000030B0009D8B45FEF2CF061EF2CF0A9EFD7
:1058C0002CF0E2EF2CF0398E080E566EE2EF2CF041
:1058D00041EC27F0E2EF2CF0F2EC31F0E2EF2CF0AB
:1058E000580E366E000E376E3980010E3A6E398EC4
:1058F000E2EF2CF0FDEC2EF0E2EF2CF0C7EC1BF009
:10590000E2EF2CF03B0E3425366E376A010E37225B
:105910003980010E3A6E398EE2EF2CF0398E3B0E53
:105920003425D96EDA6A010EDA2232C4DFFFE2EFE3
:105930002CF0000E0E6E020E0D6E000E0F6E000E9D
:10594000106E000E126E000E116E08EC37F0E2EFD2
:105950002CF031511C6E1D6A1D50000AD8B4B3EFF3
:105960002CF0E2EF2CF01C50000AD8B47AEF2CF0A7
:10597000010AD8B47EEF2CF0020AD8B47EEF2CF0E6
:10598000060AD8B463EF2CF0030AD8B468EF2CF001
:10599000010AD8B499EF2CF00F0AD8B470EF2CF0AC
:1059A000010AD8B46CEF2CF0030AD8B482EF2CF0C3
:1059B000010AD8B48EEF2CF0070AD8B4E2EF2CF02D
:1059C000E2EF2CF01200000E0001B16F000EB06F7C
:1059D0005EEF2DF0D890B035D96EB135DA6E9C51AE
:1059E000D9269D51DA22DECFA0F0DDCFA1F0A0C0F4
:1059F000D9FFA1C0DAFFB0C060F0B1C061F0000E05
:105A0000636F050E626FC8EC3CF0000160519A258F
:105A1000E16E61519B21E26EDFCFE7FFA60E606F62
:105A2000000E616FD890B035D96EB135DA6E9C51E9
:105A3000D9269D51DA22DECFA0F0DDCFA1F0010EF4
:105A4000A025626F000EA121636F7FEC39F0A60ED6
:105A50000001856F000E866F000E876F000E886F45
:105A600077EC04F085C0A0F086C0A1F087C0A2F05A
:105A700088C0A3F0B0C060F0B1C061F0000E0001BA
:105A8000636F050E626FC8EC3CF09AC0A4F09BC037
:105A9000A5F000016051A4276151A523010EA425A2
:105AA000D96E000EA521DA6EA0C0DEFFA1C0DEFF18
:105AB000A2C0DEFFA3C0DEFFB04BB12B9E51B05D94
:105AC000B151800AA06F9F51800AA059D8A06BEFF6
:105AD0002DF06DEF2DF0EAEF2CF01200080E016EA4
:105AE0003B5007E1080E3A5CD8B079EF2DF07BEF20
:105AF0002DF093EF2DF03AC001F05550D8A483EF6C
:105B00002DF085EF2DF089EF2DF0010E556E93EFFE
:105B10002DF05504D8A48FEF2DF091EF2DF093EFD9
:105B20002DF0020E556E01503A5E000E3B5A20EEEB
:105B300001F03C50D9263D50DA2201C0DFFF380E7B
:105B400001012E6F040E2F6F39B0A9EF2DF0ABEFCE
:105B50002DF0EDEF2DF0C8EF2DF036C0F6FF37C079
:105B6000F7FFF86A2EC1D9FF2FC1DAFF070EF764DD
:105B700003D00800F55005D0F6CFE9FFF7CFEAFFD4
:105B8000EF50DF6E364A372A01012E4B2F2B0106CC
:105B90000150D8A4CEEF2DF0D0EF2DF0ADEF2DF0C9
:105BA000F5EF2DF036C0F6FF37C0F7FFF86A2EC1CB
:105BB000D9FF2FC1DAFF070EF76403D00800F550B4
:105BC00005D0F6CFE9FFF7CFEAFFEF50DF6E364A98
:105BD000372A01012E4B2F2B01060150D8A4F3EFD9
:105BE0002DF0F5EF2DF0D2EF2DF01200000162350F
:105BF0006335696F6951D8A400EF2EF002EF2EF0E3
:105C00000CEF2EF0000E606F000E616F000E626FE1
:105C1000000E636F79EF2EF060C064F061C065F034
:105C200062C066F063C067F0200E1CEF2EF0D890C3
:105C30006733663365336433E82E17EF2EF0645113
:105C4000686F628FFF0E6017FF0E6117FF0E6217FD
:105C5000000E6317960E695F69BF33EF2EF031EFC8
:105C60002EF049EF2EF06951800A970FD8B03BEF24
:105C70002EF03DEF2EF03FEF2EF002EF2EF0D890F9
:105C80006333623361336033693F3FEF2EF061EF7E
:105C90002EF01F0E69654FEF2EF051EF2EF059EFE9
:105CA0002EF002EF2EF0D8906037613762376337FD
:105CB00069076951D8A45FEF2EF061EF2EF053EF22
:105CC0002EF06851D8B467EF2EF069EF2EF071EF27
:105CD0002EF0631F621F611F606D000E612362233F
:105CE000632360C060F061C061F062C062F063C0B5
:105CF00063F01200000E00017915816F000E7A1515
:105D0000826F800E7B15836F7F0E7C15846F8151AF
:105D1000821183118411D8A490EF2EF092EF2EF00F
:105D20009AEF2EF0000E796F000E7A6F000E7B6FE7
:105D3000000E7C6F000E7D15816F000E7E15826F48
:105D4000800E7F15836F7F0E8015846F81518211C5
:105D500083118411D8A4AFEF2EF0B1EF2EF0B9EF7C
:105D60002EF0000E7D6F000E7E6F000E7F6F000E16
:105D7000806F7CAFBEEF2EF0C0EF2EF0C9EF2EF09B
:105D8000796D7A1FD8B07A2B7B1FD8B07B2B800E11
:105D90007C5780AFCEEF2EF0D0EF2EF0D9EF2EF063
:105DA0007D6D7E1FD8B07E2B7F1FD8B07F2B800EDD
:105DB0008057000E791B000E7A1B000E7B1B800E95
:105DC0007C1B000E7D1B000E7E1B000E7F1B800EB9
:105DD000801B7D51795D7E517A597F517B5980516D
:105DE0007C59D8B0F6EF2EF0F8EF2EF0FBEF2EF046
:105DF000D890FCEF2EF0D8801200000E0401386F0E
:105E0000000E396F57EF2FF0398E01013A05D8A4F3
:105E10000CEF2FF00EEF2FF071EF2FF0040138830D
:105E200071EF2FF0398E71EF2FF0398E34BF1BEFE9
:105E30002FF01DEF2FF02EEF2FF034510F0B016ECE
:105E40000150020D000EF324D96E010EF420DA6E1B
:105E5000DECF03F0DDCF04F03DEF2FF034510F0B18
:105E6000016E0150020D3C0EF324D96E000EF42099
:105E7000DA6EDECF03F0DDCF04F003C0D9FF04C03B
:105E8000DAFFDFAE46EF2FF048EF2FF071EF2FF083
:105E900003C0D9FF04C0DAFFDFA451EF2FF053EFA6
:105EA0002FF071EF2FF0010E386F71EF2FF030519E
:105EB0001F0B016E026A0250000AD8B462EF2FF085
:105EC00071EF2FF00150000AD8B404EF2FF0010A4F
:105ED000D8B412EF2FF0030AD8B415EF2FF071EFFA
:105EE0002FF039AE76EF2FF078EF2FF07FEF2FF015
:105EF000380E366E040E376E3980020E3A6E12007E
:105F00003CC0D9FF3DC0DAFF000EDFBC010E026EBF
:105F1000040E3C183C6E3D503D6E080E5618D8A439
:105F200094EF2FF096EF2FF0A8EF2FF004013251ED
:105F30007F0B636E6350D8B4A0EF2FF0A2EF2FF069
:105F4000A6EF2FF0100E566EA8EF2FF0040E566E2F
:105F50005404D8A4AEEF2FF0B0EF2FF0F7EF2FF0EE
:105F600020EE02F03C50D9263D50DA22380EDE6E8B
:105F7000040EDD6E6EEC2DF0020E5518D8A4C3EFA2
:105F80002FF0C5EF2FF0D3EF2FF03CC0D9FF3DC06D
:105F9000DAFF040EDF6E3CC0D9FF3DC0DAFF000E11
:105FA000DB8E01EF30F00250D8A4D9EF2FF0DBEFF9
:105FB0002FF0E9EF2FF03CC0D9FF3DC0DAFF480ECB
:105FC000DF6E3CC0D9FF3DC0DAFF000EDB8E01EF73
:105FD00030F03CC0D9FF3DC0DAFF080EDF6E3CC098
:105FE000D9FF3DC0DAFF000EDB8E01EF30F031AE9D
:105FF000FCEF2FF0FEEF2FF0FFEF2FF0319E000EA1
:10600000546E1200040130511F0BE806D8B40BEF98
:1060100030F00DEF30F00FEF30F082EF30F030392C
:10602000E832030BE806D8B418EF30F01AEF30F07E
:106030001CEF30F082EF30F03451D8B422EF30F062
:1060400024EF30F061EF30F03405D8B42AEF30F0AF
:106050002CEF30F061EF30F082EF30F0BA0E366E98
:10606000020E376E000E3B6E080E3A6E3980398E86
:1060700082EF30F0BA0E366E020E376E398E82EF36
:1060800030F036C432F037C433F0C20E2E6E020E3A
:106090002F6E000E346E000E356E318E82EF30F0B2
:1060A000C20E366E020E376E000E3B6E070E3A6E53
:1060B000C10E396E82EF30F032C431F1398E82EF89
:1060C00030F03151016E026A0250000AD8B46BEF11
:1060D00030F082EF30F00150000AD8B42EEF30F0EB
:1060E000010AD8B43AEF30F0210AD8B441EF30F0C9
:1060F000010AD8B450EF30F0030AD8B45CEF30F0A6
:1061000082EF30F012000EC26AF00FC26BF010C2C4
:106110006CF011C26DF060C06AF061C06BF062C0DB
:106120006CF063C06DF06AC064F06BC065F06CC069
:1061300066F06DC067F0180EA4EF30F00001D89043
:106140006733663365336433E82E9EEF30F0645175
:10615000686F696B68516911D8A4B1EF30F0B3EF83
:1061600030F0D3EF30F0D8906A35646F6B35656FDF
:106170006C35666F6D35676F645165116611671117
:10618000D8A4C5EF30F0C7EF30F0CDEF30F0000EFF
:10619000616F020E606F02EF31F0000E616F030E4F
:1061A000606F02EF31F068296911D8A4DAEF30F09E
:1061B000DCEF30F0FEEF30F06AC064F06BC065F0E9
:1061C0006CC066F06DC067F0090ED8906437653713
:1061D00066376737E82EE5EF30F0645165116611D8
