:040000004EEF00F0CF
:100008005382E9CF20F0EACF21F0E1CF22F0E2CF0E
:1000180023F0D9CF24F0DACF25F0F3CF26F0F4CFB0
:1000280027F0F6CF28F0F7CF29F0F8CF2AF0F5CF50
:100038002BF0F2AC22EF00F024EF00F034EF00F0E8
:10004800A3A429EF00F02BEF00F034EF00F0A4A4F4
:1000580030EF00F032EF00F034EF00F005EC06F07E
:100068002BC0F5FF2AC0F8FF29C0F7FF28C0F6FF0C
:1000780027C0F4FF26C0F3FF25C0DAFF24C0D9FF4C
:1000880023C0E2FF22C0E1FF21C0EAFF20C0E9FF50
:08009800539211003EEF15F038
:1008000000A8084C088008090809024300020100FA
:10081000C032090400000102020100052400100199
:100820000424020205240600010524010001070535
:1008300081030A000209040100020A000000070502
:1008400002024000000705820240000034034D0010
:100850006900630072006F00630068006900700047
:10086000200054006500630068006E006F006C009B
:100870006F0067007900200049006E0063002E00C1
:10088000160342006F00620069006E0061006400A0
:100890006F00720061001201000202000008D8041B
:0D08A0000A00000101020001040309040028
:1008AE0004013205D8A45EEF04F060EF04F07CEF93
:1008BE0004F030511F0B0009D8A468EF04F06AEF62
:1008CE0004F07CEF04F00001758F030E0401311962
:1008DE00D8A474EF04F076EF04F07AEF04F0010E72
:1008EE004B6E7CEF04F0000E4B6E3251D8A482EFAB
:1008FE0004F084EF04F004EF06F030511F0B020AEF
:10090E00D8A48CEF04F08EEF04F004EF06F034510F
:10091E000F0B0009D8B496EF04F098EF04F004EF33
:10092E0006F034510F0B156E030E1560A1EF04F097
:10093E00A3EF04F004EF06F0200E4E18D8A4AAEF91
:10094E0004F0ACEF04F004EF06F00001758F040123
:10095E0034BFB4EF04F0B6EF04F0D3EF04F034512B
:10096E000F0B156E1550020D7E0EF324D96E000E70
:10097E00F420DA6EDECF1AF0DDCF1BF034510F0B00
:10098E00156E166A8A0E1524D96E000E1620DA6EB2
:10099E00DF50196EEEEF04F034510F0B156E15503B
:1009AE00020D780EF324D96E000EF420DA6EDECF2F
:1009BE001AF0DDCF1BF034510F0B156E166A8D0E2B
:1009CE001524D96E000E1620DA6EDF50196E19B08E
:1009DE00F3EF04F0F5EF04F0FDEF04F0FB0E1A1444
:1009EE001A6EFF0E1B141B6E02EF05F0040E1A108A
:1009FE001A6E1B501B6E34BF07EF05F009EF05F0A2
:100A0E001AEF05F034510F0B156E1550020D7E0EB8
:100A1E00F324D96E000EF420DA6E1AC0DEFF1BC06E
:100A2E00DDFF29EF05F034510F0B156E1550020D39
:100A3E00780EF324D96E000EF420DA6E1AC0DEFFA3
:100A4E001BC0DDFF030E3119D8A430EF05F032EFD5
:100A5E0005F06CEF05F01AC0D9FF1BC0DAFFDFAE50
:100A6E003BEF05F03DEF05F05EEF05F034BF42EFD2
:100A7E0005F044EF05F052EF05F034510F0B156EF3
:100A8E00166A8A0E1524D96E000E1620DA6E000133
:100A9E00DF825EEF05F034510F0B156E166A8D0E68
:100AAE001524D96E000E1620DA6E0001DF821AC0F0
:100ABE00D9FF1BC0DAFF000EDB841AC0D9FF1BC0A2
:100ACE00DAFF000EDB8E04EF06F0040E1A181A6E13
:100ADE001B501B6E1AC0D9FF1BC0DAFFDFAE7AEFB8
:100AEE0005F07CEF05F098EF05F01AC0D9FF1BC09A
:100AFE00DAFF7F0EDF161AC0D9FF1BC0DAFF000E19
:100B0E00DB8C000E0E6E050E0D6E1AC00FF01BC0A4
:100B1E0010F0000E126E020E116EB4EC13F09EEF7A
:100B2E0005F01AC0D9FF1BC0DAFF000EDB8C040ED5
:100B3E001A181A6E1B501B6E19B2A8EF05F0AAEF09
:100B4E0005F0B5EF05F01AC0D9FF1BC0DAFFDFAE16
:100B5E00B3EF05F0B5EF05F0EDEF05F0040134BF8E
:100B6E00BBEF05F0BDEF05F0CBEF05F034510F0BE9
:100B7E00156E166A8A0E1524D96E000E1620DA6EC0
:100B8E000001DF92D7EF05F034510F0B156E166A88
:100B9E008D0E1524D96E000E1620DA6E0001DF922E
:100BAE001AC0D9FF1BC0DAFF3B0EDF16000E0E6E09
:100BBE00050E0D6E1AC00FF01BC010F0000E126E57
:100BCE00020E116EB4EC13F0F3EF05F01AC0D9FF5C
:100BDE001BC0DAFF3B0EDF16040134510F0B156EEE
:100BEE00166A6A0E1524176E0F0E1620186E17C091
:100BFE00D9FF18C0DAFFFE0EDF1612004E04D8A47D
:100C0E000BEF06F00DEF06F01AEF06F060BA12EFDA
:100C1E0006F014EF06F01AEF06F0000E656E648013
:100C2E006488020E4E6E65A41FEF06F021EF06F0EB
:100C3E002BEF06F064A426EF06F028EF06F02BEF5C
:100C4E0006F0659403EC15F060A230EF06F032EF7B
:100C5E0006F035EF06F0A49418EF07F065A03AEF12
:100C6E0006F03CEF06F049EF06F064A041EF06F007
:100C7E0043EF06F049EF06F0BCEC0AF0A384040E35
:100C8E004E6E659065A84EEF06F050EF06F059EFE8
:100C9E0006F064A855EF06F057EF06F059EF06F090
:100CAE006EEC15F065AC5EEF06F060EF06F08BEFC4
:100CBE0006F064AC65EF06F067EF06F075EF06F030
:100CCE00000E0E6E730E0D6E000E0F6E000E106E79
:100CDE00000E126E010E116EB4EC13F0659C24EC36
:100CEE0015F04850D8B47EEF06F080EF06F081EF95
:100CFE0006F048064850D8A487EF06F089EF06F0B4
:100D0E008BEF06F016EC11F065AA90EF06F092EF5D
:100D1E0006F09BEF06F064AA97EF06F099EF06F047
:100D2E009BEF06F064EC14F065A2A0EF06F0A2EFC4
:100D3E0006F0B8EF06F064A2A7EF06F0A9EF06F0F2
:100D4E00B8EF06F07F0E0E6E0D68000E0F6E000EE1
:100D5E00106E000E126E010E116EB4EC13F0000E3A
:100D6E00676E040E4E60BEEF06F0C0EF06F0C3EFE6
:100D7E0006F0A49418EF07F064A6C8EF06F0CAEFC9
:100D8E0006F017EF07F0000E1F6E65A6D1EF06F006
:100D9E00D3EF06F017EF07F061CF51F05130E83284
:100DAE00E8320F0B4A6E659651B4E0EF06F0E2EFB3
:100DBE0006F0ECEF06F08A0E4A24D96EDA6A000EBF
:100DCE00DA220001DF70F4EF06F08D0E4A24D96EA0
:100DDE00DA6A000EDA220001DF704A50D8A4FAEF68
:100DEE0006F0FCEF06F000EF07F060EC12F00EEFED
:100DFE0007F0000E0E6E720E0D6E510E0F6E000E7F
:100E0E00106E000E126E000E116EB4EC13F01F2A4F
:100E1E00030E1F6415EF07F017EF07F0CCEF06F087
:100E2E00A4941200A394000190519111D8B422EF12
:100E3E0007F024EF07F032EF07F090C0D9FF91C012
:100E4E00DAFFDFAE2DEF07F02FEF07F032EF07F0EE
:100E5E00A384E4EF07F0030E4218D8A439EF07F08D
:100E6E003BEF07F03DEF07F0000E426E4250D8A464
:100E7E0043EF07F045EF07F048EF07F0A384E4EFE8
:100E8E0007F0020E4218D8A44FEF07F051EF07F00B
:100E9E0064EF07F0010EE86F000EE96F000EEA6FC7
:100EAE00000EEB6F020E04EC0CF0E8C090F0E9C0FF
:100EBE0091F0030E426EE3EF07F04204D8A46AEFFE
:100ECE0007F06CEF07F0E3EF07F0400E956572EF59
:100EDE0007F074EF07F078EF07F0400EF46F7AEF3B
:100EEE0007F095C0F4F0F451955D956F000E846F88
:100EFE00050E856FF4C0F3F09451D8A489EF07F076
:100F0E008BEF07F0B5EF07F09CEF07F087C0D9FF26
:100F1E0088C0DAFF84C0E1FF85C0E2FFDFCFE7FFC4
:100F2E00844B852B874B882BF307F351D8A4A2EF64
:100F3E0007F0A4EF07F08DEF07F0BDEF07F087C0C5
:100F4E00D9FF88C0DAFF84C0E1FF85C0E2FFDFCFA2
:100F5E00E7FF844B852B874B882BF307F351D8A4DF
:100F6E00BBEF07F0BDEF07F0A6EF07F09551D8A441
:100F7E00C3EF07F0C5EF07F0D4EF07F0400EF419FA
:100F8E00D8A4CCEF07F0CEEF07F0D2EF07F0020EA9
:100F9E00426ED4EF07F0030E426E010EE86F000EA4
:100FAE00E96F050EEA6FF4C0EBF0020E04EC0CF0E4
:100FBE00E8C090F0E9C091F0A3841200E8C0F2F00E
:100FCE00E9C0F3F00001EC51ED11D8A4F1EF07F0F8
:100FDE00F3EF07F0F5EF07F0A0EF08F0F2C0D9FF3E
:100FEE00F3C0DAFFEAC0DFFFEC51F225EE6FED51F0
:100FFE00F321EF6FFF0EEE25D96EFF0EEF21DA6EA5
:10100E00EAC0DFFFED5107E1030EEC5DD8B012EF41
:10101E0008F014EF08F016EF08F0A0EF08F020EE3D
:10102E0001F0F251D926F351DA22EAC0DFFF20EEA9
:10103E0002F0F251D926F351DA22EAC0DFFFEC5169
:10104E00F225EE6FED51F321EF6FFE0EEE25D96E08
:10105E00FF0EEF21DA6EEAC0DFFFEC51F225EE6FE4
:10106E00ED51F321EF6FFD0EEE25D96EFF0EEF2140
:10107E00DA6EEAC0DFFFED5107E1070EEC5DD8B086
:10108E004BEF08F04DEF08F04FEF08F0A0EF08F02F
:10109E0020EE03F0F251D926F351DA22EAC0DFFF37
:1010AE00EC51F225EE6FED51F321EF6FFC0EEE25B4
:1010BE00D96EFF0EEF21DA6EEAC0DFFFED5107E1C8
:1010CE00090EEC5DD8B06EEF08F070EF08F072EF1D
:1010DE0008F0A0EF08F0F2C0EEF0F3C0EFF0EE1F54
:1010EE00EF1FEE4BEF2B030EEE15F06FF16BF05181
:1010FE00F227F151F323F051EC5FF151ED5BFC0E51
:10110E00EC17FF0EED1797EF08F0F2C0D9FFF3C002
:10111E00DAFFEAC0DFFFEC07D8A0ED07F24BF32BA6
:10112E00EC51ED11D8A49EEF08F0A0EF08F08CEF73
:10113E0008F0120001C00BF002C00CF005500610B2
:10114E00D8A4ACEF08F0AEEF08F0B0EF08F05BEF0C
:10115E0009F00BC0D9FF0CC0DAFF03C0DFFF05504A
:10116E000B24076E06500C20086EFF0E0724D96E56
:10117E00FF0E0820DA6E03C0DFFF065007E1030EF4
:10118E00055CD8B0CDEF08F0CFEF08F0D1EF08F046
:10119E005BEF09F020EE01F00B50D9260C50DA224D
:1011AE0003C0DFFF20EE02F00B50D9260C50DA22DE
:1011BE0003C0DFFF05500B24076E06500C20086E8F
:1011CE00FE0E0724D96EFF0E0820DA6E03C0DFFF75
:1011DE0005500B24076E06500C20086EFD0E0724DA
:1011EE00D96EFF0E0820DA6E03C0DFFF065007E14E
:1011FE00070E055CD8B006EF09F008EF09F00AEF0C
:10120E0009F05BEF09F020EE03F00B50D9260C50DD
:10121E00DA2203C0DFFF05500B24076E06500C20A8
:10122E00086EFC0E0724D96EFF0E0820DA6E03C07E
:10123E00DFFF065007E1090E055CD8B029EF09F073
:10124E002BEF09F02DEF09F05BEF09F00BC007F063
:10125E000CC008F0071E081E074A082A030E0714C2
:10126E00096E0A6A09500B260A500C220950055EB7
:10127E000A50065AFC0E0516FF0E061652EF09F01E
:10128E000BC0D9FF0CC0DAFF03C0DFFF0506D8A0E4
:10129E0006060B4A0C2A05500610D8A459EF09F081
:1012AE005BEF09F047EF09F01200800E04013019D0
:1012BE00D8A464EF09F066EF09F015EF0AF0C00E3E
:1012CE000001756FFBEF09F0960E0001726F080EAC
:1012DE00736F000E776F120E766F15EF0AF03251A4
:1012EE00D8A47CEF09F07EEF09F0BFEF09F0325180
:1012FE00020D070EF324F66E080EF420F76E0900A9
:10130E00F5CF72F00A00F5CF73F0020E00017225D0
:10131E00016E000E7321026E01C0F6FF02C0F7FFD0
:10132E00F86A070EF76403D00800F55005D0F6CF23
:10133E00E9FFF7CFEAFFEF500001766F030E72253B
:10134E00016E000E7321026E01C0F6FF02C0F7FFA0
:10135E00F86A070EF76403D00800F55005D0F6CFF3
:10136E00E9FFF7CFEAFFEF500001776F15EF0AF0B4
:10137E00000E0001756F15EF0AF0030E3261CAEF11
:10138E0009F0CCEF09F0F1EF09F03251020D010E28
:10139E00F324F66E080EF420F76E0900F5CF72F006
:1013AE000A00F5CF73F072C0F6FF73C0F7FFF86A4C
:1013BE00070EF76403D00800F55005D0F6CFE9FF0D
:1013CE00F7CFEAFFEF50016E01500001766F776B99
:1013DE0015EF0AF0000E0001756F15EF0AF0000E02
:1013EE000001756F15EF0AF004013351016E026AA8
:1013FE000250000AD8B406EF0AF0F6EF09F00150D9
:10140E00010AD8B46BEF09F0030AD8B476EF09F0ED
:10141E00010AD8B4C4EF09F0F6EF09F01200A39454
:10142E00000E676E000E656E000E6A6E6B0E00018A
:10143E00E86F0F0EE96F000EEB6F000EEA6F000EF5
:10144E00ED6F020EEC6FE5EC07F0160E626E9F0E5E
:10145E00666E7B0E646E000E0001F46FF451040D87
:10146E00000EF324D96E040EF420DA6EDE6ADE6A04
:10147E00DE6ADD6AF42B0B0EF46548EF0AF04AEFD4
:10148E000AF035EF0AF0608C000E636E6098609C77
:10149E006596000E756F000E6D6F000E6F6F000E6D
:1014AE006E6F65B65DEF0AF05FEF0AF04FEF0AF070
:1014BE00010E466E010E456E000E446E000E436E1A
:1014CE00000E986F000EF46FF451020D780EF32497
:1014DE00D96E000EF420DA6E000EDE6E000EDD6E9A
:1014EE00F451020D7E0EF324D96E000EF420DA6E46
:1014FE00000EDE6E000EDD6E8D0EF425D96EDA6AEC
:10150E00000EDA22000EDF6E8A0EF425D96EDA6A2C
:10151E00000EDA22000EDF6EF42B020EF4659AEF47
:10152E000AF09CEF0AF06BEF0AF0080E786F040ECB
:10153E00796F160E6A6E040E0401036F300E026F81
:10154E00080E016F040E006F008F000E526E000E1B
:10155E00306E000E316E000E326E000E336E000EC7
:10156E000001976F000E4E6E1200A394000E676E70
:10157E00000E656E000E6A6E6B0E016E0F0E026E21
:10158E00000E046E000E036E000E066E020E056E49
:10159E00A1EC08F0160E626E9F0E666E7B0E646EE8
:1015AE00000E0D6E0D50040D000EF324D96E040EB8
:1015BE00F420DA6EDE6ADE6ADE6ADD6A0D2A0B0E52
:1015CE000D64ECEF0AF0EEEF0AF0D9EF0AF0608C42
:1015DE00000E636E6098609C6596000E0001756F3C
:1015EE00000E6D6F000E6F6F000E6E6F65B602EF20
:1015FE000BF004EF0BF0F3EF0AF0010E466E010E46
:10160E00456E000E446E000E436E000E986F000E77
:10161E000D6E0D50020D780EF324D96E000EF420CF
:10162E00DA6E000EDE6E000EDD6E0D50020D7E0EB9
:10163E00F324D96E000EF420DA6E000EDE6E000E6C
:10164E00DD6E8D0E0D24D96EDA6A000EDA22000ED2
:10165E00DF6E8A0E0D24D96EDA6A000EDA22000EC3
:10166E00DF6E0D2A020E0D643FEF0BF041EF0BF013
:10167E0010EF0BF0080E0001786F040E796F160E46
:10168E006A6E040E0401036F300E026F080E016FB6
:10169E00040E006F008F000E526E000E306E000EA4
:1016AE00316E000E326E000E336E000E0001976F1B
:1016BE00000E4E6E120020EE01F03E50D9263F5025
:1016CE00DA22DF50026E025000016E5D000E6F597D
:1016DE00D8B074EF0BF076EF0BF078EF0BF06EC026
:1016EE0002F002506E5F000E6F5B000E016E8FEF08
:1016FE000BF0380E0124D96EDA6A040EDA226AC0B3
:10170E00E1FF6BC0E2FFDFCFE7FF6A4B6B2B012AD5
:10171E000250015CD8A096EF0BF098EF0BF080EF23
:10172E000BF06E516F11D8B49FEF0BF0A1EF0BF0D1
:10173E00DAEF0BF020EE01F03C50D9263D50DA22C4
:10174E00080EDF6E20EE02F03C50D9263D50DA2214
:10175E00380EDE6E040EDD6E3EC0D9FF3FC0DAFFDE
:10176E00DFBCBCEF0BF0BEEF0BF0CCEF0BF03CC0D0
:10177E00D9FF3DC0DAFF480EDF6E3CC0D9FF3DC039
:10178E00DAFF000EDB8E03EF0CF03CC0D9FF3DC03C
:10179E00DAFF080EDF6E3CC0D9FF3DC0DAFF000E47
:1017AE00DB8E03EF0CF020EE01F03C50D9263D50BD
:1017BE00DA22080EDF6E20EE02F03C50D9263D50A4
:1017CE00DA22300EDE6E040EDD6E3CC0D9FF3DC057
:1017DE00DAFF040EDF6E3CC0D9FF3DC0DAFF000E0B
:1017EE00DB8E6D9F4750D8A4FFEF0BF001EF0CF08E
:1017FE0003EF0CF016EC11F012000001F06F000177
:10180E00E851D8B40DEF0CF00FEF0CF01DEF0CF00B
:10181E00F051020D780EF324D96E000EF420DA6E1C
:10182E00DECFF1F0DDCFF2F029EF0CF0F051020D2A
:10183E007E0EF324D96E000EF420DA6EDECFF1F0B8
:10184E00DDCFF2F0F151F211D8A430EF0CF032EFFF
:10185E000CF038EF0CF0000EE86F000EE96FA4EFFD
:10186E000CF020EE02F0F151D926F251DA22E9C045
:10187E00DEFFEAC0DDFF20EE01F0F151D926F25174
:10188E00DA22EBC0DFFFF1C0D9FFF2C0DAFF400E63
:10189E00DF16F1C0D9FFF2C0DAFF000EDB86F1C011
:1018AE00D9FFF2C0DAFF000EDB8EE851D8B462EF3A
:1018BE000CF064EF0CF083EF0CF0F051020D780E8B
:1018CE00F324D96E000EF420DA6EDECFECF0DDCF0D
:1018DE00EDF0040EEC19EE6FED51EF6FF051020DBD
:1018EE00780EF324D96E000EF420DA6EEEC0DEFF11
:1018FE00EFC0DDFFA0EF0CF0F051020D7E0EF324D1
:10190E00D96E000EF420DA6EDECFECF0DDCFEDF006
:10191E00040EEC19EE6FED51EF6FF051020D7E0ECD
:10192E00F324D96E000EF420DA6EEEC0DEFFEFC0A7
:10193E00DDFFF1C0E8F0F2C0E9F01200609800019E
:10194E0075BFACEF0CF0AEEF0CF0F3EF0CF06DAF2B
:10195E00B3EF0CF0B5EF0CF0C7EF0CF0020E4C6EBF
:10196E004350D8A4BDEF0CF0BFEF0CF0C1EF0CF05C
:10197E00BCEC12F0000E456E000E466E45EF0DF0FB
:10198E0020EE01F03C50D9263D50DA22080EDF6ED3
:10199E0020EE02F03C50D9263D50DA22300EDE6E9B
:1019AE00040EDD6E3CC0D9FF3DC0DAFF0C0EDF6EBB
:1019BE003CC0D9FF3DC0DAFF000EDB8E78C0D9FFE8
:1019CE0079C0DAFF040EDF6E78C0D9FF79C0DAFF76
:1019DE00000EDB8E45EF0DF0040130AFF9EF0CF089
:1019EE00FBEF0CF017EF0DF0010E4C6E4450D8A427
:1019FE0003EF0DF005EF0DF007EF0DF0BCEC12F05C
:101A0E00000E456E000E466E4750D8A411EF0DF035
:101A1E0013EF0DF045EF0DF016EC11F045EF0DF054
:101A2E00020E4C6E20EE01F03C50D9263D50DA22CB
:101A3E00080EDF6E20EE02F03C50D9263D50DA2221
:101A4E00300EDE6E040EDD6E3CC0D9FF3DC0DAFFF7
:101A5E00040EDF6E3CC0D9FF3DC0DAFF000EDB8EF8
:101A6E00000E456E000E466E4750D8A441EF0DF0A5
:101A7E0043EF0DF045EF0DF013EF0DF01200096E70
:101A8E000150D8B44DEF0DF04FEF0DF05DEF0DF0AE
:101A9E000950020D780EF324D96E000EF420DA6E82
:101AAE00DECF0AF0DDCF0BF069EF0DF00950020D1D
:101ABE007E0EF324D96E000EF420DA6EDECF0AF01D
:101ACE00DDCF0BF00A500B10D8A470EF0DF072EFB3
:101ADE000DF078EF0DF0000E016E000E026EE4EFC9
:101AEE000DF020EE02F00A50D9260B50DA2202C079
:101AFE00DEFF03C0DDFF20EE01F00A50D9260B50A9
:101B0E00DA2204C0DFFF0AC0D9FF0BC0DAFF400E95
:101B1E00DF160AC0D9FF0BC0DAFF000EDB860AC043
:101B2E00D9FF0BC0DAFF000EDB8E0150D8B4A2EF46
:101B3E000DF0A4EF0DF0C3EF0DF00950020D780E6D
:101B4E00F324D96E000EF420DA6EDECF05F0DDCF71
:101B5E0006F0040E0518076E0650086E0950020DA9
:101B6E00780EF324D96E000EF420DA6E07C0DEFF75
:101B7E0008C0DDFFE0EF0DF00950020D7E0EF324DC
:101B8E00D96E000EF420DA6EDECF05F0DDCF06F052
:101B9E00040E0518076E0650086E0950020D7E0ED3
:101BAE00F324D96E000EF420DA6E07C0DEFF08C0F3
:101BBE00DDFF0AC001F00BC002F012000401303943
:101BCE00E832030B0009D8B4EFEF0DF0F1EF0DF092
:101BDE003EEF0EF077EF0EF00001758F080E4E6E91
:101BEE0077EF0EF05CEC09F077EF0EF08FEC11F062
:101BFE0077EF0EF0520E0001726F000E736F75814B
:101C0E00010E766F758F77EF0EF000EC0FF077EF19
:101C1E000EF057EC04F077EF0EF04F0E3425000166
:101C2E00726F736B000E73237581010E766F758F55
:101C3E0077EF0EF00001758F4F0E04013425D96E2B
:101C4E00DA6A000EDA2232C4DFFF77EF0EF0000EF2
:101C5E000E6E020E0D6E000E0F6E000E106E000E4A
:101C6E00126E000E116EB4EC13F077EF0EF03151D0
:101C7E001C6E1D6A1D50000AD8B448EF0EF077EFA7
:101C8E000EF01C50000AD8B40CEF0EF0010AD8B4B6
:101C9E0010EF0EF0020AD8B410EF0EF0060AD8B408
:101CAE00F3EF0DF0030AD8B4F9EF0DF0010AD8B432
:101CBE002EEF0EF00F0AD8B401EF0EF0010AD8B4D1
:101CCE00FDEF0DF0030AD8B414EF0EF0010AD8B4EC
:101CDE0021EF0EF0070AD8B477EF0EF077EF0EF083
:101CEE001200080E016E0001775107E1080E765DB5
:101CFE00D8B084EF0EF086EF0EF09EEF0EF076C0A9
:101D0E0001F04D50D8A48EEF0EF090EF0EF094EF40
:101D1E000EF0010E4D6E9EEF0EF04D04D8A49AEF0C
:101D2E000EF09CEF0EF09EEF0EF0020E4D6E015077
:101D3E00765F000E775B20EE01F07851D92679514F
:101D4E00DA2201C0DFFF380E3A6E040E3B6E75B11B
:101D5E00B3EF0EF0B5EF0EF0F7EF0EF0D2EF0EF090
:101D6E0072C0F6FF73C0F7FFF86A3AC0D9FF3BC0E6
:101D7E00DAFF070EF76403D00800F55005D0F6CF52
:101D8E00E9FFF7CFEAFFEF50DF6E0001724B732BC6
:101D9E003A4A3B2A01060150D8A4D8EF0EF0DAEFEA
:101DAE000EF0B7EF0EF0FFEF0EF072C0F6FF73C03D
:101DBE00F7FFF86A3AC0D9FF3BC0DAFF070EF764A7
:101DCE0003D00800F55005D0F6CFE9FFF7CFEAFFB4
:101DDE00EF50DF6E0001724B732B3A4A3B2A01061D
:101DEE000150D8A4FDEF0EF0FFEF0EF0DCEF0EF079
:101DFE001200000E0401386F000E396F5DEF0FF008
:101E0E000001758F4B04D8A40FEF0FF011EF0FF0F8
:101E1E0077EF0FF00401388377EF0FF00001758F25
:101E2E0077EF0FF00001758F040134BF21EF0FF033
:101E3E0023EF0FF034EF0FF034510F0B016E015002
:101E4E00020D7E0EF324D96E000EF420DA6EDECF74
:101E5E0003F0DDCF04F043EF0FF034510F0B016EA2
:101E6E000150020D780EF324D96E000EF420DA6EB6
:101E7E00DECF03F0DDCF04F003C0D9FF04C0DAFFDC
:101E8E00DFAE4CEF0FF04EEF0FF077EF0FF003C019
:101E9E00D9FF04C0DAFFDFA457EF0FF059EF0FF0B0
:101EAE0077EF0FF0010E386F77EF0FF030511F0BF9
:101EBE00016E026A0250000AD8B468EF0FF077EF95
:101ECE000FF00150000AD8B407EF0FF0010AD8B492
:101EDE0015EF0FF0030AD8B419EF0FF077EF0FF0EC
:101EEE00000175AF7DEF0FF07FEF0FF086EF0FF073
:101EFE00380E726F040E736F7581020E766F1200BC
:101F0E00040130511F0BE806D8B490EF0FF092EF9A
:101F1E000FF094EF0FF00CEF10F03039E832030BA6
:101F2E00E806D8B49DEF0FF09FEF0FF0A1EF0FF082
:101F3E000CEF10F03451D8B4A7EF0FF0A9EF0FF05B
:101F4E00EBEF0FF03405D8B4AFEF0FF0B1EF0FF0A9
:101F5E00EBEF0FF00CEF10F0D90E0001726F000EC8
:101F6E00736F000E776F080E766F7581758F0CEF9D
:101F7E0010F0D90E0001726F000E736F758F0CEF9B
:101F8E0010F036C46EF037C46FF0E10E00016A6FC8
:101F9E00000E6B6F000E706F000E716F6D8F0CEF79
:101FAE0010F0E10E0001726F000E736F000E776F6E
:101FBE00070E766FC10E756F0CEF10F032C441F044
:101FCE000001758F0CEF10F03151016E026A025054
:101FDE00000AD8B4F5EF0FF00CEF10F00150000A24
:101FEE00D8B4B3EF0FF0010AD8B4C0EF0FF0210A46
:101FFE00D8B4C8EF0FF0010AD8B4D8EF0FF0030A27
:10200E00D8B4E5EF0FF00CEF10F0120078C0D9FF46
:10201E0079C0DAFF0001000EDFBC010E026E040E65
:10202E007819786F7951796F080E4E18D8A422EF6F
:10203E0010F024EF10F036EF10F0040132517F0B48
:10204E00636E6350D8B42EEF10F030EF10F034EF13
:10205E0010F0100E4E6E36EF10F0040E4E6E4C0455
:10206E00D8A43CEF10F03EEF10F086EF10F0000118
:10207E0020EE02F07851D9267951DA22380EDE6E32
:10208E00040EDD6E78EC0EF0020E4D18D8A452EF51
:10209E0010F054EF10F062EF10F078C0D9FF79C055
:1020AE00DAFF040EDF6E78C0D9FF79C0DAFF000EBA
:1020BE00DB8E91EF10F00250D8A468EF10F06AEFAB
:1020CE0010F078EF10F078C0D9FF79C0DAFF480E23
:1020DE00DF6E78C0D9FF79C0DAFF000EDB8E91EF8C
:1020EE0010F078C0D9FF79C0DAFF080EDF6E78C025
:1020FE00D9FF79C0DAFF000EDB8E91EF10F00001F0
:10210E006DAF8CEF10F08EEF10F08FEF10F06D9F23
:10211E00000E4C6E1200200E4E6098EF10F09AEFEB
:10212E0010F09CEF10F015EF11F060A2A1EF10F07F
:10213E00A3EF10F0A5EF10F015EF11F04250D8A458
:10214E00ABEF10F0ADEF10F013EF11F0990E0001A0
:10215E00F36F000EF46F400EF56F04EC12F00001F9
:10216E00F96F000EFA6FFAEF10F0990EFA25D96E8C
:10217E00DA6A000EDA22000EFA25E16EE26A010E2C
:10218E00E222DFCFE7FFF9EF10F0000EFA25D96E4D
:10219E00DA6A010EDA22990EFA25E16EE26A000E73
:1021AE00E222E750F76FF729DF6EF9EF10F0990E84
:1021BE00FA25D96EDA6A000EDA22DF50F76FF86B65
:1021CE00F851000AD8B4EEEF10F0CCEF10F0F75142
:1021DE000A0AD8B4BCEF10F0070AD8B4BCEF10F05E
:1021EE00CCEF10F0FA2BF951FA5DD8A001EF11F0F7
:1021FE0003EF11F0DEEF10F0F951D8B409EF11F042
:10220E000BEF11F013EF11F0000EE86F010EE96FF6
:10221E00F9C0EAF085EC15F019EC07F01200465003
:10222E00D8A41CEF11F01EEF11F08EEF11F0010E7D
:10223E00466E4550D8A426EF11F028EF11F08EEF20
:10224E0011F0010E456E020E4C18D8A431EF11F0AC
:10225E0033EF11F04AEF11F0000120EE01F078514A
:10226E00D9267951DA22000EDF6E78C0D9FF79C0F7
:10227E00DAFF480EDF6E78C0D9FF79C0DAFF000EA4
:10228E00DB8E8EEF11F04C04D8A450EF11F052EF0C
:10229E0011F08EEF11F0000E496E20EE01F03E505F
:1022AE00D9263F50DA22080EDF6E20EE02F03E50A5
:1022BE00D9263F50DA22300EDE6E040EDD6E3EC0A1
:1022CE00D9FF3FC0DAFF040EDF6E3EC0D9FF3FC01C
:1022DE00DAFF000EDB8E010E496E20EE01F03C504F
:1022EE00D9263D50DA22080EDF6E20EE02F03C5069
:1022FE00D9263D50DA22300EDE6E040EDD6E3CC065
:10230E00D9FF3DC0DAFF800EDF6E8EEF11F01200A6
:10231E000001758F6B0E016E0F0E026E000E046EB5
:10232E00000E036E000E066E020E056EA1EC08F096
:10233E00000E016E040E026E000E046E000E036E91
:10234E00000E066E300E056EA1EC08F0608C000ECD
:10235E00156E8D0E1524D96EDA6A000EDA22000E75
:10236E00DF6E8A0E1524D96EDA6A000EDA22000E9E
:10237E00DF6E152A020E1564C7EF11F0C9EF11F0CA
:10238E00B0EF11F04F0E016E000E026E000E046ED5
:10239E00000E036E000E066E020E056EA1EC08F026
:1023AE00609C080E0001786F040E796F000E3E6E71
:1023BE00040E3F6E3EC03CF03FC03DF032C452F0C2
:1023CE005250D8A4EDEF11F0EFEF11F0F3EF11F042
:1023DE00100E4E6E03EF12F0000E0E6E010E0D6E0D
:1023EE00520E0F6E000E106E000E126E010E116E5A
:1023FE00B4EC13F0200E4E6E1200000E0001966F1C
:10240E0092519311D8B40EEF12F010EF12F01BEFA1
:10241E0012F092C0D9FF93C0DAFFDFBE19EF12F0AF
:10242E001BEF12F05DEF12F020EE01F09251D92663
:10243E009351DA22F551DE5CD8B028EF12F02AEF74
:10244E0012F032EF12F020EE01F09251D926935194
:10245E00DA22DF50F56F000E966F45EF12F0400E48
:10246E009625D96EDA6A050EDA229651F325E16EBB
:10247E00000EF421E26EDFCFE7FF962BF551965D4D
:10248E00D8A04CEF12F04EEF12F036EF12F0000E15
:10249E00E86F400EE96F050EEA6F400EEB6F020E0D
:1024AE0004EC0CF0E8C092F0E9C093F000019651F4
:1024BE0012002D0E486E51C01EF0FD0E1E16D8A431
:1024CE006BEF12F06DEF12F0AFEF12F051C01EF085
:1024DE00D8901E323F0E1E161E50040D000EF32411
:1024EE003E6E040EF4203F6E3EC03CF03FC03DF009
:1024FE00040E3C183C6E3D503D6E3EC0D9FF3FC0B1
:10250E00DAFFDF30E8320F0B0D0AD8A491EF12F08C
:10251E0093EF12F0ABEF12F0300E016E040E026E5E
:10252E0020EE02F03E50D9263F50DA22DECF03F0E5
:10253E00DDCF04F0000E066E080E056E94EC14F05E
:10254E006CEC13F0BBEF12F0F8EC13F0BBEF12F0E3
:10255E005150FD0B040AD8A4B7EF12F0B9EF12F0E8
:10256E00BBEF12F00DEC10F01200000E446E000ED8
:10257E00436E020E4C18D8A4C7EF12F0C9EF12F03A
:10258E00E9EF12F020EE01F03C50D9263D50DA2250
:10259E00080EDF6E20EE02F03C50D9263D50DA22B6
:1025AE00380EDE6E040EDD6E3CC0D9FF3DC0DAFF84
:1025BE00480EDF6E3CC0D9FF3DC0DAFF000EDB8E49
:1025CE0015EF13F0000176510401365D00017751CD
:1025DE0004013759D8B0F6EF12F0F8EF12F0FCEF15
:1025EE0012F036C476F037C477F078EC0EF00001B6
:1025FE0020EE02F07851D9267951DA22380EDE6EAD
:10260E00040EDD6E78C0D9FF79C0DAFF480EDF6E9A
:10261E0078C0D9FF79C0DAFF000EDB8E1200066E8D
:10262E00000E076E040E086E0150026E036AD890FB
:10263E00023603360650046E056AD8900436053607
:10264E00D890043605360250042603500522D89041
:10265E0004360536D8900436053604500726055044
:10266E00082207C0D9FF08C0DAFFDF9E0150D8A4A8
:10267E0043EF13F045EF13F053EF13F00650020D36
:10268E007E0EF324D96E000EF420DA6E07C0DEFF44
:10269E0008C0DDFF5FEF13F00650020D780EF32435
:1026AE00D96E000EF420DA6E07C0DEFF08C0DDFF23
:1026BE0007C0D9FF08C0DAFFDF9C20EE04F00750F8
:1026CE00D9260850DA22DF8C1200000E4D6E000E55
:1026DE00476E000E446E000E436E000E496E000EE5
:1026EE004C6E78C0D9FF79C0DAFF7F0EDF16040E6C
:1026FE0000017819786F7951796F78C0D9FF79C058
:10270E00DAFF7F0EDF16040E7819786F7951796F24
:10271E003CC0D9FF3DC0DAFF7F0EDF16000E756F8D
:10272E00000E776F000E766F000E6D6F000E6F6FDE
:10273E00000E6E6FE5EC0DF0000E0E6E030E0D6EBC
:10274E00000E0F6E000E106E000E126E000E116E49
:10275E00B4EC13F0A5EC0CF01200BEEF13F032EC5B
:10276E0014F0F7EF13F087EC0FF0F7EF13F00DC046
:10277E0013F00EC014F01450000AD8B4CDEF13F0BD
:10278E007F0AD8B4F0EF13F0F7EF13F01350010AED
:10279E00D8B4B6EF13F0030AD8B4F7EF13F0010A6A
:1027AE00D8B4BAEF13F0060AD8B4F7EF13F0770ADD
:1027BE00D8B4F7EF13F0010AD8B4F7EF13F0070A05
:1027CE00D8B4F7EF13F0010AD8B4F7EF13F0F7EF20
:1027DE0013F01350FF0AD8B4F7EF13F0F7EF13F01E
:1027EE001200020E4C18D8A4FFEF13F001EF14F0F4
:1027FE0005EF14F062EC0BF031EF14F0000E4C6E9E
:10280E004950D8A40DEF14F00FEF14F02FEF14F081
:10281E0020EE01F03C50D9263D50DA22080EDF6E34
:10282E0020EE02F03C50D9263D50DA22300EDE6EFC
:10283E00040EDD6E3CC0D9FF3DC0DAFF0C0EDF6E1C
:10284E003CC0D9FF3DC0DAFF000EDB8E31EF14F035
:10285E00000E496E1200000E0001E16F4B0EE26F8A
:10286E00000EE36F000EE46F000EE56F000EE66FD4
:10287E00080EE76F000E966F1A0E096E010EBCEC75
:10288E0014F01E0E096E020EBCEC14F0000E016E5A
:10289E00400E026E050E036E400E046E020E46ECE6
:1028AE000DF001C092F002C093F0000E0001906F87
:1028BE00000E916F000E426E12006AA069EF14F0C6
:1028CE006BEF14F092EF14F03EC0D9FF3FC0DAFF69
:1028DE00800EDE18D8A476EF14F078EF14F091EF96
:1028EE0014F078C0D9FF79C0DAFF840EDE18D8A4B0
:1028FE0083EF14F085EF14F091EF14F03EC0D9FF82
:10290E003FC0DAFF0C0EDF6E3EC0D9FF3FC0DAFFCC
:10291E00000EDB8E6A90659A120003C009F004C0A7
:10292E000AF001C007F002C008F0AEEF14F009C0C3
:10293E00D9FF0AC0DAFFDF500B6E094A0A2A07C018
:10294E00D9FF08C0DAFF0BC0DFFF074A082A0506C9
:10295E00D8A00606052806E10628D8A4B9EF14F07B
:10296E00BBEF14F09EEF14F012000C6E09A4C2EF30
:10297E0014F0C4EF14F0C9EF14F0000E016E0C50F9
:10298E0016EC13F009A2CEEF14F0D0EF14F0D5EF41
:10299E0014F0010E016E0C5016EC13F06A0E0C249E
:1029AE000A6E0B6A0F0E0B220AC0D9FF0BC0DAFF9C
:1029BE0009C0DFFF12004E50D8A4E8EF14F0EAEF82
:1029CE0014F002EF15F0000E606E000E646E160E1F
:1029DE00626E9F0E666E7B0E646EA584A384F9EF05
:1029EE0014F0608660A6FEEF14F000EF15F0F8EF1D
:1029FE0014F0010E4E6E1200000E0001986F000EC4
:102A0E000E6E740E0D6E000E0F6E000E106E000E1A
:102A1E00126E000E116EB4EC13F06092649419EF06
:102A2E0015F0659465B41EEF15F020EF15F018EF54
:102A3E0015F0000E0001976F1200010E3026000EE9
:102A4E0031223222332200019851D8A431EF15F0F1
:102A5E0033EF15F03DEF15F0972B9751D8A43AEFC1
:102A6E0015F03CEF15F03DEF15F09769120001EEF1
:102A7E0000F0400EEE6AE806FDE100EE60F0880E12
:102A8E00EE6AE806FDE100EE2CF0270EEE6AE8068F
:102A9E00FDE153905392000EF86E0001E7EF15F032
:102AAE000AEC16F09BEC15F0B0EC15F0FAEC15F004
:102ABE0016EC0AF0DCEC15F0C0EC15F003EC16F099
:102ACE00CEEC15F0F1EC15F0E2EC14F0120064848B
:102ADE0065986082010E0001986F000E976F000ED0
:102AEE000E6E750E0D6E000E0F6E000E106E000E39
:102AFE00126E000E116EB4EC13F01200A39442503D
:102B0E00D8A48CEF15F08EEF15F099EF15F0E8C004
:102B1E0087F0E9C088F0EAC095F0010E0001946FCD
:102B2E00010E426EA3841200000E896E000E8A6E94
:102B3E00000E8B6E92689368C70E946EC40E0F01D2
:102B4E005D6F3F0E5C6F2F0E5B6F000E856EF18E0C
:102B5E001200700ED36E000ED26E800E9B6E000EA3
:102B6E00B56ED2AEBDEF15F0BFEF15F0B8EF15F0A4
:102B7E001200000EB46E000EB36E000EB26EB2CF27
:102B8E0038F0B3CF39F0A192010EB16E1200000EE3
:102B9E00CC6E000ECF6E000ECE6ECECF36F0CFCFF7
:102BAE0037F09E90010ECD6E1200000EC16E060E15
:102BBE00C06E000EC36E000EC46E010EC26E120009
:102BCE0057EC15F0F28EF28C92EC10F0EBEF15F054
:102BDE004EEF00F0000ED76E000ED66E000E406E59
:102BEE00F294D5681200040E976E000E906E000ED1
:102BFE00916E0F0159971200BB68000EBC6E9E922B
:0A2C0E00040EBA6E1200D09E1200F0
:020000040020DA
:08000000FFFFFFFFFFFFFFFF00
:020000040030CA
:0E00000023285F3CFFD385FF0FC00FE00F40A9
:00000001FF
