:040000008EEF00F08F
:100008005982FACF20F0FBCF21F0E9CF22F0EACFD6
:1000180023F0E1CF24F0E2CF25F0D9CF26F0DACFD4
:1000280027F0F3CF28F0F4CF29F0F6CF2AF0F7CF56
:100038002BF0F8CF2CF0F5CF2DF0F2AA26EF00F038
:1000480028EF00F033EF00F0F2A42DEF00F02FEFCF
:1000580000F033EF00F004EC25F070EF00F0F2ACA4
:1000680038EF00F03AEF00F070EF00F0A3A43FEF94
:1000780000F041EF00F04CEF00F0A4A446EF00F0D0
:1000880048EF00F04CEF00F0A6EC0BF070EF00F03A
:10009800A0A251EF00F053EF00F05EEF00F0A1A234
:1000A80058EF00F05AEF00F05EEF00F0AAEC24F0F1
:1000B80070EF00F09DA263EF00F065EF00F070EFC5
:1000C80000F09EA26AEF00F06CEF00F070EF00F015
:1000D80056EC25F070EF00F02DC0F5FF2CC0F8FFAE
:1000E8002BC0F7FF2AC0F6FF29C0F4FF28C0F3FF92
:1000F80027C0DAFF26C0D9FF25C0E2FF24C0E1FFF0
:1001080023C0EAFF22C0E9FF21C0FBFF20C0FAFF9D
:08011800599211007CEF20F068
:1008000000A8084C088008090809024300020100FA
:10081000C032090400000102020100052400100199
:100820000424020205240600010524010001070535
:1008300081030A000209040100020A000000070502
:1008400002024000000705820240000034034D0010
:100850006900630072006F00630068006900700047
:10086000200054006500630068006E006F006C009B
:100870006F0067007900200049006E0063002E00C1
:10088000160342006F00620069006E0061006400A0
:100890006F00720061001201000202000008D8041B
:1008A0000A000001010200010403090425732573F5
:1008B000585825640A00494E46494E495459006922
:1008C0006E66696E6974790025732573004E414E1A
:1008D00000696E66006E616E006C6C73000004014E
:1008E0003205D8A476EF04F078EF04F094EF04F02A
:1008F00030511F0B0009D8A480EF04F082EF04F000
:1009000094EF04F00001EE8F030E04013119D8A416
:100910008CEF04F08EEF04F092EF04F0010E536EB2
:1009200094EF04F0000E536E3251D8A49AEF04F005
:100930009CEF04F018EF06F030511F0B020AD8A408
:10094000A4EF04F0A6EF04F018EF06F034510F0BFB
:100950000009D8B4AEEF04F0B0EF04F018EF06F0E1
:1009600034510F0B156E030E1560B9EF04F0BBEF99
:1009700004F018EF06F0200E5618D8A4C2EF04F0C9
:10098000C4EF04F018EF06F00001EE8F040134BF4D
:10099000CCEF04F0CEEF04F0EBEF04F034510F0B8A
:1009A000156E1550020DC80EF324D96E010EF420F9
:1009B000DA6EDECF1AF0DDCF1BF034510F0B156E5F
:1009C000166A2E0E1524D96E000E1620DA6EDF5030
:1009D000196E06EF05F034510F0B156E1550020D10
:1009E000F10EF324D96E000EF420DA6EDECF1AF089
:1009F000DDCF1BF034510F0B156E166A310E152426
:100A0000D96E000E1620DA6EDF50196E19B00BEF9A
:100A100005F00DEF05F015EF05F0FB0E1A141A6E38
:100A2000FF0E1B141B6E1AEF05F0040E1A101A6E3F
:100A30001B501B6E34BF1FEF05F021EF05F032EFA6
:100A400005F034510F0B156E1550020DC80EF3242E
:100A5000D96E010EF420DA6E1AC0DEFF1BC0DDFF76
:100A600041EF05F034510F0B156E1550020DF10ECC
:100A7000F324D96E000EF420DA6E1AC0DEFF1BC01C
:100A8000DDFF030E3119D8A448EF05F04AEF05F059
:100A900082EF05F01AC0D9FF1BC0DAFFDFAE53EFBB
:100AA00005F055EF05F074EF05F034BF5AEF05F08F
:100AB0005CEF05F069EF05F034510F0B156E166A07
:100AC0002E0E1524D96E000E1620DA6EDF8274EF1A
:100AD00005F034510F0B156E166A310E1524D96EC0
:100AE000000E1620DA6EDF821AC0D9FF1BC0DAFFB3
:100AF000000EDB841AC0D9FF1BC0DAFF000EDB8EAC
:100B000018EF06F0040E1A181A6E1B501B6E1AC04E
:100B1000D9FF1BC0DAFFDFAE90EF05F092EF05F0D2
:100B2000AEEF05F01AC0D9FF1BC0DAFF7F0EDF164B
:100B30001AC0D9FF1BC0DAFF000EDB8C000E0E6E50
:100B4000050E0D6E1AC00FF01BC010F0000E126ED5
:100B5000020E116E66EC21F0B4EF05F01AC0D9FF59
:100B60001BC0DAFF000EDB8C040E1A181A6E1B5025
:100B70001B6E19B2BEEF05F0C0EF05F0CBEF05F02C
:100B80001AC0D9FF1BC0DAFFDFAEC9EF05F0CBEF0B
:100B900005F001EF06F0040134BFD1EF05F0D3EF0B
:100BA00005F0E0EF05F034510F0B156E166A2E0EAE
:100BB0001524D96E000E1620DA6EDF92EBEF05F0E9
:100BC00034510F0B156E166A310E1524D96E000EB6
:100BD0001620DA6EDF921AC0D9FF1BC0DAFF3B0E77
:100BE000DF16000E0E6E050E0D6E1AC00FF01BC044
:100BF00010F0000E126E020E116E66EC21F007EF7F
:100C000006F01AC0D9FF1BC0DAFF3B0EDF16040145
:100C100034510F0B156E166A6A0E1524176E0F0EDF
:100C20001620186E17C0D9FF18C0DAFFFE0EDF16A7
:100C30001200EFC2D8F0F0C2D9F0000E0001DB6F55
:100C4000000EDA6F20EE04F0D251D926D351DA2209
:100C5000010EDBBE38EF06F0010EDB5007E1050E9A
:100C6000DE5CD8B036EF06F038EF06F09FEF07F005
:100C70006CEC24F002011651D8B441EF06F043EFBA
:100C800006F09FEF07F0000E0001606F010E616F2C
:100C9000000E636F000E626F000E656FC80E646F0A
:100CA00019EC0FF0A40E0001606F020E616F000ED0
:100CB000636F000E626F000E656F3C0E646F19EC7F
:100CC0000FF0000E0001DD6F000EDC6F000EDC2562
:100CD000D96E060EDD21DA6E000EDF6EDC4BDD2BE9
:100CE000DD5109E1C80EDC5DD8A079EF06F07BEF9D
:100CF00006F066EF06F0FF0E02011625D96EDA6ADD
:100D0000060EDA220A0EDE18D8B489EF06F08BEF51
:100D100006F092EF06F0000E0001DB6F010EDA6FB5
:100D200097EF06F0000E0001DB6F000EDA6F000E89
:100D30006C6F070E6D6FD80E6E6F000E6F6F38EC14
:100D40001CF06CC0A4F26DC0A5F2770E0001BB6F61
:100D5000020EBC6FC80EBD6F080EBE6F770EBF6F60
:100D6000020EC06FA4C2C1F0A5C2C2F024EC23F0F1
:100D7000D2C080F0D3C081F0770E0001826F020EE6
:100D8000836F770E606F020E616FE7EC24F060C036
:100D900084F061C085F0FFEC15F0000E00016C6F6F
:100DA000000E6D6FD80E6E6F000E6F6F38EC1CF07A
:100DB0006CC0A6F26DC0A7F2000E0001E16F010E3B
:100DC000E06F64EF07F0000E6C6F000E6D6FD80ED1
:100DD0006E6F000E6F6F38EC1CF0E0C0D4F0E1C015
:100DE000D5F0D8900001D437D537020ED427000EA5
:100DF000D523A40ED425D96E020ED521DA6E6CC08F
:100E0000DEFF6DC0DDFFE0C0D4F0E1C0D5F0D890CA
:100E1000D437D537020ED427000ED523A40ED425FF
:100E2000D96E020ED521DA6EDE50DE10D8A41BEF8B
:100E300007F01DEF07F026EF07F0DA51DB11D8A419
:100E400024EF07F026EF07F04EEF07F0D2C080F056
:100E5000D3C081F0D890E035D96EE135DA6EA40EBA
:100E6000D926020EDA22DECF82F0DDCF83F0D890D1
:100E7000E035D96EE135DA6EA40ED926020EDA22FB
:100E8000DECF60F0DDCF61F0E7EC24F060C084F0ED
:100E900061C085F0FFEC15F061EF07F0770E606F31
:100EA000020E616FD890E035D96EE135DA6EA40E8E
:100EB000D926020EDA22DECF62F0DDCF63F04CECF1
:100EC00024F00001E04BE12BD890E035D96EE135FC
:100ED000DA6EA40ED926020EDA22DE50DE10D8A475
:100EE00074EF07F076EF07F0E3EF06F0DA51DB116D
:100EF000D8A47DEF07F07FEF07F082EF07F0000E38
:100F00000201776F000E0201166F000E0001DF6F05
:100F1000000EDE6F000EDE25D96E070EDF21DA6EC1
:100F2000000EDF6EDE4BDF2BDF5109E1C80EDE5D08
:100F3000D8A09DEF07F09FEF07F08AEF07F01200AF
:100F40007DC095F07EC096F07FC097F080C098F08D
:100F500081C099F082C09AF083C09BF084C09CF05D
:100F600000019CBFB6EF07F0B9EF07F0010EBAEF32
:100F700007F0000E936F946B93519411D8B4C3EFA4
:100F800007F0C5EF07F0D5EF07F09C1F9B1F9A1FD6
:100F9000991F981F971F961F956D000E96239723F4
:100FA000982399239A239B239C2335BEDAEF07F0DD
:100FB000DCEF07F0DDEF07F0F79335BEEAEF07F05F
:100FC000355006E13404D8B0E8EF07F0EAEF07F057
:100FD000F0EF07F0000E906F010E8F6FF4EF07F047
:100FE00034C08FF035C090F0E0C191F0E1C192F0D3
:100FF00093519411D8A4FFEF07F001EF08F008EF28
:1010000008F0F7A506EF08F008EF08F00BEF08F07E
:101010009107D8A09207000E9E6F1F0E9D6F000EC5
:101020000201766F91EF08F09D07D8A09E07570E3A
:101030009D25D96E020E9E21DA6E95C060F096C095
:1010400061F097C062F098C063F099C064F09AC0F4
:1010500065F09BC066F09CC067F00A0E686F000EDA
:10106000696F000E6A6F000E6B6F000E6C6F000EE2
:101070006D6F000E6E6F000E6F6FB2EC12F060C0FD
:1010800085F061C086F062C087F063C088F064C0FC
:1010900089F065C08AF066C08BF067C08CF085C0AF
:1010A00072F087C073F00AEC24F000017251300F27
:1010B000DF6E8F07D8A090079107D8A0920795C040
:1010C00060F096C061F097C062F098C063F099C07C
:1010D00064F09AC065F09BC066F09CC067F00A0E91
:1010E000686F000E696F000E6A6F000E6B6F000E66
:1010F0006C6F000E6D6F000E6E6F000E6F6F54EC14
:101100000EF060C095F061C096F062C097F063C0C9
:1011100098F064C099F065C09AF066C09BF067C013
:101120009CF000019EBF9DEF08F09E5108E19D05D7
:10113000D8A09DEF08F09FEF08F0CFEF08F0955191
:1011400096119711981199119A119B119C11D8A47D
:10115000ACEF08F0AEEF08F014EF08F090BFBBEF73
:1011600008F0905106E18F05D8B0B9EF08F0BBEF59
:1011700008F014EF08F092BFC6EF08F0925108E1B2
:101180009105D8A0C6EF08F0C8EF08F0CFEF08F03F
:10119000F7B3CDEF08F0CFEF08F014EF08F093515C
:1011A0009411D8A4D6EF08F0D8EF08F0DFEF08F0DC
:1011B000F7A5DDEF08F0DFEF08F0FDEF08F09D0781
:1011C000D8A09E0793519411D8A4E9EF08F0EBEF53
:1011D00008F0F1EF08F0000E8E6F2B0E8D6FF5EF1B
:1011E00008F0000E8E6F2D0E8D6F570E9D25D96E57
:1011F000020E9E21DA6E8DC0DFFF7BC070F07CC0D6
:1012000071F0570E9D25726F020E9E21736F91C073
:1012100074F092C075F0F9EC1DF070C07BF071C0F5
:101220007CF01200A1C0D9FFA2C0DAFFDECFF6FF2A
:10123000DDCFF7FF0800F550250AD8A422EF09F00A
:1012400024EF09F04BEF0AF0A1C0D9FFA2C0DAFFEA
:10125000DE2A000EDD22000E0101E16F000EE06FBC
:10126000E0C1F7F0E1C1F8F034683568A1C0D9FFFA
:10127000A2C0DAFFDECFF6FFDDCFF7FF0800F550A2
:10128000640AD8B446EF09F048EF09F05AEF09F0C4
:10129000A1C0D9FFA2C0DAFFDECFF6FFDDCFF7FF96
:1012A0000800F550690AD8A458EF09F05AEF09F080
:1012B0009BEF09F0A1C0D9FFA2C0DAFFDE2A000E21
:1012C000DD22A3C0D9FFA4C0DAFFDFCFA5F0020E54
:1012D000DE26DFCFA6F0000EDD22A5C0D9FFA6C016
:1012E000DAFFDECFA7F0DDCFA8F00001000EA8BF27
:1012F000FF0EA96FAA6FAB6FAC6FAD6FAE6F9FC0E3
:101300007BF0A0C07CF0A7C07DF0A8C07EF0A9C093
:101310007FF0AAC080F0ABC081F0ACC082F0ADC05D
:1013200083F0AEC084F0A0EC07F07BC09FF07CC0DF
:10133000A0F067EF0AF0A1C0D9FFA2C0DAFFDECFAC
:10134000F6FFDDCFF7FF0800F550730AD8B4ABEF16
:1013500009F0ADEF09F0CAEF09F0A1C0D9FFA2C0B2
:10136000DAFFDECF60F0DDCF61F0D90E0001626FF1
:10137000080E636F000E656F030E646F23EC1DF0A3
:10138000000160516111D8A4C8EF09F0CAEF09F05B
:1013900014EF0AF0A1C0D9FFA2C0DAFFDECFF6FF3A
:1013A000DDCFF7FF0800F550730AD8B4DAEF09F083
:1013B000DCEF09F0E3EF09F0000E0001B26F030E5D
:1013C000B16FE8EF09F0000E0001B26F010EB16FCE
:1013D000A1C0D9FFA2C0DAFFB151DE26B251DD2291
:1013E000A3C0D9FFA4C0DAFFDFCFA5F0020EDE262E
:1013F000DFCFA6F0000EDD22A5C0D9FFA6C0DAFF20
:10140000DECFAFF0DDCFB0F09FC069F0A0C06AF0D2
:10141000AFC06BF0B0C06CF08EEC0DF069C09FF007
:101420006AC0A0F067EF0AF0A1C0D9FFA2C0DAFF3E
:10143000DECFF6FFDDCFF7FF0800F550250AD8A470
:1014400024EF0AF026EF0AF03EEF0AF0A1C0D9FF20
:10145000A2C0DAFFDE2A000EDD22000E616F250E2B
:10146000606F9FC062F0A0C063F093EC1DF0000EAF
:101470000001A06F010E9F6F67EF0AF0A1C0D9FFB6
:10148000A2C0DAFFDE2A000EDD22000EA06F000EE1
:101490009F6F67EF0AF0A1C0D9FFA2C0DAFFDECFCD
:1014A000F6FFDDCFF7FF0800F5500001606F616BBC
:1014B0009FC062F0A0C063F093EC1DF0A1C0D9FF03
:1014C000A2C0DAFFDE2A000EDD2237EF0AF012009A
:1014D000000E0001726F000E736F000E686F000E39
:1014E000696F000E6C6F000E6D6F38503910D8A404
:1014F0007CEF0AF07EEF0AF084EF0AF0000E606FD6
:10150000000E616FA5EF0BF038C070F039C071F0BC
:101510000AEF0BF070C0D9FF71C0DAFF6051DE181E
:1015200007E16151DE18D8A498EF0AF09AEF0AF0AB
:10153000C7EF0AF06C516D11D8B4A1EF0AF0A3EF18
:101540000AF0B5EF0AF020EE02F07051D926715181
:10155000DA2210EE02F06C51E1266D51E222DECF6C
:10156000E6FFDDCFE5FFBFEF0AF020EE02F070519D
:10157000D9267151DA22DECF38F0DDCF39F0020EF4
:101580007025606F000E7121616FA5EF0BF070C0C8
:10159000D9FF71C0DAFFDE50605DDE506159D8B00E
:1015A000D4EF0AF0D6EF0AF0FCEF0AF07251731193
:1015B000D8B4DDEF0AF0DFEF0AF0F4EF0AF072C002
:1015C000D9FF73C0DAFF70C0E1FF71C0E2FFDE50E7
:1015D000E65CDE50E658D8A0F0EF0AF0F2EF0AF031
:1015E000F4EF0AF0FCEF0AF070C072F071C073F013
:1015F0006CC068F06DC069F070C06CF071C06DF0C7
:1016000020EE02F07051D9267151DA22DECF70F04F
:10161000DDCF71F070517111D8A411EF0BF013EF01
:101620000BF08AEF0AF072517311D8B41AEF0BF075
:101630001CEF0BF07EEF0AF020EE02F07251D9267B
:101640007351DA22DECF6EF0DDCF6FF072C0D9FFBA
:1016500073C0DAFFDECF62F0DDCF63F06051625F0E
:101660006151635B635109E1050E625DD8A03BEFF8
:101670000BF03DEF0BF083EF0BF072C0D9FF73C09E
:10168000DAFFDECF62F0DDCF63F06051625F61515F
:10169000635BFE0E6225666FFF0E6321676F72C08B
:1016A000D9FF73C0DAFF60C0DEFF61C0DDFF72C02A
:1016B000D9FF73C0DAFFDECF62F0DDCF63F072C016
:1016C00064F073C065F06251642763516523020EB4
:1016D00064256A6F000E65216B6F6AC0D9FF6BC00D
:1016E000DAFF66C0DEFF67C0DDFF20EE02F06A5160
:1016F000D9266B51DA226EC0DEFF6FC0DDFF6AC0F3
:101700006EF06BC06FF07251381807E173513918E1
:10171000D8A48DEF0BF08FEF0BF095EF0BF06EC0B0
:1017200038F06FC039F09FEF0BF020EE02F06851F7
:10173000D9266951DA226EC0DEFF6FC0DDFF020ECE
:101740007225606F000E7321616F12005604D8A4D9
:10175000ACEF0BF0AEEF0BF0BBEF0BF060BAB3EFFA
:101760000BF0B5EF0BF0BBEF0BF0000E656E648075
:101770006488020E566E65A4C0EF0BF0C2EF0BF04A
:10178000CCEF0BF064A4C7EF0BF0C9EF0BF0CCEF7C
:101790000BF065948BEC24F060A2D1EF0BF0D3EF4B
:1017A0000BF0D6EF0BF0A494B7EF0CF065A0DBEFD5
:1017B0000BF0DDEF0BF0EAEF0BF064A0E2EF0BF0C3
:1017C000E4EF0BF0EAEF0BF0B7EC14F0A384040E97
:1017D000566E659065A8EFEF0BF0F1EF0BF0FAEFA6
:1017E0000BF064A8F6EF0BF0F8EF0BF0FAEF0BF04C
:1017F000C8EC25F065ACFFEF0BF001EF0CF02CEF1F
:101800000CF064AC06EF0CF008EF0CF016EF0CF0E7
:10181000000E0E6E730E0D6E000E0F6E000E106E2B
:10182000000E126E010E116E66EC21F0659C3CEC10
:1018300025F04F50D8B41FEF0CF021EF0CF022EF41
:101840000CF04F064F50D8A428EF0CF02AEF0CF004
:101850002CEF0CF0BFEC1BF065AA31EF0CF033EF6E
:101860000CF03CEF0CF064AA38EF0CF03AEF0CF0FF
:101870003CEF0CF0F4EC22F065A241EF0CF043EFEA
:101880000CF059EF0CF064A248EF0CF04AEF0CF0AA
:1018900059EF0CF07F0E0E6E0D68000E0F6E000EED
:1018A000106E000E126E010E116E66EC21F0000E2D
:1018B000676E040E56605FEF0CF061EF0CF064EFA2
:1018C0000CF0A494B7EF0CF064A669EF0CF06BEF8A
:1018D0000CF0B6EF0CF0000E1F6E65A672EF0CF068
:1018E00074EF0CF0B6EF0CF061CF57F05730E832E0
:1018F000E8320F0B516E659657B481EF0CF083EF11
:101900000CF08CEF0CF02E0E5124D96EDA6A000E1A
:10191000DA22DF7093EF0CF0310E5124D96EDA6ABF
:10192000000EDA22DF705150D8A499EF0CF09BEF33
:101930000CF09FEF0CF0BBEC1EF0ADEF0CF0000EC6
:101940000E6E720E0D6E570E0F6E000E106E000EA4
:10195000126E000E116E66EC21F01F2A030E1F643A
:10196000B4EF0CF0B6EF0CF06DEF0CF0A494120095
:10197000A3940101F451F511D8B4C1EF0CF0C3EFF9
:101980000CF0D1EF0CF0F4C1D9FFF5C1DAFFDFAEF6
:10199000CCEF0CF0CEEF0CF0D1EF0CF0A3848DEF78
:1019A0000DF0030E4718D8A4D8EF0CF0DAEF0CF0C6
:1019B000DCEF0CF0000E476E4750D8A4E2EF0CF0BD
:1019C000E4EF0CF0E7EF0CF0A3848DEF0DF0020EC6
:1019D0004718D8A4EEEF0CF0F0EF0CF004EF0DF088
:1019E000010E0001606F000E616F000E626F000E4D
:1019F000636F020EA0EC16F060C0F4F161C0F5F167
:101A0000030E476E8CEF0DF04704D8A40AEF0DF0DB
:101A10000CEF0DF08CEF0DF0400E466412EF0DF060
:101A200014EF0DF019EF0DF0400E00016C6F1BEF7D
:101A30000DF046C06CF000016C51465C466E000E25
:101A40000101D66F050ED76F6CC06BF0FA51D8A4A8
:101A50002CEF0DF02EEF0DF05DEF0DF041EF0DF0DE
:101A6000D9C1D9FFDAC1DAFFD6C1E1FFD7C1E2FFA0
:101A7000DFCFE7FF0101D64BD72BD94BDA2B000183
:101A80006B0700016B51D8A448EF0DF04AEF0DF041
:101A900030EF0DF066EF0DF0D9C1D9FFDAC1DAFFF2
:101AA000D6C1E1FFD7C1E2FFDFCFE7FF0101D64B8F
:101AB000D72BD94BDA2B00016B0700016B51D8A44F
:101AC00064EF0DF066EF0DF04CEF0DF04650D8A42A
:101AD0006CEF0DF06EEF0DF07DEF0DF0400E6C1918
:101AE000D8A475EF0DF077EF0DF07BEF0DF0020E3F
:101AF000476E7DEF0DF0030E476E010E606F000E16
:101B0000616F050E626F6CC063F0020EA0EC16F000
:101B100060C0F4F161C0F5F1A384120022EEE8F098
:101B200010EE6EF0060EDBCFE3FFE806FCE26BC0C2
:101B300079F06CC07AF0000179517A11D8A4A3EF42
:101B40000DF0A5EF0DF0A9EF0DF06E0E796F000E00
:101B50007A6F79C060F07AC061F0E7EC24F060C081
:101B60007DF061C07EF034C07BF035C07CF00001B8
:101B70007CBFBDEF0DF0BFEF0DF0D4EF0DF07D5148
:101B80007B5D7C51800A6D6F7E51800A6D59D8A0B3
:101B9000CCEF0DF0CEEF0DF0D0EF0DF0D4EF0DF057
:101BA0007BC07DF07CC07EF07DC07BF07EC07CF091
:101BB000E0C177F0E1C178F0F7B1E1EF0DF0E3EFCC
:101BC0000DF001EF0EF0F2EF0DF0000E616F200E40
:101BD000606F69C062F06AC063F093EC1DF00001B1
:101BE0007D4B7E2B77517D5D7E51800A6D6F7851E4
:101BF000800A6D59D8A0FFEF0DF001EF0EF0E5EF70
:101C00000DF0000E766F000E756F1BEF0EF079C0B1
:101C1000D9FF7AC0DAFFDF506D6F6D51606F616B75
:101C200069C062F06AC063F093EC1DF00001794B6B
:101C30007A2B754B762B7B51755D7651800A6D6FD3
:101C40007C51800A6D59D8A028EF0EF02AEF0EF0D3
:101C500007EF0EF0F7A12FEF0EF031EF0EF04FEF80
:101C60000EF040EF0EF0000E616F200E606F69C045
:101C700062F06AC063F093EC1DF000017D4B7E2B97
:101C800077517D5D7E51800A6D6F7851800A6D5964
:101C9000D8A04DEF0EF04FEF0EF033EF0EF07DC0F9
:101CA00069F07EC06AF01200000E0001716F6FBF14
:101CB0005EEF0EF05CEF0EF070EF0EF06F1F6E1F18
:101CC0006D1F6C1F6B1F6A1F691F686D000E6923F3
:101CD0006A236B236C236D236E236F23010E716FB8
:101CE00067BF77EF0EF075EF0EF089EF0EF0671F0C
:101CF000661F651F641F631F621F611F606D000EFA
:101D00006123622363236423652366236723010E13
:101D1000711B20EE72F0070EDE6AE806FDE26851E4
:101D200069116A116B116C116D116E116F11D8B4BC
:101D30009CEF0EF09EEF0EF0F0EF0EF0010E706FC4
:101D4000ACEF0EF0D890683769376A376B376C376D
:101D50006D376E376F37702B6FAFB1EF0EF0B3EF9B
:101D60000EF0A2EF0EF0D8907237733774377537D4
:101D700076377737783779376851605D69516159BF
:101D80006A5162596B5163596C5164596D5165596F
:101D90006E5166596F516759D8A0D1EF0EF0D3EF4D
:101DA0000EF0E4EF0EF06851605F6951615B6A51BB
:101DB000625B6B51635B6C51645B6D51655B6E5133
:101DC000665B6F51675B7281D8906F336E336D3392
:101DD0006C336B336A3369336833702FB3EF0EF0B3
:101DE0007151D8B4F6EF0EF0F8EF0EF008EF0FF0E7
:101DF000791F781F771F761F751F741F731F726DF1
:101E0000000E732374237523762377237823792395
:101E100072C060F073C061F074C062F075C063F0AE
:101E200076C064F077C065F078C066F079C067F07E
:101E3000120060C06AF061C06BF00001645165116E
:101E4000D8A425EF0FF027EF0FF029EF0FF0D4EF14
:101E50000FF06AC0D9FF6BC0DAFF62C0DFFF6451C8
:101E60006A25666F65516B21676FFF0E6625D96E17
:101E7000FF0E6721DA6E62C0DFFF655107E1030ED6
:101E8000645DD8B046EF0FF048EF0FF04AEF0FF067
:101E9000D4EF0FF020EE01F06A51D9266B51DA220F
:101EA00062C0DFFF20EE02F06A51D9266B51DA22C0
:101EB00062C0DFFF64516A25666F65516B21676FF1
:101EC000FE0E6625D96EFF0E6721DA6E62C0DFFF57
:101ED00064516A25666F65516B21676FFD0E66253B
:101EE000D96EFF0E6721DA6E62C0DFFF655107E130
:101EF000070E645DD8B07FEF0FF081EF0FF083EF36
:101F00000FF0D4EF0FF020EE03F06A51D9266B5199
:101F1000DA2262C0DFFF64516A25666F65516B216A
:101F2000676FFC0E6625D96EFF0E6721DA6E62C000
:101F3000DFFF655107E1090E645DD8B0A2EF0FF035
:101F4000A4EF0FF0A6EF0FF0D4EF0FF06AC066F029
:101F50006BC067F0661F671F664B672B030E661525
:101F6000686F696B68516A2769516B236851645FB8
:101F70006951655BFC0E6417FF0E6517CBEF0FF020
:101F80006AC0D9FF6BC0DAFF62C0DFFF6407D8A068
:101F900065076A4B6B2B64516511D8A4D2EF0FF023
:101FA000D4EF0FF0C0EF0FF0120001C00BF002C031
:101FB0000CF005500610D8A4E0EF0FF0E2EF0FF0A0
:101FC000E4EF0FF08FEF10F00BC0D9FF0CC0DAFF79
:101FD00003C0DFFF05500B24076E06500C20086E6F
:101FE000FF0E0724D96EFF0E0820DA6E03C0DFFF54
:101FF000065007E1030E055CD8B001EF10F003EFC7
:1020000010F005EF10F08FEF10F020EE01F00B5004
:10201000D9260C50DA2203C0DFFF20EE02F00B506D
:10202000D9260C50DA2203C0DFFF05500B24076EBF
:1020300006500C20086EFE0E0724D96EFF0E0820F5
:10204000DA6E03C0DFFF05500B24076E06500C202C
:10205000086EFD0E0724D96EFF0E0820DA6E03C04D
:10206000DFFF065007E1070E055CD8B03AEF10F02D
:102070003CEF10F03EEF10F08FEF10F020EE03F089
:102080000B50D9260C50DA2203C0DFFF05500B2479
:10209000076E06500C20086EFC0E0724D96EFF0E4A
:1020A0000820DA6E03C0DFFF065007E1090E055C69
:1020B000D8B05DEF10F05FEF10F061EF10F08FEF30
:1020C00010F00BC007F00CC008F0071E081E074AEE
:1020D000082A030E0714096E0A6A09500B260A50D3
:1020E0000C220950055E0A50065AFC0E0516FF0E1A
:1020F000061686EF10F00BC0D9FF0CC0DAFF03C044
:10210000DFFF0506D8A006060B4A0C2A055006106C
:10211000D8A48DEF10F08FEF10F07BEF10F01200CD
:10212000800E04013019D8A498EF10F09AEF10F047
:1021300049EF11F0C00E0001EE6F2FEF11F0960E77
:102140000001EB6F080EEC6F000EF06F120EEF6FD8
:1021500049EF11F03251D8A4B0EF10F0B2EF10F007
:10216000F3EF10F03251020D070EF324F66E080E55
:10217000F420F76E0900F5CFEBF00A00F5CFECF094
:10218000020E0001EB25016E000EEC21026E01C073
:10219000F6FF02C0F7FFF86A070EF76403D00800E5
:1021A000F55005D0F6CFE9FFF7CFEAFFEF50000179
:1021B000EF6F030EEB25016E000EEC21026E01C0E5
:1021C000F6FF02C0F7FFF86A070EF76403D00800B5
:1021D000F55005D0F6CFE9FFF7CFEAFFEF50000149
:1021E000F06F49EF11F0000E0001EE6F49EF11F0B2
:1021F000030E3261FEEF10F000EF11F025EF11F049
:102200003251020D010EF324F66E080EF420F76E23
:102210000900F5CFEBF00A00F5CFECF0EBC0F6FFCC
:10222000ECC0F7FFF86A070EF76403D00800F5501A
:1022300005D0F6CFE9FFF7CFEAFFEF50016E01506E
:102240000001EF6FF06B49EF11F0000E0001EE6F2F
:1022500049EF11F0000E0001EE6F49EF11F004019B
:102260003351016E026A0250000AD8B43AEF11F0FD
:102270002AEF11F00150010AD8B49FEF10F0030AC1
:10228000D8B4AAEF10F0010AD8B4F8EF10F02AEF92
:1022900011F0120060C066F061C067F0000160518B
:1022A0006111D8A456EF11F058EF11F05AEF11F068
:1022B000FDEF11F0FE0E6625686FFF0E6721696F56
:1022C00038503910D8B467EF11F069EF11F0F1EF21
:1022D00011F068C0D9FF69C0DAFFDECF62F0DDCF50
:1022E00063F066C064F067C065F0625164276351B3
:1022F00065233850641907E139506519D8A483EF74
:1023000011F085EF11F0AFEF11F020EE02F0385030
:10231000D9263950DA2210EE02F06851E1266951CF
:10232000E222DECFE6FFDDCFE5FF38C0D9FF39C0BE
:10233000DAFFDECF62F0DDCF63F0020E6227000E1F
:10234000632368C0D9FF69C0DAFF6251DE2663519A
:10235000DD2268C038F069C039F0FDEF11F038C0F7
:10236000D9FF39C0DAFFDECF62F0DDCF63F038C0CD
:1023700064F039C065F06251642763516523020E31
:102380006427000E65236851641907E169516519D6
:10239000D8A4CDEF11F0CFEF11F0E5EF11F068C048
:1023A000D9FF69C0DAFFDECF62F0DDCF63F0020E45
:1023B0006227000E632338C0D9FF39C0DAFF6251AB
:1023C000DE266351DD22FDEF11F020EE02F06851B0
:1023D000D9266951DA2238C0DEFF39C0DDFFA9EF06
:1023E00011F020EE02F06851D9266951DA22000E70
:1023F000DE6E000EDD6EA9EF11F0120000017451C7
:102400007511D8A406EF12F008EF12F00AEF12F0DF
:10241000744B752BE6C1E6F1E7C1E7F1755107E1B1
:10242000040E745DD8B017EF12F019EF12F01DEF23
:1024300012F0000E756F040E746F74C060F075C0FA
:1024400061F068EC0AF060C07CF061C07DF00001D2
:102450007C517D11D8A42FEF12F031EF12F0ADEFC7
:1024600012F00101E651E45D0001766F0101E751D0
:10247000E5590001776F7451765D75517759D8B081
:1024800044EF12F046EF12F087EF12F0020E7425BF
:10249000786F000E7521796F780E606F000E616F96
:1024A00072EC1FF060C07EF061C07FF000017E51D1
:1024B0007F11D8A45EEF12F060EF12F066EF12F019
:1024C000000E746F000E756FB1EF12F07EC07EF0DB
:1024D0007FC07FF00101E45100017E190BE1010191
:1024E000E55100017F19D8B478EF12F07AEF12F0BD
:1024F0007EEF12F07EC0E6F17FC0E7F178517E25D5
:102500000101E46F000179517F210101E56FE6C10E
:102510007CF0E7C17DF07CC07AF07DC07BF07AC0B2
:10252000D9FF7BC0DAFF74C0DEFF75C0DDFF020E8D
:1025300000017A27000E7B237AC07CF07BC07DF0FF
:10254000020E7425766F000E7521776F76510101AA
:10255000E627000177510101E7237CC074F07DC0BC
:1025600075F01200000E0001716F67BFBCEF12F032
:10257000BAEF12F0CEEF12F0671F661F651F641FDF
:10258000631F621F611F606D000E6123622363235E
:102590006423652366236723010E716F6FBFD5EF38
:1025A00012F0D3EF12F0E5EF12F06F1F6E1F6D1FE8
:1025B0006C1F6B1F6A1F691F686D000E69236A23F9
:1025C0006B236C236D236E236F23685169116A118D
:1025D0006B116C116D116E116F11D8B4F2EF12F016
:1025E000F4EF12F03CEF13F0010E706F02EF13F0F6
:1025F000D890683769376A376B376C376D376E3705
:102600006F37702B6FAF07EF13F009EF13F0F8EF90
:1026100012F06851605D695161596A5162596B519C
:1026200063596C5164596D5165596E5166596F51BA
:102630006759D8A01EEF13F020EF13F030EF13F01E
:102640006851605F6951615B6A51625B6B51635BAA
:102650006C51645B6D51655B6E51665B6F51675B7E
:10266000D8906F336E336D336C336B336A336933A9
:102670006833702F09EF13F07151D8B442EF13F0A3
:1026800044EF13F054EF13F0671F661F651F641FBC
:10269000631F621F611F606D000E6123622363234D
:1026A000642365236623672360C060F061C061F026
:1026B00062C062F063C063F064C064F065C065F03E
:1026C00066C066F067C067F012000101F851D8A437
:1026D0006CEF13F06EEF13F010EF14F0000120EE2A
:1026E00004F0D251D926D351DA22010EDBBE82EF9B
:1026F00013F0010EDB5008E1DE04D8A082EF13F0E6
:1027000084EF13F010EF14F0000EBB6F060EBC6FD9
:10271000B50EBD6F080EBE6F24EC23F0280E00012D
:10272000606F010E616F000E636F000E626F000E2E
:10273000656F640E646F19EC0FF08C0E0001606F12
:10274000010E616F000E636F000E626F000E656F09
:102750001E0E646F19EC0FF08C0E00016A6F010EF3
:102760006B6FD2C06CF0D3C06DF014EC19F0000E9A
:102770000101AD6F000EAC6FD890AC35D96EAD35A0
:10278000DA6E000ED926010EDA22000EDE6E000E81
:10279000DD6EAC4BAD2BADBFD7EF13F0AD5109E102
:1027A000140EAC5DD8A0D7EF13F0D9EF13F0BCEF47
:1027B00013F0000E0001706F010E716F8C0E726FBE
:1027C000010E736FCFEC20F070C0AAF171C0ABF1B5
:1027D000000E0001BB6F060EBC6FAC0EBD6F080E85
:1027E000BE6F000EBF6F060EC06F8C0EC16F010E64
:1027F000C26FAAC1C3F0ABC1C4F024EC23F0000E39
:102800000001646F060E656F000E606F060E616F4B
:10281000E7EC24F060C066F061C067F0C2EC23F022
:102820001200A394000E676E000E656E000E6A6EB5
:102830006B0E0001606F0F0E616F000E636F000E74
:10284000626F000E656F020E646F19EC0FF0160ECA
:10285000626E9F0E666E7B0E646E000E00016C6FE2
:102860006C51040D000EF324D96E040EF420DA6EC0
:10287000DE6ADE6ADE6ADD6A6C2B0B0E6C6543EF86
:1028800014F045EF14F030EF14F0608C000E636E1E
:102890006098609C6596000EEE6F000EE66F000E6D
:1028A000E86F000EE76F65B658EF14F05AEF14F0BA
:1028B0004AEF14F0010E4D6E010E4C6E000E4B6E81
:1028C000000E4A6E000E526E000E6C6F6C51020DBF
:1028D000F10EF324D96E000EF420DA6E000EDE6ED7
:1028E000000EDD6E6C51020DC80EF324D96E010E80
:1028F000F420DA6E000EDE6E000EDD6E310E6C25F9
:10290000D96EDA6A000EDA22000EDF6E2E0E6C250A
:10291000D96EDA6A000EDA22000EDF6E6C2B020E20
:102920006C6595EF14F097EF14F066EF14F0080E55
:10293000F16F040EF26F160E6A6E040E0401036F3F
:10294000300E026F080E016F040E006F008F000E34
:10295000586E000E0101D26F000ED36F000ED46FBF
:10296000000ED56F000E496E000E566E1200A39435
:10297000000E676E000E656E000E6A6E6B0E016EC5
:102980000F0E026E000E046E000E036E000E066E39
:10299000020E056ED5EC0FF0160E626E9F0E666E7F
:1029A0007B0E646E000E0D6E0D50040D000EF324B0
:1029B000D96E040EF420DA6EDE6ADE6ADE6ADD6A43
:1029C0000D2A0B0E0D64E7EF14F0E9EF14F0D4EFCD
:1029D00014F0608C000E636E6098609C6596000E2B
:1029E0000001EE6F000EE66F000EE86F000EE76F5D
:1029F00065B6FDEF14F0FFEF14F0EEEF14F0010EEA
:102A00004D6E010E4C6E000E4B6E000E4A6E000EA7
:102A1000526E000E0D6E0D50020DF10EF324D96EA4
:102A2000000EF420DA6E000EDE6E000EDD6E0D502C
:102A3000020DC80EF324D96E010EF420DA6E000EDA
:102A4000DE6E000EDD6E310E0D24D96EDA6A000ED8
:102A5000DA22000EDF6E2E0E0D24D96EDA6A000E19
:102A6000DA22000EDF6E0D2A020E0D643AEF15F029
:102A70003CEF15F00BEF15F0080E0001F16F040E9E
:102A8000F26F160E6A6E040E0401036F300E026FB1
:102A9000080E016F040E006F008F000E586E000EBE
:102AA0000101D26F000ED36F000ED46F000ED56FF0
:102AB000000E496E000E566E120020EE01F04450DA
:102AC000D9264550DA22DF50026E02500001E75D40
:102AD000000EE859D8B06FEF15F071EF15F073EFF5
:102AE00015F0E7C002F00250E75F000EE85B000E51
:102AF000016E8AEF15F0380E0124D96EDA6A040EE1
:102B0000DA22E3C0E1FFE4C0E2FFDFCFE7FFE34BFF
:102B1000E42B012A0250015CD8A091EF15F093EF4D
:102B200015F07BEF15F0E751E811D8B49AEF15F0E6
:102B30009CEF15F0D5EF15F020EE01F04250D926AC
:102B40004350DA22080EDF6E20EE02F04250D92602
:102B50004350DA22380EDE6E040EDD6E44C0D9FF1B
:102B600045C0DAFFDFBCB7EF15F0B9EF15F0C7EFDE
:102B700015F042C0D9FF43C0DAFF480EDF6E42C0F5
:102B8000D9FF43C0DAFF000EDB8EFEEF15F042C026
:102B9000D9FF43C0DAFF080EDF6E42C0D9FF43C041
:102BA000DAFF000EDB8EFEEF15F020EE01F0425052
:102BB000D9264350DA22080EDF6E20EE02F0425092
:102BC000D9264350DA22300EDE6E040EDD6E42C08E
:102BD000D9FF43C0DAFF040EDF6E42C0D9FF43C005
:102BE000DAFF000EDB8EE69F4E50D8A4FAEF15F008
:102BF000FCEF15F0FEEF15F0BFEC1BF0120000012A
:102C000082518311D8A407EF16F009EF16F00BEFED
:102C100016F09FEF16F0000E886F000E896F1BEF05
:102C200016F0000E756F200E746FFEEC11F074C07C
:102C300088F075C089F0000188518911D8B423EF5C
:102C400016F025EF16F011EF16F088C060F089C07D
:102C500061F082C062F083C063F04CEC24F00001AC
:102C600020EE04F08051D9268151DA22010EDBBE1C
:102C700043EF16F0010EDB5008E1DE04D8A043EF6D
:102C800016F045EF16F06BEF16F020EE02F08051D3
:102C9000D9268151DA2210EE1EF0DE50E126DD50F9
:102CA000E22288C0E6FF89C0E5FF20EE02F08051F5
:102CB000D9268151DA2288C0DEFF89C0DDFF20EEEF
:102CC0001EF08851D9268951DA22000EDE6E000EE0
:102CD000DD6E87EF16F020EE02F08051D92681518B
:102CE000DA2288C0DEFF89C0DDFF80C0D9FF81C045
:102CF000DAFF88C0DEFF89C0DDFF20EE1EF08851BC
:102D0000D9268951DA22000EDE6E000EDD6E20EE2D
:102D100004F08051D9268151DA22DECF86F0DDCF52
:102D200087F0010E8627000E872320EE04F08051E5
:102D3000D9268151DA2286C0DEFF87C0DDFF12006E
:102D40000001686F00016051D8B4A9EF16F0ABEF35
:102D500016F0B9EF16F06851020DF10EF324D96E9A
:102D6000000EF420DA6EDECF69F0DDCF6AF0C5EF39
:102D700016F06851020DC80EF324D96E010EF4202E
:102D8000DA6EDECF69F0DDCF6AF069516A11D8A43E
:102D9000CCEF16F0CEEF16F0D4EF16F0000E606F09
:102DA000000E616F40EF17F020EE02F06951D92656
:102DB0006A51DA2261C0DEFF62C0DDFF20EE01F061
:102DC0006951D9266A51DA2263C0DFFF69C0D9FF91
:102DD0006AC0DAFF400EDF1669C0D9FF6AC0DAFFA9
:102DE000000EDB8669C0D9FF6AC0DAFF000EDB8EF9
:102DF0006051D8B4FEEF16F000EF17F01FEF17F098
:102E00006851020DF10EF324D96E000EF420DA6E33
:102E1000DECF64F0DDCF65F0040E6419666F655196
:102E2000676F6851020DF10EF324D96E000EF42085
:102E3000DA6E66C0DEFF67C0DDFF3CEF17F0685159
:102E4000020DC80EF324D96E010EF420DA6EDECF27
:102E500064F0DDCF65F0040E6419666F6551676F2D
:102E60006851020DC80EF324D96E010EF420DA6EFB
:102E700066C0DEFF67C0DDFF69C060F06AC061F058
:102E8000120060980001EEBF48EF17F04AEF17F00C
:102E90008FEF17F0E6AF4FEF17F051EF17F063EF3A
:102EA00017F0020E546E4A50D8A459EF17F05BEF9A
:102EB00017F05DEF17F0CCEC1FF0000E4C6E000E1B
:102EC0004D6EE1EF17F020EE01F04250D92643504D
:102ED000DA22080EDF6E20EE02F04250D92643506F
:102EE000DA22300EDE6E040EDD6E42C0D9FF43C022
:102EF000DAFF0C0EDF6E42C0D9FF43C0DAFF000ECE
:102F0000DB8EF1C0D9FFF2C0DAFF040EDF6EF1C034
:102F1000D9FFF2C0DAFF000EDB8EE1EF17F00401FB
:102F200030AF95EF17F097EF17F0B3EF17F0010EF2
:102F3000546E4B50D8A49FEF17F0A1EF17F0A3EFFA
:102F400017F0CCEC1FF0000E4C6E000E4D6E4E5084
:102F5000D8A4ADEF17F0AFEF17F0E1EF17F0BFEC2B
:102F60001BF0E1EF17F0020E546E20EE01F042501C
:102F7000D9264350DA22080EDF6E20EE02F04250CE
:102F8000D9264350DA22300EDE6E040EDD6E42C0CA
:102F9000D9FF43C0DAFF040EDF6E42C0D9FF43C041
:102FA000DAFF000EDB8E000E4C6E000E4D6E4E50A2
:102FB000D8A4DDEF17F0DFEF17F0E1EF17F0AFEF78
:102FC00017F01200096E0150D8B4E9EF17F0EBEFDB
:102FD00017F0F9EF17F00950020DF10EF324D96E36
:102FE000000EF420DA6EDECF0AF0DDCF0BF005EF35
:102FF00018F00950020DC80EF324D96E010EF4200A
:10300000DA6EDECF0AF0DDCF0BF00A500B10D8A439
:103010000CEF18F00EEF18F014EF18F0000E016E20
:10302000000E026E80EF18F020EE02F00A50D92652
:103030000B50DA2202C0DEFF03C0DDFF20EE01F0FC
:103040000A50D9260B50DA2204C0DFFF0AC0D9FF8C
:103050000BC0DAFF400EDF160AC0D9FF0BC0DAFF43
:10306000000EDB860AC0D9FF0BC0DAFF000EDB8E34
:103070000150D8B43EEF18F040EF18F05FEF18F0B1
:103080000950020DF10EF324D96E000EF420DA6E11
:10309000DECF05F0DDCF06F0040E0518076E0650F2
:1030A000086E0950020DF10EF324D96E000EF420C3
:1030B000DA6E07C0DEFF08C0DDFF7CEF18F00950B4
:1030C000020DC80EF324D96E010EF420DA6EDECFA5
:1030D00005F0DDCF06F0040E0518076E0650086EE9
:1030E0000950020DC80EF324D96E010EF420DA6ED9
:1030F00007C0DEFF08C0DDFF0AC001F00BC002F010
:10310000120004013039E832030B0009D8B48BEF08
:1031100018F08DEF18F0DAEF18F013EF19F0000146
:10312000EE8F080E566E13EF19F090EC10F013EFBF
:1031300019F0AEEC1CF013EF19F0580E0001EB6F14
:10314000000EEC6FEE81010EEF6FEE8F13EF19F0B2
:103150002DEC1AF013EF19F06FEC04F013EF19F0E7
:10316000FB0E34250001EB6FEC6B010EEC23EE81BE
:10317000010EEF6FEE8F13EF19F00001EE8FFB0ED3
:1031800004013425D96EDA6A010EDA2232C4DFFF77
:1031900013EF19F0000E0E6E020E0D6E000E0F6E84
:1031A000000E106E000E126E000E116E66EC21F015
:1031B00013EF19F031511C6E1D6A1D50000AD8B46E
:1031C000E4EF18F013EF19F01C50000AD8B4A8EF80
:1031D00018F0010AD8B4ACEF18F0020AD8B4ACEF7A
:1031E00018F0060AD8B48FEF18F0030AD8B495EF98
:1031F00018F0010AD8B4CAEF18F00F0AD8B49DEF3E
:1032000018F0010AD8B499EF18F0030AD8B4B0EF57
:1032100018F0010AD8B4BDEF18F0070AD8B413EFBC
:1032200019F013EF19F01200000120EE04F06C51B8
:10323000D9266D51DA22010EDBBE28EF19F0010EFE
:10324000DB5008E1DE04D8A028EF19F02AEF19F0CE
:103250009AEF19F0FF0E6E6FFF0E6F6F20EE04F005
:103260006C51D9266D51DA22DECF70F0DDCF71F0CE
:103270006E5170276F51712320EE04F06C51D926E6
:103280006D51DA2270C0DEFF71C0DDFF6AC060F0F0
:103290006BC061F06CC0D9FF6DC0DAFFDECF62F0A9
:1032A000DDCF63F04CEC24F06CC0D9FF6DC0DAFFC9
:1032B000DECF72F0DDCF73F0000120EE04F06C5130
:1032C000D9266D51DA22DE50DE10D8A46AEF19F04B
:1032D0006CEF19F080EF19F020EE02F06C51D92656
:1032E0006D51DA22000EDE6E000EDD6E6CC0D9FF6D
:1032F0006DC0DAFF000EDE6E000EDD6E92EF19F08B
:103300006CC0D9FF6DC0DAFF10EE1EF0DE50E12672
:10331000DD50E2226CC0D9FF6DC0DAFFE6CFDEFFE0
:10332000E5CFDDFF72C060F073C061F04AEC11F0D0
:10333000A0EF19F06AC0D9FF6BC0DAFF000EDF6E94
:103340001200080E016E0001F05107E1080EEF5D5A
:10335000D8B0ADEF19F0AFEF19F0C7EF19F0EFC02B
:1033600001F05550D8A4B7EF19F0B9EF19F0BDEF3F
:1033700019F0010E556EC7EF19F05504D8A4C3EF2C
:1033800019F0C5EF19F0C7EF19F0020E556E015094
:10339000EF5F000EF05B20EE01F0F151D926F25103
:1033A000DA2201C0DFFF380E0101F66F040EF76F5D
:1033B0000001EEB1DEEF19F0E0EF19F024EF1AF0A2
:1033C000FEEF19F0EBC0F6FFECC0F7FFF86AF6C1AC
:1033D000D9FFF7C1DAFF070EF76403D00800F550F4
:1033E00005D0F6CFE9FFF7CFEAFFEF50DF6E00011F
:1033F000EB4BEC2B0101F64BF72B01060150D8A447
:1034000004EF1AF006EF1AF0E2EF19F02CEF1AF0C1
:10341000EBC0F6FFECC0F7FFF86AF6C1D9FFF7C1C1
:10342000DAFF070EF76403D00800F55005D0F6CF99
:10343000E9FFF7CFEAFFEF50DF6E0001EB4BEC2B1B
:103440000101F64BF72B01060150D8A42AEF1AF020
:103450002CEF1AF008EF1AF01200000E0401386F7A
:10346000000E396F8AEF1AF00001EE8F5304D8A4D2
:103470003CEF1AF03EEF1AF0A4EF1AF00401388383
:10348000A4EF1AF00001EE8FA4EF1AF00001EE8F06
:10349000040134BF4EEF1AF050EF1AF061EF1AF04A
:1034A00034510F0B016E0150020DC80EF324D96E7A
:1034B000010EF420DA6EDECF03F0DDCF04F070EF02
:1034C0001AF034510F0B016E0150020DF10EF3246E
:1034D000D96E000EF420DA6EDECF03F0DDCF04F0FB
:1034E00003C0D9FF04C0DAFFDFAE79EF1AF07BEF3B
:1034F0001AF0A4EF1AF003C0D9FF04C0DAFFDFA46A
:1035000084EF1AF086EF1AF0A4EF1AF0010E386F6C
:10351000A4EF1AF030511F0B016E026A0250000A2C
:10352000D8B495EF1AF0A4EF1AF00150000AD8B4FD
:1035300034EF1AF0010AD8B442EF1AF0030AD8B4F3
:1035400046EF1AF0A4EF1AF00001EEAFAAEF1AF05E
:10355000ACEF1AF0B3EF1AF0380EEB6F040EEC6F0D
:10356000EE81020EEF6F1200040130511F0BE806CE
:10357000D8B4BDEF1AF0BFEF1AF0C1EF1AF039EF6F
:103580001BF03039E832030BE806D8B4CAEF1AF062
:10359000CCEF1AF0CEEF1AF039EF1BF03451D8B45B
:1035A000D4EF1AF0D6EF1AF018EF1BF03405D8B4A8
:1035B000DCEF1AF0DEEF1AF018EF1BF039EF1BF01A
:1035C000950E0001EB6F020EEC6F000EF06F080E0F
:1035D000EF6FEE81EE8F39EF1BF0950E0001EB6F70
:1035E000020EEC6FEE8F39EF1BF036C4E7F037C4F4
:1035F000E8F09D0E0001E36F020EE46F000EE96F2C
:10360000000EEA6FE68F39EF1BF09D0E0001EB6FA5
:10361000020EEC6F000EF06F070EEF6FC10EEE6F33
:1036200039EF1BF032C4F9F10001EE8F39EF1BF0D6
:103630003151016E026A0250000AD8B422EF1BF029
:1036400039EF1BF00150000AD8B4E0EF1AF0010A7C
:10365000D8B4EDEF1AF0210AD8B4F5EF1AF0010A48
:10366000D8B405EF1BF0030AD8B412EF1BF039EF02
:103670001BF01200F1C0D9FFF2C0DAFF0001000E0A
:10368000DFBC010E026E040EF119F16FF251F26F00
:10369000080E5618D8A44FEF1BF051EF1BF063EF44
:1036A0001BF0040132517F0B636E6350D8B45BEFA3
:1036B0001BF05DEF1BF061EF1BF0100E566E63EF19
:1036C0001BF0040E566E5404D8A469EF1BF06BEF88
:1036D0001BF0B3EF1BF0000120EE02F0F151D926F0
:1036E000F251DA22380EDE6E040EDD6EA1EC19F016
:1036F000020E5518D8A47FEF1BF081EF1BF08FEF5F
:103700001BF0F1C0D9FFF2C0DAFF040EDF6EF1C08A
:10371000D9FFF2C0DAFF000EDB8EBEEF1BF00250C5
:10372000D8A495EF1BF097EF1BF0A5EF1BF0F1C0AD
:10373000D9FFF2C0DAFF480EDF6EF1C0D9FFF2C048
:10374000DAFF000EDB8EBEEF1BF0F1C0D9FFF2C036
:10375000DAFF080EDF6EF1C0D9FFF2C0DAFF000E0B
:10376000DB8EBEEF1BF00001E6AFB9EF1BF0BBEF45
:103770001BF0BCEF1BF0E69F000E546E12004D5084
:10378000D8A4C5EF1BF0C7EF1BF037EF1CF0010EFC
:103790004D6E4C50D8A4CFEF1BF0D1EF1BF037EF9C
:1037A0001CF0010E4C6E020E5418D8A4DAEF1BF078
:1037B000DCEF1BF0F3EF1BF0000120EE01F0F15104
:1037C000D926F251DA22000EDF6EF1C0D9FFF2C025
:1037D000DAFF480EDF6EF1C0D9FFF2C0DAFF000E4B
:1037E000DB8E37EF1CF05404D8A4F9EF1BF0FBEF8D
:1037F0001BF037EF1CF0000E506E20EE01F044502D
:10380000D9264550DA22080EDF6E20EE02F0445031
:10381000D9264550DA22300EDE6E040EDD6E44C02D
:10382000D9FF45C0DAFF040EDF6E44C0D9FF45C0A2
:10383000DAFF000EDB8E010E506E20EE01F04250DA
:10384000D9264350DA22080EDF6E20EE02F04250F5
:10385000D9264350DA22300EDE6E040EDD6E42C0F1
:10386000D9FF43C0DAFF800EDF6E37EF1CF0120085
:1038700000016C516D11D8A440EF1CF042EF1CF018
:1038800055EF1CF0DCC16CF0DDC16DF06C516D11B9
:10389000D8A44DEF1CF04FEF1CF055EF1CF0000EBC
:1038A0006C6F000E6D6FADEF1CF06CC065F06DC0FD
:1038B00066F06EC067F06FC068F023EC22F0000184
:1038C00065516C2766516D236CC0D9FF6DC0DAFF5E
:1038D000DF50D8A46EEF1CF070EF1CF07BEF1CF0F3
:1038E000000E0101DC6F000EDD6FDCC16CF0DDC18C
:1038F0006DF0ADEF1CF06CC065F06DC066F06EC091
:1039000067F06FC068F058EC22F0000165516C253B
:103910000101DC6F000166516D210101DD6FDCC129
:10392000D9FFDDC1DAFFDF50D8B499EF1CF09BEF6F
:103930001CF0A5EF1CF0DCC1D9FFDDC1DAFF000EE1
:10394000DF6EDC4BDD2BA9EF1CF0000EDC6F000EF0
:10395000DD6F6CC06CF06DC06DF012000001EE8F79
:103960006B0E016E0F0E026E000E046E000E036EE3
:10397000000E066E020E056ED5EC0FF0000E016E05
:10398000040E026E000E046E000E036E000E066E34
:10399000300E056ED5EC0FF0608C000E156E310EFA
:1039A0001524D96EDA6A000EDA22000EDF6E2E0EB2
:1039B0001524D96EDA6A000EDA22000EDF6E152A9F
:1039C000020E1564E6EF1CF0E8EF1CF0CFEF1CF0E0
:1039D000FB0E016E010E026E000E046E000E036EF1
:1039E000000E066E020E056ED5EC0FF0609C080E00
:1039F0000001F16F040EF26F000E446E040E456E6E
:103A000044C042F045C043F032C458F05850D8A4E6
:103A10000CEF1DF00EEF1DF012EF1DF0100E566EA4
:103A200022EF1DF0000E0E6E010E0D6E580E0F6E81
:103A3000000E106E000E126E010E116E66EC21F07B
:103A4000200E566E120060C067F061C068F062C060
:103A500069F063C06AF000016407D8A065076429B3
:103A600006E16529D8A437EF1DF039EF1DF046EFC8
:103A70001DF0000E616F000E606F92EF1DF0674B3E
:103A8000682B694B6A2B6407D8A0650767C0F6FFEF
:103A900068C0F7FF0800F5500009D8B452EF1DF0D8
:103AA00054EF1DF080EF1DF069C0F6FF6AC0F7FF0C
:103AB0000800F5500009D8B460EF1DF062EF1DF06A
:103AC00080EF1DF064516511D8B469EF1DF06BEF04
:103AD0001DF080EF1DF067C0F6FF68C0F7FF08001B
:103AE000F5CF66F069C0F6FF6AC0F7FF0800F55031
:103AF0006619D8B47EEF1DF080EF1DF03FEF1DF08A
:103B000067C0F6FF68C0F7FF0800F5CF66F069C030
:103B1000F6FF6AC0F7FF0800F550665D606F616BE5
:103B2000D8A061071200000162516311D8B49BEF65
:103B30001DF09DEF1DF0A6EF1DF062516311D8A49A
:103B4000A4EF1DF0A6EF1DF0ABEF1DF060514EECA1
:103B500026F0F8EF1DF020EE09F06251D9266351EE
:103B6000DA22DE50DE10D8B4B8EF1DF0BAEF1DF047
:103B7000D5EF1DF020EE09F06251D9266351DA220B
:103B800010EE03F06251E1266351E222DE50E65C62
:103B9000E650800A686FDE50800A6859D8B0D3EFCB
:103BA0001DF0D5EF1DF0F8EF1DF020EE03F062518F
:103BB000D9266351DA22DECF64F0DDCF65F062C032
:103BC000D9FF63C0DAFFDECF66F0DDCF67F0645166
:103BD0006625D96E65516721DA6E60C0DFFF20EE81
:103BE00003F06251D9266351DA22DE2A000EDD226B
:103BF00012000001F7A1FFEF1DF001EF1EF00BEF27
:103C00001EF072C069F073C06AF070C06BF071C0D2
:103C10006CF0E6EC23F0000175BF11EF1EF013EF1E
:103C20001EF019EF1EF074C079F075C07AF01DEF28
:103C30001EF0000E7A6F000E796F000E786F000E86
:103C4000776F30EF1EF0000E616F200E606F70C056
:103C500062F071C063F093EC1DF00001774B782B9C
:103C60007951775D7851800A766F7A51800A76595A
:103C7000D8A03DEF1EF03FEF1EF023EF1EF0F7B18E
:103C800044EF1EF046EF1EF050EF1EF072C069F0D8
:103C900073C06AF070C06BF071C06CF0E6EC23F09A
:103CA00072C060F073C061F0E7EC24F0000179515C
:103CB0006025706F7A516121716F12006FEC25F0F1
:103CC000000E0301006F000E016F000E6A6F000E00
:103CD0006B6FF28EF28C45EC26F047EC26F0540E1A
:103CE0000001606F430E616F32EC26F0E20E0001BE
:103CF000606F020E616FC9EC24F081908188818A27
:103D0000819281948196000E0201166F8A80000EC6
:103D1000E16F000EE06FE20E0001D26F020ED36F72
:103D200019EC06F0040E0201E019E111D8A49BEF92
:103D30001EF09DEF1EF0ABEF1EF0E20E0001D26F01
:103D4000020ED36F65EC13F0000E0201E16F000E5E
:103D5000E06FADEF1EF0E04BE12BB8EC0CF09C0EE9
:103D60000001E26FD70EE82EFED7E22FFCD78BEFD3
:103D70001EF08EEF00F02D0E4F6E57C01EF0FD0EA0
:103D80001E16D8A4C6EF1EF0C8EF1EF00AEF1FF0F3
:103D900057C01EF0D8901E323F0E1E161E50040D46
:103DA000000EF324446E040EF420456E44C042F02D
:103DB00045C043F0040E4218426E4350436E44C067
:103DC000D9FF45C0DAFFDF30E8320F0B0D0AD8A467
:103DD000ECEF1EF0EEEF1EF006EF1FF0300E016E5E
:103DE000040E026E20EE02F04450D9264550DA222D
:103DF000DECF03F0DDCF04F0000E066E080E056E78
:103E00004DEC23F01EEC21F016EF1FF0E9EC21F051
:103E100016EF1FF05750FD0B040AD8A412EF1FF045
:103E200014EF1FF016EF1FF03AEC1BF01200000E1B
:103E3000486E40504110D8B420EF1FF022EF1FF021
:103E40002DEF1FF040C0D9FF41C0DAFFDFBE2BEFDE
:103E50001FF02DEF1FF070EF1FF020EE01F040502B
:103E6000D9264150DA2200016D51DE5CD8B03BEF1B
:103E70001FF03DEF1FF045EF1FF020EE01F0405026
:103E8000D9264150DA22DF506D6F000E486E58EF90
:103E90001FF0400E4824D96EDA6A050EDA22485027
:103EA0006B25E16E000E6C21E26EDFCFE7FF482A42
:103EB0006D51485CD8A05FEF1FF061EF1FF049EF34
:103EC0001FF0000E606F400E616F050E626F400EB6
:103ED000636F020EA0EC16F060C040F061C041F0CC
:103EE0004850120060C0D9FF61C0DAFFDECF64F035
:103EF000DDCF65F036503710D8A481EF1FF083EF87
:103F00001FF087EF1FF0000E366E050E376E0001B2
:103F1000655107E1060E645DD8B091EF1FF093EF95
:103F20001FF097EF1FF0000E656F060E646F64516F
:103F3000365C666F65513758676F800E626F040E8E
:103F4000636F6251665D63516759D8A0AAEF1FF095
:103F5000ACEF1FF0B7EF1FF03650665D3750675972
:103F6000D8A0B5EF1FF0B7EF1FF0C3EF1FF0000EA2
:103F70000101E36F0C0EE26F000E0001606F000E96
:103F8000616FCBEF1FF066C036F067C037F036C008
:103F900060F037C061F01200000E4B6E000E4A6EEA
:103FA000020E5418D8A4D7EF1FF0D9EF1FF0F9EF85
:103FB0001FF020EE01F04250D9264350DA22080EBD
:103FC000DF6E20EE02F04250D9264350DA22380E3E
:103FD000DE6E040EDD6E42C0D9FF43C0DAFF480E2C
:103FE000DF6E42C0D9FF43C0DAFF000EDB8E25EF43
:103FF00020F00001EF510401365D0001F051040191
:104000003759D8B006EF20F008EF20F00CEF20F081
:1040100036C4EFF037C4F0F0A1EC19F0000120EE47
:1040200002F0F151D926F251DA22380EDE6E040E7A
:10403000DD6EF1C0D9FFF2C0DAFF480EDF6EF1C0CD
:10404000D9FFF2C0DAFF000EDB8E1200066E000E02
:10405000076E040E086E0150026E036AD890023695
:1040600003360650046E056AD89004360536D8909B
:10407000043605360250042603500522D890043633
:104080000536D89004360536045007260550082218
:1040900007C0D9FF08C0DAFFDF9E0150D8A453EF54
:1040A00020F055EF20F063EF20F00650020DC80E0F
:1040B000F324D96E010EF420DA6E07C0DEFF08C0CB
:1040C000DDFF6FEF20F00650020DF10EF324D96EE4
:1040D000000EF420DA6E07C0DEFF08C0DDFF07C067
:1040E000D9FF08C0DAFFDF9C20EE04F00750D92684
:1040F0000850DA22DF8C1200780EF66E4C0EF76E46
:10410000000EF86E02EEE8F010EE09F00900F5CFAF
:10411000EEFFE550E150FAE19A0EF66E4C0EF76EA6
:10412000000EF86E0900F5CFFDF10900F5CFFEF1A4
:1041300007EE00F0C80EEE6AE806FDE106EE00F0BC
:10414000C80EEE6AE806FDE103EE00F0C80EEE6A66
:10415000E806FDE102EE00F0A40EEE6AE806FDE1DD
:1041600001EEC8F0350EEE6AE806FDE104EE40F01F
:10417000400EEE6AE806FDE100EEE3F0160EEE6A90
:10418000E806FDE100EE2EF02B0EEE6AE806FDE1FA
:1041900059905992000EF86E00015EEF1EF0FDC1BD
:1041A00076F0FEC177F072C06CF073C06DF0760EE1
:1041B00000016E6F000E6F6F38EC1CF070C0D9FFFD
:1041C00071C0DAFF00016CC0DEFF6DC0DDFF000EC4
:1041D000796F000E786F07EF21F0784B792B000E86
:1041E0006C6F000E6D6F760E6E6F000E6F6F38EC99
:1041F0001CF0D89000017835D96E7935DA6E70519F
:10420000D9267151DA226CC0DEFF6DC0DDFFD89077
:104210007835D96E7935DA6E7051D9267151DA2236
:10422000DE50DE10D8A417EF21F019EF21F0EDEFEA
:1042300020F078C070F079C071F01200000E556E59
:10424000000E4E6E000E4B6E000E4A6E000E506E4B
:10425000000E546EF1C0D9FFF2C0DAFF7F0EDF16F8
:10426000040E0001F119F16FF251F26FF1C0D9FFA4
:10427000F2C0DAFF7F0EDF16040EF119F16FF25172
:10428000F26F42C0D9FF43C0DAFF7F0EDF16000E87
:10429000EE6F000EF06F000EEF6F000EE66F000E77
:1042A000E86F000EE76F81EC18F0000E0E6E030E43
:1042B0000D6E000E0F6E000E106E000E126E000ED0
:1042C000116E66EC21F041EC17F0120070EF21F056
:1042D000C2EC22F0A9EF21F0B4EC1AF0A9EF21F022
:1042E0000DC013F00EC014F01450000AD8B47FEFC4
:1042F00021F07F0AD8B4A2EF21F0A9EF21F01350EA
:10430000010AD8B468EF21F0030AD8B4A9EF21F06C
:10431000010AD8B46CEF21F0060AD8B4A9EF21F055
:10432000770AD8B4A9EF21F0010AD8B4A9EF21F097
:10433000070AD8B4A9EF21F0010AD8B4A9EF21F0F7
:10434000A9EF21F01350FF0AD8B4A9EF21F0A9EF8B
:1043500021F012008ABCAFEF21F0B2EF21F0010E84
:10436000B3EF21F0000EFF0A026E023A0246024647
:104370008A500218BF0B02188A6E7F0E41EC26F09D
:104380000101E851E911D8A4C8EF21F0CAEF21F0EA
:10439000D0EF21F0000EE96F010EE86FE8EF21F099
:1043A000FF0E3A243A6EFF0E3B203B6E000EE96F83
:1043B000000EE86F3A503B10D8A4E1EF21F0E3EF94
:1043C00021F0E8EF21F0000EF86F8A804BEC26F028
:1043D0001200020E5418D8A4F0EF21F0F2EF21F0F1
:1043E000F6EF21F05DEC15F022EF22F0000E546E96
:1043F0005050D8A4FEEF21F000EF22F020EF22F081
:1044000020EE01F04250D9264350DA22080EDF6E2A
:1044100020EE02F04250D9264350DA22300EDE6EF2
:10442000040EDD6E42C0D9FF43C0DAFF0C0EDF6E12
:1044300042C0D9FF43C0DAFF000EDB8E22EF22F02C
:10444000000E506E1200000E00016B6F000E6A6FBE
:104450002EEF22F0654B662B6A4B6B2B65C0D9FFA4
:1044600066C0DAFFDF50D8B438EF22F03AEF22F01E
:1044700053EF22F067C060F068C061F065C0D9FFFB
:1044800066C0DAFFDF50696F6951626F636B75EC6C
:1044900023F0000160516111D8A451EF22F053EFD5
:1044A00022F02AEF22F06AC065F06BC066F01200BD
:1044B000000E00016B6F000E6A6F63EF22F0654B18
:1044C000662B6A4B6B2B65C0D9FF66C0DAFFDF50E5
:1044D000D8B46DEF22F06FEF22F088EF22F067C0C2
:1044E00060F068C061F065C0D9FF66C0DAFFDF50D8
:1044F000696F6951626F636B75EC23F00001605165
:104500006111D8B486EF22F088EF22F05FEF22F03D
:104510006AC065F06BC066F01200B5C0B9F0B6C0F5
:10452000BAF0000E0101DF6F000EDE6FAFEF22F078
:10453000B3C09FF0B4C0A0F0B90E0001A16F000E8F
:10454000A26FB7C0A3F0B8C0A4F012EC09F000014C
:104550009F510101DE270001A0510101DF23B9C0F5
:10456000F6FFBAC0F7FF0800F5500009D8A4BBEF6A
:1045700022F0BDEF22F098EF22F0DEC1B3F0DFC1F0
:10458000B4F01200000E02019D6F4B0E9E6F000EE4
:104590009F6F000EA06F000EA16F000EA26F080E9D
:1045A000A36F000E486E1A0E096E010E9CEC23F0EC
:1045B0001E0E096E020E9CEC23F0000E016E400EE2
:1045C000026E050E036E400E046E020EE2EC17F052
:1045D00001C040F002C041F0000E0101F46F000E76
:1045E000F56F000E476E12006AA0F9EF22F0FBEFA4
:1045F00022F022EF23F044C0D9FF45C0DAFF800E3D
:10460000DE18D8A406EF23F008EF23F021EF23F003
:10461000F1C0D9FFF2C0DAFF840EDE18D8A413EF80
:1046200023F015EF23F021EF23F044C0D9FF45C05C
:10463000DAFF0C0EDF6E44C0D9FF45C0DAFF000E72
:10464000DB8E6A90659A1200BF0E0001C56F000EE6
:10465000C66FBBC0C7F0BCC0C8F0000ECB6F000E69
:10466000CA6F000ED16F000ED06FC70EB36F000E71
:10467000B46FBDC0B5F0BEC0B6F0C50EB76F000ECA
:10468000B86F8DEC22F00001CA51BB25D96ECB5119
:10469000BC21DA6E000EDF6E120003C009F004C008
:1046A0000AF001C007F002C008F067EF23F009C06C
:1046B000D9FF0AC0DAFFDF500B6E094A0A2A07C089
:1046C000D9FF08C0DAFF0BC0DFFF074A082A05063A
:1046D000D8A00606052806E10628D8A472EF23F024
:1046E00074EF23F057EF23F0120060C0D9FF61C0D0
:1046F000DAFF00016251DE18D8A481EF23F083EFC6
:1047000023F089EF23F060C060F061C061F09BEF9F
:1047100023F060C0D9FF61C0DAFF604B612BDF502E
:10472000D8A495EF23F097EF23F075EF23F0000E58
:10473000606F000E616F12000C6E09A4A2EF23F0EF
:10474000A4EF23F0A9EF23F0000E016E0C5026EC2D
:1047500020F009A2AEEF23F0B0EF23F0B5EF23F085
:10476000010E016E0C5026EC20F06A0E0C240A6E2D
:104770000B6A0F0E0B220AC0D9FF0BC0DAFF09C06B
:10478000DFFF1200200E5660C8EF23F0CAEF23F0BF
:10479000CCEF23F0E5EF23F060A2D1EF23F0D3EFCD
:1047A00023F0D5EF23F0E5EF23F04750D8A4DBEF5B
:1047B00023F0DDEF23F0E5EF23F064C060F065C087
:1047C00061F066C062F086EC25F01200000E000178
:1047D0006F6F000E6E6FF9EF23F06DC060F0616BCC
:1047E0006BC062F06CC063F093EC1DF000016E4B87
:1047F0006F2B6E516925D96E6F516A21DA6EDF50C9
:104800006D6F6D51D8A407EF24F009EF24F0EDEFA0
:1048100023F01200000173BF18EF24F0735106E17A
:104820007205D8B016EF24F018EF24F026EF24F02C
:1048300072C074F073C075F0741F751F744B752BC4
:1048400074C072F075C073F02AEF24F072C072F079
:1048500073C073F012005650D8A431EF24F033EF38
:1048600024F04BEF24F0000E606E000E646E160E06
:10487000626E9F0E666E7B0E646EA584A38442EF0B
:1048800024F0608660A647EF24F049EF24F041EF62
:1048900024F0010E566E120062C064F063C065F031
:1048A00060C066F061C067F064C0D9FF65C0DAFF20
:1048B0000001644B652B66C0E1FF67C0E2FF664BF9
:1048C000672BDFCFE7FFE750D8A469EF24F06BEF49
:1048D00024F054EF24F01200200E566072EF24F002
:1048E00074EF24F076EF24F08AEF24F060A27BEFDF
:1048F00024F07DEF24F07FEF24F08AEF24F0000E07
:1049000000016B6F070E6C6FC80E6D6F17EC1FF018
:104910000201166F1200000E526E000E0E6E740E23
:104920000D6E000E0F6E000E106E000E126E000E59
:10493000116E66EC21F060926494A0EF24F065940F
:1049400065B4A5EF24F0A7EF24F09FEF24F0000E4C
:10495000496E1200A1923EC001F03FC002F0DEECB1
:1049600025F00101F251F311D8B4B9EF24F0BBEFF7
:1049700024F0C8EF24F002D8C8EF24F00500FA6E46
:10498000F251FD6EF351FE6EF850FF6EFA501200B8
:10499000120060C0D9FF61C0DAFF000EDE6E000EAB
:1049A000DD6E000120EE02F06051D9266151DA225D
:1049B000000EDE6E000EDD6E20EE04F06051D92692
:1049C0006151DA22000EDE6E000EDD6E120060C054
:1049D00062F061C063F0F0EF24F00001604B612BE6
:1049E00060C0D9FF61C0DAFFDF50D8A4FAEF24F02D
:1049F000FCEF24F0EDEF24F000016251605D606F88
:104A000063516159616F1200F2943D50D76E3CC002
:104A1000D6FF0101EC51ED11D8B411EF25F013EFE1
:104A200025F020EF25F002D820EF25F00500FA6EE2
:104A3000EC51FD6EED51FE6EF850FF6EFA50120013
:104A40001200D59CFE0ED76ED668D650D7CF62F036
:104A50000001636B62C063F0626B62113C6E635174
:104A60003D6EF294F28AA20E606F4C0E616F37ECCD
:104A700026F0BF0ED56E1200010E0101D227000EE6
:104A8000D323D423D5235250D8A449EF25F04BEF9C
:104A900025F055EF25F0492A4950D8A452EF25F0CA
:104AA00054EF25F055EF25F0496812009E92010160
:104AB000F051F111D8B45FEF25F061EF25F06EEF02
:104AC00025F002D86EEF25F00500FA6EF051FD6E6C
:104AD000F151FE6EF850FF6EFA501200120049ECD0
:104AE00026F0B2EC25F01BEC26F024EC26F011ECBD
:104AF00014F010EC26F09CEC25F0F2EC25F002EC22
:104B000026F021EC25F02BEC24F01200A394475062
:104B1000D8A48DEF25F08FEF25F09AEF25F060C037
:104B2000D9F161C0DAF162C046F0010E0101FA6FFD
:104B3000010E476EA3841200000EB46E440EB36ED5
:104B4000800EB26EB2CF3EF0B3CF3FF0A192A08202
:104B50009E0E0001606F4C0E616F2DEC26F0010E71
:104B6000B16E1200000E896E000E8A6E000E8B6E02
:104B70009268000E936EC70E946EC40E0F015D6FA7
:104B8000000E5C6F2F0E5B6F000E856EF18E1200B3
:104B9000648465986082010E526E000E496E000EAC
:104BA0000E6E750E0D6E000E0F6E000E106E000E66
:104BB000126E000E116E66EC21F01200B1A4E3EF4C
:104BC00025F0E5EF25F0EDEF25F0B1900250B36E42
:104BD00001C0B2FFB180F1EF25F00250B36E01C009
:104BE000B2FF1200BB0EBB6E000EBC6E9E929D8289
:104BF000A00E0001606F4C0E616F32EC26F07E0E4D
:104C0000BA6E1200000ECC6E000ECF6E000ECE6E8D
:104C1000CECFEEF1CFCFEFF19E90010ECD6E120010
:104C2000000EC16E060EC06E000EC36E000EC46E86
:104C3000010EC26E1200700ED36E000ED26E800E88
:104C40009B6E000EB56E1200040E976E000E906EF5
:104C5000000E916E0F015997120060C0F2F161C011
:104C6000F3F1120060C0F0F161C0F1F1120060C018
:104C7000ECF161C0EDF11200286E756C6C29000A30
:014C80000033
:104C8200016E01C0BCFF1200B1901200BA94120072
:104C9200D09E1200BA9412002000120012001200DC
:024CA2001200FE
:020000040020DA
:08000000FFFFFFFFFFFFFFFF00
:020000040030CA
:0E00000023285F3CFF5381FF0FC00FE00F402D
:00000001FF
