:0400000056EF00F0C7
:100008005F82FACF80F0FBCF81F0E1CF82F0E2CFC0
:1000180083F0D9CF84F0DACF85F0F3CF86F0F4CF30
:1000280087F0F6CF88F0F7CF89F0F8CF8AF0F5CFD0
:100038008BF0F2BAF2A403D08BEC3DF019D0F2B6F3
:10004800F2A003D0EBEC3EF013D0F2AC11D0A3B485
:10005800A4A403D05FEC28F00BD0A0B2A1A203D0D7
:10006800EBEC3CF005D09DB29EA202D0EAEC3DF04C
:100078008BC0F5FF8AC0F8FF89C0F7FF88C0F6FF7C
:1000880087C0F4FF86C0F3FF85C0DAFF84C0D9FFBC
:1000980083C0E2FF82C0E1FF81C0FBFF80C0FAFF9E
:1000A8005F921100AEEF36F027512811D8B40BD06B
:1000B80027C1D9FF28C1DAFF25C1DEFF26C1DDFF30
:1000C80002D0254B262B25C1D9FF26C1DAFF200EE9
:1000D800DE18D8A402D0010E01D0000E336F346BA5
:1000E80033513411D8A4EDD7F70E296FFF0E2A6FBC
:1000F80025C1D9FF26C1DAFFDF502B6F2B51336F93
:10010800346B33C12CF134C12DF129512C272A51DC
:100118002D232D5104E1050E2C5DD8A0D2D7000E59
:10012800306F2D0E33193411D8A405D0010E306F5D
:10013800254B262B05D02B0E33193411D8B4F8D7FC
:10014800000E396F01D0392B39512525D96E000E93
:100158002621DA6EDF50D8B426D039512525D96E3C
:10016800000E2621DA6EDF50296FD40E3925F66E7F
:10017800F76A7F0EF7220800F5502919D8B4E3D79B
:1001880039512525D96E000E2621DA6EDF50296FE8
:10019800CB0E3925F66EF76A7F0EF7220800F55068
:1001A8002919D8B4D0D7020E396523D0000E356F7F
:1001B800000E366F800E376F7F0E386F275128116B
:1001C800D8B4A1EF06F0080E3919D8B402D0030E3E
:1001D800396F39512525296F000E26212A6F27C12D
:1001E800D9FF28C1DAFF29C1DEFF2AC1DDFFA1EF4F
:1001F80006F0000E396F01D0392B39512525D96EFB
:10020800000E2621DA6EDF50D8B426D039512525C4
:10021800D96E000E2621DA6EDF50296FF30E3925CC
:10022800F66EF76A7F0EF7220800F5502919D8B440
:10023800E3D739512525D96E000E2621DA6EDF5015
:10024800296FEB0E3925F66EF76A7F0EF722080044
:10025800F5502919D8B4D0D7030E3919D8A457D0D6
:10026800E10E00018C6F7F0E8D6FFCEC3DF08CC0B1
:1002780035F18DC036F18EC037F18FC038F10101EC
:1002880027512811D8B4A1EF06F039512527000EBF
:10029800262325C1D9FF26C1DAFF280EDE18D8A4E7
:1002A8002CD0000E396F01D0392B39512525D96E44
:1002B800000E2621DA6EDF50D8B40AD03951252530
:1002C800D96E000E2621DA6E290EDE18D8A4ECD7D6
:1002D80039512525D96E000E2621DA6E290EDE1831
:1002E800D8A40BD03951296F2A6B010E2927000E8B
:1002F8002A23295125272A51262327C1D9FF28C176
:10030800DAFF25C1DEFF26C1DDFFA1EF06F0000EF2
:10031800346F000E336F000E356F000E366F000E0F
:10032800376F000E386F000E326F000E316F000EFF
:10033800396F01D0392B39512525D96E000E262168
:10034800DA6E300EDE18D8B4F5D73951D8B4A3D246
:1003580039512525D96E000E2621DA6E780EDE1861
:10036800D8B40AD039512525D96E000E2621DA6E67
:10037800580EDE18D8A48FD23951296F2A6B010E76
:100388002927000E2A23295125272A512623000E22
:10039800396F01D0392B39512525D96E000E262108
:1003A800DA6E300EDE18D8B4F5D7000E396F395131
:1003B8002525D96E000E2621DA6E700EDE18D8B407
:1003C8002CD139512525D96E000E2621DA6E500E12
:1003D800DE18D8B422D139512525D96E000E262130
:1003E800DA6E2E0EDE18D8A402D0308915D1395114
:1003F8002525D96E000E2621DA6EDF50296F295186
:100408000001926F936B92EC38F092519311D8B42B
:1004180061D0000E01012F6FD00E296FFF0E2A6FD9
:1004280039512525D96E000E2621DA6EDF502B6F43
:100438002C6B29512B272A512C232C510DE10A0E04
:100448002B5DD8B009D039512525D96E000E26214B
:10045800DA6EDF50D00F11D039512525D96E000E34
:100468002621DA6EDF50296F29510001926F936BB4
:10047800CDEC3BF09251C90F01012F6F34BF06D06C
:10048800345121E1080E335DD8B01DD0335107082F
:10049800296FD8902937D89029372FC12AF12B6B8B
:1004A8002C6B2D6B292B05D0D8902A372B372C375E
:1004B8002D37292FF9D72A5135132B5136132C51A3
:1004C80037132D513813334B342B040E3127000EBC
:1004D80032230AD0000E0101256F000E266F000E90
:1004E800276F000E286F1200392B61D73951252547
:1004F800D96E000E2621DA6E700EDE18D8B48FD0B1
:1005080039512525D96E000E2621DA6E500EDE18D7
:10051800D8B485D039512525D96E000E2621DA6E3A
:10052800300EDE18D8A409D033513411D8A405D020
:10053800FC0E3127FF0E32236ED039512525D96E96
:10054800000E2621DA6EDF50296F29510001926FC3
:10055800936B92EC38F092519311D8B45CD0000EA2
:1005680001012F6FD00E296FFF0E2A6F39512525F3
:10057800D96E000E2621DA6EDF502B6F2C6B2951B5
:100588002B272A512C232C510DE10A0E2B5DD8B0B4
:1005980009D039512525D96E000E2621DA6EDF5093
:1005A800D00F11D039512525D96E000E2621DA6ECB
:1005B800DF50296F29510001926F936BCDEC3BF00E
:1005C8009251C90F01012F6F34BF06D0345121E178
:1005D800080E335DD8B01DD033510708296FD89065
:1005E8002937D89029372FC12AF12B6B2C6B2D6B0B
:1005F800292B05D0D8902A372B372C372D37292F80
:10060800F9D72A5135132B5136132C5137132D5145
:100618003813334B342B0101392B30B967D7395193
:100628002525D96E000E2621DA6E700EDE18D8B494
:1006380013D039512525D96E000E2621DA6E500EB9
:10064800DE18D8B409D0000E256F000E266F000EF4
:10065800276F000E286F1200392B39512525D96EC6
:10066800000E2621DA6E2B0EDE18D8B40BD03951C5
:100678002525D96E000E2621DA6E2D0EDE18D8A497
:1006880002D03087392B39512527000E2623000E3A
:10069800396F01D0392B39512525D96E000E262105
:1006A800DA6E300EDE18D8B4F5D7000E346F000EAF
:1006B800336F29D03951D8B40FD033C18CF034C13D
:1006C8008DF0000E00018F6F0A0E8E6FA1EC3DF0C9
:1006D8008CC033F18DC034F1D00E0101296FFF0EAB
:1006E8002A6F39512525D96E000E2621DA6EDF5082
:1006F8002B6F2C6B29512B272A512C232B51332755
:100708002C513423392BD00E296FFF0E2A6F395103
:100718002525D96E000E2621DA6EDF502B6F2C6B43
:1007280029512B272A512C232C5104E10A0E2B5D29
:10073800D8A0C0D73951D8A409D0000E256F000E13
:10074800266F000E276F000E286F120030A704D006
:10075800336D341FD8B0342B335131273451322301
:1007680027512811D8B40ED039512525296F000EEC
:1007780026212A6F27C1D9FF28C1DAFF29C1DEFF48
:100788002AC1DDFF3551361137113811D8A409D0E7
:10079800000E256F000E266F000E276F000E286FC3
:1007A8001200800E356511D0000E3527010E362354
:1007B800000E3723000E382308D0D8903537363747
:1007C800373738373107D8A0320738AFF6D732AFC6
:1007D80012D0830E315DFF0E3259D8B00CD0FF0E07
:1007E800326F810E316F000E356F000E366F000EBE
:1007F800376F000E386F810E311903E13229D8B4F2
:1008080008D0D89035373637373738373107D8A03A
:10081800320732BF12D0325104E1800E315DD8A0C8
:100828000CD0000E356F000E366F000E376F000EBD
:10083800386F000E326F800E316F090E296FD89015
:100848003833373336333533292FF9D7FF0E351779
:10085800FF0E36177F0E3717000E38177F0E31251B
:10086800296F000E32212A6FFF0E29152B6F2C6B72
:100878002D6B2E6B170ED8902B372C372D372E3724
:10088800E82EF9D72B5135132C5136132D51371328
:100898002E51381352D230B90AD025C1D9FF26C1FA
:1008A800DAFF2E0EDE18D8A402D0308951D0D00E2F
:1008B800296FFF0E2A6F25C1D9FF26C1DAFFDF5045
:1008C8002B6F2C6B29512B272A512C232C5143E1B8
:1008D8000A0E2B5DD8B03FD03083090E331934117E
:1008E800D8B432D030A903D03107D8A03207334B5F
:1008F800342B35C18CF036C18DF037C18EF038C13C
:100908008FF00A0E0001906F000E916F000E926F2B
:10091800000E936F49EC39F08CC035F18DC036F17B
:100928008EC037F18FC038F125C1D9FF26C1DAFF53
:10093800DF500101296FD00E292729513527000ED4
:1009480036233723382304D030B902D0314B322B29
:10095800254B262BA0D7000E346F000E336F25C110
:10096800D9FF26C1DAFF650EDE18D8B408D025C134
:10097800D9FF26C1DAFF450EDE18D8A4AED0254B24
:10098800262B25C1D9FF26C1DAFF2D0EDE18D8A4E3
:1009980002D0308708D025C1D9FF26C1DAFF2B0E37
:1009A800DE18D8A402D0254B262B25C1D9FF26C195
:1009B800DAFF300EDE18D8B4F6D7D00E296FFF0E46
:1009C8002A6F25C1D9FF26C1DAFFDF502B6F2C6BA8
:1009D80029512B272A512C232C5179E10A0E2B5D02
:1009E800D8B075D025C1D9FF26C1DAFFDF50296FED
:1009F800D00E29272951336F346B254B262BD00E67
:100A0800296FFF0E2A6F25C1D9FF26C1DAFFDF50F3
:100A18002B6F2C6B29512B272A512C232C5157E152
:100A28000A0E2B5DD8B053D025C1D9FF26C1DAFFF5
:100A3800DF50296FD00E292733C18CF034C18DF0D7
:100A4800000E00018F6F0A0E8E6FA1EC3DF00101C0
:100A5800295100018C250101336F000E00018D2101
:100A68000101346F254B262BD00E296FFF0E2A6FFC
:100A780025C1D9FF26C1DAFFDF502B6F2C6B295116
:100A88002B272A512C232C5122E10A0E2B5DD8B09A
:100A98001ED025C1D9FF26C1DAFFDF50296FD00E3D
:100AA800292733C18CF034C18DF0000E00018F6FFF
:100AB8000A0E8E6FA1EC3DF00101295100018C2531
:100AC8000101336F000E00018D210101346F30A741
:100AD80004D0336D341FD8B0342B335131273451FF
:100AE800322327512811D8A430A308D027C1D9FF11
:100AF80028C1DAFF25C1DEFF26C1DDFF35C198F028
:100B080036C199F037C19AF038C19BF0000E1FEC3E
:100B180024F098C035F199C036F19AC037F19BC0DE
:100B280038F135C18CF036C18DF037C18EF038C13F
:100B38008FF0000E906F000E916F000E926F000EF6
:100B4800936F3BEC37F0D8A00AD0000E0101256F57
:100B5800000E266F000E276F000E286F120001018D
:100B680032AF75D0316D321FD8B0322B1ED035C19F
:100B780000F136C101F137C102F138C103F1F90EB4
:100B8800046F020E056F150E066F500E076F9FEC6F
:100B980019F000C135F101C136F102C137F103C1C5
:100BA80038F1F60E3127FF0E322332BF24D03251EE
:100BB800DEE10A0E315DD8A01ED0D9D735C100F1CB
:100BC80036C101F137C102F138C103F1000E046FDB
:100BD800000E056F200E066F410E076F9FEC19F08F
:100BE80000C135F101C136F102C137F103C138F155
:100BF8003107D8A0320731513211D8A4DFD735C117
:100C080019F136C11AF137C11BF138C11CF1000EB8
:100C18001D6F000E1E6F800E1F6F000E206F23ECDD
:100C280030F0D8B08AD030A109D0000E256F000E60
:100C3800266F800E276F800E286F1200000E256F1A
:100C4800000E266F800E276F000E286F120032BF2D
:100C580074D0325122E13105D8B01FD06ED035C1E1
:100C680000F136C101F137C102F138C103F1F90EC3
:100C7800046F020E056F150E066F500E076FBBEC62
:100C880010F000C135F101C136F102C137F103C1DD
:100C980038F1F60E3127FF0E32233251E0E10A0E09
:100CA800315DD8A01ED0DBD735C100F136C101F1C6
:100CB80037C102F138C103F1000E046F000E056F51
:100CC800200E066F410E076FBBEC10F000C135F126
:100CD80001C136F102C137F103C138F13107D8A09B
:100CE800320731513211D8A4DFD7FF0E196FFF0E2A
:100CF8001A6F7F0E1B6F7F0E1C6F35C11DF136C139
:100D08001EF137C11FF138C120F123EC30F0D8B003
:100D180014D030A109D0000E256F000E266F800E6A
:100D2800276F800E286F1200000E256F000E266FA9
:100D3800800E276F000E286F120030A112D035C127
:100D48008CF036C18DF037C18EF038C18FF0BBEC16
:100D58003CF08CC035F18DC036F18EC037F18FC0B4
:100D680038F135C125F136C126F137C127F138C12F
:100D780028F11200000E4E6F000E4D6F2FC15FF16B
:100D880030C160F131C161F132C162F162AF16D098
:100D9800000E4E6F010E4D6F5FC18CF060C18DF07B
:100DA80061C18EF062C18FF0BBEC3CF08CC05FF18A
:100DB8008DC060F18EC061F18FC062F1000E01013B
:100DC800666F000E656FBCC051F1BDC052F14D5148
:100DD8004E11D8A403D00001C0A514D001014D5173
:100DE8004E11D8A404D0000E3A6F2B0E03D0000E7B
:100DF8003A6F2D0E396F39C136F3654B662B5107A3
:100E0800D8A052075FC18CF060C18DF061C18EF02F
:100E180062C18FF0F3EC30F08C058D11D8A44AD064
:100E2800BF0E0101346FFF0E356F3351366F376BCC
:100E38003451362735513723375114E11A0E365DB0
:100E4800D8B010D0360E652500018C6F030E010155
:100E5800662100018D6FE70E8E6F7F0E8F6F9FECFE
:100E680039F00FD0360E652500018C6F030E010195
:100E7800662100018D6FEF0E8E6F7F0E8F6F9FECD6
:100E880039F00101FD0E5127FF0E52232DC19CF0B0
:100E98002EC19DF0360E00019E6F030E9F6F51C14B
:100EA800A0F052C1A1F03BEC35F09CC02DF19DC0E3
:100EB8002EF112005FC18CF060C18DF061C18EF01F
:100EC80062C18FF0F3EC30F08C518D11D8A44AD068
:100ED800BF0E0101346FFF0E356F3351366F376B1C
:100EE8003451362735513723375114E11A0E365D00
:100EF800D8B010D0360E652500018C6F030E0101A5
:100F0800662100018D6FEB0E8E6F7F0E8F6F9FEC49
:100F180039F00FD0360E652500018C6F030E0101E4
:100F2800662100018D6FF30E8E6F7F0E8F6F9FEC21
:100F380039F00101FD0E5127FF0E52232DC19CF0FF
:100F48002EC19DF0360E00019E6F030E9F6F51C19A
:100F5800A0F052C1A1F03BEC35F09CC02DF19DC032
:100F68002EF11200000E0101676F000E686F800EEF
:100F7800696F3F0E6A6F000E646F000E636F5FC18A
:100F88008CF060C18DF061C18EF062C18FF0000EEF
:100F98000001906F000E916F000E926F000E936F1C
:100FA8003BEC37F0D8A01DD075D067C100F168C1FF
:100FB80001F169C102F16AC103F1000E046F000E6C
:100FC800056F200E066F410E076FBBEC10F000C1D5
:100FD80067F101C168F102C169F103C16AF1634BAC
:100FE800642B5FC119F160C11AF161C11BF162C1C3
:100FF8001CF1000E0101046F000E056F200E066F34
:10100800410E076F67C100F168C101F169C102F1C2
:101018006AC103F1BBEC10F000C11DF101C11EF162
:1010280002C11FF103C120F123EC30F0D8A01ED07B
:10103800BCD767C100F168C101F169C102F16AC199
:1010480003F1000E046F000E056F200E066F410EAF
:10105800076F9FEC19F000C167F101C168F102C187
:1010680069F103C16AF16307D8A064075FC119F188
:1010780060C11AF161C11BF162C11CF167C11DF1A8
:1010880068C11EF169C11FF16AC120F123EC30F07B
:10109800D8A0CFD733C192F00001936BB0EC3BF0EE
:1010A80092510101546F54C153F1670E5419D8A4D9
:1010B8001BD00001BE51BF11D8A404D0000EBF6FD1
:1010C800010EBE6FBFBF05D0BF5109E1BE05D8B044
:1010D80006D0000E0101506F060E4F6F09D0BEC03A
:1010E8004FF1BFC050F104D00001BFAFF8D7F1D71E
:1010F800670E01015419D8A422D064AF06D0FC0EA3
:10110800635DFF0E6459D8A018D0FF0E346FFF0E30
:10111800356F4FC136F150C137F13451362735514B
:1011280037236351365D3751800A386F6451800A1E
:101138003859D8A002D0660E01D0650E536F4FC142
:1011480045F150C146F1670E5419D8A405D0660E72
:101158005319D8B464AF02D0454B462B660E5319C9
:10116800D8A416D064AF0CD0000E676F000E686F5D
:10117800800E696F3F0E6A6F000E646F000E636F1A
:10118800670E5419D8B404D06351452764514623D7
:10119800000E5E6F000E5D6F5FC155F160C156F1C4
:1011A80061C157F162C158F167C147F168C148F19F
:1011B80069C149F16AC14AF17BD055C100F156C1F4
:1011C80001F157C102F158C103F167C104F168C1C7
:1011D80005F169C106F16AC107F19FEC19F000C178
:1011E80019F101C11AF102C11BF103C11CF1FEEC96
:1011F80021F019C159F11AC15AF11BC15BF11CC187
:101208005CF159C119F15AC11AF15BC11BF15CC1FA
:101218001CF151EC2FF019C14BF11AC14CF155C119
:1012280019F156C11AF157C11BF158C11CF167C118
:1012380004F168C105F169C106F16AC107F159C134
:1012480000F15AC101F15BC102F15CC103F1BBECD1
:1012580010F000C11DF101C11EF102C11FF103C14F
:1012680020F166EC3AF019C155F11AC156F11BC1CB
:1012780057F11CC158F167C100F168C101F169C19A
:1012880002F16AC103F1000E0101046F000E056F3F
:10129800200E066F410E076F9FEC19F000C167F131
:1012A80001C168F102C169F103C16AF15D4B5E2BAE
:1012B80045515D5D5E51800A346F4651800A34594C
:1012C800D8A07BD767C100F168C101F169C102F1FB
:1012D8006AC103F1000E046F000E056FA00E066FC1
:1012E800400E076FBBEC10F000C159F101C15AF173
:1012F80002C15BF103C15CF155C119F156C11AF184
:1013080057C11BF158C11CF159C11DF15AC11EF139
:101318005BC11FF15CC120F123EC30F0D8A017D0DD
:1013280055C18CF056C18DF057C18EF058C18FF061
:1013380059C190F05AC191F05BC192F05CC193F031
:101348003BEC37F0D8A00BD001014BB108D0000E10
:10135800596F000E5A6F000E5B6F000E5C6F5FC115
:101368008CF060C18DF061C18EF062C18FF059C1FF
:1013780090F05AC191F05BC192F05CC193F0E8EC37
:1013880013F08CC055F18DC056F18EC057F18FC047
:1013980058F155C119F156C11AF157C11BF158C17D
:1013A8001CF1000E0101046F000E056F200E066F80
:1013B800410E076F47C100F148C101F149C102F16F
:1013C8004AC103F1BBEC10F000C11DF101C11EF1CF
:1013D80002C11FF103C120F123EC30F0D8A022D0C4
:1013E800634B642B47C100F148C101F149C102F1C7
:1013F8004AC103F1000E046F000E056F200E066F40
:10140800410E076FBBEC10F000C147F101C148F174
:1014180002C149F103C14AF1660E5319D8A402D09A
:10142800454B462B47C167F148C168F149C169F18D
:101438004AC16AF1650E5319D8B405D063C143F1A6
:1014480064C144F104D0000E446F000E436F000ED7
:10145800426F000E416F000E406F000E3F6F000E8E
:101468005E6F000E5D6FC8D055C100F156C101F125
:1014780057C102F158C103F167C104F168C105F110
:1014880069C106F16AC107F19FEC19F000C119F1B1
:1014980001C11AF102C11BF103C11CF1FEEC21F0DC
:1014A80019C159F11AC15AF11BC15BF11CC15CF198
:1014B80059C119F15AC11AF15BC11BF15CC11CF188
:1014C80051EC2FF019C14BF11AC14CF10001C0B910
:1014D8000DD001014B514C11D8A408D0670E5419F6
:1014E800D8B444AF03D03F4B402B3AD0010141510F
:1014F8004211D8B444AF22D0360E6525D96E030EFA
:101508006621DA6E2E0EDF6E654B662B5107D8A06A
:101518005207000E426F010E416F10D0360E65253E
:10152800D96E030E6621DA6E300EDF6E654B662BC0
:101538005107D8A052073F07D8A040073F51401194
:10154800D8A4ECD7360E6525D96E030E6621DA6E5F
:101558004B51300FDF6E654B662B5107D8A05207F1
:1015680055C119F156C11AF157C11BF158C11CF1E7
:1015780067C104F168C105F169C106F16AC107F1E3
:1015880059C100F15AC101F15BC102F15CC103F11B
:10159800BBEC10F000C11DF101C11EF102C11FF129
:1015A80003C120F166EC3AF019C155F11AC156F1A0
:1015B8001BC157F11CC158F167C100F168C101F1A5
:1015C80069C102F16AC103F1000E0101046F000E46
:1015D800056F200E066F410E076F9FEC19F000C1D2
:1015E80067F101C168F102C169F103C16AF14307FA
:1015F800D8A044075D4B5E2B45515D5D5E51800A66
:10160800346F4651800A3459D8B008D066BF2CD7F9
:10161800665104E14B0E655DD8A026D741514211B1
:10162800D8A40ED00001C0A90BD0360E0101652543
:10163800D96E030E6621DA6E2E0EDF6E654B662BB1
:10164800360E01016525D96E030E6621DA6E000E8D
:10165800DF6E650E5319D8A4ACD0000E5E6F4F0E26
:101668005D6F360E5D25D96E030E5E21DA6E000EB3
:10167800DF6E000E4E6F000E4D6F64AF08D0000E87
:101688004E6F010E4D6F636D641FD8B0642B000E52
:10169800506F020E4F6F2CD05D07D8A05E07360E34
:1016A8005D25D96E030E5E21DA6E63C18CF064C1CC
:1016B8008DF0000E00018F6F0A0E8E6FC3EC37F0AD
:1016C8008C51300FDF6E63C18CF064C18DF0000E59
:1016D8008F6F0A0E8E6F81EC37F08CC063F18DC06E
:1016E80064F101014F07D8A050075107D8A052074D
:1016F80063516411D8A4D0D750BF05D05051CCE164
:101708004F05D8B0C9D75D07D8A05E074D514E1117
:10171800D8A404D0000E3C6F2B0E03D0000E3C6FF3
:101728002D0E3B6F360E5D25D96E030E5E21DA6EE7
:101738003BC1DFFF5107D8A052075D07D8A05E075D
:10174800BF0E346FFF0E356F3351366F376B345120
:10175800362735513723375104E11A0E365DD8A0A4
:1017680004D0000E3E6F650E03D0000E3E6F450E8E
:101778003D6F360E5D25D96E030E5E21DA6E3DC1D2
:10178800DFFF5107D8A05207360E652500018C6F80
:10179800030E0101662100018D6F360E01015D25E2
:1017A80000018E6F030E01015E2100018F6F9FEC17
:1017B80039F02DC19CF02EC19DF0360E00019E6FB0
:1017C800030E9F6F51C1A0F052C1A1F03BEC35F060
:1017D8009CC02DF19DC02EF112006DC1D9FF6EC1C4
:1017E800DAFFDECFF6FFDDCFF7FF0800F550250A58
:1017F800D8A4A9D26DC1D9FF6EC1DAFFDE2A000EC6
:10180800DD22000E0001BD6F000EBC6FBCC0C0F031
:10181800BDC0C1F0BE69BF696DC1D9FF6EC1DAFF35
:10182800DECFF6FFDDCFF7FF0800F5502E0AD8A46B
:1018380065D0000EBF6F000EBE6F6DC1D9FF6EC1BF
:10184800DAFFDE2A000EDD226DC1D9FF6EC1DAFF94
:10185800DECFF6FFDDCFF7FF0800F5502A0AD8A43F
:101868001CD06DC1D9FF6EC1DAFFDE2A000EDD2261
:101878006FC1D9FF70C1DAFFDFCF71F1020EDE262A
:10188800DFCF72F1000EDD2271C1D9FF72C1DAFF1C
:10189800DECFBEF0DDCFBFF031D06DC1D9FF6EC154
:1018A800DAFFDECF93F0DDCF94F015EC2AF093C089
:1018B800BEF094C0BFF007D06DC1D9FF6EC1DAFF8A
:1018C800DE2A000EDD22D00E0101716FFF0E726F4D
:1018D8006DC1D9FF6EC1DAFFDECFF6FFDDCFF7FFAE
:1018E8000800F550736F746B71517327725174232C
:1018F800745104E10A0E735DD8A0DED76DC1D9FF1B
:101908006EC1DAFFDECFF6FFDDCFF7FF0800F55036
:101918000001926F936BB0EC3BF092510101856F1F
:101928008551D8B437D06DC1D9FF6EC1DAFFDECF8B
:1019380071F1DDCF72F1010E7127000E722371C1B2
:10194800F6FF72C1F7FF0800F5500001926F936B24
:10195800B0EC3BF092510101866F8651D8B41AD091
:101968006DC1D9FF6EC1DAFFDECF71F1DDCF72F143
:10197800020E7127000E722371C1F6FF72C1F7FFC4
:101988000800F5500001926F936BB0EC3BF0925158
:101998000101876F6DC1D9FF6EC1DAFFDECFF6FF97
:1019A800DDCFF7FF0800F550630AD8A426D06DC133
:1019B800D9FF6EC1DAFFDE2A000EDD226FC1D9FF22
:1019C80070C1DAFFDFCF71F1020EDE26DFCF72F1D0
:1019D800000EDD2271C1D9FF72C1DAFFDF50886FB6
:1019E8006BC195F06CC196F088C197F0EDEC34F0BE
:1019F80095C06BF196C06CF112006DC1D9FF6EC134
:101A0800DAFFDECFF6FFDDCFF7FF0800F550640AF6
:101A1800D8B40DD06DC1D9FF6EC1DAFFDECFF6FFA5
:101A2800DDCFF7FF0800F550690AD8A43FD06DC193
:101A3800D9FF6EC1DAFFDE2A000EDD226FC1D9FFA1
:101A480070C1DAFFDFCF71F1020EDE26DFCF72F14F
:101A5800000EDD2271C1D9FF72C1DAFFDECF75F148
:101A6800DDCF76F1000E76BFFF0E776F786F796F56
:101A78007A6F7B6F7C6F6BC100F16CC101F175C12E
:101A880002F176C103F177C104F178C105F179C19A
:101A980006F17AC107F17BC108F17CC109F165EC57
:101AA8001DF000C16BF101C16CF11200660E8519C1
:101AB800D8A43FD06DC1D9FF6EC1DAFFDECFF6FFE3
:101AC800DDCFF7FF0800F5CF88F16DC1D9FF6EC1F2
:101AD800DAFFDE2A000EDD226FC1D9FF70C1DAFFFE
:101AE800DFCF71F1040EDE26DFCF72F1000EDD22AA
:101AF80071C1D9FF72C1DAFFDECF81F1DECF82F189
:101B0800DECF83F1DECF84F16BC12DF16CC12EF1F4
:101B180081C12FF182C130F183C131F184C132F129
:101B280088C133F1BEEC06F02DC16BF12EC16CF10A
:101B38001200850E00018C6F010E8D6FFB0E8E6FEB
:101B48007F0E8F6F000E916F020E906F1CEC2DF0C0
:101B58008C518D11D8A461D06DC1D9FF6EC1DAFF47
:101B6800DECF71F1DDCF72F1010E01017127000E98
:101B7800722371C1F6FF72C1F7FF0800F5CF88F133
:101B8800BF0E716FFF0E726F6DC1D9FF6EC1DAFFA4
:101B9800DECFF6FFDDCFF7FF0800F550736F746BEB
:101BA8007151732772517423745102E11A0E735DD7
:101BB8006FC1D9FF70C1DAFFDFCF71F1040EDE26E5
:101BC800DFCF72F1000EDD2271C1D9FF72C1DAFFD9
:101BD800DECF81F1DECF82F1DECF83F1DECF84F17B
:101BE800020E6DC1D9FF6EC1DAFFDE26000EDD22BE
:101BF8006BC12DF16CC12EF181C12FF182C130F181
:101C080083C131F184C132F188C133F1BEEC06F0F1
:101C18002DC16BF12EC16CF112006DC1D9FF6EC1DF
:101C2800DAFFDECFF6FFDDCFF7FF0800F550730AC5
:101C3800D8B416D06DC1D9FF6EC1DAFFDECF8CF0F3
:101C4800DDCF8DF0F70E8E6F7F0E8F6F000E916FC8
:101C5800030E906F1CEC2DF08C518D11D8A442D03E
:101C68006DC1D9FF6EC1DAFFDECFF6FFDDCFF7FF1A
:101C78000800F550730AD8B405D0000E0101806F32
:101C8800030E04D0000E0101806F010E7F6F6DC13D
:101C9800D9FF6EC1DAFF7F51DE268051DD226FC188
:101CA800D9FF70C1DAFFDFCF71F1020EDE26DFCF78
:101CB80072F1000EDD2271C1D9FF72C1DAFFDECFE9
:101CC8007DF1DDCF7EF16BC195F06CC196F07DC1E1
:101CD80097F07EC198F0D3EC22F095C06BF196C0D6
:101CE8006CF112006DC1D9FF6EC1DAFFDECFF6FFCD
:101CF800DDCFF7FF0800F550250AD8A417D06DC12D
:101D0800D9FF6EC1DAFFDE2A000EDD22000E8D6FCC
:101D1800250E8C6F6BC18EF06CC18FF09DEC34F08A
:101D2800000E01016C6F010E6B6F12006DC1D9FFBF
:101D38006EC1DAFFDE2A000EDD22000E01016C6F93
:101D4800000E6B6F12006DC1D9FF6EC1DAFFDECFD6
:101D5800F6FFDDCFF7FF0800F55000018C6F8D6BA3
:101D68006BC18EF06CC18FF09DEC34F06DC1D9FF62
:101D78006EC1DAFFDE2A000EDD22D2D70101DD05B1
:101D8800D8B4FCD725C18CF026C18DF027C18EF0C0
:101D980028C18FF0000E0001906F000E916F000EA9
:101DA800926F000E936F3BEC37F0D8B01200010E23
:101DB8000101DD6F8A9028AF14D0819E25C18CF077
:101DC80026C18DF027C18EF028C18FF0BBEC3CF006
:101DD8008CC025F18DC026F18EC027F18FC028F167
:101DE80073D1818E71D1010E5E6E5E5000018C6FD1
:101DF8008D6B8E6B8F6BB60E906FA50E916F000E6C
:101E0800926F000E936F49EC39F08CC098F08DC03A
:101E180099F08EC09AF08FC09BF0010E1FEC24F051
:101E280098C000F199C001F19AC002F19BC003F17A
:101E3800B5C104F1B6C105F1B7C106F1B8C107F1E2
:101E4800BBEC10F000C1C6F201C1C7F202C1C8F272
:101E580003C1C9F209D05E505E245E6E100E5E6446
:101E680003D0100E5E6E41D0000E196F000E1A6F6F
:101E78007F0E1B6F430E1C6FB5C104F1B6C105F18F
:101E8800B7C106F1B8C107F15E5000018C6F8D6BC8
:101E98008E6B8F6BB60E906FA50E916F000E926FC2
:101EA800000E936F49EC39F08CC098F08DC099F012
:101EB8008EC09AF08FC09BF0010E1FEC24F098C0E2
:101EC80000F199C001F19AC002F19BC003F1BBEC8B
:101ED80010F000C11DF101C11EF102C11FF103C1C3
:101EE80020F123EC30F0D8A0B6D7000E046F000E16
:101EF800056F040E066F420E076F25C100F126C15B
:101F080001F127C102F128C103F1BBEC10F000C1B7
:101F18002BF101C12CF102C12DF103C12EF15E504C
:101F28000001986F996B9A6B9B6B010E1FEC24F064
:101F380098C004F199C005F19AC006F19BC007F159
:101F48002BC100F12CC101F12DC102F12EC103F109
:101F5800BBEC10F000C119F101C11AF102C11BF16B
:101F680003C11CF151EC2FF019C1C7F11AC1C8F116
:101F78005E50FBEC37F0B7D0010E5E6E09D05E50B4
:101F88005E245E6E100E5E6403D0100E5E6E55D039
:101F9800C6C204F1C7C205F1C8C206F1C9C207F139
:101FA8005E5000018C6F8D6B8E6B8F6BB60E906FD1
:101FB800A50E916F000E926F000E936F49EC39F0E9
:101FC8008CC098F08DC099F08EC09AF08FC09BF0AD
:101FD800010E1FEC24F098C000F199C001F19AC0DD
:101FE80002F19BC003F1BBEC10F000C12BF101C161
:101FF8002CF102C12DF103C12EF1B5C104F1B6C116
:1020080005F1B7C106F1B8C107F12BC100F12CC128
:1020180001F12DC102F12EC103F1BBEC10F000C19A
:1020280019F101C11AF102C11BF103C11CF151ECF4
:102038002FF001011A05D8B0A2D7000E046F000EC8
:10204800056F040E066F420E076F25C100F126C109
:1020580001F127C102F128C103F1BBEC10F000C166
:102068002BF101C12CF102C12DF103C12EF15E50FB
:102078000001986F996B9A6B9B6B010E1FEC24F013
:1020880098C004F199C005F19AC006F19BC007F108
:102098002BC100F12CC101F12DC102F12EC103F1B8
:1020A800BBEC10F000C119F101C11AF102C11BF11A
:1020B80003C11CF151EC2FF019C1C7F11AC1C8F1C5
:1020C8005E50FBEC37F00FD00101E151296F2A6B0C
:1020D8002A51000AD8A407D02951010AD8B483D6B6
:1020E8005E0AD8B449D7000E0101DC6F000ECDECB2
:1020F8003EF0E6C104F1E7C105F1E8C106F1E9C126
:1021080007F15E5000018C6F8D6B8E6B8F6BB60E76
:10211800906FA50E916F000E926F000E936F49ECB1
:1021280039F08CC098F08DC099F08EC09AF08FC0AD
:102138009BF0010E1FEC24F098C000F199C001F14A
:102148009AC002F19BC003F19FEC19F000C119F18C
:1021580001C11AF102C11BF103C11CF151EC2FF0AE
:1021680001011951D2EC3EF002EC3FF012000101DE
:102178000351800B0C6F035103250E6F02BF0E81B4
:102188000E51D8B40DD00E29D8A408D0000E006F77
:10219800000E016F000E026F000E036F028F08D051
:1021A800000E006F000E016F000E026F000E036F2D
:1021B8000751800B0C1B075107250D6F06BF0D81BA
:1021C8000D51D8B40DD00D29D8A408D0000E046F35
:1021D800000E056F000E066F000E076F068F08D001
:1021E800000E046F000E056F000E066F000E076FDD
:1021F8000D51D8B403D00E51D8A409D0000E006FE9
:10220800000E016F000E026F000E036F12000651E0
:102218000003F3CF17F1F4CF18F117510F6F106BBC
:10222800116B126B1851136F146B156B166B0551EC
:102238000103F3CF17F1F4CF18F117510F27000E50
:1022480010231123122318511327000E14231523CA
:10225800162304510203F3CF17F1F4CF18F11751E5
:102268000F27000E10231123122318511327000ED5
:1022780014231523162311C112F110C111F10FC136
:1022880010F10F6B04510103F3CF17F1F4CF18F1DC
:1022980017510F2718511023000E1123000E122377
:1022A80005510003F3CF17F1F4CF18F117510F2799
:1022B80018511023000E1123000E122311C112F120
:1022C80010C111F10FC110F10F6B04510003F3CFCE
:1022D80017F1F4CF18F117510F2718511023000EDA
:1022E8001123000E122306510103F3CF17F1F4CF87
:1022F80018F11751132718511423000E1523000E37
:10230800162305510203F3CF17F1F4CF18F1175133
:10231800132718511423000E1523000E16230651F7
:102328000203F3CF17F1F4CF18F11751086F1851C2
:10233800096F0A6B0B6B0AC10BF109C10AF108C1DD
:1023480009F1086B08511327095114230A51152361
:102358000B51162312511327000E1423152316238D
:1023680011C112F110C111F10FC110F10F6B0D5114
:102378000EC108F1096B0827000E0923820E0825F3
:10238800176FFF0E0921186F0FD0D8901337143725
:102398001537163712BF1381D8900F3710371137FA
:1023A80012371707D8A0180715AFEFD7000E0D6F13
:1023B80012AF17D0FF0E0F15086FFF0E1015096F1B
:1023C800FF0E11150A6F7F0E12150B6F08510911B8
:1023D8000A110B11D8B403D0010E0D6F02D013B13E
:1023E800FBD70D51D8B41FD0010E1327000E1423AC
:1023F8001523162316A117D013C108F114C109F12A
:1024080015C10AF116C10BF10B350B330A33093329
:10241800083308C113F109C114F10AC115F10BC140
:1024280016F1174B182B18BF0DD0185103E11729B7
:10243800D8A008D0000E136F000E146F800E156F11
:102448007F0E20D018BF05D018510EE11705D8B05F
:102458000BD0000E136F000E146F000E156F000ED8
:10246800166F000E0C6F0FD017C10EF1FF0E131769
:10247800FF0E14177F0E1517000E16170EB1158FC5
:10248800D8900E31166F0C51161313C100F114C1F8
:1024980001F115C102F116C103F112001E50800BA3
:1024A800276E1E501E242D6E1DBE2D802D50D8B4B3
:1024B8000DD02D28D8A408D0000E1B6E000E1C6E5F
:1024C800000E1D6E000E1E6E1D8E08D0000E1B6EB7
:1024D800000E1C6E000E1D6E000E1E6E2250800B2C
:1024E800271A22502224286E21BE28802850D8B4CA
:1024F8000DD02828D8A408D0000E1F6E000E206E1C
:10250800000E216E000E226E218E08D0000E1F6E66
:10251800000E206E000E216E000E226E2850D8B4D8
:1025280003D02D50D8A409D0000E1B6E000E1C6ECF
:10253800000E1D6E000E1E6E120021501B02F3CFFE
:1025480032F0F4CF33F03250296E2A6A2B6A2C6AA3
:1025580033502E6E2F6A306A316A20501C02F3CF36
:1025680032F0F4CF33F032502926000E2A222B22E3
:102578002C2233502E26000E2F22302231221F50BB
:102588001D02F3CF32F0F4CF33F032502926000E7B
:102598002A222B222C2233502E26000E2F223022C4
:1025A80031222BC02CF02AC02BF029C02AF0296A2E
:1025B8001F501C02F3CF32F0F4CF33F032502926EB
:1025C80033502A22000E2B22000E2C2220501B02F0
:1025D800F3CF32F0F4CF33F03250292633502A2289
:1025E800000E2B22000E2C222BC02CF02AC02BF020
:1025F80029C02AF0296A1F501B02F3CF32F0F4CF0A
:1026080033F03250292633502A22000E2B22000E96
:102618002C2221501C02F3CF32F0F4CF33F0325089
:102628002E2633502F22000E3022000E3122205049
:102638001D02F3CF32F0F4CF33F032502E26335050
:102648002F22000E3022000E312221501D02F3CF1E
:1026580032F0F4CF33F03250236E3350246E256AB3
:10266800266A25C026F024C025F023C024F0236A5A
:1026780023502E2624502F22255030222650312236
:102688002C502E26000E2F22302231222BC02CF067
:102698002AC02BF029C02AF0296A28502DC023F01F
:1026A800246A2326000E2422820E2324326EFF0E73
:1026B8002420336E0FD0D8902E362F363036313650
:1026C8002CBE2E80D89029362A362B362C36320648
:1026D800D8A0330630AEEFD7000E286E2CAE17D038
:1026E800FF0E2914236EFF0E2A14246EFF0E2B14DE
:1026F800256E7F0E2C14266E2350241025102610CC
:10270800D8B403D0010E286E02D02EB0FBD72850C3
:10271800D8B41FD0010E2E26000E2F2230223122CF
:1027280031A017D02EC023F02FC024F030C025F0E0
:1027380031C026F02634263225322432233223C0F3
:102748002EF024C02FF025C030F026C031F0324AD8
:10275800332A33BE0DD0335003E13228D8A008D035
:10276800000E2E6E000E2F6E800E306E7F0E20D063
:1027780033BE05D033500EE13204D8B00BD0000E72
:102788002E6E000E2F6E000E306E000E316E000E93
:10279800276E0FD032C02DF0FF0E2E16FF0E2F160B
:1027A8007F0E3016000E31162DB0308ED8902D3099
:1027B800316E275031122EC01BF02FC01CF030C0D4
:1027C8001DF031C01EF0120000018F51800B986F70
:1027D8008F518F259A6F8EBF9A819A51D8B40DD098
:1027E8009A29D8A408D0000E8C6F000E8D6F000EA9
:1027F8008E6F000E8F6F8E8F06D0000E8C6F000EBE
:102808008D6F000E8E6F000E8F6F9351800B996F36
:1028180098519919D8A4988D93519325996F92BF7F
:1028280099819951D8B40DD09929D8A408D0000E0F
:10283800906F000E916F000E926F000E936F928F43
:1028480006D0000E906F000E916F000E926F000E72
:10285800936F9A51995DD8B022D098AD02D0800E6E
:10286800981B9AC09BF099C09AF09BC099F08CC0B5
:102878009BF090C08CF09BC090F08DC09BF091C0F5
:102888008DF09BC091F08EC09BF092C08EF09BC0E3
:1028980092F08FC09BF093C08FF09BC093F0000E16
:1028A8009B6F9A5199C094F0956B945F000E955B5D
:1028B80095BF2CD0955104E11A0E945DD8A026D06E
:1028C8008C518D118E118F11D8B402D0010E01D008
:1028D800000E9B6F000E8C6F000E8D6F000E8E6FBA
:1028E800000E8F6F99C09AF015D09BA105D0D89093
:1028F8009B3101099B6F02D0D8909B338CB19B8F81
:102908008F358F338E338D338C339A2B99519A5D53
:10291800D8A0EBD798BD28D09A51D8A409D0000EDA
:102928008C6F000E8D6F000E8E6F000E8F6F120071
:1029380090518C2791518D2392518E2393518F233F
:102948008FA171D09BA105D0D8909B3101099B6FB5
:1029580002D0D8909B338CB19B8F8F358F338E33B9
:102968008D338C339A2B5FD090518C5D91518D595A
:1029780092518E598F51800A946F9351800A9459BD
:10298800D8B025D08C51905D946F8D519159956F29
:102998008E519259966F8F519359976FFF0E9425C8
:1029A8008C6FFF0E95218D6FFF0E96218E6FFF0E97
:1029B80097218F6F800E981B9B6D9B51D8A40FD0C9
:1029C800010E8C27000E8D238E238F2308D0905163
:1029D8008C5F91518D5B92518E5B93518F5B8C51C3
:1029E8008D118E118F11D8A41CD09B51D8A419D049
:1029F800000E8C6F000E8D6F000E8E6F000E8F6FA5
:102A08001200D8908C378D378E378F379BBF8C81CB
:102A18009BA102D0D88001D0D8909B379A51D8A4D6
:102A28009A078EAFEED7000E996F9BAF0BD09BC065
:102A380094F07F0E9417D8B403D0010E996F02D08A
:102A48008CB1FBD79951D8B420D0010E8C27000E39
:102A58008D238E238F238FA118D08CC094F08DC026
:102A680095F08EC096F08FC097F0973597339633D0
:102A78009533943394C08CF095C08DF096C08EF049
:102A880097C08FF09A29D8A49A2B9A29D8B403D042
:102A98009A51D8A40DD0000E8C6F000E8D6F000EC9
:102AA8008E6F000E8F6F9A51D8A402D0000E986FC7
:102AB8009AA102D08E8F01D08E9FD8909A318F6FB5
:102AC80098BF8F8F8CC08CF08DC08DF08EC08EF02B
:102AD8008FC08FF012003750800B406E375037246C
:102AE800426E36BE42804250D8B40DD04228D8A497
:102AF80008D0000E346E000E356E000E366E000ED5
:102B0800376E368E06D0000E346E000E356E000E0F
:102B1800366E000E376E3B50800B416E40504118A8
:102B2800D8A4408C3B503B24416E3ABE4180415072
:102B3800D8B40DD04128D8A408D0000E386E000EA5
:102B4800396E000E3A6E000E3B6E3A8E06D0000EBD
:102B5800386E000E396E000E3A6E000E3B6E425013
:102B6800415CD8B022D040AC02D0800E401A42C09E
:102B780043F041C042F043C041F034C043F038C094
:102B880034F043C038F035C043F039C035F043C0A5
:102B980039F036C043F03AC036F043C03AF037C097
:102BA80043F03BC037F043C03BF0000E436E425049
:102BB80041C03CF03D6A3C5E000E3D5A3DBE2CD003
:102BC8003D5004E11A0E3C5CD8A026D03450351094
:102BD80036103710D8B402D0010E01D0000E436E63
:102BE800000E346E000E356E000E366E000E376E17
:102BF80041C042F015D043A005D0D8904330010918
:102C0800436E02D0D890433234B0438E37343732D3
:102C1800363235323432422A4150425CD8A0EBD7A2
:102C280040BC28D04250D8A409D0000E346E000E03
:102C3800356E000E366E000E376E12003850342690
:102C4800395035223A5036223B50372237A071D0BE
:102C580043A005D0D89043300109436E02D0D890E4
:102C6800433234B0438E3734373236323532343229
:102C7800422A5FD03850345C395035583A5036586B
:102C88003750800A3C6E3B50800A3C58D8B025D05B
:102C98003450385C3C6E355039583D6E36503A5891
:102CA8003E6E37503B583F6EFF0E3C24346EFF0E8D
:102CB8003D20356EFF0E3E20366EFF0E3F20376EEC
:102CC800800E401A436C4350D8A40FD0010E34260E
:102CD800000E35223622372208D03850345E39505B
:102CE800355A3A50365A3B50375A34503510361008
:102CF8003710D8A41CD04350D8A419D0000E346E75
:102D0800000E356E000E366E000E376E1200D8902B
:102D1800343635363636373643BE348043A002D093
:102D2800D88001D0D89043364250D8A4420636AE57
:102D3800EED7000E416E43AE0BD043C03CF07F0E81
:102D48003C16D8B403D0010E416E02D034B0FBD784
:102D58004150D8B420D0010E3426000E3522362238
:102D6800372237A018D034C03CF035C03DF036C00B
:102D78003EF037C03FF03F343F323E323D323C32C6
:102D88003CC034F03DC035F03EC036F03FC037F0AF
:102D98004228D8A4422A4228D8B403D04250D8A402
:102DA8000DD0000E346E000E356E000E366E000E1D
:102DB800376E4250D8A402D0000E406E42A002D016
:102DC800368E01D0369ED8904230376E40BE378E50
:102DD80034C034F035C035F036C036F037C037F07F
:102DE800120081CF60F00001616B82CF60F0616BEF
:102DF8003EEC3EF001C06AF002C06BF0000E026EBD
:102E0800000E016EF0EC3EF00101DB51120DF3CF24
:102E18004DF0F4CF4EF000016A514D266B514E2211
:102E28004DC00DF04EC00EF0000E0EBEFF0E0F6E20
:102E3800106E010EC1EC24F00DC06CF00EC06DF0E8
:102E48000FC06EF010C06FF0000E016E000E026E23
:102E5800C80E036E430E046E6CC005F06DC006F01C
:102E68006EC007F06FC008F08BEC30F0D8B018D106
:102E78002D0E1F6ECF0E206EC70E216E3F0E226ED6
:102E880078C01BF079C01CF07AC01DF07BC01EF022
:102E980052EC12F01BC038F01CC039F01DC03AF0DB
:102EA8001EC03BF0D00E1F6E7E0E206EA40E216E4B
:102EB8003C0E226E6CC01BF06DC01CF06EC01DF085
:102EC8006FC01EF052EC12F01BC034F01CC035F07D
:102ED8001DC036F01EC037F06FEC15F034C062F03C
:102EE80035C063F036C064F037C065F062C044F0A6
:102EF80063C045F064C046F065C047F0830E1F6E9E
:102F08002F0E206E240E216E3F0E226E7CC01BF009
:102F18007DC01CF07EC01DF07FC01EF052EC12F088
:102F28001BC048F01CC049F01DC04AF01EC04BF041
:102F380089EC3AF044C074F045C075F046C076F0AC
:102F480047C077F074C038F075C039F076C03AF0F1
:102F580077C03BF0000E1F6E000E206E000E216E33
:102F6800400E226E78C01BF079C01CF07AC01DF0AC
:102F78007BC01EF052EC12F01BC034F01CC035F0C0
:102F88001DC036F01EC037F06FEC15F034C066F087
:102F980035C067F036C068F037C069F066C034F0F5
:102FA80067C035F068C036F069C037F07CC038F0CB
:102FB8007DC039F07EC03AF07FC03BF06FEC15F071
:102FC80034C070F035C071F036C072F037C073F09D
:102FD80078C07CF079C07DF07AC07EF07BC07FF04D
:102FE80074C078F075C079F076C07AF077C07BF05D
:102FF800000E1F6E400E206E8F0E216EC50E226EC3
:1030080070C01BF071C01CF072C01DF073C01EF0C0
:1030180052EC12F01BC034F01CC035F01DC036F065
:103028001EC037F0280E386E6B0E396E6E0E3A6E73
:103038004E0E3B6EE4EC1AF034C0BAF235C0BBF267
:1030480036C0BCF237C0BDF270C038F071C039F07C
:1030580072C03AF073C03BF0000E346E240E356E29
:10306800740E366E490E376EE4EC1AF034C01BF05D
:1030780035C01CF036C01DF037C01EF0350E1F6E6F
:10308800A50E206EAA0E216E3B0E226E52EC12F097
:103098001BC0C6F21CC0C7F21DC0C8F21EC0C9F2D0
:1030A800000E0101DB6F12002F513011D8B412004D
:1030B8005F0EE16F4A0E00018C6F560E8D6FDCECCF
:1030C8003EF0000E01013A6F000E396F6AD039C127
:1030D8008CF03AC18DF0000E00018F6F050E8E6FD7
:1030E800A1EC3DF08C5101012F25D96E00018D51C5
:1030F80001013021DA6E460EDE18D8A450D039C14D
:103108008CF03AC18DF0000E00018F6F050E8E6FA6
:10311800A1EC3DF02FC133F130C134F18C510101E4
:10312800332700018D5101013423010E3325D96E57
:10313800000E3421DA6EDECF00F1DECF01F1DECFF2
:1031480002F1DECF03F1000E046F000E056F700E62
:10315800066F420E076F9FEC19F000C1E6F101C13E
:10316800E7F102C1E8F103C1E9F1000E006F000EBA
:10317800016F800E026F3F0E036FE6C104F1E7C1D5
:1031880005F1E8C106F1E9C107F19FEC19F000C1AA
:10319800B5F101C1B6F102C1B7F103C1B8F1394BBC
:1031A8003A2B3151395D3A51800A336F3251800AD6
:1031B8003359D8A08CD7000E3C6F000E3B6FB0D0AF
:1031C8003BC18CF03CC18DF0000E00018F6F050EE5
:1031D8008E6FA1EC3DF08C5101012F25D96E0001B5
:1031E8008D5101013021DA6E5A0EDE18D8B418D08C
:1031F8003BC18CF03CC18DF0000E00018F6F050EB5
:103208008E6FA1EC3DF08C5101012F25D96E000184
:103218008D5101013021DA6E7A0EDE18D8A47DD0E6
:103228003BC18CF03CC18DF0000E00018F6F050E84
:103238008E6FA1EC3DF02FC133F130C134F18C51C8
:103248000101332700018D5101013423010E33257B
:10325800D96E000E3421DA6EDECF19F1DECF1AF105
:10326800DECF1BF1DECF1CF1C2C21DF1C3C21EF1BD
:10327800C4C21FF1C5C220F166EC3AF019C135F19C
:103288001AC136F11BC137F11CC138F13BC18CF0B2
:103298003CC18DF0000E8F6F050E8E6FA1EC3DF0D6
:1032A8002FC133F130C134F18C51010133270001B2
:1032B8008D5101013423010E3325D96E000E3421BE
:1032C800DA6EDECFC2F2DECFC3F2DECFC4F2DECFDB
:1032D800C5F2BEC28CF0BFC28DF0C0C28EF0C1C2B2
:1032E8008FF035C190F036C191F037C192F038C1F6
:1032F80093F0E8EC13F08CC0BEF28DC0BFF28EC024
:10330800C0F28FC0C1F235C125F136C126F137C1EF
:1033180027F138C128F1C2EC0EF001013B4B3C2BE0
:1033280031513B5D3C51800A336F3251800A335929
:10333800D8B0120045D701010351800B106F03511B
:103348000325176F02BF17811751D8B40DD017295D
:10335800D8A408D0000E006F000E016F000E026F97
:10336800000E036F028F06D0000E006F000E016F73
:10337800000E026F000E036F0751800B101B0751E0
:103388000725186F06BF18811851D8B40DD0182911
:10339800D8A408D0000E046F000E056F000E066F4B
:1033A800000E076F068F06D0000E046F000E056F23
:1033B800000E066F000E076F045105110611071164
:1033C800D8A417D0000E006F000E016F000E026F18
:1033D800000E036F800E02137F0E031310510313A8
:1033E80000C100F101C101F102C102F103C103F101
:1033F80012001751D8A409D0000E006F000E016FFB
:10340800000E026F000E036F1200185117C108F169
:10341800096B085F000E095B7F0E0825116F000E0F
:103428000921126F00C10CF101C10DF102C10EF1A9
:1034380003C10FF1000E006F000E016F000E026F46
:10344800000E036F000E136F000E146F000E156F41
:10345800000E166F000E186F28D01851D8B411D06E
:10346800D8900C370D370E370F37D8900037013703
:103478000237033716BF0081D89013371437153732
:10348800163704510C5D05510D5906510E59075157
:103498000F59D8A009D0168D04510C5F05510D5B4A
:1034A80006510E5B07510F5B182B190E1865D5D7FF
:1034B8000C510D110E110F11D8B411D013810FD06A
:1034C800D890003701370237033716BF0081D890EC
:1034D80013371437153716371107D8A0120702AF5C
:1034E800EFD7000E186F16AF17D0FF0E1315086F21
:1034F800FF0E1415096FFF0E15150A6F7F0E1615AE
:103508000B6F085109110A110B11D8B403D0010E21
:10351800186F02D000B1FBD71851D8B41FD0010ED4
:103528000027000E01230223032303A117D000C1A3
:1035380008F101C109F102C10AF103C10BF10B3510
:103548000B330A330933083308C100F109C101F10B
:103558000AC102F10BC103F1114B122B12BF10D09B
:10356800125103E11129D8A00BD0000E126F116976
:10357800000E006F000E016F000E026F000E036F49
:1035880012BF05D0125111E11105D8B00ED0000EAE
:10359800126F000E116F000E006F000E016F000E0B
:1035A800026F000E036F000E106F11C117F117A103
:1035B80002D0028F01D0029FD8901731036F0ED727
:1035C8003750800B446E375037244B6E36BE4B80D5
:1035D8004B50D8B40DD04B28D8A408D0000E346E68
:1035E800000E356E000E366E000E376E368E06D023
:1035F800000E346E000E356E000E366E000E376EFD
:103608003B50800B441A3B503B244C6E3ABE4C80D6
:103618004C50D8B40DD04C28D8A408D0000E386E21
:10362800000E396E000E3A6E000E3B6E3A8E06D0D2
:10363800000E386E000E396E000E3A6E000E3B6EAC
:10364800385039103A103B10D8A417D0000E346EF9
:10365800000E356E000E366E000E376E800E361276
:103668007F0E37124450371234C034F035C035F06D
:1036780036C036F037C037F012004B50D8A409D006
:10368800000E346E000E356E000E366E000E376E6C
:1036980012004C504BC03CF03D6A3C5E000E3D5A57
:1036A8007F0E3C24456E000E3D20466E34C040F02F
:1036B80035C041F036C042F037C043F0000E346EDA
:1036C800000E356E000E366E000E376E000E476E19
:1036D800000E486E000E496E000E4A6E000E4C6ECB
:1036E80028D04C50D8B411D0D89040364136423604
:1036F8004336D89034363536363637364ABE348077
:10370800D8904736483649364A363850405C3950A2
:1037180041583A5042583B504358D8A009D04A8C97
:103728003850405E3950415A3A50425A3B50435AF9
:103738004C2A190E4C64D5D7405041104210431002
:10374800D8B411D047800FD0D890343635363636B5
:1037580037364ABE3480D8904736483649364A36D6
:103768004506D8A0460636AEEFD7000E4C6E4AAED8
:1037780017D0FF0E47143C6EFF0E48143D6EFF0E27
:1037880049143E6E7F0E4A143F6E3C503D103E1069
:103798003F10D8B403D0010E4C6E02D034B0FBD722
:1037A8004C50D8B41FD0010E3426000E35223622D4
:1037B800372237A017D034C03CF035C03DF036C0B2
:1037C8003EF037C03FF03F343F323E323D323C326C
:1037D8003CC034F03DC035F03EC036F03FC037F055
:1037E800454A462A46BE10D0465003E14528D8A08F
:1037F8000BD0000E466E4568000E346E000E356E16
:10380800000E366E000E376E46BE05D0465011E1EA
:103818004504D8B00ED0000E466E000E456E000E60
:10382800346E000E356E000E366E000E376E000ECA
:10383800446E45C04BF04BA002D0368E01D0369E68
:10384800D8904B30376E0ED72F513011D8B41200A4
:10385800010EE16F4A0E00018C6F560E8D6FDCEC85
:103868003EF0000E0101E66F000EE76FC80EE86F2C
:10387800430EE96F000E3A6F000E396F3ED039C122
:103888008CF03AC18DF0000E00018F6F050E8E6F1F
:10389800A1EC3DF08C5101012F25D96E00018D510D
:1038A80001013021DA6E460EDE18D8A424D039C1C1
:1038B8008CF03AC18DF0000E00018F6F050E8E6FEF
:1038C800A1EC3DF02FC133F130C134F18C5101012D
:1038D800332700018D5101013423010E3325D96EA0
:1038E800000E3421DA6EDECFE6F1DECFE7F1DECF6F
:1038F800E8F1DECFE9F1394B3A2B3151395D3A51D4
:10390800800A336F3251800A3359D8A0B8D7000ED5
:10391800006F000E016F800E026F3F0E036FE6C14D
:1039280004F1E7C105F1E8C106F1E9C107F19FEC2F
:1039380019F000C1B5F101C1B6F102C1B7F103C177
:10394800B8F1000E3C6F000E3B6FB0D03BC18CF05D
:103958003CC18DF0000E00018F6F050E8E6FA1EC3B
:103968003DF08C5101012F25D96E00018D510101C7
:103978003021DA6E5A0EDE18D8B418D03BC18CF05C
:103988003CC18DF0000E00018F6F050E8E6FA1EC0B
:103998003DF08C5101012F25D96E00018D51010197
:1039A8003021DA6E7A0EDE18D8A47DD03BC18CF0B7
:1039B8003CC18DF0000E00018F6F050E8E6FA1ECDB
:1039C8003DF02FC133F130C134F18C51010133275F
:1039D80000018D5101013423010E3325D96E000EEB
:1039E8003421DA6EDECF19F1DECF1AF1DECF1BF10A
:1039F800DECF1CF1C2C21DF1C3C21EF1C4C21FF149
:103A0800C5C220F166EC3AF019C135F11AC136F198
:103A18001BC137F11CC138F13BC18CF03CC18DF0A2
:103A2800000E8F6F050E8E6FA1EC3DF02FC133F1A4
:103A380030C134F18C510101332700018D5101014E
:103A48003423010E3325D96E000E3421DA6EDECF11
:103A5800C2F2DECFC3F2DECFC4F2DECFC5F2BEC201
:103A68008CF0BFC28DF0C0C28EF0C1C28FF035C1DC
:103A780090F036C191F037C192F038C193F0E8EC7C
:103A880013F08CC0BEF28DC0BFF28EC0C0F28FC0E2
:103A9800C1F235C125F136C126F137C127F138C148
:103AA80028F1C2EC0EF001013B4B3C2B31513B5D40
:103AB8003C51800A336F3251800A3359D8B0120012
:103AC80045D702C11AF103C11BF104C11CF105C19C
:103AD8001DF106C11EF107C11FF108C120F109C17E
:103AE80021F121AF02D0010E01D0000E186F196B21
:103AF80018511911D8B410D0211F201F1F1F1E1FC5
:103B08001D1F1C1F1B1F1A6D000E1B231C231D23AA
:103B18001E231F23202321230001BFAFC093BFBF53
:103B280005D0BF5109E1BE05D8B006D0000E01018D
:103B3800156F010E146F04D0BEC014F1BFC015F18B
:103B4800BCC016F1BDC017F1010118511911D8A454
:103B580003D00001C0A504D001011607D8A017079B
:103B6800000E0101236F4F0E226F000E0301856FB7
:103B780080D001012207D8A02307360E2225D96E4E
:103B8800030E2321DA6E1AC18CF01BC18DF01CC103
:103B98008EF01DC18FF01EC190F01FC191F020C1A1
:103BA80092F021C193F00A0E0001946F000E956FF8
:103BB800000E966F000E976F000E986F000E996FAB
:103BC800000E9A6F000E9B6FF3EC28F08CC00AF180
:103BD8008DC00BF18EC00CF18FC00DF190C00EF1AD
:103BE80091C00FF192C010F193C011F10AC19EF07B
:103BF8000CC19FF089EC3CF09E51300FDF6E010143
:103C08001407D8A015071607D8A017071AC18CF0F3
:103C18001BC18DF01CC18EF01DC18FF01EC190F02C
:103C28001FC191F020C192F021C193F00A0E00014A
:103C3800946F000E956F000E966F000E976F000E32
:103C4800986F000E996F000E9A6F000E9B6F7BECB9
:103C580023F08CC01AF18DC01BF18EC01CF18FC0EF
:103C68001DF190C01EF191C01FF192C020F193C0C8
:103C780021F1010123BF20D0235103E12205D8A05F
:103C88001BD01A511B111C111D111E111F112011BF
:103C98002111D8A46ED715BF05D0155102E114051E
:103CA800D8B067D717BF08D0175103E11605D8A0B9
:103CB80003D00001C0B35DD7010118511911D8A470
:103CC80003D00001C0A518D001012207D8A02307FE
:103CD80018511911D8A404D0000E136F2B0E03D05D
:103CE800000E136F2D0E126F360E2225D96E030E9D
:103CF8002321DA6E12C1DFFF00C19CF001C19DF0E3
:103D0800360E0101222500019E6F030E01012321B9
:103D180000019F6F16C1A0F017C1A1F03BEC35F070
:103D28009CC000F19DC001F1120004013205D8A425
:103D380011D030511F0B0009D8A40CD00001B38F4B
:103D4800030E04013119D8A402D0010E01D0000ECF
:103D58000001D16F04013251D8A4120030511F0B59
:103D6800020AD8A4120034510F0B0009D8B412006B
:103D780034510F0B156E030E15601200200E5C18DF
:103D8800D8A412000001B38F040134BF18D03451F5
:103D98000F0B156E1550020DAF0EF324D96E010EE0
:103DA800F420DA6EDECF1AF0DDCF1BF034510F0BA2
:103DB800156E166ABF0E1524D96E010E13D0345134
:103DC8000F0B020DF350B60FD96EDA6ADECF1AF078
:103DD800DDCF1BF034510F0B156E166AC20E152479
:103DE800D96E010E1620DA6EDF50196E19B006D0A2
:103DF800FB0E1A141A6EFF0E1B1404D0040E1A10B0
:103E08001A6E1B501B6E34BF0CD034510F0B156E3D
:103E18001550020DAF0EF324D96E010EF420DA6EA0
:103E280007D034510F0B020DF350B60FD96EDA6A72
:103E38001AC0DEFF1BC0DDFF030E3119D8A42AD03B
:103E48001AC0D9FF1BC0DAFFDFAE17D034BF09D0C4
:103E580034510F0B156E166ABF0E1524D96E010E5C
:103E680008D034510F0B156E166AC20E1524D96E80
:103E7800010E1620DA6E0101DF821AC0D9FF1BC0BD
:103E8800DAFF000EDB841AC0D9FF1BC0DAFF000E70
:103E9800DB8E1200040E1A181A6E1B501B6E1AC005
:103EA800D9FF1BC0DAFFDFAE1BD01AC0D9FF1BC079
:103EB800DAFF7F0EDF161AC0D9FF1BC0DAFF000E2B
:103EC800DB8C000E0E6E050E0D6E1AC00FF01BC0B7
:103ED80010F0000E126E020E116EC0EC38F006D013
:103EE8001AC0D9FF1BC0DAFF000EDB8C040E1A18AB
:103EF8001A6E1B501B6E19B206D01AC0D9FF1BC010
:103F0800DAFFDFAE2DD0040134BF09D034510F0BD6
:103F1800156E166ABF0E1524D96E010E08D03451DD
:103F28000F0B156E166AC20E1524D96E010E1620D7
:103F3800DA6E0101DF921AC0D9FF1BC0DAFF3B0E0F
:103F4800DF16000E0E6E050E0D6E1AC00FF01BC0A8
:103F580010F0000E126E020E116EC0EC38F006D092
:103F68001AC0D9FF1BC0DAFF3B0EDF16040134511B
:103F78000F0B156E166A6A0E1524176E0F0E162093
:103F8800186E17C0D9FF18C0DAFFFE0EDF16120030
:103F9800F6C23CF2F7C23DF2000E02013F6F000E7E
:103FA8003E6F050E0001C46112000DEC3EF00101E8
:103FB800E051D8B41200000E00018C6F020E8D6F14
:103FC800000E8F6F000E8E6F000E916F3C0E906F7B
:103FD800FDEC25F0850E0101E025D96EDA6A030EA5
:103FE800DA220A0EDE18D8B405D0000E02013F6F9F
:103FF800010E04D0000E02013F6F000E3E6F860EC8
:104008000001986F030E996F3C0E9A6F020E9B6F1A
:104018003DEC33F098C000F299C001F2C60E0101E0
:10402800916F030E926FE20E936F7F0E946FC60E20
:10403800956F030E966F00C297F101C298F119ECC3
:104048003AF0C60E0001976F030E986FC60E8C6F7C
:10405800030E8D6F03EC3DF08CC099F08DC09AF083
:104068001CEC39F0000E986F000E996F3C0E9A6F99
:10407800020E9B6F3DEC33F098C002F299C003F238
:10408800000E0201416F010E406F79D0000E000151
:10409800986F000E996F3C0E9A6F020E9B6F3DEC65
:1040A80033F040C2AAF141C2ABF1D8900101AA375E
:1040B800AB37020EAA27000EAB23000EAA25D96E35
:1040C800020EAB21DA6E000198C0DEFF99C0DDFF59
:1040D80040C2AAF141C2ABF1D8900101AA37AB376F
:1040E800020EAA27000EAB23000EAA25D96E020ED7
:1040F800AB21DA6EDE50DE10D8A405D002013E51A5
:104108003F11D8A424D0D89002014035D96E41354A
:10411800DA6E000ED926020EDA22DECF97F0DDCF56
:1041280098F0D8904035D96E4135DA6E000ED92610
:10413800020EDA22DECF8CF0DDCF8DF003EC3DF0FD
:104148008CC099F08DC09AF01CEC39F015D0C60ED1
:1041580000018C6F030E8D6FD89002014035D96E27
:104168004135DA6E000ED926020EDA22DECF8EF045
:10417800DDCF8FF09FEC39F00201404B412BD890F6
:104188004035D96E4135DA6E000ED926020EDA2294
:10419800DE50DE10D8A47AD73E513F11D8A40FD0F4
:1041A800C60E00018C6F030E8D6F000E8F6F000E10
:1041B8008E6F000E916F1E0E906FFDEC25F0000EB5
:1041C8000101E06F860E00018C6F030E8D6F000EEB
:1041D8008F6F000E8E6F000E916F200E906FFDECAA
:1041E80025F012000101DD51D8A412000001C451CC
:1041F800D8B41200460E8C6F020E8D6F000E8F6FB2
:10420800000E8E6F000E916F640E906FFDEC25F01E
:10421800280E8C6F020E8D6F000E8F6F000E8E6F42
:10422800000E916F1E0E906FFDEC25F0000E02013E
:10423800AB6F000EAA6FD890AA35D96EAB35DA6E7F
:10424800000ED926020EDA22000EDE6E000EDD6E9A
:10425800AA4BAB2BABBFEFD7AB5104E1140EAA5D51
:10426800D8A0E9D7280E0001976F020E986F41EC8D
:104278003AF0000E9C6F020E9D6F280E9E6F020E84
:104288009F6FF5EC36F00101AA6FAA510201AC6FDD
:10429800AD6B460E01013A6F020E3B6F000E3C6F8C
:1042A800020E3D6FACC23EF177EC2EF0A60E916F78
:1042B800030E926FDD0E936F7F0E946F4BC295F1D4
:1042C800966B19EC3AF0470E02014619D8B42FD074
:1042D8004DD04B0E2F6F020E306FACC231F1ADC214
:1042E80032F128EC1CF042D04B0E0001926F020E06
:1042F800936FACC294F0ADC295F099EC33F036D020
:104308004B0E2F6F020E306FACC231F1ADC232F1DD
:1043180058EC18F02BD04B0E0001986F020E996FD5
:10432800ACC29AF0ADC29BF05AEC31F01FD047C234
:1043380019F148C21AF149C21BF14AC21CF151ECE9
:104348002FF001011A51000AD8A410D01951000AFF
:10435800D8B4BFD7010AD8B4BCD7340AD8B4C4D7A4
:104368006A0AD8B4CDD73E0AD8B4D5D74D0E0201C3
:104378004619D8A4120024D0000E00018E6F000E3A
:104388008F6F000E916F000E906FADEC3EF0120033
:10439800000E00018E6F000E8F6F000E916F000EE1
:1043A800906FA6EC3EF01200000E00018C6F000E1C
:1043B8008D6F000E8F6F000E8E6FF9EC3EF01200BD
:1043C80047C219F148C21AF149C21BF14AC21CF18D
:1043D80051EC2FF001011A51000AD8A4120019510A
:1043E800030AD8B4C9D7070AD8B4D2D7010AD8A4BF
:1043F8001200DAD7AEC229F1AFC22AF1B0C22BF14E
:10440800B1C22CF119C129F11AC12AF11BC12BF132
:104418001CC12CF1810E1D6FFF0E1E6F29C11FF1EB
:104428002AC120F12BC121F12CC122F1180E05D08F
:10443800D8902233213320331F33E82EF9D71F5168
:104448001D25276F000E1E21286F28BF0FD0285169
:1044580004E1170E275DD8A009D019C119F11AC1B6
:104468001AF11BC11BF11CC11CF1120028BF5CD042
:1044780027C11DF1FF0E1E6FFF0E1F6F7F0E206FED
:10448800000E216F1D6701D007D02135213320335D
:104498001F331E331D2FF6D71EC123F11FC124F170
:1044A80020C125F121C126F10101235129151D6FD4
:1044B80024512A151E6F25512B151F6F26512C15B7
:1044C800206F1D511E111F112011D8B4C6D729C144
:1044D8001DF12AC11EF12BC11FF12CC120F1200EA4
:1044E80005D0D89020331F331E331D33E82EF9D75B
:1044F8001D51D8B408D02351292724512A232551E6
:104508002B2326512C23231D1D6F241D1E6F251DB3
:104518001F6F261D206F1D5129171E512A171F5165
:104528002B1720512C1732D029C11DF12AC11EF199
:104538002BC11FF12CC120F1200E05D0D8902033BB
:104548001F331E331D33E82EF9D71D6708D0000E20
:10455800296F000E2A6F000E2B6F000E16D0D89010
:1045680029351D6F2A351E6F2B351F6F2C35206F8F
:104578001D511E111F112011D8B408D0000E296F2B
:10458800000E2A6F800E2B6FBF0E2C6F29C119F1F8
:104598002AC11AF12BC11BF12CC11CF1120022EE09
:1045A800EFF011EE00F0060EDBCFE3FFE806FCE2C9
:1045B80097C00BF198C00CF10B510C11D8A404D082
:1045C800000E0B6F010E0C6F0BC18CF00CC18DF03F
:1045D80003EC3DF08CC00FF18DC010F1BEC00DF1A1
:1045E800BFC00EF101010EBF11D00F510D5D0E516C
:1045F800800A0001996F01011051800A0001995940
:10460800D8B004D00DC10FF10EC110F10FC10DF1DA
:1046180010C10EF1BCC009F1BDC00AF10001C0A172
:104628000ED01BD0000E8D6F200E8C6F95C08EF0B3
:1046380096C08FF09DEC34F001010F4B102B010157
:1046480009510F5D1051800A0001996F01010A514B
:10465800800A00019959D8A0E5D7000E0101086F1A
:10466800000E076F14D00BC1D9FF0CC1DAFFDF5061
:10467800996F99518C6F8D6B95C08EF096C08FF0A5
:104688009DEC34F001010B4B0C2B074B082B0D5103
:10469800075D0851800A0001996F01010E51800AD7
:1046A80000019959D8A0DFD7C0B10ED01BD0000E99
:1046B8008D6F200E8C6F95C08EF096C08FF09DEC9C
:1046C80034F001010F4B102B010109510F5D1051FE
:1046D800800A0001996F01010A51800A0001995965
:1046E800D8A0E5D70FC195F010C196F01200000EC2
:1046F8009D6F9BAF12D09B1F9A1F991F981F971FE2
:10470800961F951F946D000E952396239723982343
:1047180099239A239B23010E9D6F93AF12D0931F69
:10472800921F911F901F8F1F8E1F8D1F8C6D000E63
:104738008D238E238F239023912392239323010E7D
:104748009D1B20EE9EF0070EDE6AE806FDE29451FE
:10475800951196119711981199119A119B11D8B426
:1047680046D0010E9C6F0AD0D8909437953796376B
:104778009737983799379A379B379C2B9BAFF4D745
:10478800D8909E379F37A037A137A237A337A437D1
:10479800A53794518C5D95518D5996518E599751E5
:1047A8008F5998519059995191599A5192599B51B1
:1047B8009359D8A011D094518C5F95518D5B965127
:1047C8008E5B97518F5B9851905B9951915B9A5191
:1047D800925B9B51935B9E81D8909B339A3399331C
:1047E800983397339633953394339C2FC9D79D517B
:1047F800D8B410D0A51FA41FA31FA21FA11FA01FBC
:104808009F1F9E6D000E9F23A023A123A223A323F5
:10481800A423A5239EC08CF09FC08DF0A0C08EF06D
:10482800A1C08FF0A2C090F0A3C091F0A4C092F0F4
:10483800A5C093F012000001A06F0001A051D8A4F8
:104848009BAF1AD098C09CF099C09DF09AC09EF07A
:104858009BC09FF09C1F9D1F9E1F9F1F9C2B000E9F
:104868009D239E239F239CC0A2F09DC0A3F09EC0C1
:10487800A4F09FC0A5F008D098C0A2F099C0A3F0FA
:104888009AC0A4F09BC0A5F0985199119A119B1158
:10489800D8A409D0000E986F000E996F000E9A6F79
:1048A800000E9B6F1200960EA16F06D0A12BD89018
:1048B800A533A433A333A233000EA2159C6F000EB8
:1048C800A3159D6F000EA4159E6FFE0EA5159F6F74
:1048D8009C519D119E119F11D8B40DD0E7D7A12BE3
:1048E800010EA227000EA323A423A523D890A53345
:1048F800A433A333A233000EA2159C6F000EA31598
:104908009D6F000EA4159E6FFF0EA5159F6F9C51FD
:104918009D119E119F11D8B407D0E1D7A107D89057
:10492800A237A337A437A537A4BF03D0020EA161CD
:10493800F5D7A1A1A49FD890A133A1C09CF09D6BED
:104948009E6B9F6B9CC09FF09E6B9D6B9C6B9C515C
:10495800A2139D51A3139E51A4139F51A513A051B7
:10496800D8A49BAF01D0A58FA2C098F0A3C099F09E
:10497800A4C09AF0A5C09BF01200156E1550D8A4DB
:1049880010AE1AD00DC011F00EC012F00FC013F007
:1049980010C014F0111E121E131E141E112A000E30
:1049A80012221322142211C017F012C018F013C0DB
:1049B80019F014C01AF008D00DC017F00EC018F086
:1049C8000FC019F010C01AF00D500E100F10101073
:1049D800D8A409D0000E0D6E000E0E6E000E0F6EDC
:1049E800000E106E1200960E166E06D0162AD8907B
:1049F8001A32193218321732000E1714116E000EBF
:104A08001814126E000E1914136EFE0E1A14146E7A
:104A18001150121013101410D8B40DD0E7D7162A5D
:104A2800010E1726000E182219221A22D8901A32BF
:104A3800193218321732000E1714116E000E18149E
:104A4800126E000E1914136EFF0E1A14146E115004
:104A5800121013101410D8B407D0E1D71606D89046
:104A68001736183619361A3619BE03D0020E1660D4
:104A7800F5D716A0199ED890163216C011F0126AF2
:104A8800136A146A11C014F0136A126A116A115079
:104A98001712125018121350191214501A121550D6
:104AA800D8A410AE01D01A8E17C00DF018C00EF0A1
:104AB80019C00FF01AC010F01200800E040130194E
:104AC800D8A41200C00E0001B36F80D0A80E000158
:104AD800B06F7F0EB16F000EB56F120EB46F12007B
:104AE8003251D8A440D03251020D190EF324F66E7B
:104AF8007F0EF420F76E0900F5CFB0F00A00F5CF6D
:104B0800B1F0020E0001B025016E000EB121026E57
:104B180001C0F6FF02C0F7FFF86A070EF76403D07A
:104B28000800F55005D0F6CFE1FFF7CFE2FFE750D8
:104B38000001B46F030EB025016E000EB121026EA4
:104B480001C0F6FF02C0F7FFF86A070EF76403D04A
:104B58000800F55005D0F6CFE1FFF7CFE2FFE750A8
:104B68000001B56F1200000E0001B36F1200030EB2
:104B7800326124D03251020D130EF324F66E7F0EEB
:104B8800F420F76E0900F5CFB0F00A00F5CFB1F0C8
:104B9800B0C0F6FFB1C0F7FFF86A070EF76403D09C
:104BA8000800F55005D0F6CFE1FFF7CFE2FFE75058
:104BB800016E01500001B46FB56B1200000E0001C8
:104BC800B36F1200000E0001B36F120004013351DD
:104BD800016E026A0250000AD8A4F4D70150010AF3
:104BE800D8B474D7030AD8B47BD7010AD8B4BFD7CE
:104BF800E9D78CC096F08DC097F090519111D8B438
:104C0800120096C0D9FF97C0DAFF8EC0DFFF90511F
:104C18009625926F91519721936FFF0E9225D96E29
:104C2800FF0E9321DA6E8EC0DFFF915104E1030E6F
:104C3800905DD8A0120020EE01F09651D926975128
:104C4800DA228EC0DFFF20EE02F09651D926975166
:104C5800DA228EC0DFFF90519625926F91519721ED
:104C6800936FFE0E9225D96EFF0E9321DA6E8EC0D9
:104C7800DFFF90519625926F91519721936FFD0E0A
:104C88009225D96EFF0E9321DA6E8EC0DFFF915107
:104C980004E1070E905DD8A0120020EE03F09651B3
:104CA800D9269751DA228EC0DFFF90519625926F50
:104CB80091519721936FFC0E9225D96EFF0E932187
:104CC800DA6E8EC0DFFF915104E1090E905DD8A025
:104CD800120096C092F097C093F0921F931F924BC8
:104CE800932B030E9215946F956B945196279551BB
:104CF80097239451905F9551915BFC0E9017FF0E8E
:104D080091170BD096C0D9FF97C0DAFF8EC0DFFF8E
:104D18009007D8A09107964B972B90519111D8B432
:104D28001200F0D7A394000E676E000E656E000E99
:104D38006A6E6B0E016E0F0E026E000E046E000E90
:104D4800036E000E066E020E056E2FEC27F0160E8F
:104D5800626E9F0E666E7B0E646E000E0D6E0D50B9
:104D6800040D000EF324D96E040EF420DA6EDE6A08
:104D7800DE6ADE6ADD6A0D2A0B0E0D64F0D7608CE0
:104D8800000E636E6098609C6596000E0001B36F1C
:104D9800000EAB6F000EAD6F000EAC6F65B6F4D7AA
:104DA800010ECB6F010ECA6F000EC96F000E010114
:104DB800E56F000E0001D06F000E0D6E0D50020D54
:104DC800F350B60FD96EDA6A000EDE6E000EDD6E95
:104DD8000D50020DAF0EF324D96E010EF420DA6ED9
:104DE800000EDE6E000EDD6EC20E0D24D96EDA6A7C
:104DF800010EDA22000EDF6EBF0E0D24D96EDA6ABC
:104E0800010EDA22000EDF6E0D2A020E0D64D6D7CF
:104E1800080E0001B66F040EB76F160E6A6E040E08
:104E28000401036F300E026F080E016F040E006F4D
:104E3800008F000E0001D36F000E0201CE6F000E2E
:104E4800CF6F000ED06F000ED16F000E0101E46F1E
:104E5800000E5C6E120001C00BF002C00CF0055091
:104E68000610D8B412000BC0D9FF0CC0DAFF03C07B
:104E7800DFFF05500B24076E06500C20086EFF0E4E
:104E88000724D96EFF0E0820DA6E03C0DFFF065034
:104E980004E1030E055CD8A0120020EE01F00B50CF
:104EA800D9260C50DA2203C0DFFF20EE02F00B50A7
:104EB800D9260C50DA2203C0DFFF05500B24076EF9
:104EC80006500C20086EFE0E0724D96EFF0E08202F
:104ED800DA6E03C0DFFF05500B24076E06500C2066
:104EE800086EFD0E0724D96EFF0E0820DA6E03C087
:104EF800DFFF065004E1070E055CD8A0120020EE83
:104F080003F00B50D9260C50DA2203C0DFFF0550FE
:104F18000B24076E06500C20086EFC0E0724D96E71
:104F2800FF0E0820DA6E03C0DFFF065004E1090E09
:104F3800055CD8A012000BC007F00CC008F0071ED3
:104F4800081E074A082A030E0714096E0A6A095040
:104F58000B260A500C220950055E0A50065AFC0E10
:104F68000516FF0E06160BD00BC0D9FF0CC0DAFFD2
:104F780003C0DFFF0506D8A006060B4A0C2A055019
:104F88000610D8B41200F0D7A394000E676E000E76
:104F9800656E000E6A6E6B0E8C6F0F0E8D6F000EB5
:104FA8008F6F000E8E6F000E916F020E906FFDECEA
:104FB80025F0160E626E9F0E666E7B0E646E000EF6
:104FC800986F9851040D000EF324D96E040EF42046
:104FD800DA6EDE6ADE6ADE6ADD6A982B0B0E986589
:104FE800F0D7608C000E636E6098609C6596000E2A
:104FF800B36F000EAB6F000EAD6F000EAC6F65B6F1
:10500800F5D7010ECB6F010ECA6F000EC96F000EE7
:105018000101E56F000E0001D06F000E986F9851E6
:10502800020DF350B60FD96EDA6A000EDE6E000E6E
:10503800DD6E9851020DAF0EF324D96E010EF420E7
:10504800DA6E000EDE6E000EDD6EC20E9825D96E89
:10505800DA6A010EDA22000EDF6EBF0E9825D96ECD
:10506800DA6A010EDA22000EDF6E982B020E9865BE
:10507800D6D7080EB66F040EB76F160E6A6E040EFA
:105088000401036F300E026F080E016F040E006FEB
:10509800008F000E0001D36F000E0201CE6F000ECC
:1050A800CF6F000ED06F000ED16F000E0101E46FBC
:1050B800000E5C6E12005C04D8B460BA06D0000E14
:1050C800656E64806488020E5C6E65B464A403D067
:1050D80065943CEC3CF060A202D0A494120065B048
:1050E80064A006D096EC26F0A384040E5C6E65904E
:1050F80065B864A802D0D3EC3CF065AC1BD064ACB6
:105108000ED0000E0E6E730E0D6E000E0F6E000E9A
:10511800106E000E126E010E116EC0EC38F0659C18
:10512800D8EC3DF00001CD51D8A4CD07CD51D8B46D
:10513800BFEC31F065BA64AA02D0F0EC3AF065B27F
:1051480064A20FD07F0E0E6E0D68000E0F6E000E5B
:10515800106E000E126E010E116EC0EC38F0000ECB
:10516800676E040E5C6002D0A494120064A635D069
:10517800000E1F6E65A631D061CF5DF05D30E8325C
:10518800E8320F0B0001CF6F65965DB406D0BF0EF5
:10519800CF25D96EDA6A010E05D0C20ECF25D96E99
:1051A800DA6A010EDA220101DF700001CF51D8A4BA
:1051B80003D086EC35F00DD0000E0E6E720E0D6E1B
:1051C8005D0E0F6E106A000E126E000E116EC0ECAE
:1051D80038F01F2A030E1F64CDD7A4941200000EC6
:1051E8009D6F93AF12D0931F921F911F901F8F1F17
:1051F8008E1F8D1F8C6D000E8D238E238F23902381
:10520800912392239323010E9D6F9BAF10D09B1F78
:105218009A1F991F981F971F961F951F946D000E30
:10522800952396239723982399239A239B23945174
:10523800951196119711981199119A119B11D8B43B
:105248003CD0010E9C6F0AD0D8909437953796378A
:105258009737983799379A379B379C2B9BAFF4D75A
:1052680094518C5D95518D5996518E5997518F59FE
:1052780098519059995191599A5192599B519359D2
:10528800D8A010D094518C5F95518D5B96518E5B50
:1052980097518F5B9851905B9951915B9A51925BB2
:1052A8009B51935BD8909B339A33993398339733B8
:1052B8009633953394339C2FD3D79D51D8B410D0BF
:1052C800931F921F911F901F8F1F8E1F8D1F8C6D14
:1052D800000E8D238E238F239023912392239323D3
:1052E8008CC08CF08DC08DF08EC08EF08FC08FF08A
:1052F80090C090F091C091F092C092F093C093F05A
:105308001200A3940101D351D411D8B408D0D3C149
:10531800D9FFD4C1DAFFDFAE02D0A3841200030E96
:105328000001C719D8A402D0000EC76FC751D8A46E
:1053380002D0A3841200020EC719D8A412D0010EFD
:105348008C6F000E8D6F000E8E6F000E8F6F020E29
:10535800A8EC2BF08CC0D3F18DC0D4F1030EC76F2D
:105368005ED0C705D8A45BD0400EC66503D0400EFA
:10537800966F02D0C6C096F09651C65DC66F000EF5
:105388000101B96F050EBA6F96C095F0E351D8B414
:1053980012D027D0BCC1D9FFBDC1DAFFB9C1E1FF26
:1053A800BAC1E2FFDFCFE7FF0101B94BBA2BBC4B13
:1053B800BD2B0001950700019551D8B416D0EAD746
:1053C800BCC1D9FFBDC1DAFFB9C1E1FFBAC1E2FF73
:1053D800DFCFE7FF0101B94BBA2BBC4BBD2B000156
:1053E800950700019551D8A4EBD7C651D8A408D089
:1053F800400E9619D8A402D0020E01D0030EC76F32
:10540800010E8C6F000E8D6F050E8E6F96C08FF09B
:10541800020EA8EC2BF08CC0D3F18DC0D4F1A3847C
:105428001200000E9C6F000E9B6F000E9A6F000E0C
:10543800996F02D0934B942B93C0F6FF94C0F7FF5B
:105448000800F550200AD8B4F5D7F70E956FFF0E6F
:10545800966F93C0F6FF94C0F7FF0800F550976F5A
:10546800986B955197279651982398510CE1050E02
:10547800975DD8B008D0DED7000E9A6F010E996FED
:10548800934B942B2ED093C0F6FF94C0F7FF0800DF
:10549800F550956F966B9651000AD8A422D0955175
:1054A8002B0AD8B4EDD7060AD8B4E6D71AD09BC0D1
:1054B8008CF09CC08DF0000E8F6F0A0E8E6FA1ECE1
:1054C8003DF093C0F6FF94C0F7FF0800F5508C5FDD
:1054D800000E8D5B300E8C259B6F000E8D219C6F0E
:1054E800CFD7D00E956FFF0E966F93C0F6FF94C07E
:1054F800F7FF0800F550976F986B955197279651CD
:105508009823985104E10A0E975DD8A0D0D79951F5
:105518009A11D8A40DD09BC095F09CC096F0951F09
:10552800961F954B962B95C093F096C094F0120059
:105538009BC093F09CC094F0120020EE01F0C25181
:10554800D926C351DA22DF50026E0250AC5D000E3C
:10555800AD59D8A0ACC002F00250AC5F000EAD5BF4
:10556800000E016E0FD0380E0124D96EDA6A040ECF
:10557800DA22A8C0E1FFA9C0E2FFDFCFE7FFA84B0E
:10558800A92B012A0250015CD8A0EDD7AC51AD116E
:10559800D8B432D020EE01F05950D9265A50DA2228
:1055A800080EDF6E20EE02F05950D9265A50DA2242
:1055B800380EDE6E040EDD6EC2C0D9FFC3C0DAFF3E
:1055C800DFBC0DD059C0D9FF5AC0DAFF480EDF6ED4
:1055D80059C0D9FF5AC0DAFF000EDB8E120059C03D
:1055E800D9FF5AC0DAFF080EDF6E59C0D9FF5AC07A
:1055F800DAFF000EDB8E120020EE01F05950D9269A
:105608005A50DA22080EDF6E20EE02F05950D926E1
:105618005A50DA22300EDE6E040EDD6E59C0D9FF04
:105628005AC0DAFF040EDF6E59C0D9FF5AC0DAFF3C
:10563800000EDB8EAB9FCC51D8A41200BFEC31F02A
:1056480012008AAC02D0010E01D0000EFF0A576E7C
:10565800573A574657468A505718BF0B57188A6EFD
:105668004CD0E6C138F0E7C139F0E8C13AF0E9C1F9
:105678003BF0C6C21FF0C7C220F0C8C221F0C9C2A1
:1056880022F05E50016E026A036A046AB60E056E65
:10569800A50E066E000E076E000E086E74EC39F04B
:1056A80001C00DF002C00EF003C00FF004C010F0EE
:1056B800010EC1EC24F00DC01BF00EC01CF00FC091
:1056C8001DF010C01EF052EC12F01BC034F01CC0CC
:1056D80035F01DC036F01EC037F0E4EC1AF034C0C7
:1056E8004DF035C04EF036C04FF037C050F0E0EC0A
:1056F80032F04D50F5EC3EF00ED0E151576E586A3D
:105708005850000AD8A407D05750010AD8B403D07B
:105718005E0AD8B4A6D70101DC51D8A403D0010E83
:10572800DC6F1200FF0EC725C76FFF0EC821C86FB8
:10573800000EDC6FC751C811D8A41200000EDD6F2F
:105748008A800CEC3FF01200926F00018C51D8B4A3
:1057580007D09251020DF350B60FD96EDA6A08D00D
:105768009251020DAF0EF324D96E010EF420DA6EB9
:10577800DECF93F0DDCF94F093519411D8A405D0E7
:10578800000E8C6F000E8D6F120020EE02F0935108
:10579800D9269451DA228DC0DEFF8EC0DDFF20EEBF
:1057A80001F09351D9269451DA228FC0DFFF93C0BC
:1057B800D9FF94C0DAFF400EDF1693C0D9FF94C01A
:1057C800DAFF000EDB8693C0D9FF94C0DAFF000E23
:1057D800DB8E8C51D8B415D09251020DF350B60F10
:1057E800D96EDA6ADECF90F0DDCF91F0040E901B0F
:1057F800000E911B9251020DF350B60FD96EDA6A62
:1058080018D09251020DAF0EF324D96E010EF42078
:10581800DA6EDECF90F0DDCF91F0040E901B000E13
:10582800911B9251020DAF0EF324D96E010EF42094
:10583800DA6E90C0DEFF91C0DDFF93C08CF094C09B
:105848008DF01200076E0150D8B407D00750020D32
:10585800F350B60FD96EDA6A08D00750020DAF0EB2
:10586800F324D96E010EF420DA6EDECF08F0DDCF16
:1058780009F008500910D8A405D0000E016E000EDA
:10588800026E120020EE02F00850D9260950DA22E2
:1058980002C0DEFF03C0DDFF20EE01F00850D9266C
:1058A8000950DA2204C0DFFF08C0D9FF09C0DAFFB7
:1058B800400EDF1608C0D9FF09C0DAFF000EDB86EC
:1058C80008C0D9FF09C0DAFF000EDB8E0150D8B43A
:1058D80015D00750020DF350B60FD96EDA6ADECF35
:1058E80005F0DDCF06F0040E051A000E061A075063
:1058F800020DF350B60FD96EDA6A18D00750020DB0
:10590800AF0EF324D96E010EF420DA6EDECF05F067
:10591800DDCF06F0040E051A000E061A0750020D18
:10592800AF0EF324D96E010EF420DA6E05C0DEFF47
:1059380006C0DDFF08C001F009C002F012001AEC31
:105948003DF0EA0E8C6F2D0E8D6FE6EC3EF0E20E08
:105958008C6F760E8D6FE1EC3EF0F28EF28C04ECDB
:105968003FF006EC3FF008EC3FF031EC3DF0819061
:105978008188818A8A828A848A86000E0101E06F82
:105988008A808A880FEC3FF0130E69EC3EF0CCEC6D
:105998001FF0100E0101AE6F940EE82EFED7AE2F49
:1059A800FCD700F0F6EC20F051EC3BF04DEC3EF06B
:1059B800A60E0101916F030E926FBE0E936F7F0EBC
:1059C800946FC6C295F1C7C296F1C8C297F1C9C211
:1059D80098F1C5C099F19A6BD6C29BF1D7C29CF1D8
:1059E80019EC3AF0A60E00018F6F030E906F000EAF
:1059F800926F1E0E916FB4EC3DF085EC29F0A60E67
:105A080000018C6F030E8D6F000E8F6F000E8E6F6E
:105A1800000E916F200E906FFDEC25F0100E010125
:105A2800AE6F940EE82EFED7AE2FFCD700F0AFD79E
:105A38008CC093F08DC094F08EC095F08FC096F016
:105A48009007D8A09107902910E19129D8A40DD0EA
:105A5800000E8D6F000E8C6F12000001934B942B7B
:105A6800954B962B9007D8A0910793C0F6FF94C04A
:105A7800F7FFF86A070EF76403D00800F55005D061
:105A8800F6CFE1FFF7CFE2FFE7500009D8B428D0FE
:105A980095C0F6FF96C0F7FF0800F5500009D8B486
:105AA8001FD0000190519111D8B41AD095C0F6FFBB
:105AB80096C0F7FF0800F5CF92F093C0F6FF94C0A8
:105AC800F7FFF86A070EF76403D00800F55005D011
:105AD800F6CFE1FFF7CFE2FFE7509219D8B4BDD770
